:0400000030EF07F0E6
:06000800ECEF07F012000E
:0E0010009486948850EF07F0F1EF07F012008D
:10002000D76BD86BD85101082BE3D6C003F0D5C0ED
:10003000E9FFD6C0EAFFEF50400810E2D751100D9B
:10004000F3CFD9F0D6C003F0D5C0E9FFD6C0EAFFA0
:10005000EF50D925BF0F0A0FD76F0CD0D751100D15
:10006000F3CFD9F0D5C0E9FFD6C0EAFFEF50D925CC
:10007000D00FD76FD851D82BD52BD8B4D62BD2D7F9
:10008000D7C001F0120046C103F0010145C1E9FFEC
:1000900046C1EAFFEF5205E143C101F044C102F05D
:1000A0004AD044C103F043C1E9FF44C1EAFFEF5223
:1000B0003FE044C148F143C147F146C14AF145C15F
:1000C00049F148C103F047C1E9FF48C1EAFFEF52D7
:1000D0001EE04AC103F049C1E9FF4AC1EAFFEF52FD
:1000E00016E047C1E9FF48C1EAFFEFCF4BF14AC133
:1000F00003F049C1E9FF4AC1EAFFEF504B5D07E158
:10010000472BD8B4482B492BD8B44A2BDAD74AC14D
:1001100003F049C1E9FF4AC1EAFFEF5205E143C1DB
:1001200001F044C102F007D0432BD8B4442BB9D717
:10013000000E016E026E00011200DA6BD96B010134
:100140004191426B0001D85309E1D75307E1DA51DD
:10015000D65D4FE303E1D551D95D4BE2A4AA3ED071
:1001600001014251422B036ADD0FE96E000E0320AC
:10017000EA6EEACF46F1E9CF45F10001A7DA46C1C0
:10018000EAFF45C1E9FF01C0EFFF040000D0000015
:10019000036A01014251DD0FE96E000E0320EA6E91
:1001A000EF6A040000D00000446BDD0E436FD4C042
:1001B00046F1D3C045F1000166DF02C0DCF001C0AA
:1001C000DBF0DB51DC110AE0040000D0000001018B
:1001D0004181040000D0000000010BD0D92BD8B41D
:1001E000DA2B0400050E006E002EFED700D00000B2
:1001F000AAD7050E0101436F000182D8000E01014C
:1002000041B1010E016E00011200D66BD56BD46BAB
:10021000D36BD76BD151D21105E1006A016A026A32
:10022000036A36D0036AD751D125E96ED251032033
:10023000EA6EEFCFD8F0D85323E0D8512F0820E250
:10024000D85139081DE3D6C0DCF0D5C0DBF0D4C0EE
:10025000DAF0D3C0D9F0E06BDF6BDE6B0A0EDD6F36
:1002600040D2300ED85D0024D36F000E0120D46F31
:10027000000E0220D56F000E0320D66FD72BD2D7E9
:10028000D3C000F0D4C001F0D5C002F0D6C003F056
:10029000120041542B51464F50454E3D226D61692D
:1002A0006E25642E747874220D0A000041542B517F
:1002B00046524541443D313032372C3630300D0AFC
:1002C000000041542B51465345454B3D31303237A8
:1002D0002C256C642C320D0A000041542B514652DF
:1002E0004541443D313032372C34350D0A004154FC
:1002F0002B5146434C4F53453D313032370D0A00A8
:10030000010EEA6E430EE96EEF5011E0050E016E2C
:10031000BF0E006E0400002EFDD7012EF9D72E0E61
:10032000006E002EFED700000400EF2EEFD7120063
:10033000080E016E040E006E002EFED78B9694966A
:10034000040E006E002EFED7DD378B98D8B094884F
:10035000D8A09498948682A6FED7012EEBD7040EDF
:10036000006E002EFED78B96949600009488040EA3
:10037000006E002EFED7040E006E002EFED794866F
:1003800082A6FED7016A040E006E002EFED782B848
:1003900001808B9694968B9894981200080E516E5B
:1003A00000C052F09488040E006E002EFED7948692
:1003B00082A6FED782B8D88082A8D8900136040ED3
:1003C000006E002EFED794968B96512EEBD7948814
:1003D000040E006E002EFED78B985250D8A494982D
:1003E0000000948682A6FED7040E006E002EFED773
:1003F0008B969496040E006E002EFED78B989498E0
:100400004BEF02F04D5203E14C50000803E2A80EFE
:100410004F6E02D0A00E4F6E9488040E006E002E18
:10042000FED79486040E006E002EFED782A6FED75D
:100430008B989498040E006E002EFED78B9694969F
:100440004FC0DDF075DF4BC051F04CC052F04DC0D5
:1004500053F0546A4BC0DDF06BDF4AC0DDF068DF5B
:100460009488040E006E002EFED79486040E006E53
:10047000002EFED782A6FED78B989498040E006EAD
:10048000002EFED78B969496010E4F24506EDD6F92
:100490004FDF006A83D701C04EF094980000948625
:1004A00082A6FED7040E006E002EFED700D00000FC
:1004B0009488040E006E002EFED74EC001F012008C
:1004C000D45303E1D351000803E2A80ED76F02D042
:1004D000A00ED76F9488040E006E002EFED794866F
:1004E000040E006E002EFED78B989498040E006EBA
:1004F000002EFED78B969496D7C0DDF019DFD2C0C0
:10050000D9F0D3C0DAF0D4C0DBF0DC6BD2C0DDF0C0
:100510000FDFD1C0DDF00CDFD5C0DDF009DF94982E
:100520000000948682A6FED7040E006E002EFED731
:1005300000D000009488040E006E002EFED7948830
:10054000040E006E002EFED79486040E006E002E60
:10055000FED78B989498040E006E002EFED78B96D3
:100560009496D7C0DDF0E4DE0150D69101B0D6817B
:10057000D6A11CD09488040E006E002EFED794865F
:10058000040E006E002EFED782A6FED78B9894989C
:10059000040E006E002EFED78B969496D7C0DDF029
:1005A000C7DE0150D69101B0D681E2D71200090012
:1005B000F6CFD2F0F7CFD3F0F550A4A8FED7736EE4
:1005C000D2C0F6FFD3C0F7FFD12FF1D71200D85118
:1005D000016AD75D03E2D7C000F00CD0006A080EB4
:1005E000D96FD7370036D851005CD8B0006E0136CD
:1005F000D92FF7D71200200ED2A9300ED36FD1C059
:1006000000F0D1AF08D0001E002A00C0D1F02D0E9E
:10061000D36FD28FD2810150D1C0D7F0640ED86F82
:10062000D6DF00C0D1F0300E0124D46FD1C0D7F096
:100630000A0ED86FCCDF300E0024D66F300E0124A6
:10064000D56FD3C000F0300ED45D04E0D283D2BFAA
:10065000D28512D0D3C0D4F0200ED36F300ED55D2A
:1006600004E0D281D2BFD28307D0D8A4D28104E1E2
:10067000D4C0D5F0200ED46FD2B505D0D2B307D0F8
:10068000D2B109D00CD0D351A4A8FED7736ED451E7
:10069000A4A8FED7736ED551A4A8FED7736ED65109
:1006A000A4A8FED7736EDFEF04F00900F5520DE049
:1006B000F6CFD1F0F7CFD2F0F550A4A8FED7736EE5
:1006C000D1C0F6FFD2C0F7FFF0D71200A4AAFED720
:1006D00071CF04F074CF01F004A202D07198718838
:1006E0001200E16BE26B010EE36FDA6AD96AE66B26
:1006F000D90EE56FEA6ADD0EE96EE6C0E2FFE5C0FD
:10070000E1FFE3C0E4F0D890E550EE02F350E123BE
:10071000F450E223E42FF7D7E1C0DEFFE2C0E1F0BE
:10072000E26BD8B0E22BE52BD8B4E62BE32BE351F8
:100730000508E0E131EF01F0D8B203D0EA6AE50E36
:10074000E96E006A016A026A036AE56BE66BE76BB1
:10075000E86BE451E311E211E1112CE0200EE96FA6
:10076000D890DD37DE37DF37E037E537E637E73774
:10077000E837E451E85D08E1E351E75D05E1E25166
:10078000E65D02E1E151E55D0FE3E151E55FE25134
:10079000D8A0E23DE65FE351D8A0E33DE75FE45136
:1007A000D8A0E43DE85FD880003601360236033633
:1007B000E92FD6D7E5C0EFFFE6C0ECFFE7C0ECFFBE
:1007C000E8C0ECFF1200E950D56FD4AF0DD0D507CB
:1007D000D58BD11FD21FD31FD41FD12BD8B4D22B6E
:1007E000D8B4D32BD8B4D42B3B0EDC6F9A0EDB6F6E
:1007F000CA0EDA6FD96B0A0ED76FD882EA6AD10EA9
:10080000E96ED4C0E0F0D3C0DFF0D2C0DEF0D1C0DA
:10081000DDF0DCC0E4F0DBC0E3F0DAC0E2F0D9C028
:10082000E1F08ADF015000520FE1D751010A0CE0DC
:10083000D5510CE00F0BD75D01E027E2D5BF25D0E5
:10084000D5BD04D0200E1CD0200ED517D5AB0AD0B4
:10085000D59B00C0D5F02D0EA4A8FED7736ED5C0D1
:1008600000F0D56B300ED5AB0BD0D59B00C0D5F0CA
:100870002D0EA4A8FED7736ED5C000F0D56B300E38
:1008800000260050A4A8FED7736ED892DCC0E0F01A
:10089000DBC0DFF0DAC0DEF0D9C0DDF0E46BE36B83
:1008A000E26B0A0EE16F48DF03C0DCF002C0DBF050
:1008B00001C0DAF000C0D9F0D72F9FD7BAEF05F00A
:1008C000F250036EF29EA68EA6840F01550EA76EFF
:1008D000AA0EA76EA68200000350F21200011200B9
:1008E000D08CA69CF6503F0B006EC00EF6160A0088
:1008F000D1C001F0006607D0EECFF5FF015204E051
:100900000F00010603D000060B000C003F0EF6148A
:100910003F0AF0E1A688D4DFD3DF0166EBD7F86A9F
:1009200006EF07F04C904C924C94526A516A566A0A
:10093000556A546A536A9290899092928982040E01
:10094000D16FFA0E0101436F0001DADCD12FF9D724
:1009500092928992040ED16FFA0E0101436F000149
:10096000CFDCD12FF9D7929089800A0ED16FD20EA9
:100970000101436F0001C4DCD12FF9D79290899017
:10098000280ED16FFA0E0101436F0001B9DCD12F9F
:10099000F9D794928B920550020803E1010E4B6E39
:1009A00002D0020E4B6E920EF66E020EF76E0F0E16
:1009B000D16FFDDD4BC0D1F0180ED26F1CD6A30E47
:1009C000F66E020EF76E070ED16FF1DD040ED16FD9
:1009D000FA0E0101436F000193DCD12FF9D7AC0E61
:1009E000F66E020EF76E61DE4CB097D0A4AA8DD0E1
:1009F0006DDE01C04AF04A500A0825E0565223E154
:100A0000555221E154521FE1535041081CE356C096
:100A100003F055C002F054C001F053C000F0010EC5
:100A20005326D8B0542AD8B4552AD8B4562A070E1B
:100A30000024E96E000E0120EA6E4AC0EFFF0400B8
:100A400000D0000062D04A500A085FE1070E53242C
:100A5000E96E000E5420EA6EEF6A040000D0000038
:100A6000075043084BE10F504C0848E115503A0835
:100A700045E1100ECB6F036ACB51070FE96E000EF4
:100A80000320EA6EEF500D081DE0100ECB5D036AE7
:100A9000C30F016E000E032203C0D2F0036ACB51D4
:100AA000070FE96E000E0320EA6EEFCFD3F0D2C03D
:100AB000EAFF01C0E9FFD3C0EFFF040000D000004F
:100AC000CB2BD9D7100ECB5D036AC30FE96E000E96
:100AD0000320EA6EEF6A4C80010E0101436F0001B2
:100AE0000FDCD26BC30ED16F05EC01F003C0B4F084
:100AF00002C0B3F001C0B2F000C0B1F0566A556A4E
:100B0000546A536A040000D000000400050E006E11
:100B1000002EFED700D0000067D74C90566A556A69
:100B2000546A536A94908B80B06BAF6BAE6BAD6BB5
:100B30004CB481D14C904C92AD51B15DB56FAE517A
:100B4000B259B66FAF51B359B76FB051B459B86F0E
:100B5000C20EF66E020EF76E0F0ED16F28DD410E3B
:100B6000E96EB8C0D4F0B7C0D3F0B6C0D2F0B5C00B
:100B7000D1F029D6D40EF66E020EF76E040ED16FA8
:100B800016DD0D0ECC6F0A0ECD6F4F0ECE6F4B0ED5
:100B9000CF6FD06BD46BCC0ED36FD86BD76B9C0E52
:100BA000D66F400ED56F9DEC00F0DA0EF66E020E99
:100BB000F76E7BDD066A5E6AA4AA4AD0036A065015
:100BC000070FE96E000E0320EA6EEACFD4F0E9CFFA
:100BD000D3F07CDDD4C0EAFFD3C0E9FF01C0EFFF52
:100BE000040000D00000036A0650070FE96E000EF3
:100BF0000320EA6EEF503A0804E14CB002D04C807A
:100C00001DD0036A0650070FE96E000E0320EA6E3E
:100C1000EF500D0813E14CB211D04CA00FD04C8214
:100C2000040000D00000062A010E0624AD27000EA5
:100C3000AE23AF23B023040000D000004CA003D0AB
:100C40004CB201D0062A5E2A040000D0000003D076
:100C5000040000D000005E503B08AEE207503A08A6
:100C6000D8A4E8D0D66B080ED56F10EC00F001C008
:100C70005DF0D66B0A0ED56F10EC00F001C0D1F01C
:100C8000D66B0C0ED56F10EC00F0D1C050F001C047
:100C90004FF0D66B0E0ED56F10EC00F001C04EF089
:100CA00051C055F052C056F04FC053F050C054F0F0
:100CB0004E2C02D04C84BED056520CE155520AE163
:100CC00054500E08D8B0B6D0FF0A04E15350CF08F4
:100CD000D8B0B0D05652D8A4ADD055500008D8A046
:100CE000A9D094948B844D6A010E5C6E030E065C51
:100CF0005C5C15E2036A5C50070F016E000E032274
:100D000001C0D1F003C0D2F003C0D6F001C0D5F0CD
:100D100010EC00F001504D26020E5C26E7D7FF0EC6
:100D2000D8804D54010F4D6E030E065C036A070F09
:100D3000016E000E032201C0D1F003C0D2F003C047
:100D4000D6F001C0D5F010EC00F001504D5C23E06E
:100D5000020E056ED46BD36BD26BF70ED16F05C04C
:100D6000D5F060EC02F00A0E0101436F000180EC47
:100D700001F0D46BD36BD26BF80ED16FA50ED56F8B
:100D800060EC02F00A0E0101436F000180EC01F0FB
:100D900094928B824FD094928B924E5238E1090EEE
:100DA0005C6E5B6A030E065C5C5C24E25B505B2A53
:100DB000036A5F0F016E000E032201C0D1F003C071
:100DC000D2F0036A5C50070F016E000E032201C0CF
:100DD000D3F003C0D4F003C0D6F001C0D5F010ECBE
:100DE00000F0D2C0EAFFD1C0E9FF01C0EFFF020E60
:100DF0005C26D8D755C0F8FF54C0F7FF53C0F6FFA4
:100E0000EA6A5F0EE96E5DC0D1F06AD513D04E502C
:100E1000040810E1D66B100ED56F10EC00F001C085
:100E2000D1F0D66B120ED56F10EC00F0D1C052F09D
:100E300001C051F07DD6320E0101436F000180ECFC
:100E400001F0EE0EF66E020EF76E2FDC320E01018F
:0E0E5000436F000180EC01F0E8EF07F01200A4
:100E6000F86AD09E046A7086A00E756E010E766ECA
:100E7000A60E726E900E716E496AC150F00BC16E73
:100E8000000E0F01386F396F3A6F776A786A796AA6
:100E9000640E0101436F000180EC01F008EF00F0E7
:100EA000640E0101436F000180EC01F04D6A4C6A51
:100EB0004B6AF80E4A6E02EC02F00150A5081EE1E2
:100EC0000A0E0101436F000180EC01F04D6A4C6A8B
:100ED0004B6AF70E4A6E02EC02F001C005F00550B5
:100EE00002080BE14D6A4C6A4B6AF90E4A6E02EC3D
:100EF00002F00150A50801E0056A20D0010E056E40
:100F0000D46BD36BD26BF70ED16F05C0D5F060EC0C
:100F100002F00A0E0101436F000180EC01F0D46B76
:100F2000D36BD26BF80ED16FA50ED56F60EC02F0CB
:100F30000A0E0101436F000180EC01F0055203E04D
:100F4000055002080EE194928B82040E4A6EFA0E4E
:100F50000101436F000180EC01F04A2EF8D7E2DC7A
:0C0F600004D0052C02D0E8EF07F00300DD
:040FD00094EF6BF03F
:080FD800046ED8CF05F0E0CF54
:100FE00006F00001E9CF0CF0EACF07F0E1CF08F0FE
:100FF000E2CF09F0D9CF0AF0DACF0BF0F3CF12F03D
:10100000F4CF13F0FACF14F000C00EF001C00FF0CF
:1010100002C010F003C011F09DA212EF08F09EB2C2
:101020004FEF0DF00EC000F00FC001F010C002F045
:1010300011C003F00CC0E9FF07C0EAFF078E08C02B
:10104000E1FF09C0E2FF0AC0D9FF0BC0DAFF12C0FE
:10105000F3FF13C0F4FF14C0FAFF045006C0E0FF12
:1010600005C0D8FF1000F2CF0DF0F29EF76A800F96
:10107000F66E100EF7220900F5500DBEF28E12002A
:101080004F536F666600F2CF0DF0F29EF76AA00F25
:10109000F66E100EF7220900F5500DBEF28E12000A
:1010A0002447504747410000F2CF0DF0F29EF76A07
:1010B000C20FF66E100EF7220900F5500DBEF28E2B
:1010C000120024474E4747410000F2CF0DF0F29E38
:1010D000F76AE40FF66E100EF7220900F5500DBE08
:1010E000F28E1200244750524D430000F2CF0DF013
:1010F000F29EF76A060FF66E110EF7220900F55000
:101100000DBEF28E120024474E524D430000F2CF26
:101110000DF0F29EF76A280FF66E110EF722090005
:10112000F5500DBEF28E120056616C696400F2CF6C
:101130000DF0F29EF76A480FF66E110EF7220900C5
:10114000F5500DBEF28E12005468656674206F7201
:1011500020546F77696E672061637469766974796A
:1011600020646574656374656400F2CF0DF0F29ECF
:10117000F76A840FF66E110EF7220900F5500DBEC6
:10118000F28E1200677073207369676E616C206C59
:101190006F737400F2CF0DF0F29EF76AAE0FF66E29
:1011A000110EF7220900F5500DBEF28E1200496EA5
:1011B00076616C696400F2CF0DF0F29EF76AD00F91
:1011C000F66E110EF7220900F5500DBEF28E1200D8
:1011D0000D0A434F4E4E4543540D0A00F2CF0DF019
:1011E000F29EF76AF60FF66E110EF7220900F5501F
:1011F0000DBEF28E12000D0A4F4B0D0A0D0A2B5137
:10120000485454504745543A20302C3230302C004A
:10121000F2CF0DF0F29EF76A2A0FF66E120EF72249
:101220000900F5500DBEF28E12000D0A4F4B0D0A4B
:101230000D0A2B51485454505245414446494C459F
:101240003A20300D0A00F2CF0DF0F29EF76A600FDF
:10125000F66E120EF7220900F5500DBEF28E120046
:101260006F746120696E2070726F677265737300AE
:10127000F2CF0DF0F29EF76A8A0FF66E120EF72289
:101280000900F5500DBEF28E12004F536F6E000034
:10129000F2CF0DF0F29EF76AAA0FF66E120EF72249
:1012A0000900F5500DBEF28E120049444C45000075
:1012B000F2CF0DF0F29EF76ACA0FF66E120EF72209
:1012C0000900F5500DBEF28E120052554E4E494E99
:1012D0004700F2CF0DF0F29EF76AEC0FF66E120E99
:1012E000F7220900F5500DBEF28E12005041524B0C
:1012F00045440000F2CF0DF0F29EF76A0E0FF66E35
:10130000130EF7220900F5500DBEF28E1200434D68
:1013100045204552524F5200F2CF0DF0F29EF76A2F
:10132000320FF66E130EF7220900F5500DBEF28E45
:101330001200496E20526F6D696E6700F2CF0DF09A
:10134000F29EF76A560FF66E130EF7220900F5505B
:101350000DBEF28E1200486F6D65204E6574776F7A
:10136000726B0000F2CF0DF0F29EF76A7E0FF66E00
:10137000130EF7220900F5500DBEF28E12006770B1
:101380007320676F742066697800F2CF0DF0F29ECB
:10139000F76AA40FF66E130EF7220900F5500DBE82
:1013A000F28E120073657276657220636F6E6E65E1
:1013B000637465640000F2CF0DF0F29EF76AD00FFF
:1013C000F66E130EF7220900F5500DBEF28E1200D4
:1013D0004F54412046696E69736865640000F2CF1E
:1013E0000DF0F29EF76AF80FF66E130EF722090061
:1013F000F5500DBEF28E1200736574757020636F28
:101400006D706C6574650000F2CF0DF0F29EF76AA6
:10141000220FF66E140EF7220900F5500DBEF28E63
:101420001200736572766572322073657400F2CFB4
:101430000DF0F29EF76A480FF66E140EF7220900BF
:10144000F5500DBEF28E120073657461706E3A0035
:10145000F2CF0DF0F29EF76A6A0FF66E140EF722C5
:101460000900F5500DBEF28E120073657469643A7E
:101470000000F2CF0DF0F29EF76A8C0FF66E140E9C
:10148000F7220900F5500DBEF28E12004F5441555F
:10149000524C3A00F2CF0DF0F29EF76AAE0FF66EA4
:1014A000140EF7220900F5500DBEF28E1200636C87
:1014B000726970320000F2CF0DF0F29EF76AD00F21
:1014C000F66E140EF7220900F5500DBEF28E1200D2
:1014D000536574696E746E3A0000F2CF0DF0F29E9F
:1014E000F76AF40FF66E140EF7220900F5500DBEE0
:1014F000F28E1200536574696E74703A0000F2CF78
:101500000DF0F29EF76A180FF66E150EF72209001D
:10151000F5500DBEF28E120049646C65696E743A26
:101520000000F2CF0DF0F29EF76A3C0FF66E150E3A
:10153000F7220900F5500DBEF28E1200556E61754E
:1015400074680000F2CF0DF0F29EF76A5E0FF66E3F
:10155000150EF7220900F5500DBEF28E1200556EE1
:10156000617574686572697A65640000F2CF0DF088
:10157000F29EF76A860FF66E150EF7220900F550F7
:101580000DBEF28E120053657473706565643A0087
:10159000F2CF0DF0F29EF76AAA0FF66E150EF72243
:1015A0000900F5500DBEF28E120053657470776419
:1015B0003A00F2CF0DF0F29EF76ACC0FF66E150EE0
:1015C000F7220900F5500DBEF28E1200526F616DC8
:1015D000696E673F0000F2CF0DF0F29EF76AF00FE0
:1015E000F66E150EF7220900F5500DBEF28E1200B0
:1015F0005265626F6F74696E6700F2CF0DF0F29EF4
:10160000F76A140FF66E160EF7220900F5500DBE9C
:10161000F28E1200536574545A3A0000F2CF0DF066
:10162000F29EF76A360FF66E160EF7220900F55095
:101630000DBEF28E12004175746F20545A207365EE
:101640007400F2CF0DF0F29EF76A5C0FF66E160E84
:10165000F7220900F5500DBEF28E1200545A2053A5
:1016600065740000F2CF0DF0F29EF76A7E0FF66E01
:10167000160EF7220900F5500DBEF28E1200696EAB
:1016800076616C696420545A0000F2CF0DF0F29E2E
:10169000F76AA40FF66E160EF7220900F5500DBE7C
:1016A000F28E1200486F7420737461727400F2CF6E
:1016B0000DF0F29EF76AC80FF66E160EF7220900BB
:1016C000F5500DBEF28E12005761726D2073746179
:1016D00072740000F2CF0DF0F29EF76AEE0FF66E14
:1016E000160EF7220900F5500DBEF28E1200436F60
:1016F0006C642073746172740000F2CF0DF0F29E7E
:10170000F76A140FF66E170EF7220900F5500DBE9A
:10171000F28E1200526C796F6E00F2CF0DF0F29ED5
:10172000F76A340FF66E170EF7220900F5500DBE5A
:10173000F28E120052656C6179205475726E656488
:10174000204F4E00F2CF0DF0F29EF76A5E0FF66E5C
:10175000170EF7220900F5500DBEF28E1200526CE2
:10176000796F66660000F2CF0DF0F29EF76A800F87
:10177000F66E170EF7220900F5500DBEF28E12001C
:1017800052656C6179205475726E6564204F4646CF
:101790000000F2CF0DF0F29EF76AAC0FF66E170E56
:1017A000F7220900F5500DBEF28E12004545505249
:1017B0004F4D2045524153454400F2CF0DF0F29E6B
:1017C000F76AD40FF66E170EF7220900F5500DBE1A
:1017D000F28E120041434C2073657400F2CF0DF07D
:1017E000F29EF76AF60FF66E170EF7220900F55013
:1017F0000DBEF28E120044434C2073657400F2CF8C
:101800000DF0F29EF76A180FF66E180EF722090017
:10181000F5500DBEF28E1200526573746F72650042
:10182000F2CF0DF0F29EF76A3A0FF66E180EF7221D
:101830000900F5500DBEF28E1200526573746F727E
:101840006520746F2044656661756C742100F2CF69
:101850000DF0F29EF76A680FF66E180EF722090077
:10186000F5500DBEF28E1200526F6C6C6261636BAC
:101870000000F2CF0DF0F29EF76A8C0FF66E180E94
:10188000F7220900F5500DBEF28E12004175746802
:101890006572697A65640000F2CF0DF0F29EF76A16
:1018A000B20FF66E180EF7220900F5500DBEF28E3B
:1018B00012002B434D45204552524F520000F2CFAB
:1018C0000DF0F29EF76AD80FF66E180EF722090097
:1018D000F5500DBEF28E12000D0A2B514D544F5093
:1018E000454E3A20302C3000F2CF0DF0F29EF76AD0
:1018F000020FF66E190EF7220900F5500DBEF28E9A
:1019000012000D0A2B514D544F50454E3A20312CA8
:101910003000F2CF0DF0F29EF76A2C0FF66E190E22
:10192000F7220900F5500DBEF28E12000D0A2B5160
:101930004D54434F4E4E3A20302C302C3000F2CFD5
:101940000DF0F29EF76A580FF66E190EF722090095
:10195000F5500DBEF28E12000D0A2B514D54434F1F
:101960004E4E3A20312C302C3000F2CF0DF0F29E4A
:10197000F76A840FF66E190EF7220900F5500DBEB6
:10198000F28E12000D0A2B514D54444953433A0034
:10199000F2CF0DF0F29EF76AAA0FF66E190EF7223B
:1019A0000900F5500DBEF28E12002B514D54434CE0
:1019B0004F53453A0000F2CF0DF0F29EF76AD00F78
:1019C000F66E190EF7220900F5500DBEF28E1200C8
:1019D0000D0A2B514D54434C4F53453A0000F2CF62
:1019E0000DF0F29EF76AF80FF66E190EF722090055
:1019F000F5500DBEF28E12000D0A2B514D5450556C
:101A00004245583A20302C302C300000F2CF0DF0F7
:101A1000F29EF76A260FF66E1A0EF7220900F550AD
:101A20000DBEF28E12000D0A2B514D5450554245F9
:101A3000583A20312C302C300000F2CF0DF0F29EBD
:101A4000F76A540FF66E1A0EF7220900F5500DBE14
:101A5000F28E120049476F6E0000F2CF0DF0F29E39
:101A6000F76A740FF66E1A0EF7220900F5500DBED4
:101A7000F28E120049476F666600F2CF0DF0F29EBB
:101A8000F76A940FF66E1A0EF7220900F5500DBE94
:101A9000F28E12004E4F5345525649434500040101
:101AA0005A2B5B2B5EAB29D067B127D0682BD8B4FB
:101AB000692B695308E16851020805E39290899007
:101AC000929289921AD0695303E16851100808E292
:101AD000695306E16851130803E3929089800DD0A1
:101AE000695100080AE2FF0A03E168516E0805E245
:101AF000696B686B9290899067815EAD2AD05EBFFA
:101B000028D0682BD8B4692B695303E168511008B9
:101B100008E2695306E16851130803E39290898053
:101B200018D0695303E16851EC0808E2695306E1F3
:101B30006851EF0803E3929089900BD06951030834
:101B400008E2FF0A03E168517D0803E2696B686BF4
:101B50005E8F5A51130847E25C2B5A6B60530EE0BC
:101B600060076051050805E06051030802E0602D40
:101B700003D094928B9202D094928B824EAF1ED05F
:101B800002011AB902D0040119D00401542D09D060
:101B9000537F53AF03D094928B8202D094928B9256
:101BA0000CD05451020805E1605303E194928B82FA
:101BB00004D0545302E194928B9215D002011AB9C9
:101BC00013D004014EBF02D002010ED05F510108B4
:101BD00003E394928B8202D094928B925F2B5F519D
:101BE000030801E25F6B020104015B51310814E25A
:101BF0005B6B4EBF0DD0537D53AD05D094928B825D
:101C000094948B8404D094928B9294948B9404D06B
:101C100002011AA900D004015C510408D8B0E9D02F
:101C20005C6B67B302D05D2B02D067935D6B0201E2
:101C30001AA9D4D0040156530DE1572BD8B4582B10
:101C40005851060807E2FF0A03E15751090802E26A
:101C5000586B576B3C53D8A470D05E95020103B10A
:101C600006D003B304D003B702D003A509D0040102
:101C70005653D8B402D0020103D0010E566F0201B0
:101C8000010160531DE15F5101081AE304014EBDDB
:101C900002D0010115D05EA302D0010111D0612B49
:101CA000D8B4622B625303E16151780808E2626B99
:101CB000616B5E8302010389010E0401566F10D02F
:101CC00004015EA30DD00101605306E15F510508D8
:101CD000D8A002D0040104D00401626B616B5E9352
:101CE0005EB31CD0010166510401585D08E305E1B3
:101CF000010165510401575D02E35EA907D05EA9A9
:101D00000CD0585303E157513B0807E2586B576B0F
:101D100002010389010E0401566F0ED06451585D13
:101D20000BE303E16351575D07E3586B576B020107
:101D30000389010E0401566F47D03C2D45D0626BDC
:101D4000616B53A905D05399010E566F586B576BB1
:101D50005EB51AD0652BD8B4662B090ED880010168
:101D60006955006E070E6A55036E00C001F00350FE
:101D70000401665D09E303E10150655D05E3666BFF
:101D8000656B586B576B5E8553A70AD0585303E1B8
:101D900057511D0805E2586B576B010E566F14D052
:101DA00001016A510401585D0FE305E10101695128
:101DB0000401575D09E35EA507D0586B576B02011C
:101DC0000389010E0401566F565304E13C5302E0AF
:101DD00053A703D053A301D05E87020104015EA183
:101DE00003D053B301D0592B59511D0802E2596B4E
:101DF000538B5D511D0802E25D6B67879E92000167
:101E000012EF08F024504149523836342C302C302F
:101E10002C3131353230302A31420D0A0000245045
:101E20004149523439302C312A32410D0A002450B4
:101E30004149523037342C312A32340D0A002450B3
:101E40004149523035302C3130302A32320D0A00BF
:101E500024504149523431302C312A32320D0A009B
:101E600024504149523430302C322A32300D0A008D
:101E700024504149523630302C25732C25732C25A3
:101E8000732C35302E302C35302E302C302E302C1B
:101E90003130302E300041542B5149444541435498
:101EA0003D310D0A000041542B43545A553D310D2C
:101EB0000A0044455649434520504F574552454432
:101EC000204F4E3A2573000047534D205044310AAD
:101ED000000041542B51485454504346473D22631F
:101EE0006F6E746578746964222C310D0A00415458
:101EF0002B51485454504346473D22726573706FCE
:101F00006E7365686561646572222C310D0A00008C
:101F100041542B514854545055524C3D25642C315A
:101F20003030300D0A006D61696E2E6865780D0ADB
:101F3000000041542B51485454504745543D3130D2
:101F40003030300D0A0041542B5148545450524502
:101F5000414446494C453D225546533A6D61696EB0
:101F6000322E747874222C38300D0A0041542B51D3
:101F7000485454505245414446494C453D225546EB
:101F8000533A6D61696E312E747874222C38300D9D
:101F90000A0047534D205044320A000049443A2079
:101FA00025732C20677073206E6F742066697865C6
:101FB000640041542B435245473F0D0A00004154F1
:101FC0002B434D47463D310D0A0041542B435343AB
:101FD000533D2247534D220D0A0041542B434D4798
:101FE000533D000041542B434D47523D25630D0A9C
:101FF000000061706E207365743A25730000696497
:10200000207365743A257300496E74206E207365E1
:10201000743A25730000496E742070207365743A19
:102020002573000049646C6520696E7420736574C3
:102030003A2573007370656564207365743A25737F
:102040000000505744206368616E67656420746FB8
:102050003A257300687474703A2F2F6D6170732E77
:10206000676F6F676C652E636F6D2F6D6170733F67
:10207000713D256325322E36662C256325322E369A
:10208000660024504149523030342A33450D0A004D
:1020900024504149523030352A33460D0A0024502D
:1020A0004149523030362A33430D0A00534F5320F2
:1020B0006E756D6265722069732073657420746F2C
:1020C000202B2573000041542B434D47443D25638D
:1020D0000D0A000041542B434D47463D310D0A0087
:1020E00041542B435343533D2247534D220D0A0085
:1020F00041542B434D474C0D0A0041542B514D5434
:102100004F50454E3D0041542B514D54434F4E4E80
:102110003D00222C2200222C2200222C2200220D03
:102120000A0041542B514D54444953433D004154FE
:102130002B514D54434C4F53453D25640D0A00002F
:1021400041542B514D544F50454E3D0041542B515D
:102150004D54434F4E4E3D00222C2200222C220093
:10216000220D0A0041542B514D54444953433D0024
:1021700041542B514D54434C4F53453D0000415465
:102180002B514D5450554245583D000025642C308C
:102190002C302C302C22000041540D0A00004154F8
:1021A00045300D0A000041542B4950523D3936301C
:1021B000300D0A00415426570D0A000041540D0A03
:1021C000000041540D0A00004154453026570D0AC5
:1021D000000041542B4950523D393630300D0A0031
:1021E00041542B434D45453D320D0A0041542B438C
:1021F0004D47463D310D0A00415426570D0A000057
:1022000041542B434D47443D312C340D0A00415479
:102210002B4350494E3F0D0A000041542B51494376
:102220005347503D312C312C2200222C22222C22CB
:10223000222C310D0A0041542B51494143543D3168
:102240000D0A000041542B4347534E3D310D0A0007
:10225000534F5320687474703A2F2F6D6170732E32
:10226000676F6F676C652E636F6D2F6D6170733F65
:10227000713D256325322E36662C256325322E3698
:102280006600485F53544152543A256C640A00007A
:10229000485F454E443A256C640A00007B22646521
:1022A000766963654944223A20222573222C22490B
:1022B0004D4549223A2025732C2274696D6573744B
:1022C000616D70223A2022002530346C642D253057
:1022D00032752D2530327520253032753A25303251
:1022E000753A25303275222C226461746156616C16
:1022F0006964697479223A202256616C6964222CDF
:1023000022737461747573223A20224E2564222C44
:10231000226C61746974756465223A20220025304C
:1023200031312E3766222C226C6F6E6769747564AA
:1023300065223A2022253031322E3766222C227334
:1023400070656564223A20222530336C64222C2289
:10235000636F75727365223A20222530336C6422D4
:102360002C2269676E6974696F6E223A2022000020
:1023700049476F66660049476F6E0000222C22763F
:10238000656869636C65537461747573223A2022C1
:1023900000005041524B4544000052554E4E494EAC
:1023A000470049444C450000222C22616464697452
:1023B000696F6E616C44617461223A20222573005A
:1023C000222C2274696D65496E74657276616C7336
:1023D000223A202225732C25732C2530334C64227D
:1023E0002C22616E676C65496E74657276616C2231
:1023F0003A20222530336C64222C22646973746184
:102400006E6365496E74657276616C223A2022258E
:1024100030336C64222C2267736D537472656E675F
:102420007468223A202225303364222C227365718D
:1024300075656E63654E756D626572223A20220085
:102440000D0A427265616B204B3D256C6420433D53
:1024500025630D0A000041540D0A000041540D0A85
:10246000000041542B4350494E3F0D0A00000D0A15
:102470005055424C495348204641494C0D0A0000F2
:1024800041540D0A000041542B43545A553D310D1F
:102490000A0041542B43434C4B3F0D0A000041546A
:1024A0002B514353510D0A00080EEA6EB60EE96E29
:1024B000EF5011E0050E016EBF0E006E0400002EFD
:1024C000FDD7012EF9D72E0E006E002EFED700008C
:1024D0000400EF2EEFD712009486948894EF6CF0EE
:1024E000080E016E040E006E002EFED78B96949699
:1024F000040E006E002EFED7080145378B98D8B029
:102500009488D8A09498948682A6FED7012E01D0F4
:1025100002D00001E7D7040E006E002EFED78B9686
:10252000949600009488040E006E002EFED7040ED0
:10253000006E002EFED7948682A6FED7016A040E96
:10254000006E002EFED782B801808B9694968B98F1
:10255000949800011200080E0801356F00C036F88B
:102560009488040E006E002EFED7948682A6FED7B5
:1025700082B8D88082A8D8900136040E006E002E52
:10258000FED794968B96352FEBD79488040E006E69
:10259000002EFED78B983651D8A4949800009486CC
:1025A00082A6FED7040E006E002EFED78B96949660
:1025B000040E006E002EFED78B989498000152EF07
:1025C00013F0A00E08012F6F030E2C172D6B2D5347
:1025D00003E12C51000822E22D31376F2C31366F88
:1025E0002B31356F37333633353337333633353375
:1025F0003733363335333733363335333733363392
:102600003533373336333533010E37173551060B33
:10261000306F316B326B336B30512F139488040E53
:10262000006E002EFED79486040E006E002EFED79C
:1026300082A6FED78B989498040E006E002EFED7CB
:102640008B9694962FC845F800014ADF2BC835F8C1
:102650002CC836F82DC837F80801386B2BC845F858
:1026600000013EDF2AC845F83BDF9488040E006E67
:10267000002EFED79486040E006E002EFED782A692
:10268000FED78B989498040E006E002EFED78B9682
:102690009496010E08012F25346F456F000120DF4D
:1026A000006A59D701C02EF894980000948682A63B
:1026B000FED7040E006E002EFED700D000009488D6
:1026C000040E006E002EFED708012EC801F0000196
:1026D0001200A00E08013B6F030E3717386B3853FA
:1026E00003E13751000822E23831436F3731426F3E
:1026F0003631416F43334233413343334233413305
:102700004333423341334333423341334333423320
:102710004133433342334133010E43174151060BDA
:102720003C6F3D6B3E6B3F6B3C513B139488040EFA
:10273000006E002EFED79486040E006E002EFED78B
:102740008B989498040E006E002EFED78B9694966C
:102750003BC845F80001C4DE36C841F837C842F826
:1027600038C843F80801446B36C845F80001B8DEA4
:1027700035C845F8B5DE39C845F8B2DE9498000092
:10278000948682A6FED7040E006E002EFED700D0DF
:1027900000009488040E006E002EFED79488040E6C
:1027A000006E002EFED79486040E006E002EFED71B
:1027B0008B989498040E006E002EFED78B969496FC
:1027C0003BC845F88DDE015008013A9101B03A81CD
:1027D0003AA11ED09488040E006E002EFED7948677
:1027E000040E006E002EFED782A6FED78B9894981A
:1027F000040E006E002EFED78B9694963BC845F8CB
:1028000000016EDE015008013A9101B03A81E0D733
:1028100000011200928680B623D004013C2D05D021
:102820005E83010E566F586B576B3C6B010EEA6E60
:102830003F0EE96EF2CF65F5F29E000E00011DEC31
:102840000DF00A000900F550EE6E0009FBE10501EC
:1028500065BFF28E040153A701D053971DD000012C
:1028600004013C5303E1050E556F5389010E3C6F83
:10287000EA6E3F0EE96EF2CF65F5F29E000E0001A2
:102880002DEC0DF00A000900F550EE6E0009FBE199
:10289000050165BFF28E040100011200938281A23E
:1028A00005D0300E836F8E918F6B03D0310E836F06
:1028B0008E81120004013D531AE13C5318E1929AB3
:1028C000898A010EEA6E380EE96EF2CF65F5F29E46
:1028D000000E00017DEC0BF00A000900F550EE6ED1
:1028E0000009FBE1050165BFF28E1DD004013D3DED
:1028F00018D0929A899A010EEA6E380EE96EF2CFDC
:1029000065F5F29E000E0001A2EC0BF00A00090032
:10291000F550EE6E0009FBE1050165BFF28E03D0B4
:1029200004013D690501000112000900F5520DE0A6
:10293000F6CF2AF8F7CF2BF8F5509EA8FED7AD6E4C
:102940002AC8F6FF2BC8F7FFF0D7120005018291C5
:102950007DC586F57CC585F57BC584F57AC583F58F
:102960007E517A25006E000E7B21016E000E7C21C7
:10297000026E000E7D21036E8651035C61E30BE164
:102980008551025C5DE307E18451015C59E303E199
:102990000050835D55E286C52DF885C52CF884C5A9
:1029A0002BF883C52AF800010CDE01C081F5010E69
:1029B0000801B66F000178DD050181510D081FE1A6
:1029C0007A51835D876F7B518459886F7C5185591B
:1029D0007D5186597F518725E96E80518821EA6EA5
:1029E000EF6A010E0801B66F00015EDD050182810C
:1029F000010E0801B66F000157DD050121D07A51A3
:102A0000835D876F7B518459886F7C5185597D51D7
:102A100086597F518725E96E80518821EA6E81C5EC
:102A2000EFFF010E0801B66F00013EDD010E05014A
:102A30008327D8B0842BD8B4852BD8B4862B90D7D5
:102A4000000E82B1010E016E000112006BC4EAFF9C
:102A50006AC4E9FF080137C8EFFFE92AD8B4EA2AB7
:102A6000EF6A04016A2BD8B46B2B00011200090035
:102A7000F6CF2BF8F7CF2CF8F5CF37F8E7DF2BC8D8
:102A8000F6FF2CC8F7FF08012A2F01D002D0000161
:102A9000EED700011200EF520FE0EACF2BF8E9CF9A
:102AA0002AF8EFCF37F8D2DF2BC8EAFF2AC8E9FFB0
:102AB000E92AD8B4EA2AEFD712000501676B66C588
:102AC00003F065C5E9FF66C5EAFFEF50240803E19E
:102AD000652BD8B4662B66C503F065C5E9FF66C5EE
:102AE000EAFFEF5213E066C503F065C5E9FF66C56E
:102AF000EAFFEF502A080AE065C5E9FF66C5EAFF6C
:102B0000EF50671B652BD8B4662BE5D767C501F07E
:102B100000017DEF6EF0EF5210E0EACF66F5E9CFED
:102B200065F5EF509EA8FED7AD6E66C5EAFF65C598
:102B3000E9FFE92AD8B4EA2AEED785EF6EF005015D
:102B400066BF10D00F0E006E653900160A0E005CCD
:102B500003E2300E002602D06651002600509EA8E7
:102B6000FED7AD6E0F0E65170A0E655D02E2300EE0
:102B700002D0669F6651652765519EA8FED7AD6E4F
:102B8000000191EF6EF00900F5520DE0F6CF3BF831
:102B9000F7CF3CF8F550A4A8FED7736E3BC8F6FFFC
:102BA0003CC8F7FFF0D71200080133513519800BEC
:102BB000376F33AF05D0321F331F322BD8B4332BCE
:102BC00035AF05D0341F351F342BD8B4352B3251D7
:102BD0003403F3CF01F0F4CF00F03503F3500026B7
:102BE00033513403F3500020026E37AF05D0011E7D
:102BF000021E012AD8B4022A000172EF16F0080161
:102C0000306B2E6B0A0E2F6F2D6B2C6B2A512B11F4
:102C100004E1000E016E026EEAD03051302B036ADF
:102C20002A25E96E2B510320EA6EEFCF31F831519E
:102C30002D080DE1010E2E6F3051302B036A2A252D
:102C4000E96E2B510320EA6EEFCF31F80DD03151F0
:102C50002B080AE13051302B036A2A25E96E2B51EB
:102C60000320EA6EEFCF31F831512F08D8B0B1D040
:102C700031513908D8A0ADD03151300821E1036A73
:102C800030512A25E96E2B510320EA6EEF50780867
:102C90000AE0036A30512A25E96E2B510320EA6EBF
:102CA000EF5058080DE1100E2F6F302B3051302BA4
:102CB000036A2A25E96E2B510320EA6EEFCF31F823
:102CC0002F510A0823E131512F081FE231513908F1
:102CD0001CE3336B0A0E326F2DC835F82CC834F85C
:102CE000000162D7300E0801315D01242C6F000E07
:102CF00002202D6F3051302B036A2A25E96E2B51AB
:102D00000320EA6EEFCF31F8DED763D02F511008E1
:102D100060E13151600806E231517A0803E3315134
:102D2000DF0B01D03151316F31512F0803E23151A6
:102D3000390806E2315140084CE23151460849E376
:102D400031512F081AE23151390817E32C35326F0F
:102D50002D35336F323733373237333732373337F6
:102D6000F00E3217300E315D3225016E000E332128
:102D7000036E01C02CF82D6F16D02C35326F2D3517
:102D8000336F323733373237333732373337F00E2A
:102D90003217410E315D0A0F3225016E000E3321CC
:102DA00001C02CF82D6F3051302B036A2A25E96EB3
:102DB0002B510320EA6EEFCF31F83151600806E263
:102DC00031517A0803E33151DF0B01D03151316FBA
:102DD000ABD72F510A0807E12E2D05D02C1F2D1F30
:102DE0002C2BD8B42D2B2CC801F02DC802F00001DB
:102DF000120008012A512C03F3CF01F0F4CF00F0A8
:102E00002D03F35000262B512C03F3500020026EAB
:102E1000000112002BC82DF82AC82CF82DC803F089
:102E200008012CC8E9FF2DC8EAFFEF5206E02C2B61
:102E3000D8B42D2B0001F2D708012A512C5D006E69
:102E40002B512D59036E00C001F0000112008E0EAF
:102E5000006EB4C501F0B3C502F0036A01AE05D03F
:102E6000011E021E022A01E1012A015209E102C0EB
:102E700001F0026A080E005E015202E1006A0ED003
:102E8000D89001BE04D0023601360006F9D70501FC
:102E9000B4AF02D0000102D0019E00011200C4C5EF
:102EA000CBF50501C851CB1BCBAF05D0D894D8903A
:102EB000C4BFD8802FD0C4C5CBF5C7C5CCF5C3518E
:102EC000CC5F06E0CBAF26D0D850010AD86E22D016
:102ED000C8C5CCF5C451CC5F06E0CBAF1BD0D850F1
:102EE000010AD86E17D0C9C5CCF5C551CC5F06E034
:102EF000CBAF10D0D850010AD86E0CD0CAC5CCF5D3
:102F0000C651CC5F06E0CBAF05D0D850010AD86ED1
:102F100001D0D8900001120008013951D8B471D005
:102F2000006E3D51D8B46DD0002604E3810E00261A
:102F300068E204D07F0E005E64E363E03AC841F8C3
:102F40003E51411B3A8F3E8F3C514003F4CF43F832
:102F50003B513F03F4CF03F0F3CF42F84003F3506B
:102F60004327F4504223000E03223C513F03F35009
:102F70004327F4504223000E026A032202223A51F0
:102F80004003F3504227F4500322000E02223A512C
:102F90003F03F3500326F4500222000E016A01227F
:102FA0003C513E03F3504227F4500322000E02220C
:102FB00001223B513E03F3500326F4500222000E3F
:102FC00001223A513E03F3500226F4500122002A16
:102FD00001BE05D042370336023601360006000E28
:102FE00042AF0AD0032A02220122015005E1025019
:102FF00003E1035001E1002A41BF018E41AF019E70
:1030000004D0006A016A026A036A00011200080122
:103010002D6B2C6B2B6BF90E2A6F0001E1EC12F07B
:103020000150A5080AE1010E0801B66F000154EC39
:1030300012F002011A8709D00001010E0801B66FD3
:10304000000154EC12F002011A9708012D6B2C6B51
:103050002B6BFE0E2A6F0001E1EC12F001506908A3
:1030600009E1010E0801B66F000154EC12F00201F3
:103070001A89000108012D6B2C6B2B6B2A6B000148
:10308000E1EC12F00150220853E1010E0801B66F85
:10309000000154EC12F0220E0101176F010E050120
:1030A0006E6F6E51100843E308012D6B2C6B2B6B78
:1030B0006EC52AF80001E1EC12F001C06DF5010EB9
:1030C0000801B66F000154EC12F005016D512208A1
:1030D00023E1036A6E51170FE96E010E0320EA6EB9
:1030E0006DC5EFFF010E6E25036A170FE96E010E25
:1030F0000320EA6EEF6A010E0801B66F000154EC7E
:1031000012F004013A83010E0801B66F000154EC7D
:1031100012F005010CD009D0036A6E51170FE96E49
:10312000010E0320EA6E6DC5EFFF6E2BBAD70001CA
:1031300008012D6B2C6B2B6BAA0E2A6F0001E1ECA2
:1031400012F00150220857E1220E0101066F05011D
:10315000716B010E706F71534DE1705110084AE3AD
:10316000AA0E70257A6F000E71217B6F08012D6BFE
:103170002C6B2B6F7AC52AF80001E1EC12F001C02C
:103180006FF5040000D0000005016F51220826E110
:10319000060E7025E96E010E7121EA6E6FC5EFFF14
:1031A000010E70257A6F000E71217B6F060E7A2555
:1031B000E96E010E7B21EA6EEF6A010E0801B66F1F
:1031C000000154EC12F004013A85010E0801B66FBB
:1031D000000154EC12F005010DD008D0060E702548
:1031E000E96E010E7121EA6E6FC5EFFF702BD8B446
:1031F000712BB1D7000108012D6B2C6B2B6B150EB9
:103200002A6F0001E1EC12F001500D085EE10501AA
:10321000736B120E726F735347E17251150844E3DA
:1032200008012D6B2C6B73C52BF872C52AF80001B1
:10323000E1EC12F001C065F5010E0801B66F000166
:1032400054EC12F0050165510D0815E1120E725D86
:103250007A6F000E73597B6F280E7A25E96E010E86
:103260007B21EA6EEF6A010E0801B66F000154EC93
:1032700012F0050119D0120E725D7A6F000E7359AB
:103280007B6F280E7A25E96E010E7B21EA6E65C5FB
:10329000EFFF010E0801B66F000154EC12F00501BA
:1032A000722BD8B4732BB7D7010E08012B6F280EE1
:1032B0002A6F0001A4DC02C062F101C061F1010EBD
:1032C0000801B66F000154EC12F008012D6B2C6B55
:1032D0002B6B1D0E2A6F0001E1EC12F001500D085E
:1032E0005EE10501756B1A0E746F755347E17451F9
:1032F0001D0844E308012D6B2C6B75C52BF874C5B4
:103300002AF80001E1EC12F001C065F5010E080198
:10331000B66F000154EC12F0050165510D0815E17E
:103320001A0E745D7A6F000E75597B6F300E7A2518
:10333000E96E010E7B21EA6EEF6A010E0801B66F9D
:10334000000154EC12F0050119D01A0E745D7A6F69
:10335000000E75597B6F300E7A25E96E010E7B21C8
:10336000EA6E65C5EFFF010E0801B66F000154EC6F
:1033700012F00501742BD8B4752BB7D7010E0801D4
:103380002B6F300E2A6F00013ADC02C066F101C0DB
:1033900065F1010E0801B66F000154EC12F008014E
:1033A0002D6B2C6B2B6B190E2A6F0001E1EC12F0C8
:1033B00001500D08D8A47BD00501776B160E766FEF
:1033C000775347E17651190844E308012D6B2C6BC4
:1033D00077C52BF876C52AF80001E1EC12F001C0A0
:1033E00065F5010E0801B66F000154EC12F00501FD
:1033F00065510D0815E1160E765D7A6F000E77594E
:103400007B6F2C0E7A25E96E010E7B21EA6EEF6A46
:10341000010E0801B66F000154EC12F0050119D03D
:10342000160E765D7A6F000E77597B6F2C0E7A251B
:10343000E96E010E7B21EA6E65C5EFFF010E080102
:10344000B66F000154EC12F00501762BD8B4772B3F
:10345000B7D7010E08012B6F2C0E2A6F0001FFEC6D
:1034600015F002C068F101C067F10101685303E182
:103470006751090805E2685303E167511E0803E23A
:10348000686B0F0E676F68C12BF867C12AF80801D7
:103490002D6B3C0E2C6F0001ACDC02C06AF101C048
:1034A00069F1010E0801B66F000154EC12F0080139
:1034B0002D6B2C6B2B6BA70E2A6F0001E1EC12F029
:1034C00001500D0860E10501796BA40E786F795306
:1034D00047E17851A70844E308012D6B2C6B79C5AF
:1034E0002BF878C52AF80001E1EC12F001C065F56F
:1034F000010E0801B66F000154EC12F00501655190
:103500000D0815E1A40E785D7A6F000E79597B6F76
:10351000340E7A25E96E010E7B21EA6EEF6A010E08
:103520000801B66F000154EC12F0050119D0A40E89
:10353000785D7A6F000E79597B6F340E7A25E96ECB
:10354000010E7B21EA6E65C5EFFF010E0801B66F23
:10355000000154EC12F00501782BD8B4792BB7D7C1
:10356000010E08012B6F340E2A6F0001FFEC15F0DD
:1035700002C064F401C063F4010E0801B66F0001DB
:1035800054EC12F005D00401646B3C0E636F000133
:1035900008012D6B2C6B2B6BF10E2A6F0001E1ECF7
:1035A00012F001502A0811E105017D6B7C6B7B6BE9
:1035B000300E7A6F1F0E7E6F806BC50E7F6F00011D
:1035C000A6EC14F002011A8D000108012D6B2C6B82
:1035D0002B6BF20E2A6F0001E1EC12F001502A0869
:1035E00011E105017D6B7C6B7B6BD10E7A6F1F0E39
:1035F0007E6F806BE30E7F6F0001A6EC14F002017A
:103600001A8F000108012D6B2C6B2B6BFB0E2A6FA0
:103610000001E1EC12F001502A0819E105017D6B6F
:103620007C6B7B6B200E7A6F0B0E7E6F806B980E1F
:103630007F6F0001A6EC14F004013A8108012B6BA6
:10364000980E2A6F00010AEC17F001C006F208017B
:103650002D6B2C6B2B6BFC0E2A6F0001E1EC12F032
:1036600001502A0811E105017D6B7C6B7B6B500ECC
:103670007A6F1F0E7E6F806BA70E7F6F0001A6EC26
:1036800014F002011A8B000108012D6B2C6B2B6BBF
:10369000F50E2A6F0001E1EC12F001502A080FE14B
:1036A00005017D6B7C6B010E7B6F350E7A6F640EAE
:1036B0007E6F806B1F0E7F6F0001A6EC14F0080177
:1036C0002D6B2C6B2B6BF40E2A6F0001E1EC12F0CA
:1036D00001C03DF4050E0801B66F000154EC12F074
:1036E00008012D6B2C6B2B6BA00E2A6F0001E1ECF7
:1036F00012F001C001F1050E0801B66F000154EC93
:1037000012F008012D6B2C6B2B6BA10E2A6F0001A0
:10371000E1EC12F001C002F1050E0801B66F0001E4
:1037200054EC12F008012D6B2C6B2B6BA20E2A6F40
:103730000001E1EC12F001C003F1050E0801B66FC3
:10374000000154EC12F008012D6B2C6B2B6BA30EB7
:103750002A6F0001E1EC12F001C004F1050E08012E
:10376000B66F000154EC12F008012D6B2C6B010EAA
:103770002B6F9A0E2A6F0001E1EC12F0012C97D00A
:1037800008012D6B2C6B010E2B6F9B0E2A6F000115
:10379000E1EC12F00401416B406B3F6B01C03EF461
:1037A00040C441F43FC440F43EC43FF43E6B010EBC
:1037B0000801B66F000154EC12F008012D6B2C6B60
:1037C000010E2B6F9C0E2A6F0001E1EC12F00150EC
:1037D00004013E13010E0801B66F000154EC12F013
:1037E00008012D6B2C6B010E2B6F9D0E2A6F0001B3
:1037F000E1EC12F00401456B446B436B01C042F4F1
:1038000044C445F443C444F442C443F4426B010E3F
:103810000801B66F000154EC12F008012D6B2C6BFF
:10382000010E2B6F9E0E2A6F0001E1EC12F0015089
:1038300004014213010E0801B66F000154EC12F0AE
:103840000401455321E144531FE1435101081CE3A6
:1038500003E142519E0818E3456B446B010E436F30
:103860009F0E426F0801386B376B010E366F9A0E50
:10387000356F396B000169EC13F0010E0801B66F6A
:10388000000154EC12F0040141530FE140530DE1EB
:103890003F5101080AE303E13E519E0806E3416BF4
:1038A000406B010E3F6F9F0E3E6F0ED00001040172
:1038B000456B446B010E436F9F0E426F416B406B33
:1038C000010E3F6F9F0E3E6F08012D6B2C6B010E9A
:1038D0002B6F9F0E2A6F0001E1EC12F001507B0864
:1038E0000EE10401416B406B010E3F6F9F0E3E6F76
:1038F000456B446B010E436F9F0E426F0001050143
:103900007D6B7C6B7B6BC00E7A6F070E7E6F050E36
:10391000806F660E7F6F0001A6EC14F0015217E075
:10392000050E08012B6F660E2A6F0001FFEC15F0E3
:1039300002C0B4F501C0B3F527EC17F003C049F499
:1039400002C048F401C047F400C046F407D00401A7
:10395000496B486B476B800E466F000105017D6B1C
:103960007C6B7B6BC70E7A6F070E7E6F050E806FC8
:10397000660E7F6F0001A6EC14F0015242E0050EC6
:1039800008012B6F660E2A6F0001FFEC15F002C0D4
:10399000B4F501C0B3F527EC17F003C04DF402C035
:1039A0004CF401C04BF400C04AF40501C66BC56B72
:1039B000C46BC36B4DC4CAF54CC4C9F54BC4C8F540
:1039C0004AC4C7F500014FEC17F01AE34DC43CF8A8
:1039D0004CC43BF84BC43AF84AC439F80801406B70
:1039E0003F6B800E3E6F7F0E3D6F00018CEC17F039
:1039F00003C04DF402C04CF401C04BF400C04AF4C3
:103A000006D004014D6B4C6B800E4B6F4A6F00016A
:103A1000BDEF6EF09290899092928992960E080175
:103A2000B66F000154EC12F0929089800E0E0501E1
:103A3000796FFA0E0801B66F000154EC12F005011F
:103A4000792FF7D792908990040153834E93140EE7
:103A50000501796FFA0E0801B66F000154EC12F0FF
:103A60000501792FF7D79290899092928992960EBC
:103A70000801B66F000154EC12F0929089800A0E92
:103A80000501796FDC0E0801B66F000154EC12F0ED
:103A90000501792FF7D79290899004015393000183
:103AA0001200A4AAFED771CF16F074CF01F016A2AF
:103AB00002D0719871881200B9C803F00801B8C823
:103AC000E9FFB9C8EAFFEF5239E0B9C8BDF8B8C894
:103AD000BCF8BBC8BFF8BAC8BEF8BFC803F0BEC8C0
:103AE000E9FFBFC8EAFFEF5216E0BCC8E9FFBDC856
:103AF000EAFFEFCFC0F8BFC803F0BEC8E9FFBFC8F8
:103B0000EAFFEF50C05D07E1BC2BD8B4BD2BBE2B44
:103B1000D8B4BF2BE2D7BFC803F0BEC8E9FF03C0CB
:103B2000EAFFEF5205E1B8C801F0B9C802F009D0C8
:103B3000B82BD8B4B92B0001BFD70801000E016E15
:103B4000026E00011200040E0801B75F0AE3080EBE
:103B5000EA6EB70EE96EEF5004E001D00400EF2EDC
:103B6000FDD7000112000801426B416BA991AA6BBD
:103B70004251405D68E303E13F51415D64E2A4AA24
:103B80004DD0AA51AA2B036A450FE96E080E0320F7
:103B9000EA6EEACFB9F8E9CFB8F8000182DFB9C818
:103BA000EAFFB8C8E9FF01C0EFFF0400010E006E94
:103BB000002EFED700D00000036A0801AA51450F6D
:103BC000E96E080E0320EA6EEF6A0400010E006E33
:103BD000002EFED700D00000080EB96F450EB86F5A
:103BE0003EC8BBF83DC8BAF8000166DF02C044F821
:103BF00001C043F808014351441110E00400010ED4
:103C0000006E002EFED700D00000A9810400010E36
:103C1000006E002EFED700D0000015D004000D0E5F
:103C2000B66F160EB76F00018EDF0801B62FF9D7F9
:103C3000412BD8B4422B0400010E006E002EFED79B
:103C400000D0000095D7080EEA6EAB0EE96EF2CFF9
:103C5000B6F8F29E0B0E016EF76A000E00014CECF6
:103C60000CF00A000900F5CFEEFF012EFBD708018A
:103C7000B6BFF28E080EB96F450EB86F080EBB6F57
:103C8000AB0EBA6F000118DF0150021003E004010F
:103C900053810001050E0801B66F000154EC12F0CB
:103CA000000E0801A9B1010E016E00011200270EDD
:103CB00005017A6F100E796F7B6B7D91B20EF66EF7
:103CC0001F0EF76E0001C3EC15F005017AC503F075
:103CD0007951D8B47A077907031041E0A4AA3ED0FD
:103CE0000001DFDE01C07CF5040000D0000005010A
:103CF0007DB112D07C512B080FE17B517B2B036AE5
:103D00007E0FE96E050E0320EA6E7CC5EFFF04000E
:103D100000D000007D810CD07DA10AD07B517B2B8F
:103D2000036A7E0FE96E050E0320EA6E7CC5EFFF85
:103D3000040000D000007B510A080AE186512C08DB
:103D400007E1040000D0000087C501F00AD006D0CA
:103D50007B510A0803E1300E016E03D0B7D7300E55
:103D6000016E00011200A4A8FED7736E1200C9C52F
:103D7000CDF5C8C5CCF5C7C5CBF5C6C5CAF5050197
:103D8000CD532FE1CC532DE1CB5101082AE303E1C0
:103D9000CA51350826E3CDC52DF8CCC52CF8CBC5C6
:103DA0002BF8CAC52AF80001E1EC12F001C0CEF5EB
:103DB000040000D000000501CE510D0802E111D031
:103DC00007D0CE510001CFDF040000D00000050174
:103DD000010ECA27D8B0CB2BD8B4CC2BD8B4CD2B5E
:103DE000CFD7000112000501666B686B676B6751E6
:103DF0000F0877E1685375E17086220E756E000E2C
:103E0000766EA60E726E900E716E020E796FFA0EBD
:103E10000801B66F000154EC12F00501792FF7D7B5
:103E2000980EF66E210EF76E0001C3EC15F0080E29
:103E30000501796FFA0E0801B66F000154EC12F01B
:103E40000501792FF7D79E0EF66E210EF76E000151
:103E5000C3EC15F0080E0501796FFA0E0801B66F74
:103E6000000154EC12F00501792FF7D7A60EF66E7B
:103E7000210EF76E0001C3EC15F0080E0501796FF5
:103E8000FA0E0801B66F000154EC12F00501792F0B
:103E9000F7D7B40EF66E210EF76E0001C3EC15F0E5
:103EA000080E0501796FFA0E0801B66F000154EC97
:103EB00012F00501792FF7D77086A00E756E010EEE
:103EC000766EA60E726E900E716E080E796FFA0EF7
:103ED0000801B66F000154EC12F00501792FF7D7F5
:103EE0002BD0685303E16751640826E2686B676B67
:103EF000000190DD080E0501796FFA0E0801B66F1A
:103F0000000154EC12F00501792FF7D7080E796FF4
:103F1000FA0E0801B66F000154EC12F00501792F7A
:103F2000F7D7080E796FFA0E0801B66F000154EC4E
:103F300012F00501792FF7D7BC0EF66E210EF76E41
:103F40000001C3EC15F00D0E0501696F0A0E6A6FD2
:103F50004F0E6B6F4B0E6C6F6D6B050E08013E6F55
:103F6000690E3D6F070E406FD00E3F6F0001FBDD05
:103F70000150050166270A0E0801B66F000154ECD6
:103F800012F00501672BD8B4682B6653D8B42FD72D
:103F9000686B676B0A0E0801B66F000154EC12F0F3
:103FA00086DE01C04FF40A0E0801B66F000154EC22
:103FB00012F004014F51310803E04F51350802E17E
:103FC000538504D05395000E016E62D208012D6B0B
:103FD0002C6B2B6B2A690001E1EC12F0015069088F
:103FE000D8B499D1050E0801B66F000154EC12F057
:103FF000300E0101016F026F036F046F0801386B0F
:10400000376B366BA00E356F300E396F000169ECDF
:1040100013F0050E0801B66F000154EC12F0080110
:10402000386B376B366BA10E356F300E396F000170
:1040300069EC13F0050E0801B66F000154EC12F0A4
:104040000801386B376B366BA20E356F300E396F47
:10405000000169EC13F0050E0801B66F000154EC85
:1040600012F00801386B376B366BA30E356F300ECC
:10407000396F000169EC13F0050E0801B66F0001FD
:1040800054EC12F00501666BC20EF66E210EF76E4F
:104090000001C3EC15F00D0E05016E6F0A0E6F6F77
:1040A0004F0E706F4B0E716F726B050E08013E6FF5
:1040B0006E0E3D6F130E406F880E3F6F000153DD93
:1040C000015005016627C80E0801B66F000154ECC7
:1040D00012F0C80EF66E210EF76EC3EC15F00D0E41
:1040E00005016E6F0A0E6F6F4F0E706F4B0E716F82
:1040F000726B050E08013E6F6E0E3D6F130E406F22
:10410000880E3F6F00012FDD015005016627C80EA4
:104110000801B66F000154EC12F0D20EF66E210EBB
:10412000F76EC3EC15F00D0E05016E6F0A0E6F6F82
:104130004F0E706F4B0E716F726B050E08013E6F64
:104140006E0E3D6F130E406F880E3F6F00010BDD4A
:10415000015005016627C80E0801B66F000154EC36
:1041600012F0E00EF66E210EF76EC3EC15F00D0E98
:1041700005016E6F0A0E6F6F4F0E706F4B0E716FF1
:10418000726B050E08013E6F6E0E3D6F130E406F91
:10419000880E3F6F0001E7DC015005016627C80E5D
:1041A0000801B66F000154EC12F0EC0EF66E210E11
:1041B000F76EC3EC15F00D0E05016E6F0A0E6F6FF2
:1041C0004F0E706F4B0E716F726B050E08013E6FD4
:1041D0006E0E3D6F130E406F880E3F6F0001C3DC03
:1041E000015005016627C80E0801B66F000154ECA6
:1041F00012F0F80EF66E210EF76EC3EC15F00D0EF0
:1042000005016E6F0A0E6F6F4F0E706F4B0E716F60
:10421000726B050E08013E6F6E0E3D6F130E406F00
:10422000880E3F6F00019FDC015005016627C80E14
:104230000801B66F000154EC12F0000EF66E220E6B
:10424000F76EC3EC15F00D0E05016E6F0A0E6F6F61
:104250004F0E706F4B0E716F726B050E08013E6F43
:104260006E0E3D6F130E406F880E3F6F00017BDCBA
:10427000015005016627C80E0801B66F000154EC15
:1042800012F00501665107082FE0672BD8B4682BA0
:10429000685303E16751320827E2686B676B0001DE
:1042A0000AEC1DF0080E0501796FFA0E0801B66FD1
:1042B000000154EC12F00501792FF7D7080E796F41
:1042C000FA0E0801B66F000154EC12F00501792FC7
:1042D000F7D7080E796FFA0E0801B66F000154EC9B
:1042E00012F00501792FF7D766510708D8A4CBD66D
:1042F000010E0401546F0801386B376B366B35695A
:10430000690E396F000169EC13F0050E0801B66FF4
:10431000000154EC12F00E0EF66E220EF76EC3EC96
:1043200015F0520E0501736F450E746F410E756FD7
:10433000440E766F590E776F786B050E08013E6F4D
:10434000730E3D6F130E406F880E3F6F00010BDC44
:1043500001C066F5C80E0801B66F000154EC12F0FA
:1043600008012D6B2C6B2B6BFC0E2A6F0001E1EC0E
:1043700012F001502A0879E10501662D01D002D022
:10438000000173D0050E0801B66F000154EC12F065
:1043900004013A8D050E0801B66F000154EC12F0CD
:1043A00002011A8B050E0801B66F000154EC12F0E1
:1043B0001A0EF66E220EF76EC3EC15F00501C96BEE
:1043C000C86BC76B500EC66F0001D1DC2A0EF66EAB
:1043D000220EF76EC3EC15F00D0E0501736F0A0E79
:1043E000746F4F0E756F4B0E766F776B050E08016D
:1043F0003E6F730E3D6F130E406F880E3F6F0001CE
:10440000B3EC1DF0015005016627C80E0801B66F18
:10441000000154EC12F005016651020827E1360E46
:10442000F66E220EF76E0001C3EC15F00D0E0501BD
:10443000736F0A0E746F4F0E756F4B0E766F776B3E
:10444000050E08013E6F730E3D6F130E406F880E10
:104450003F6F0001B3EC1DF0015005016627C80E47
:104460000801B66F000154EC12F005016651030813
:1044700006E104014E81020E546F03D005010401D0
:104480004E91050E0801B66F000154EC12F00401C4
:10449000000112000801305302E1315342E02CC800
:1044A000E9FF2DC8EAFFEFCF32F82FC803F02EC87E
:1044B000E9FF2FC8EAFFEF50325D17E02DC803F087
:1044C0002CC8E9FF03C0EAFFEFCF32F82FC803F092
:1044D0002EC8E9FF2FC8EAFFEF50325D02E2FF0E5F
:1044E00001D0010E016E1FD00BD02DC803F02CC8D7
:1044F000E9FF2DC8EAFFEF5203E1000E016E13D071
:104500002DC803F02C512C2BD8B42D2B2FC803F021
:104510002E512E2BD8B42F2B3051D8B43107300761
:10452000BAD7000E016E00011200040000D0000096
:104530000801906B90511D081CE3036A90512A25D5
:10454000E96E2B510320EA6EEF503A0810E1902BF0
:10455000036A90512A25E96E2B510320EA6EEF5031
:10456000200801E1902B040000D0000002D0902B25
:10457000E1D790C891F8036A91512A25E96E2B5131
:104580000320EA6EEF521DE09051915D036A2C0FFB
:10459000016E080E032203C093F8036A91512A2585
:1045A000E96E2B510320EA6EEFCF94F893C8EAFF2F
:1045B00001C0E9FF94C8EFFF040000D00000912B78
:1045C000DAD79051915D036A2C0FE96E080E032033
:1045D000EA6EEF6A040000D000002BC8EAFF2AC888
:1045E000E9FF080EE26E2C0EE16EE752E6CFEEFF19
:1045F000FCE1040000D00000000112000501CA6BBC
:10460000C96BCC6BCD6B440EF66E220EF76E0001BB
:10461000C3EC15F00501CA511308D8A07FD004E1FE
:10462000C9518708D8A07AD0C92BD8B4CA2BA4AA5C
:1046300068D0000151EC1DF001C0CBF50400010E63
:10464000006E002EFED700D000000501CB512B08D4
:104650000BE1CC6B010ECD6F0400010E006E002E3D
:10466000FED700D0000007D0CB510D0804E1CD519A
:10467000020801E153D0CD5344E0CC51CC2B036A66
:10468000650FE96E050E0320EA6ECBC5EFFF04004F
:10469000010E006E002EFED700D00000036ACC5140
:1046A000650FE96E050E0320EA6EEF6A0400010E45
:1046B000006E002EFED700D00000CC51050821E18D
:1046C0002B0ECE6F430ECF6F470ED06F530ED16FB0
:1046D0004E0ED26FD36B050E08012D6F650E2C6F39
:1046E000050E2F6FCE0E2E6F316B050E306F000151
:1046F000D1DE0152D8B402D0050103D0020E05016B
:10470000CD6F04000D0ED46F2D0E0801B76F0001A0
:10471000A3EC1DF00501D42FF7D77DD7050E0801B6
:104720002B6F650E2A6F000100DF010E0801B66FC6
:10473000000154EC12F0010EEA6E4B0EE96E050E0C
:10474000E26E650EE16EE752E6CFEEFFFCE1010E90
:104750000801B66F000154EC12F0050E0801B66FA7
:10476000000154EC12F0DBEF6EF00601A46B0701C0
:10477000D26BD16B0601A3C603F0A251D8B4A30734
:10478000A207031045E0A4AA3AD0000151EC1DF0A5
:1047900001C0D3F70701D2C703F0D151D12BD8B450
:1047A000D22BD46FA50ED425E96E060E0320EA6E37
:1047B000D3C7EFFF040000D00000A50ED125E96E9D
:1047C000060ED221EA6EEF6A040000D00000060156
:1047D000A4530AE10701D3514F08D8B402D006010F
:1047E00003D00601A42B0BD0A42D09D00701D3516F
:1047F0004B08D8B402D0060102D0060109D0010E40
:104800000801B66F000154EC12F00701B3D706019E
:10481000A50E016E060E026E000112000900F6CF11
:104820002BF8F7CF2CF8F550A4A8FED7736E2BC841
:10483000F6FF2CC8F7FF08012A2F01D002D0000193
:10484000EDD70001120008012AC8E9FF2BC8EAFFD2
:10485000EFCF2EF82DC803F02CC8E9FF2DC8EAFFD2
:10486000EF502E5D15E12BC803F02AC8E9FF03C005
:10487000EAFFEF5203E1000E016E1FD02BC803F0D8
:104880002A512A2BD8B42B2B2C2BD8B42D2BDCD788
:104890002BC803F02AC8E9FF2BC8EAFFEFCF2EF898
:1048A0002DC803F02CC8E9FF2DC8EAFFEF502E5D9C
:1048B00002E2FF0E01D0010E016E000107EF2DF0A4
:1048C00035C839F834C838F839C803F0080138C891
:1048D000E9FF39C8EAFFEF5230E037C83BF836C885
:1048E0003AF83BC803F03AC8E9FF3BC8EAFFEF5289
:1048F0000AE13451385D006E35513959036E00C0FC
:1049000001F023D010D038C8E9FF39C8EAFFEFCF53
:104910003CF83BC803F03AC8E9FF3BC8EAFFEF5058
:104920003C5D01E104D03A2BD8B43B2BDAD7382BCD
:10493000D8B4392B0001C8D708013451385D006E56
:1049400035513959036E00C001F00001FDEF24F02C
:1049500035C839F834C838F839C803F0080138C800
:10496000E9FF39C8EAFFEF522AE037C83BF836C8FA
:104970003AF83BC803F03AC8E9FF3BC8EAFFEF52F8
:1049800018E038C8E9FF39C8EAFFEFCF3CF83BC868
:1049900003F03AC8E9FF3BC8EAFFEF503C5D05E190
:1049A00038C801F039C802F00DD03A2BD8B43B2BEF
:1049B000E0D7382BD8B4392B0001CED70801000E30
:1049C000016E026E00011EEF25F008012C512D1121
:1049D00004E02DC803F02C5103D018C003F0175089
:1049E000306F03C031F831C835F830C834F82FC8FB
:1049F00037F82EC836F8000163D701500801302778
:104A0000000E312331C803F030C8E9FF31C8EAFF96
:104A1000EF520AE117C0E9FF18C0EAFF200EEF6E5F
:104A2000000E016E026E27D031C835F830C834F858
:104A30002FC837F82EC836F800018AD702C033F8DD
:104A400001C032F833C803F0080132C8E9FF33C8A7
:104A5000EAFFEF5208E032C8E9FF33C8EAFFEF6A25
:104A6000322BD8B4332B33C818F032C817F030C803
:104A700001F031C802F0000112002DC833F82CC833
:104A800032F82BC831F82AC830F82FC803F00801D3
:104A90002EC8E9FF2FC8EAFFEF522AE02FC803F023
:104AA0002E512E2BD8B42F2BE96E03C0EAFFEFCF87
:104AB00034F833C838F832C837F831C836F830C857
:104AC00035F834C839F8000169EC13F0010E08011B
:104AD000B66F000154EC12F0010E08013027D8B077
:104AE000312BD8B4322BD8B4332B0001CED70801E8
:104AF0002FC803F02EC8E9FF2FC8EAFFEF5214E1D8
:104B000033C838F832C837F831C836F830C835F805
:104B10000D0E396F000169EC13F0010E0801B66F3C
:104B2000000154EC12F0080100011200EF5210E0F5
:104B3000EACF3CF8E9CF3BF8EF50A4A8FED7736E5C
:104B40003CC8EAFF3BC8E9FFE92AD8B4EA2AEED715
:104B500012001A0E0801376FBE0EF66E1F0EF76EAA
:104B60000001C3EC15F04F0E0801386F4B0E396F82
:104B70003A6B080E3E6F380E3D6F270E406F100ED9
:104B80003F6F0001B3EC1DF00801369101B0368192
:104B9000020E3B6FFA0EB66F000154EC12F00801E2
:104BA0003B2FF8D7CA0EF66E1F0EF76E0001C3EC4E
:104BB00015F04F0E0801386F4B0E396F3A6B080E27
:104BC0003E6F380E3D6F270E406F100E3F6F000195
:104BD000B3EC1DF00801369101B03681020E3B6F37
:104BE000FA0EB66F000154EC12F008013B2FF8D713
:104BF000DA0EF66E1F0EF76E0001C3EC15F033C827
:104C0000EAFF32C8E9FF92DF0D0EA4A8FED7736E4B
:104C10000A0EA4A8FED7736E3E0E0801386F396BDA
:104C2000080E3E6F380E3D6F270E406F100E3F6F1F
:104C30000001B3EC1DF00801369101B03681320E4F
:104C4000B66F000154EC12F035C8EAFF34C8E9FF32
:104C50006DDF08013751A4A8FED7736E4F0E386F71
:104C60004B0E396F3A6B080E3E6F380E3D6F270EB4
:104C7000406F100E3F6F0001B3EC1DF0080136913C
:104C800001B03681320EB66F000154EC12F0120002
:104C900008012A5318E09290899092928992960E78
:104CA000B66F000154EC12F0929089800E0E08014C
:104CB0002B6FFA0EB66F000154EC12F008012B2F87
:104CC000F8D792908990040153834E93546B00015E
:104CD0001200440E08012A6F6F0E2B6F6E0E2C6FA0
:104CE000650E2D6F210E2E6F2F6B010E336F170E79
:104CF000326F080E356F2A0E346F00012ADF120062
:104D000008013751B608376F036A38C83BF8388F47
:104D1000D890383339333A33033202320132003219
:104D2000372FF6D73BAF0BD0001E011E021E031E0D
:104D3000002AD8B4012AD8B4022AD8B4032A000120
:104D40001200D8B204D0080EEA6E3F0EE96E006A77
:104D5000016A026A036A08013F6B406B416B426B58
:104D60003E513D113C113B112CE0200E436FD89079
:104D70003737383739373A373F3740374137423797
:104D80003E51425D08E13D51415D05E13C51405DD0
:104D900002E13B513F5D0FE33B513F5F3C51D8A0E7
:104DA0003C3D405F3D51D8A03D3D415F3E51D8A0C4
:104DB0003E3D425FD8800036013602360336432F2F
:104DC000D6D73FC8EFFF40C8ECFF41C8ECFF42C850
:104DD000ECFF00011200E95008012F6F2E51316FD6
:104DE0001CE02DC83CF82CC83BF82BC83AF82AC860
:104DF00039F8406B3F6B200E3E6F820E3D6F000115
:104E00008CEC17F003C02DF802C02CF801C02BF871
:104E100000C02AF80801312FE4D72DC83AF82CC871
:104E200039F82BC838F82AC837F8000169DF03C001
:104E30002DF802C02CF801C02BF800C02AF8080198
:104E40002DAF0DD02F072F8B2A1F2B1F2C1F2D1F8F
:104E50002A2BD8B42B2BD8B42C2BD8B42D2B3B0E0B
:104E6000366F9A0E356FCA0E346F336B0A0E316F80
:104E70002E51D8B42F2BD882080EEA6E2A0EE96E76
:104E80002DC83AF82CC839F82BC838F82AC837F892
:104E900036C83EF835C83DF834C83CF833C83BF84E
:104EA00000014FDF0150005213E108012E29315D4E
:104EB000D8A402D000010CD02F510DE00F0B315DB2
:104EC00001E044E22FBF42D02FBD05D0200E37D0E5
:104ED000200E08012F172FAB0FD02F9B2E51D8A4D7
:104EE0002F0700502F6F2D0E376F000126EC15F0A5
:104EF00008012F51006E2F6B2E51315D0DE10050D6
:104F00002F6F2E0E376F000126EC15F008012F5180
:104F1000006E200E2F17000E300E2FAB10D02F9BDF
:104F20002E51D8A42F0700502F6F2D0E376F000180
:104F300026EC15F008012F51006E2F6B300E002665
:104F400000C037F8000126EC15F00801D89236C8E9
:104F50003AF835C839F834C838F833C837F83E6BF2
:104F60003D6B3C6B0A0E3B6F0001EBDE03C036F875
:104F700002C035F801C034F800C033F80801312F01
:104F80007AD700011200EACF32F8E9CF31F80801F0
:104F90002BAF08D0318F31A9312B2A1F2B1F2A2B81
:104FA000D8B42B2B2B39F0092D6F2D27E20F2E6F44
:104FB000320F306F2B510F0B2E272E273027E90F82
:104FC0002F6F2F272F272A390F0B2F2730272F3707
:104FD0003037301F30372A510F0B30272D37070E4F
:104FE0002C6F0A0E2F073027FDE32E072F27FDE336
:104FF0002D072E27FDE32C072D27FDE3080EEA6E73
:105000002C0EE96E070E3115319DED52311507E179
:1050100031B9EE5231B903D0200E006E21D0E9260D
:10502000000EEA22E950300804E1EA50080801E1E4
:10503000318DEF50006E08E131BD06D031B91ED080
:1050400031B702D0200E0BD031AF06D02D0E006E3E
:10505000ED50319D319F04D031873199300E0026BB
:10506000EACF2BF8E9CF2AF800C037F8000126EC88
:1050700015F02BC8EAFF2AC8E9FF0801EE5031AD50
:10508000D1D70001BEEF39F008013151016A305D1E
:1050900003E230C800F00CD0006A080E326F3037DF
:1050A00000363151005CD8B0006E0136322FF7D790
:1050B00000011200200E08012BA9300E2C6F2AC807
:1050C00000F02AAF08D0001E002A00C02AF82D0EDA
:1050D0002C6F2B8F2B8101502AC830F8640E316F52
:1050E0000001D2DF00C02AF8300E012408012D6F24
:1050F0002AC830F80A0E316F0001C6DF300E0024D6
:1051000008012F6F300E01242E6F2CC800F0300ED6
:105110002D5D04E02B832BBF2B8512D02CC82DF8DE
:10512000200E2C6F300E2E5D04E02B812BBF2B83C5
:1051300007D0D8A42B8104E12DC82EF8200E2D6FA6
:105140002BB505D02BB308D02BB10BD00FD02CC86A
:1051500037F8000126EC15F02DC837F8000126ECD1
:1051600015F02EC837F8000126EC15F02FC837F8D7
:10517000000126EC15F012008E0E006E3EC801F004
:105180003DC802F0036A015209E102C001F0026A5F
:10519000080E005E015202E1006A08D0D89001BEFC
:1051A00004D0023601360006F9D7019E120008012C
:1051B0003D51D8B4A5D0496F4151D8B4A1D0495F71
:1051C00005E37F0E4927D8B09BD006D0810E495FFA
:1051D000D8A096D0D8B494D049C800F0016A026A29
:1051E000036A486B3EC847F8478F3FC846F840C837
:1051F00045F8190E496F4451455F0DE2010E465FB7
:105200000AE2475F08E2485F06E2482B472B462B3D
:105210004451452728D04351465F12E2010E475FB3
:105220000FE2485F0DE2482B472B4351462744517C
:10523000452719E3462B17E1472B15E1482B13D0DF
:1052400042518009475F0EE2010E485F0BE2482B96
:1052500042518009472743514627E9E3472BE7E1BD
:10526000482BE5D70380492F01D00BD0D890453784
:10527000463747374837D8900336023601364A3723
:10528000BAD74AA106D0D8900132023203324A334B
:1052900002D0000635E04ABF1ED0D89045374637C9
:1052A000473748374451455F07E2010E465F04E245
:1052B000475F02E2485F1AE34351465F05E2010E91
:1052C000475F02E2485F12E342518009475F03E211
:1052D000010E485F0BE3032A09E1022A07E1012AD4
:1052E00005E1002A0DE00132023203323EC849F8DE
:1052F0004251491B49AF02D0018E06D0019E04D015
:10530000006A016A026A036A00011200800ED8A2D4
:1053100002D00801421B0801476B486B3EC846F8A3
:105320004251461B3D51D8B4DFD0456F006E41510C
:10533000D8B4E3D0455FD8B483D03EE342C84BF83D
:105340004B8F43C84AF844C849F8486BD8904B3350
:105350004A3349334833452FF8D746AF03D0478106
:10536000E0D0479145914789080EEA6E400EE96EFC
:10537000EBD0479946BF0AD045A113D04B334A33EF
:1053800049334833002AD8B4C7D00BD04BBF0CD018
:10539000D890483749374A374B370006D8B4BCD085
:1053A000F5D7478D6DD0479D3EC846F83EAF02D039
:1053B0004B8FABD04B9FA9D041C845F841C800F0F6
:1053C0003D51455F3EC84BF84B8F3FC84AF840C837
:1053D00049F8486BD8904B334A3349334833452F0B
:1053E000F8D746AF03D047839CD047934591478B6E
:1053F000080EEA6E440EE96EA7D0479B46BF0AD05E
:1054000045A113D04B334A3349334833002AD8B42B
:1054100083D00BD04BBF0CD0D890483749374A3790
:105420004B370006D8B478D0F5D7478F29D0479F9F
:1054300042C846F842AF02D04B8F67D04B9F65D031
:1054400042C84BF84B8F43C84AF844C849F846AFA6
:1054500004D04B9F478565D04795486B4591080E12
:10546000EA6E400EE96E70D046BF1CD03EC846F8CA
:1054700045A106D04B334A3349334833002A4CE028
:1054800048AF0BD0492B09E14A2B07E14B2B05E133
:105490004B334A334933002A3FE047BD84D747BFE7
:1054A000C6D71CD0800E4B1B4BAF04D03AD042C89D
:1054B00046F80AD03EC846F84B5306E14A5304E189
:1054C000495302E1006A21D04BBF08D0D890483739
:1054D00049374A374B37002EF7D71ED046AF02D098
:1054E0004B8F13D04B9F11D041C800F042C84BF8EE
:1054F00043C84AF844C849F808D03DC800F03EC83F
:105500004BF83FC84AF840C849F84BC801F04AC8B0
:1055100002F049C803F034D0006A016A026A036AE3
:105520002FD0486B491F4A1F4B1F481F482B05E1CE
:10553000492B03E14A2B01E14B2B47B112D747B36B
:1055400054D747B589D7B3D7EF50492705E34A2B3E
:1055500003E14B2BD8B44581ED52EF504A2703E3CA
:105560004B2BD8B44581ED52EF50EFBE01D0800AED
:105570004B27D8B0458147B9FCD647BB3ED774D737
:10558000000112000801316B306B2F6B7F0E2E6F04
:10559000356B346B336B326B368136933695386BA3
:1055A0002A512B1105E1006A016A026A036A12D1CD
:1055B0003851382B036A2A25E96E2B510320EA6EF5
:1055C000EFCF37F83753D8B4C7D036A10FD0375103
:1055D00020080CE0369137512B0803E13693AFD009
:1055E00005D037512D0802E13683A9D036B107D056
:1055F00037512E0804E136B502D03685A0D036B139
:105600009BD037512F08D8B097D037513908D8A040
:1056100093D0300E375F36A554D031C83CF830C82F
:105620003BF82FC83AF82EC839F8406B3F6B200E74
:105630003E6F820E3D6F00018CEC17F003C031F815
:1056400002C030F801C02FF800C02EF808013E6BF0
:1056500037C83DF8000190DD03C03CF802C03BF8BC
:1056600001C03AF800C039F803C040F802C03FF862
:1056700001C03EF800C03DF831C844F830C843F8D6
:105680002FC842F82EC841F892DDD89235C840F8AC
:1056900034C83FF833C83EF832C83DF803C044F878
:1056A00002C043F801C042F800C041F82FDE03C039
:1056B00035F802C034F801C033F800C032F83AD0EF
:1056C00008013C6B3B6B200E3A6F820E396F35C878
:1056D00040F834C83FF833C83EF832C83DF80001FE
:1056E0008CEC17F003C03CF802C03BF801C03AF85C
:1056F00000C039F808013E6B37C83DF800013CDDB9
:10570000D8923CC840F83BC83FF83AC83EF839C880
:105710003DF803C044F802C043F801C042F800C09D
:1057200041F8F4DD03C035F802C034F801C033F8A5
:1057300000C032F805D0080136B101D00DD000010B
:1057400008013851382B036A2A25E96E2B510320B2
:10575000EA6EEFCF37F836D736A31AD03C6B3B6BE7
:10576000800E3A6F7F0E396F35C840F834C83FF865
:1057700033C83EF832C83DF800018CEC17F003C086
:1057800035F802C034F801C033F800C032F808011F
:105790002C512D1117E038530CE038072CC8E9FFC5
:1057A0002DC8EAFF38512A25EF6E000E2B21EC6E32
:1057B00009D02CC8E9FF2DC8EAFF2BC8ECFFED5239
:1057C0002AC8EFFF32C800F033C801F034C802F035
:1057D00035C803F000011200060E0401606F0601D7
:1057E000A46BAA6B0701E06BDF6B270EE26F100E54
:1057F000E16FE40EF66E1F0EF76E080E08012A6FB9
:1058000000010EEC24F00601A351A4A8FED7736E8C
:105810000D0EA4A8FED7736E0A0EA4A8FED7736E51
:105820000701E2C703F0E151D8B4E207E107031032
:10583000D8B4E1D0A4AAD6D0000151EC1DF001C02B
:10584000A5F6040000D000000601AA2D0DD0A55138
:105850002C080AE0AB51AB2B036ACE0FE96E070EA2
:105860000320EA6EA5C6EFFFA451020818E1A55176
:105870002C0815E1AA5304E1010EAA6FAB6B0FD0FF
:10588000AA2D0DD0020EAA6F036AAB51CE0FE96E9E
:10589000070E0320EA6EEF6A040000D00000A45354
:1058A0000CE1A5512B0809E1010EA46F0701E06B83
:1058B000DF6B040000D000000601A5510D0809E1CE
:1058C000A451030806E1040000D00000070193D0B2
:1058D0000601A42D01D003D0A451020827E107013D
:1058E000E0C703F0DF51DF2BD8B4E02B08012A6FAB
:1058F000AC0E2A25E96E060E0320EA6EA5C6EFFF60
:10590000040000D00000AC0E0701DF25E96E060E92
:10591000E021EA6EEF6A040000D00000E05303E1EA
:10592000DF517F0801E267D029D00601A4510308A6
:1059300026E10701E0C703F0DF51DF2BD8B4E02BED
:1059400008012A6F600E2A25E96E070E0320EA6E11
:10595000A5C6EFFF040000D00000600E0701DF25A0
:10596000E96E070EE021EA6EEF6A040000D0000045
:10597000E05303E1DF51630801E23DD00601A55188
:105980000A0809E1A451020806E10701E06BDF6B98
:10599000030E0601A46FA42D23D02B0E0701E36F85
:1059A000430EE46F4D0EE56F470EE66F520EE76F44
:1059B000E86B060E08012D6FAC0E2C6F070E2F6FD3
:1059C000E30E2E6F316B050E306F00014AEC22F0B2
:1059D000015207E1020E0601A46F040000D000008E
:1059E00000010701010E0801B66F000154EC12F02E
:1059F000060116D70701070E08012B6FCE0E2A6F7E
:105A0000010E2D6F170E2C6F000123EF24F00152B1
:105A1000D8A42AEF3DF0070160512308D8A46BD128
:105A2000EB6B230EEC6FED6B070E08012D6F600E14
:105A30002C6F070E2F6FEC0E2E6F0001E5EC24F09B
:105A400002C0EAF701C0E9F70701E951EA11D8B449
:105A5000A8D0EB51000A000111E0010A1DE0030A81
:105A600029E0010A35E0070A41E0010A4DE0030A96
:105A700059E0010A65E00F0A71E07ED008012D6B44
:105A80002C6B2B6B120E2A6FEAC72FF8E9C72EF882
:105A900000013DEC25F070D008012D6B2C6B2B6BB9
:105AA000160E2A6FEAC72FF8E9C72EF800013DEC61
:105AB00025F062D008012D6B2C6B2B6B1A0E2A6F10
:105AC000EAC72FF8E9C72EF800013DEC25F054D0C5
:105AD00008012D6B2C6B2B6B200E2A6FEAC72FF859
:105AE000E9C72EF800013DEC25F046D008012D6BEA
:105AF0002C6B2B6B500E2A6FEAC72FF8E9C72EF8D4
:105B000000013DEC25F038D008012D6B2C6B2B6B80
:105B1000300E2A6FEAC72FF8E9C72EF800013DECD6
:105B200025F02AD008012D6B2C6B2B6B700E2A6F81
:105B3000EAC72FF8E9C72EF800013DEC25F01CD08C
