:0400000030EF07F0E6
:06000800ECEF07F012000E
:0E0010009486948850EF07F0F1EF07F012008D
:10002000D76BD86BD85101082BE3D6C003F0D5C0ED
:10003000E9FFD6C0EAFFEF50400810E2D751100D9B
:10004000F3CFD9F0D6C003F0D5C0E9FFD6C0EAFFA0
:10005000EF50D925BF0F0A0FD76F0CD0D751100D15
:10006000F3CFD9F0D5C0E9FFD6C0EAFFEF50D925CC
:10007000D00FD76FD851D82BD52BD8B4D62BD2D7F9
:10008000D7C001F0120046C103F0010145C1E9FFEC
:1000900046C1EAFFEF5205E143C101F044C102F05D
:1000A0004AD044C103F043C1E9FF44C1EAFFEF5223
:1000B0003FE044C148F143C147F146C14AF145C15F
:1000C00049F148C103F047C1E9FF48C1EAFFEF52D7
:1000D0001EE04AC103F049C1E9FF4AC1EAFFEF52FD
:1000E00016E047C1E9FF48C1EAFFEFCF4BF14AC133
:1000F00003F049C1E9FF4AC1EAFFEF504B5D07E158
:10010000472BD8B4482B492BD8B44A2BDAD74AC14D
:1001100003F049C1E9FF4AC1EAFFEF5205E143C1DB
:1001200001F044C102F007D0432BD8B4442BB9D717
:10013000000E016E026E00011200DA6BD96B010134
:100140004191426B0001D85309E1D75307E1DA51DD
:10015000D65D4FE303E1D551D95D4BE2A4AA3ED071
:1001600001014251422B036ADD0FE96E000E0320AC
:10017000EA6EEACF46F1E9CF45F10001A7DA46C1C0
:10018000EAFF45C1E9FF01C0EFFF040000D0000015
:10019000036A01014251DD0FE96E000E0320EA6E91
:1001A000EF6A040000D00000446BDD0E436FD4C042
:1001B00046F1D3C045F1000166DF02C0DCF001C0AA
:1001C000DBF0DB51DC110AE0040000D0000001018B
:1001D0004181040000D0000000010BD0D92BD8B41D
:1001E000DA2B0400050E006E002EFED700D00000B2
:1001F000AAD7050E0101436F000182D8000E01014C
:1002000041B1010E016E00011200D66BD56BD46BAB
:10021000D36BD76BD151D21105E1006A016A026A32
:10022000036A36D0036AD751D125E96ED251032033
:10023000EA6EEFCFD8F0D85323E0D8512F0820E250
:10024000D85139081DE3D6C0DCF0D5C0DBF0D4C0EE
:10025000DAF0D3C0D9F0E06BDF6BDE6B0A0EDD6F36
:1002600040D2300ED85D0024D36F000E0120D46F31
:10027000000E0220D56F000E0320D66FD72BD2D7E9
:10028000D3C000F0D4C001F0D5C002F0D6C003F056
:10029000120041542B51464F50454E3D226D61692D
:1002A0006E25642E747874220D0A000041542B517F
:1002B00046524541443D313032372C3630300D0AFC
:1002C000000041542B51465345454B3D31303237A8
:1002D0002C256C642C320D0A000041542B514652DF
:1002E0004541443D313032372C34350D0A004154FC
:1002F0002B5146434C4F53453D313032370D0A00A8
:10030000010EEA6E430EE96EEF5011E0050E016E2C
:10031000BF0E006E0400002EFDD7012EF9D72E0E61
:10032000006E002EFED700000400EF2EEFD7120063
:10033000080E016E040E006E002EFED78B9694966A
:10034000040E006E002EFED7DD378B98D8B094884F
:10035000D8A09498948682A6FED7012EEBD7040EDF
:10036000006E002EFED78B96949600009488040EA3
:10037000006E002EFED7040E006E002EFED794866F
:1003800082A6FED7016A040E006E002EFED782B848
:1003900001808B9694968B9894981200080E516E5B
:1003A00000C052F09488040E006E002EFED7948692
:1003B00082A6FED782B8D88082A8D8900136040ED3
:1003C000006E002EFED794968B96512EEBD7948814
:1003D000040E006E002EFED78B985250D8A494982D
:1003E0000000948682A6FED7040E006E002EFED773
:1003F0008B969496040E006E002EFED78B989498E0
:100400004BEF02F04D5203E14C50000803E2A80EFE
:100410004F6E02D0A00E4F6E9488040E006E002E18
:10042000FED79486040E006E002EFED782A6FED75D
:100430008B989498040E006E002EFED78B9694969F
:100440004FC0DDF075DF4BC051F04CC052F04DC0D5
:1004500053F0546A4BC0DDF06BDF4AC0DDF068DF5B
:100460009488040E006E002EFED79486040E006E53
:10047000002EFED782A6FED78B989498040E006EAD
:10048000002EFED78B969496010E4F24506EDD6F92
:100490004FDF006A83D701C04EF094980000948625
:1004A00082A6FED7040E006E002EFED700D00000FC
:1004B0009488040E006E002EFED74EC001F012008C
:1004C000D45303E1D351000803E2A80ED76F02D042
:1004D000A00ED76F9488040E006E002EFED794866F
:1004E000040E006E002EFED78B989498040E006EBA
:1004F000002EFED78B969496D7C0DDF019DFD2C0C0
:10050000D9F0D3C0DAF0D4C0DBF0DC6BD2C0DDF0C0
:100510000FDFD1C0DDF00CDFD5C0DDF009DF94982E
:100520000000948682A6FED7040E006E002EFED731
:1005300000D000009488040E006E002EFED7948830
:10054000040E006E002EFED79486040E006E002E60
:10055000FED78B989498040E006E002EFED78B96D3
:100560009496D7C0DDF0E4DE0150D69101B0D6817B
:10057000D6A11CD09488040E006E002EFED794865F
:10058000040E006E002EFED782A6FED78B9894989C
:10059000040E006E002EFED78B969496D7C0DDF029
:1005A000C7DE0150D69101B0D681E2D71200090012
:1005B000F6CFD2F0F7CFD3F0F550A4A8FED7736EE4
:1005C000D2C0F6FFD3C0F7FFD12FF1D71200D85118
:1005D000016AD75D03E2D7C000F00CD0006A080EB4
:1005E000D96FD7370036D851005CD8B0006E0136CD
:1005F000D92FF7D71200200ED2A9300ED36FD1C059
:1006000000F0D1AF08D0001E002A00C0D1F02D0E9E
:10061000D36FD28FD2810150D1C0D7F0640ED86F82
:10062000D6DF00C0D1F0300E0124D46FD1C0D7F096
:100630000A0ED86FCCDF300E0024D66F300E0124A6
:10064000D56FD3C000F0300ED45D04E0D283D2BFAA
:10065000D28512D0D3C0D4F0200ED36F300ED55D2A
:1006600004E0D281D2BFD28307D0D8A4D28104E1E2
:10067000D4C0D5F0200ED46FD2B505D0D2B307D0F8
:10068000D2B109D00CD0D351A4A8FED7736ED451E7
:10069000A4A8FED7736ED551A4A8FED7736ED65109
:1006A000A4A8FED7736EDFEF04F00900F5520DE049
:1006B000F6CFD1F0F7CFD2F0F550A4A8FED7736EE5
:1006C000D1C0F6FFD2C0F7FFF0D71200A4AAFED720
:1006D00071CF04F074CF01F004A202D07198718838
:1006E0001200E16BE26B010EE36FDA6AD96AE66B26
:1006F000D90EE56FEA6ADD0EE96EE6C0E2FFE5C0FD
:10070000E1FFE3C0E4F0D890E550EE02F350E123BE
:10071000F450E223E42FF7D7E1C0DEFFE2C0E1F0BE
:10072000E26BD8B0E22BE52BD8B4E62BE32BE351F8
:100730000508E0E131EF01F0D8B203D0EA6AE50E36
:10074000E96E006A016A026A036AE56BE66BE76BB1
:10075000E86BE451E311E211E1112CE0200EE96FA6
:10076000D890DD37DE37DF37E037E537E637E73774
:10077000E837E451E85D08E1E351E75D05E1E25166
:10078000E65D02E1E151E55D0FE3E151E55FE25134
:10079000D8A0E23DE65FE351D8A0E33DE75FE45136
:1007A000D8A0E43DE85FD880003601360236033633
:1007B000E92FD6D7E5C0EFFFE6C0ECFFE7C0ECFFBE
:1007C000E8C0ECFF1200E950D56FD4AF0DD0D507CB
:1007D000D58BD11FD21FD31FD41FD12BD8B4D22B6E
:1007E000D8B4D32BD8B4D42B3B0EDC6F9A0EDB6F6E
:1007F000CA0EDA6FD96B0A0ED76FD882EA6AD10EA9
:10080000E96ED4C0E0F0D3C0DFF0D2C0DEF0D1C0DA
:10081000DDF0DCC0E4F0DBC0E3F0DAC0E2F0D9C028
:10082000E1F08ADF015000520FE1D751010A0CE0DC
:10083000D5510CE00F0BD75D01E027E2D5BF25D0E5
:10084000D5BD04D0200E1CD0200ED517D5AB0AD0B4
:10085000D59B00C0D5F02D0EA4A8FED7736ED5C0D1
:1008600000F0D56B300ED5AB0BD0D59B00C0D5F0CA
:100870002D0EA4A8FED7736ED5C000F0D56B300E38
:1008800000260050A4A8FED7736ED892DCC0E0F01A
:10089000DBC0DFF0DAC0DEF0D9C0DDF0E46BE36B83
:1008A000E26B0A0EE16F48DF03C0DCF002C0DBF050
:1008B00001C0DAF000C0D9F0D72F9FD7BAEF05F00A
:1008C000F250036EF29EA68EA6840F01550EA76EFF
:1008D000AA0EA76EA68200000350F21200011200B9
:1008E000D08CA69CF6503F0B006EC00EF6160A0088
:1008F000D1C001F0006607D0EECFF5FF015204E051
:100900000F00010603D000060B000C003F0EF6148A
:100910003F0AF0E1A688D4DFD3DF0166EBD7F86A9F
:1009200006EF07F04C904C924C94526A516A566A0A
:10093000556A546A536A9290899092928982040E01
:10094000D16FFA0E0101436F0001DADCD12FF9D724
:1009500092928992040ED16FFA0E0101436F000149
:10096000CFDCD12FF9D7929089800A0ED16FD20EA9
:100970000101436F0001C4DCD12FF9D79290899017
:10098000280ED16FFA0E0101436F0001B9DCD12F9F
:10099000F9D794928B920550020803E1010E4B6E39
:1009A00002D0020E4B6E920EF66E020EF76E0F0E16
:1009B000D16FFDDD4BC0D1F0180ED26F1CD6A30E47
:1009C000F66E020EF76E070ED16FF1DD040ED16FD9
:1009D000FA0E0101436F000193DCD12FF9D7AC0E61
:1009E000F66E020EF76E61DE4CB097D0A4AA8DD0E1
:1009F0006DDE01C04AF04A500A0825E0565223E154
:100A0000555221E154521FE1535041081CE356C096
:100A100003F055C002F054C001F053C000F0010EC5
:100A20005326D8B0542AD8B4552AD8B4562A070E1B
:100A30000024E96E000E0120EA6E4AC0EFFF0400B8
:100A400000D0000062D04A500A085FE1070E53242C
:100A5000E96E000E5420EA6EEF6A040000D0000038
:100A6000075043084BE10F504C0848E115503A0835
:100A700045E1100ECB6F036ACB51070FE96E000EF4
:100A80000320EA6EEF500D081DE0100ECB5D036AE7
:100A9000C30F016E000E032203C0D2F0036ACB51D4
:100AA000070FE96E000E0320EA6EEFCFD3F0D2C03D
:100AB000EAFF01C0E9FFD3C0EFFF040000D000004F
:100AC000CB2BD9D7100ECB5D036AC30FE96E000E96
:100AD0000320EA6EEF6A4C80010E0101436F0001B2
:100AE0000FDCD26BC30ED16F05EC01F003C0B4F084
:100AF00002C0B3F001C0B2F000C0B1F0566A556A4E
:100B0000546A536A040000D000000400050E006E11
:100B1000002EFED700D0000067D74C90566A556A69
:100B2000546A536A94908B80B06BAF6BAE6BAD6BB5
:100B30004CB481D14C904C92AD51B15DB56FAE517A
:100B4000B259B66FAF51B359B76FB051B459B86F0E
:100B5000C20EF66E020EF76E0F0ED16F28DD410E3B
:100B6000E96EB8C0D4F0B7C0D3F0B6C0D2F0B5C00B
:100B7000D1F029D6D40EF66E020EF76E040ED16FA8
:100B800016DD0D0ECC6F0A0ECD6F4F0ECE6F4B0ED5
:100B9000CF6FD06BD46BCC0ED36FD86BD76B9C0E52
:100BA000D66F400ED56F9DEC00F0DA0EF66E020E99
:100BB000F76E7BDD066A5E6AA4AA4AD0036A065015
:100BC000070FE96E000E0320EA6EEACFD4F0E9CFFA
:100BD000D3F07CDDD4C0EAFFD3C0E9FF01C0EFFF52
:100BE000040000D00000036A0650070FE96E000EF3
:100BF0000320EA6EEF503A0804E14CB002D04C807A
:100C00001DD0036A0650070FE96E000E0320EA6E3E
:100C1000EF500D0813E14CB211D04CA00FD04C8214
:100C2000040000D00000062A010E0624AD27000EA5
:100C3000AE23AF23B023040000D000004CA003D0AB
:100C40004CB201D0062A5E2A040000D0000003D076
:100C5000040000D000005E503B08AEE207503A08A6
:100C6000D8A4E8D0D66B080ED56F10EC00F001C008
:100C70005DF0D66B0A0ED56F10EC00F001C0D1F01C
:100C8000D66B0C0ED56F10EC00F0D1C050F001C047
:100C90004FF0D66B0E0ED56F10EC00F001C04EF089
:100CA00051C055F052C056F04FC053F050C054F0F0
:100CB0004E2C02D04C84BED056520CE155520AE163
:100CC00054500E08D8B0B6D0FF0A04E15350CF08F4
:100CD000D8B0B0D05652D8A4ADD055500008D8A046
:100CE000A9D094948B844D6A010E5C6E030E065C51
:100CF0005C5C15E2036A5C50070F016E000E032274
:100D000001C0D1F003C0D2F003C0D6F001C0D5F0CD
:100D100010EC00F001504D26020E5C26E7D7FF0EC6
:100D2000D8804D54010F4D6E030E065C036A070F09
:100D3000016E000E032201C0D1F003C0D2F003C047
:100D4000D6F001C0D5F010EC00F001504D5C23E06E
:100D5000020E056ED46BD36BD26BF70ED16F05C04C
:100D6000D5F060EC02F00A0E0101436F000180EC47
:100D700001F0D46BD36BD26BF80ED16FA50ED56F8B
:100D800060EC02F00A0E0101436F000180EC01F0FB
:100D900094928B824FD094928B924E5238E1090EEE
:100DA0005C6E5B6A030E065C5C5C24E25B505B2A53
:100DB000036A5F0F016E000E032201C0D1F003C071
:100DC000D2F0036A5C50070F016E000E032201C0CF
:100DD000D3F003C0D4F003C0D6F001C0D5F010ECBE
:100DE00000F0D2C0EAFFD1C0E9FF01C0EFFF020E60
:100DF0005C26D8D755C0F8FF54C0F7FF53C0F6FFA4
:100E0000EA6A5F0EE96E5DC0D1F06AD513D04E502C
:100E1000040810E1D66B100ED56F10EC00F001C085
:100E2000D1F0D66B120ED56F10EC00F0D1C052F09D
:100E300001C051F07DD6320E0101436F000180ECFC
:100E400001F0EE0EF66E020EF76E2FDC320E01018F
:0E0E5000436F000180EC01F0E8EF07F01200A4
:100E6000F86AD09E046A7086A00E756E010E766ECA
:100E7000A60E726E900E716E496AC150F00BC16E73
:100E8000000E0F01386F396F3A6F776A786A796AA6
:100E9000640E0101436F000180EC01F008EF00F0E7
:100EA000640E0101436F000180EC01F04D6A4C6A51
:100EB0004B6AF80E4A6E02EC02F00150A5081EE1E2
:100EC0000A0E0101436F000180EC01F04D6A4C6A8B
:100ED0004B6AF70E4A6E02EC02F001C005F00550B5
:100EE00002080BE14D6A4C6A4B6AF90E4A6E02EC3D
:100EF00002F00150A50801E0056A20D0010E056E40
:100F0000D46BD36BD26BF70ED16F05C0D5F060EC0C
:100F100002F00A0E0101436F000180EC01F0D46B76
:100F2000D36BD26BF80ED16FA50ED56F60EC02F0CB
:100F30000A0E0101436F000180EC01F0055203E04D
:100F4000055002080EE194928B82040E4A6EFA0E4E
:100F50000101436F000180EC01F04A2EF8D7E2DC7A
:0C0F600004D0052C02D0E8EF07F00300DD
:040FD00040EF69F095
:080FD800046ED8CF05F0E0CF54
:100FE00006F00001E9CF0CF0EACF07F0E1CF08F0FE
:100FF000E2CF09F0D9CF0AF0DACF0BF0F3CF12F03D
:10100000F4CF13F0FACF14F000C00EF001C00FF0CF
:1010100002C010F003C011F09DA212EF08F09EB2C2
:101020002EEF0DF00EC000F00FC001F010C002F066
:1010300011C003F00CC0E9FF07C0EAFF078E08C02B
:10104000E1FF09C0E2FF0AC0D9FF0BC0DAFF12C0FE
:10105000F3FF13C0F4FF14C0FAFF045006C0E0FF12
:1010600005C0D8FF1000F2CF0DF0F29EF76A800F96
:10107000F66E100EF7220900F5500DBEF28E12002A
:1010800068656C6C6F20776F726C6400F2CF0DF046
:10109000F29EF76AA60FF66E100EF7220900F550C1
:1010A0000DBEF28E12004F536F666600F2CF0DF048
:1010B000F29EF76AC60FF66E100EF7220900F55081
:1010C0000DBEF28E12002447504747410000F2CF78
:1010D0000DF0F29EF76AE80FF66E100EF722090087
:1010E000F5500DBEF28E120024474E4747410000D6
:1010F000F2CF0DF0F29EF76A0A0FF66E110EF7228C
:101100000900F5500DBEF28E1200244750524D4397
:101110000000F2CF0DF0F29EF76A2C0FF66E110E62
:10112000F7220900F5500DBEF28E120024474E52F0
:101130004D430000F2CF0DF0F29EF76A4E0FF66EAF
:10114000110EF7220900F5500DBEF28E1200566105
:101150006C696400F2CF0DF0F29EF76A6E0FF66EC6
:10116000110EF7220900F5500DBEF28E12005468E0
:10117000656674206F7220546F77696E67206163B3
:101180007469766974792064657465637465640054
:10119000F2CF0DF0F29EF76AAA0FF66E110EF7224B
:1011A0000900F5500DBEF28E12006770732073694E
:1011B000676E616C206C6F737400F2CF0DF0F29E5D
:1011C000F76AD40FF66E110EF7220900F5500DBE26
:1011D000F28E1200496E76616C696400F2CF0DF0F8
:1011E000F29EF76AF60FF66E110EF7220900F5501F
:1011F0000DBEF28E12000D0A434F4E4E4543540D64
:101200000A00F2CF0DF0F29EF76A1C0FF66E120E76
:10121000F7220900F5500DBEF28E12000D0A4F4B59
:101220000D0A0D0A2B51485454504745543A20306A
:101230002C3230302C00F2CF0DF0F29EF76A500FB6
:10124000F66E120EF7220900F5500DBEF28E120056
:101250000D0A4F4B0D0A0D0A2B514854545052455C
:10126000414446494C453A20300D0A00F2CF0DF07A
:10127000F29EF76A860FF66E120EF7220900F550FD
:101280000DBEF28E12006F74612066696C65206479
:101290006F776E6C6F6164656400F2CF0DF0F29E43
:1012A000F76AB40FF66E120EF7220900F5500DBE64
:1012B000F28E12004F536F6E0000F2CF0DF0F29ECF
:1012C000F76AD40FF66E120EF7220900F5500DBE24
:1012D000F28E120049444C450000F2CF0DF0F29E10
:1012E000F76AF40FF66E120EF7220900F5500DBEE4
:1012F000F28E120052554E4E494E4700F2CF0DF07D
:10130000F29EF76A160FF66E130EF7220900F550DB
:101310000DBEF28E12005041524B45440000F2CFF8
:101320000DF0F29EF76A380FF66E130EF7220900E1
:10133000F5500DBEF28E1200496E20526F6D696E2F
:101340006700F2CF0DF0F29EF76A5C0FF66E130E97
:10135000F7220900F5500DBEF28E1200486F6D6540
:10136000204E6574776F726B0000F2CF0DF0F29E25
:10137000F76A840FF66E130EF7220900F5500DBEC2
:10138000F28E120067707320676F742066697800B0
:10139000F2CF0DF0F29EF76AAA0FF66E130EF72247
:1013A0000900F5500DBEF28E1200736572766572FB
:1013B00020636F6E6E65637465640000F2CF0DF09C
:1013C000F29EF76AD60FF66E130EF7220900F5505B
:1013D0000DBEF28E1200222B3931373031323538C2
:1013E000363539362200F2CF0DF0F29EF76A000F43
:1013F000F66E140EF7220900F5500DBEF28E1200A3
:10140000736574757020636F6D706C657465000032
:10141000F2CF0DF0F29EF76A2A0FF66E140EF72245
:101420000900F5500DBEF28E12007365727665727A
:10143000322073657400F2CF0DF0F29EF76A500F00
:10144000F66E140EF7220900F5500DBEF28E120052
:1014500073657461706E3A00F2CF0DF0F29EF76A18
:10146000720FF66E140EF7220900F5500DBEF28EC3
:10147000120073657469643A0000F2CF0DF0F29EB9
:10148000F76A940FF66E140EF7220900F5500DBEA0
:10149000F28E12004F544155524C3A00F2CF0DF0EB
:1014A000F29EF76AB60FF66E140EF7220900F55099
:1014B0000DBEF28E1200636C726970320000F2CFC2
:1014C0000DF0F29EF76AD80FF66E140EF72209009F
:1014D000F5500DBEF28E1200536574696E746E3A4B
:1014E0000000F2CF0DF0F29EF76AFC0FF66E140EBC
:1014F000F7220900F5500DBEF28E12005365746993
:101500006E74703A0000F2CF0DF0F29EF76A200F71
:10151000F66E150EF7220900F5500DBEF28E120080
:1015200049646C65696E743A0000F2CF0DF0F29E6A
:10153000F76A440FF66E150EF7220900F5500DBE3E
:10154000F28E1200556E617574680000F2CF0DF0D6
:10155000F29EF76A660FF66E150EF7220900F55037
:101560000DBEF28E1200556E617574686572697AEF
:1015700065640000F2CF0DF0F29EF76A8E0FF66EF2
:10158000150EF7220900F5500DBEF28E12005365BC
:101590007473706565643A00F2CF0DF0F29EF76ADD
:1015A000B20FF66E150EF7220900F5500DBEF28E41
:1015B00012005365747077643A00F2CF0DF0F29E1A
:1015C000F76AD40FF66E150EF7220900F5500DBE1E
:1015D000F28E1200526F616D696E673F0000F2CFAC
:1015E0000DF0F29EF76AF80FF66E150EF72209005D
:1015F000F5500DBEF28E12005265626F6F74696E07
:101600006700F2CF0DF0F29EF76A1C0FF66E160E11
:10161000F7220900F5500DBEF28E12005365745486
:101620005A3A0000F2CF0DF0F29EF76A3E0FF66EC6
:10163000160EF7220900F5500DBEF28E120041750C
:10164000746F20545A2073657400F2CF0DF0F29E2F
:10165000F76A640FF66E160EF7220900F5500DBEFC
:10166000F28E1200545A205365740000F2CF0DF030
:10167000F29EF76A860FF66E160EF7220900F550F5
:101680000DBEF28E1200696E76616C696420545A48
:101690000000F2CF0DF0F29EF76AAC0FF66E160E58
:1016A000F7220900F5500DBEF28E1200486F74202B
:1016B000737461727400F2CF0DF0F29EF76AD00F6E
:1016C000F66E160EF7220900F5500DBEF28E1200CE
:1016D0005761726D2073746172740000F2CF0DF067
:1016E000F29EF76AF60FF66E160EF7220900F55015
:1016F0000DBEF28E1200436F6C64207374617274BD
:101700000000F2CF0DF0F29EF76A1C0FF66E170E76
:10171000F7220900F5500DBEF28E1200526C796F5F
:101720006E00F2CF0DF0F29EF76A3C0FF66E170EC8
:10173000F7220900F5500DBEF28E120052656C6161
:1017400079205475726E6564204F4E00F2CF0DF013
:10175000F29EF76A660FF66E170EF7220900F55033
:101760000DBEF28E1200526C796F66660000F2CFE9
:101770000DF0F29EF76A880FF66E170EF722090039
:10178000F5500DBEF28E120052656C6179205475D1
:10179000726E6564204F46460000F2CF0DF0F29E57
:1017A000F76AB40FF66E170EF7220900F5500DBE5A
:1017B000F28E1200454550524F4D2045524153453F
:1017C0004400F2CF0DF0F29EF76ADC0FF66E170EB2
:1017D000F7220900F5500DBEF28E120041434C2055
:1017E00073657400F2CF0DF0F29EF76AFE0FF66E8D
:1017F000170EF7220900F5500DBEF28E1200444379
:101800004C2073657400F2CF0DF0F29EF76A200F42
:10181000F66E180EF7220900F5500DBEF28E12007A
:10182000526573746F726500F2CF0DF0F29EF76A25
:10183000420FF66E180EF7220900F5500DBEF28E1B
:101840001200526573746F726520746F2044656670
:1018500061756C742100F2CF0DF0F29EF76A700F83
:10186000F66E180EF7220900F5500DBEF28E12002A
:10187000417574686572697A65640000F2CF0DF095
:10188000F29EF76A960FF66E180EF7220900F550D1
:101890000DBEF28E12000D0A2B514D544F50454E85
:1018A0003A20302C3000F2CF0DF0F29EF76AC00FD4
:1018B000F66E180EF7220900F5500DBEF28E1200DA
:1018C0000D0A2B514D544F50454E3A20312C3000CB
:1018D000F2CF0DF0F29EF76AEA0FF66E180EF722BD
:1018E0000900F5500DBEF28E12000D0A2B514D5419
:1018F000434F4E4E3A20302C302C3000F2CF0DF0BA
:10190000F29EF76A160FF66E190EF7220900F550CF
:101910000DBEF28E12000D0A2B514D54434F4E4E08
:101920003A20312C302C3000F2CF0DF0F29EF76AC5
:10193000420FF66E190EF7220900F5500DBEF28E19
:1019400012000D0A2B514D54444953433A00F2CF33
:101950000DF0F29EF76A680FF66E190EF722090075
:10196000F5500DBEF28E12002B514D54434C4F5387
:10197000453A0000F2CF0DF0F29EF76A8E0FF66E38
:10198000190EF7220900F5500DBEF28E12000D0A55
:101990002B514D54434C4F53453A0000F2CF0DF0BC
:1019A000F29EF76AB60FF66E190EF7220900F5508F
:1019B0000DBEF28E12000D0A2B514D54505542456A
:1019C000583A20302C302C300000F2CF0DF0F29E2F
:1019D000F76AE40FF66E190EF7220900F5500DBEF6
:1019E000F28E12000D0A2B514D5450554245583A73
:1019F00020312C302C300000F2CF0DF0F29EF76A2F
:101A0000120FF66E1A0EF7220900F5500DBEF28E77
:101A1000120049476F6E0000F2CF0DF0F29EF76A98
:101A2000320FF66E1A0EF7220900F5500DBEF28E37
:101A3000120049476F666600F2CF0DF0F29EF76A1A
:101A4000520FF66E1A0EF7220900F5500DBEF28EF7
:101A500012004E4F53455256494345000401412B55
:101A6000422B45AD29D04EB327D04F2BD8B4502BA5
:101A7000505308E14F51020805E3929089909292E9
:101A800089921AD0505303E14F51100808E2505385
:101A900006E14F51130803E3929089800DD0505115
:101AA00000080AE2FF0A03E14F516E0805E2506B9D
:101AB0004F6B929089904E8345AF2AD04EB128D07B
:101AC0004F2BD8B4502B505303E14F51100808E26C
:101AD000505306E14F51130803E39290898018D0C8
:101AE000505303E14F51EC0808E2505306E14F51C7
:101AF000EF0803E3929089900BD05051030808E25D
:101B0000FF0A03E14F517D0803E2506B4F6B4E819A
:101B10004151130847E2432B416B47530EE04707FF
:101B20004751050805E04751030802E0472D03D05F
:101B300094928B9202D094928B823AA31ED002018F
:101B400017B902D0040119D004013B2D09D0457109
:101B500045A103D094928B8202D094928B920CD0A8
:101B60003B51020805E1475303E194928B8204D074
:101B70003B5302E194928B9215D0020117B913D016
:101B800004013AB302D002010ED04651010803E32A
:101B900094928B8202D094928B92462B46510308EA
:101BA00001E2466B020104014251310814E2426B2A
:101BB0003AB30DD03A7F3AAF05D094928B82949489
:101BC0008B8404D094928B9294948B9404D00201D1
:101BD00017A900D0040143510408D8B0EBD0436BDF
:101BE0004EB502D0442B02D04E95446B020117A98A
:101BF000D6D004013D530DE13E2BD8B43F2B3F51CD
:101C0000060807E2FF0A03E13E51090802E23F6BC2
:101C10003E6B2353D8A472D04597020100B106D081
:101C200000B304D000B702D000A50BD004013D538F
:101C3000D8B402D0020105D0010E3D6F3F6B3E6B60
:101C4000020101015D531DE15C5101081AE3040129
:101C50003AB102D0010115D045A502D0010111D041
:101C6000482BD8B4492B495303E14851780808E27E
:101C7000496B486B458502010089010E04013D6FE7
:101C800010D0040145A50DD001015D5306E15C5162
:101C90000508D8A002D0040104D00401496B486BA8
:101CA000459545B51CD00101635104013F5D08E332
:101CB00005E10101625104013E5D02E345AB07D03D
:101CC00045AB0CD03F5303E13E513B0807E23F6B6D
:101CD0003E6B02010089010E04013D6F0ED04B5195
:101CE0003F5D0BE303E14A513E5D07E33F6B3E6B13
:101CF00002010089010E04013D6F47D0232D45D01C
:101D0000496B486B3AAB05D03A9B010E3D6F3F6B78
:101D10003E6B45B71AD04C2BD8B44D2B090ED8804A
:101D200001016655006E070E6755036E00C001F095
:101D3000035004014D5D09E303E101504C5D05E3EF
:101D40004D6B4C6B3F6B3E6B45873AA90AD03F53B6
:101D500003E13E511D0805E23F6B3E6B010E3D6FF6
:101D600014D00101675104013F5D0FE305E101015A
:101D7000665104013E5D09E345A707D03F6B3E6B0A
:101D800002010089010E04013D6F3D5304E123531C
:101D900002E03AA903D03AA501D045890201040125
:101DA00045A303D03AB501D0402B40511D0802E2B3
:101DB000406B3A8D44510E0802E2446B4E899E926C
:101DC000000112EF08F024504149523836342C30CB
:101DD0002C302C3131353230302A31420D0A00009E
:101DE00024504D544B3335332C312C312C302C3086
:101DF0002C302A32420D0A0024504D544B323836D2
:101E00002C312A32330D0A0024504D544B323230DB
:101E10002C3230302A32430D0A0024504D544B33BB
:101E200031332C312A32450D0A0024504D544B33A6
:101E300038362C302A32330D0A0024504D544B339F
:101E400030312C322A32450D0A0041542B5149447D
:101E5000454143543D310D0A000041542B43545A2F
:101E6000553D310D0A00706F776572696E675F646A
:101E70006F776E210A0041542B5148545450434609
:101E8000473D22636F6E746578746964222C310D4E
:101E90000A0041542B51485454504346473D227246
:101EA0006573706F6E7365686561646572222C314D
:101EB0000D0A000041542B514854545055524C3D8A
:101EC00025642C313030300D0A006D61696E2E684A
:101ED00065780D0A000041542B5148545450474531
:101EE000543D31303030300D0A0041542B514854AC
:101EF00054505245414446494C453D225546533A7B
:101F00006D61696E322E747874222C38300D0A009F
:101F100041542B51485454505245414446494C4534
:101F20003D225546533A6D61696E312E74787422A4
:101F30002C38300D0A00696E697420706F776572F5
:101F4000696E675F646F776E210A000049443A202A
:101F500025732C20677073206E6F74206669786516
:101F6000640041542B435245473F0D0A0000415441
:101F70002B434D47463D310D0A0041542B435343FB
:101F8000533D2247534D220D0A0041542B434D47E8
:101F9000533D000041542B434D47523D25630D0AEC
:101FA000000061706E207365743A257300006964E7
:101FB000207365743A257300496E74206E20736532
:101FC000743A25730000496E742070207365743A6A
:101FD0002573000049646C6520696E742073657414
:101FE0003A2573007370656564207365743A2573D0
:101FF0000000505744206368616E67656420746F09
:102000003A257300687474703A2F2F6D6170732EC7
:10201000676F6F676C652E636F6D2F6D6170733FB7
:10202000713D256325322E36662C256325322E36EA
:10203000660024504D544B3130312A33320D0A00A2
:1020400024504D544B3130322A33310D0A00245084
:102050004D544B3130332A33300D0A00534F532047
:102060006E756D6265722069732073657420746F7C
:10207000202B2573000041542B434D47443D2563DD
:102080000D0A000041542B434D47463D310D0A00D7
:1020900041542B435343533D2247534D220D0A00D5
:1020A00041542B434D474C0D0A0041542B514D5484
:1020B0004F50454E3D0041542B514D54434F4E4ED1
:1020C0003D00222C2200222C2200222C2200220D54
:1020D0000A0041542B514D54444953433D0041544F
:1020E0002B514D54434C4F53453D25640D0A000080
:1020F00041542B514D544F50454E3D0041542B51AE
:102100004D54434F4E4E3D00222C2200222C2200E3
:10211000220D0A0041542B514D54444953433D0074
:1021200041542B514D54434C4F53453D00004154B5
:102130002B514D5450554245583D000025642C30DC
:102140002C302C302C22000041540D0A0000415448
:1021500045300D0A000041542B4950523D3936306C
:10216000300D0A00415426570D0A000041540D0A53
:10217000000041540D0A00004154453026570D0A15
:10218000000041542B4950523D393630300D0A0081
:1021900041542B434D45453D320D0A0041542B43DC
:1021A0004D47463D310D0A00415426570D0A0000A7
:1021B00041542B434D47443D312C340D0A004154CA
:1021C0002B4350494E3F0D0A000041542B514943C7
:1021D0005347503D312C312C2200222C22222C221C
:1021E000222C310D0A0041542B51494143543D31B9
:1021F0000D0A000041542B4347534E3D310D0A0058
:10220000534F5320687474703A2F2F6D6170732E82
:10221000676F6F676C652E636F6D2F6D6170733FB5
:10222000713D256325322E36662C256325322E36E8
:102230006600485F53544152543A256C640A0000CA
:10224000485F454E443A256C640A00007B22646571
:10225000766963654944223A20222573222C22495B
:102260004D4549223A2025732C2274696D6573749B
:10227000616D70223A2022002530346C642D2530A7
:1022800032752D2530327520253032753A253032A1
:10229000753A25303275222C226461746156616C66
:1022A0006964697479223A202256616C6964222C2F
:1022B00022737461747573223A20224E2564222C95
:1022C000226C61746974756465223A20220025309D
:1022D00031312E3766222C226C6F6E6769747564FB
:1022E00065223A2022253031322E3766222C227385
:1022F00070656564223A20222530336C64222C22DA
:10230000636F75727365223A20222530336C642224
:102310002C2269676E6974696F6E223A2022000070
:1023200049476F66660049476F6E0000222C22768F
:10233000656869636C65537461747573223A202211
:1023400000005041524B4544000052554E4E494EFC
:10235000470049444C450000222C226164646974A2
:10236000696F6E616C44617461223A2022257300AA
:10237000222C2274696D65496E74657276616C7386
:10238000223A202225732C25732C2530334C6422CD
:102390002C22616E676C65496E74657276616C2281
:1023A0003A20222530336C64222C226469737461D4
:1023B0006E6365496E74657276616C223A202225DF
:1023C00030336C64222C2267736D537472656E67B0
:1023D0007468223A202225303364222C22736571DE
:1023E00075656E63654E756D626572223A202200D6
:1023F0000D0A427265616B204B3D256C6420433DA4
:1024000025630D0A000041540D0A000041540D0AD5
:10241000000041542B4350494E3F0D0A00000D0A65
:102420005055424C495348204641494C0D0A000042
:1024300041540D0A000041542B43545A553D310D6F
:102440000A0041542B43434C4B3F0D0A00004154BA
:102450002B514353510D0A00080EEA6E640EE96ECB
:10246000EF5011E0050E016EBF0E006E0400002E4D
:10247000FDD7012EF9D72E0E006E002EFED70000DC
:102480000400EF2EEFD712009486948838EF6AF09C
:10249000080E016E040E006E002EFED78B969496E9
:1024A000040E006E002EFED70701FC378B98D8B0C3
:1024B0009488D8A09498948682A6FED7012E01D045
:1024C00002D00001E7D7040E006E002EFED78B96D7
:1024D000949600009488040E006E002EFED7040E21
:1024E000006E002EFED7948682A6FED7016A040EE7
:1024F000006E002EFED782B801808B9694968B9842
:10250000949800011200080E0701F06F00C0F1F767
:102510009488040E006E002EFED7948682A6FED705
:1025200082B8D88082A8D8900136040E006E002EA2
:10253000FED794968B96F02FEBD79488040E006EFE
:10254000002EFED78B98F151D8A494980000948661
:1025500082A6FED7040E006E002EFED78B969496B0
:10256000040E006E002EFED78B989498000108EFA1
:1025700013F00701EC5303E1EB51000803E2A80E4E
:10258000EE6F02D0A00EEE6F9488040E006E002E47
:10259000FED79486040E006E002EFED782A6FED7CC
:1025A0008B989498040E006E002EFED78B9694960E
:1025B000EEC7FCF700016CDFEAC7F0F7EBC7F1F7F5
:1025C000ECC7F2F70701F36BEAC7FCF7000160DF25
:1025D000E9C7FCF75DDF9488040E006E002EFED77D
:1025E0009486040E006E002EFED782A6FED78B982E
:1025F0009498040E006E002EFED78B969496010ED2
:102600000701EE25EF6FFC6F000142DF006A7BD708
:1026100001C0EDF794980000948682A6FED7040EC0
:10262000006E002EFED700D000009488040E006ECD
:10263000002EFED70701EDC701F0000112000701CF
:10264000F35303E1F251000803E2A80EF66F02D043
:10265000A00EF66F9488040E006E002EFED79486AE
:10266000040E006E002EFED78B989498040E006E18
:10267000002EFED78B969496F6C7FCF7000108DF74
:10268000F1C7F8F7F2C7F9F7F3C7FAF70701FB6BE1
:10269000F1C7FCF70001FCDEF0C7FCF7F9DEF4C778
:1026A000FCF7F6DE94980000948682A6FED7040E0E
:1026B000006E002EFED700D000009488040E006E3D
:1026C000002EFED79488040E006E002EFED794864E
:1026D000040E006E002EFED78B989498040E006EA8
:1026E000002EFED78B969496F6C7FCF7D1DE0150EC
:1026F0000701F59101B0F581F5A11ED09488040E73
:10270000006E002EFED79486040E006E002EFED7BB
:1027100082A6FED78B989498040E006E002EFED7EA
:102720008B969496F6C7FCF70001B2DE01500701C4
:10273000F59101B0F581E0D700011200928680B6D4
:1027400023D00401232D05D04585010E3D6F3F6B3D
:102750003E6B236B010EEA6E3C0EE96EF2CF4BF539
:10276000F29E000E0001FCEC0CF00A000900F5508E
:10277000EE6E0009FBE105014BBFF28E04013AA9A0
:1027800001D03A991BD000010401235301E12189B2
:10279000010E236FEA6E3C0EE96EF2CF4BF5F29E0E
:1027A000000E00010CEC0DF00A000900F550EE6E71
:1027B0000009FBE105014BBFF28E0401000112008C
:1027C000938281A205D0300E0401226F04D0000153
:1027D000310E0401226F00011200040124531AE19A
:1027E000235318E1929A898A010EEA6E350EE96E3A
:1027F000F2CF4BF5F29E000E000181EC0BF00A00C7
:102800000900F550EE6E0009FBE105014BBFF28EA9
:102810001DD00401243D18D0929A899A010EEA6EC7
:10282000350EE96EF2CF4BF5F29E000E0001A6ECDC
:102830000BF00A000900F550EE6E0009FBE10501FE
:102840004BBFF28E03D00401246905010001120080
:102850000900F5520DE0F6CFE9F7F7CFEAF7F550AA
:102860009EA8FED7AD6EE9C7F6FFEAC7F7FFF0D71F
:1028700012000900F5520DE0F6CFF4F7F7CFF5F7A7
:10288000F550A4A8FED7736EF4C7F6FFF5C7F7FF9F
:10289000F0D712000701F251F419800BF66FF2AF76
:1028A00005D0F11FF21FF12BD8B4F22BF4AF05D0F5
:1028B000F31FF41FF32BD8B4F42BF151F303F3CF30
:1028C00001F0F4CF00F0F403F3500026F251F303CB
:1028D000F3500020026EF6AF05D0011E021E012A41
:1028E000D8B4022A0001E8EF14F00701EF6BED6B9A
:1028F0000A0EEE6FEC6BEB6BE951EA1104E1000E8E
:10290000016E026EEAD0EF51EF2B036AE925E96E02
:10291000EA510320EA6EEFCFF0F7F0512D080DE1F8
:10292000010EED6FEF51EF2B036AE925E96EEA51D5
:102930000320EA6EEFCFF0F70DD0F0512B080AE13B
:10294000EF51EF2B036AE925E96EEA510320EA6EA5
:10295000EFCFF0F7F0512F08D8B0B1D0F0513908CF
:10296000D8A0ADD0F051300821E1036AEF51E9253C
:10297000E96EEA510320EA6EEF5078080AE0036A34
:10298000EF51E925E96EEA510320EA6EEF5058084D
:102990000DE1100EEE6FEF2BEF51EF2B036AE925DF
:1029A000E96EEA510320EA6EEFCFF0F7EE510A0824
:1029B00023E1F0512F081FE2F05139081CE3F26BBC
:1029C0000A0EF16FECC7F4F7EBC7F3F7000162D71B
:1029D000300E0701F05D0124EB6F000E0220EC6F5A
:1029E000EF51EF2B036AE925E96EEA510320EA6E05
:1029F000EFCFF0F7DED763D0EE51100860E1F05171
:102A0000600806E2F0517A0803E3F051DF0B01D0D1
:102A1000F051F06FF0512F0803E2F051390806E24F
:102A2000F05140084CE2F051460849E3F0512F08BC
:102A30001AE2F051390817E3EB35F16FEC35F26F1C
:102A4000F137F237F137F237F137F237F00EF1178D
:102A5000300EF05DF125016E000EF221036E01C013
:102A6000EBF7EC6F16D0EB35F16FEC35F26FF13719
:102A7000F237F137F237F137F237F00EF117410E36
:102A8000F05D0A0FF125016E000EF22101C0EBF797
:102A9000EC6FEF51EF2B036AE925E96EEA51032051
:102AA000EA6EEFCFF0F7F051600806E2F0517A08D5
:102AB00003E3F051DF0B01D0F051F06FABD7EE51D3
:102AC0000A0807E1ED2D05D0EB1FEC1FEB2BD8B466
:102AD000EC2BEBC701F0ECC702F00001120007017C
:102AE000E951EB03F3CF01F0F4CF00F0EC03F35026
:102AF0000026EA51EB03F3500020026E00011200A1
:102B00000501669161C568F560C567F5625160258C
:102B1000016E000E6121036E6851035C4BE303E11B
:102B20000150675D47E20701EC6BEB6B68C5EAF7A4
:102B300067C5E9F700011DDD01C065F5010E08015B
:102B4000646F000189DC050165510D081BE16051CE
:102B5000675D696F615168596A6F63516925E96EF4
:102B600064516A21EA6EEF6A010E0801646F000188
:102B700073DC05016681010E0801646F00016CDCE5
:102B8000050118D06051675D696F615168596A6FBE
:102B900063516925E96E64516A21EA6E65C5EFFFEC
:102BA000010E0801646F000157DC0501672BD8B4E2
:102BB000682BACD7000E66B1010E016E0001120049
:102BC00089C68BF688C68AF68BC603F006018AC6CC
:102BD000E9FF8BC6EAFFEF5206E08A2BD8B48B2BB5
:102BE0000001F2D7060188518A5D006E89518B5928
:102BF000036E00C001F0000112008E0E006E9AC537
:102C000001F099C502F0036A01AE05D0011E021E53
:102C1000022A01E1012A015209E102C001F0026A1F
:102C2000080E005E015202E1006A0ED0D89001BE8B
:102C300004D0023601360006F9D705019AAF02D05A
:102C4000000102D0019E00011200AAC5B1F50501E4
:102C5000AE51B11BB1AF05D0D894D890AABFD880DF
:102C60002FD0AAC5B1F5ADC5B2F5A951B25F06E046
:102C7000B1AF26D0D850010AD86E22D0AEC5B2F579
:102C8000AA51B25F06E0B1AF1BD0D850010AD86E8E
:102C900017D0AFC5B2F5AB51B25F06E0B1AF10D0FF
:102CA000D850010AD86E0CD0B0C5B2F5AC51B25FA5
:102CB00006E0B1AF05D0D850010AD86E01D0D89047
:102CC000000112000701F851D8B47FD0006EFC510A
:102CD000D8B47BD0002605E3810E0026D8B075D08D
:102CE00004D07F0E005E71E370E0F9C700F8FD517B
:102CF0000801001B0701F98FFD8FFB51FF03F4CF83
:102D000002F8FA51FE03F4CF03F0F3CF01F8FF030A
:102D1000F35008010227F4500123000E032207019B
:102D2000FB51FE03F35008010227F4500123000E6B
:102D3000026A032202220701F951FF03F35008013E
:102D40000127F4500322000E02220701F951FE036D
:102D5000F3500326F4500222000E016A0122FB51B7
:102D6000FD03F35008010127F4500322000E022254
:102D700001220701FA51FD03F3500326F450022209
:102D8000000E0122F951FD03F3500226F4500122F6
:102D9000002A01BE06D0080101370336023601368B
:102DA0000006000E080101AF0AD0032A0222012208
:102DB000015005E1025003E1035001E1002A00BF88
:102DC000018E00AF019E06D00701006A016A026A07
:102DD000036A0801000112000701EC6BEB6BEA6B60
:102DE000F90EE96F0001B9EC12F00150A5080AE1F3
:102DF000010E0801646F00012CEC12F0020117872C
:102E000009D00001010E0801646F00012CEC12F0E2
:102E1000020117970701EC6BEB6BEA6BFE0EE96F93
:102E20000001B9EC12F00150690809E1010E080136
:102E3000646F00012CEC12F00201178900010701F8
:102E4000EC6BEB6BEA6BE96B0001B9EC12F0015033
:102E5000220853E1010E0801646F00012CEC12F00E
:102E6000220E0101146F010E0501546F5451100818
:102E700043E30701EC6BEB6BEA6B54C5E9F7000128
:102E8000B9EC12F001C053F5010E0801646F0001A6
:102E90002CEC12F005015351220823E1036A54512E
:102EA000140FE96E010E0320EA6E53C5EFFF010E09
:102EB0005425036A140FE96E010E0320EA6EEF6ACF
:102EC000010E0801646F00012CEC12F00401218551
:102ED000010E0801646F00012CEC12F005010CD00A
:102EE00009D0036A5451140FE96E010E0320EA6EF3
:102EF00053C5EFFF542BBAD700010701EC6BEB6B06
:102F0000EA6BAA0EE96F0001B9EC12F00150220839
:102F100057E1220E0101036F0501576B010E566F39
:102F200057534DE1565110084AE3AA0E5625606FDB
:102F3000000E5721616F0701EC6BEB6BEA6F60C508
:102F4000E9F70001B9EC12F001C055F5040000D01A
:102F5000000005015551220826E1030E5625E96EB1
:102F6000010E5721EA6E55C5EFFF010E5625606F21
:102F7000000E5721616F030E6025E96E010E61217D
:102F8000EA6EEF6A010E0801646F00012CEC12F08A
:102F900004012187010E0801646F00012CEC12F07E
:102FA00005010DD008D0030E5625E96E010E5721FC
:102FB000EA6E55C5EFFF562BD8B4572BB1D7000199
:102FC0000701EC6BEB6BEA6B150EE96F0001B9ECD6
:102FD00012F001500D085EE10501596B120E586F99
:102FE000595347E15851150844E30701EC6BEB6B6B
:102FF00059C5EAF758C5E9F70001B9EC12F001C06C
:103000004BF5010E0801646F00012CEC12F0050174
:103010004B510D0815E1120E585D606F000E5959A5
:10302000616F250E6025E96E010E6121EA6EEF6A7F
:10303000010E0801646F00012CEC12F0050119D09B
:10304000120E585D606F000E5959616F250E602594
:10305000E96E010E6121EA6E4BC5EFFF010E08011A
:10306000646F00012CEC12F00501582BD8B4592BD9
:10307000B7D7010E0701EA6F250EE96F000135DCB5
:1030800002C05FF101C05EF1010E0801646F000132
:103090002CEC12F00701EC6BEB6BEA6B1D0EE96F89
:1030A0000001B9EC12F001500D085FE105015B6B06
:1030B0001A0E5A6F5B5347E15A511D0844E307014A
:1030C000EC6BEB6B5BC5EAF75AC5E9F70001B9ECAD
:1030D00012F001C04BF5010E0801646F00012CECE9
:1030E00012F005014B510D0815E11A0E5A5D606F83
:1030F000000E5B59616F2D0E6025E96E010E612196
:10310000EA6EEF6A010E0801646F00012CEC12F008
:10311000050119D01A0E5A5D606F000E5B59616F80
:103120002D0E6025E96E010E6121EA6E4BC5EFFFA1
:10313000010E0801646F00012CEC12F005015A2BFE
:10314000D8B45B2BB7D7010E0701EA6F2D0EE96FDC
:10315000000175EC14F002C063F101C062F1010ED0
:103160000801646F00012CEC12F00701EC6BEB6BB3
:10317000EA6B190EE96F0001B9EC12F001500D086D
:10318000D8A47BD005015D6B160E5C6F5D5347E1E3
:103190005C51190844E30701EC6BEB6B5DC5EAF782
:1031A0005CC5E9F70001B9EC12F001C04BF5010E66
:1031B0000801646F00012CEC12F005014B510D0861
:1031C00015E1160E5C5D606F000E5D59616F290E92
:1031D0006025E96E010E6121EA6EEF6A010E0801B9
:1031E000646F00012CEC12F0050119D0160E5C5D25
:1031F000606F000E5D59616F290E6025E96E010E4A
:103200006121EA6E4BC5EFFF010E0801646F0001FA
:103210002CEC12F005015C2BD8B45D2BB7D7010E56
:103220000701EA6F290EE96F000175EC14F002C086
:1032300065F101C064F10101655303E164510908BE
:1032400005E2655303E164511E0803E2656B0F0E4E
:10325000646F65C1EAF764C1E9F70701EC6B3C0EE6
:10326000EB6F00013CDC02C067F101C066F1010EAA
:103270000801646F00012CEC12F00701EC6BEB6BA2
:10328000EA6BA70EE96F0001B9EC12F001500D08CE
:1032900060E105015F6BA40E5E6F5F5347E15E5115
:1032A000A70844E30701EC6BEB6B5FC5EAF75EC56B
:1032B000E9F70001B9EC12F001C04BF5010E08016D
:1032C000646F00012CEC12F005014B510D0815E163
:1032D000A40E5E5D606F000E5F59616F310E602558
:1032E000E96E010E6121EA6EEF6A010E0801646F5A
:1032F00000012CEC12F0050119D0A40E5E5D606F88
:10330000000E5F59616F310E6025E96E010E61217B
:10331000EA6E4BC5EFFF010E0801646F00012CEC53
:1033200012F005015E2BD8B45F2BB7D7010E070151
:10333000EA6F310EE96F000175EC14F002C04BF436
:1033400001C04AF4010E0801646F00012CEC12F078
:1033500005D004014B6B3C0E4A6F00010701EC6B7A
:10336000EB6BEA6BF10EE96F0001B9EC12F0015062
:103370002A080FE10501616B300E606F1F0E626F4E
:10338000646BC20E636F000180EC15F00201178FB1
:1033900000010701EC6BEB6BEA6BF20EE96F0001C9
:1033A000B9EC12F001502A080FE10501616BD10E52
:1033B000606F1F0E626F646BE00E636F000180EC44
:1033C00015F00401218100010701EC6BEB6BEA6B46
:1033D000FB0EE96F0001B9EC12F001502A0817E169
:1033E0000501616B200E606F0B0E626F646B950EB2
:1033F000636F000180EC15F0040121830601896BE5
:10340000950E886F0001E0EC15F001C003F2070192
:10341000EC6BEB6BEA6BFC0EE96F0001B9EC12F0A0
:1034200001502A080FE10501616B500E606F1F0EFD
:10343000626F646BA40E636F000180EC15F00201F3
:10344000178D00010701EC6BEB6BEA6BF50EE96F72
:103450000001B9EC12F001502A0810E1010E05013B
:10346000616F350E606F640E626F646B1F0E636F69
:10347000000180EC15F00201178B00010701EC6BD5
:10348000EB6BEA6BF40EE96F0001B9EC12F001C0CE
:1034900024F4050E0801646F00012CEC12F0070102
:1034A000EC6BEB6BEA6BA00EE96F0001B9EC12F06C
:1034B00001C0FEF0050E0801646F00012CEC12F053
:1034C0000701EC6BEB6BEA6BA10EE96F0001B9EC45
:1034D00012F001C0FFF0050E0801646F00012CEC32
:1034E00012F00701EC6BEB6BEA6BA20EE96F0001C7
:1034F000B9EC12F001C000F1050E0801646F000183
:103500002CEC12F00701EC6BEB6BEA6BA30EE96F8E
:103510000001B9EC12F001C001F1050E0801646F61
:1035200000012CEC12F00701EC6BEB6B010EEA6F63
:103530009A0EE96F0001B9EC12F0012C97D0070147
:10354000EC6BEB6B010EEA6F9B0EE96F0001B9ECBF
:1035500012F00401286B276B266B01C025F427C4E9
:1035600028F426C427F425C426F4256B010E08018F
:10357000646F00012CEC12F00701EC6BEB6B010E99
:10358000EA6F9C0EE96F0001B9EC12F001500401E2
:103590002513010E0801646F00012CEC12F00701E5
:1035A000EC6BEB6B010EEA6F9D0EE96F0001B9EC5D
:1035B00012F004012C6B2B6B2A6B01C029F42BC475
:1035C0002CF42AC42BF429C42AF4296B010E080117
:1035D000646F00012CEC12F00701EC6BEB6B010E39
:1035E000EA6F9E0EE96F0001B9EC12F00150040180
:1035F0002913010E0801646F00012CEC12F0040184
:103600002C5321E12B531FE12A5101081CE303E154
:1036100029519E0818E32C6B2B6B010E2A6F9F0E0D
:10362000296F0701F36BF26B010EF16F9A0EF06FC9
:10363000F46B00011FEC13F0010E0801646F000130
:103640002CEC12F0040128530FE127530DE1265111
:1036500001080AE303E125519E0806E3286B276B66
:10366000010E266F9F0E256F0ED0000104012C6BFA
:103670002B6B010E2A6F9F0E296F286B276B010E93
:10368000266F9F0E256F0701EC6BEB6B010EEA6F47
:103690009F0EE96F0001B9EC12F001507B080EE1BA
:1036A0000401286B276B010E266F9F0E256F2C6B74
:1036B0002B6B010E2A6F9F0E296F00010501616BB4
:1036C000C00E606F070E626F050E646F4C0E636F65
:1036D000000180EC15F0015217E0050E0701EA6FBA
:1036E0004C0EE96F000175EC14F002C09AF501C0B0
:1036F00099F5FDEC15F003C030F402C02FF401C0C1
:103700002EF400C02DF407D00401306B2F6B2E6B0C
:10371000800E2D6F00010501616BC70E606F070EF3
:10372000626F050E646F4C0E636F000180EC15F044
:10373000015242E0050E0701EA6F4C0EE96F0001ED
:1037400075EC14F002C09AF501C099F5FDEC15F086
:1037500003C034F402C033F401C032F400C031F4C9
:103760000501AC6BAB6BAA6BA96B34C4B0F533C469
:10377000AFF532C4AEF531C4ADF5000125EC16F05D
:103780001AE334C4FBF733C4FAF732C4F9F731C48F
:10379000F8F70701FF6BFE6B800EFD6F7F0EFC6F6D
:1037A000000162EC16F003C034F402C033F401C02F
:1037B00032F400C031F406D00401346B336B800E58
:1037C000326F316F0001CAEF6BF092908990929244
:1037D0008992960E0801646F00012CEC12F0929011
:1037E00089800E0E05015F6FFA0E0801646F0001FB
:1037F0002CEC12F005015F2FF7D79290899004010D
:103800003A853597140E05015F6FFA0E0801646F53
:1038100000012CEC12F005015F2FF7D792908990F0
:1038200092928992960E0801646F00012CEC12F0BE
:10383000929089800A0E05015F6FDC0E0801646FAB
:1038400000012CEC12F005015F2FF7D792908990C0
:1038500004013A9500011200A4AAFED771CF16F018
:1038600074CF01F016A202D071987188120065C859
:1038700003F0080164C8E9FF65C8EAFFEF5239E0C8
:1038800065C869F864C868F867C86BF866C86AF8FC
:103890006BC803F06AC8E9FF6BC8EAFFEF5216E095
:1038A00068C8E9FF69C8EAFFEFCF6CF86BC803F09E
:1038B0006AC8E9FF6BC8EAFFEF506C5D07E1682B4F
:1038C000D8B4692B6A2BD8B46B2BE2D76BC803F042
:1038D0006AC8E9FF03C0EAFFEF5205E164C801F0DE
:1038E00065C802F009D0642BD8B4652B0001BFD79E
:1038F0000801000E016E026E00011200040E0801A4
:10390000655F0AE3080EEA6E650EE96EEF5004E0AB
:1039100001D00400EF2EFDD7000112000701FB6B60
:10392000FA6B08016291636B0701FB51F95D6DE36E
:1039300003E1F851FA5D69E2A4AA50D0080163518D
:10394000632B036AFE0FE96E070E0320EA6EEACFCF
:1039500067F8E9CF66F800017FDF67C8EAFF66C84D
:10396000E9FF01C0EFFF0400010E006E002EFED73C
:1039700000D00000036A08016351FE0FE96E070ED4
:103980000320EA6EEF6A0400010E006E002EFED7DF
:1039900000D00000070E656FFE0E646FF7C767F872
:1039A000F6C766F8000163DF02C0FDF701C0FCF74F
:1039B0000701FC51FD1112E00400010E006E002E03
:1039C000FED700D00000080162810400010E006EE5
:1039D000002EFED700D00000070117D00400020E11
:1039E0000801646FF80E656F000188DF0801642F1D
:1039F000F9D70701FA2BD8B4FB2B0400010E006E97
:103A0000002EFED700D0000090D7050E0801646F8D
:103A100000012CEC12F0000E080162B1010E016EE3
:103A200000011200270E0501606F100E5F6F616BC1
:103A30006391620EF66E1F0EF76E000139EC14F002
:103A4000050160C503F05F51D8B460075F0703103C
:103A500041E0A4AA3ED00001FFDE01C062F50400EF
:103A600000D00000050163B112D062512B080FE1B4
:103A70006151612B036A640FE96E050E0320EA6E43
:103A800062C5EFFF040000D0000063810CD063A189
:103A90000AD06151612B036A640FE96E050E0320A1
:103AA000EA6E62C5EFFF040000D0000061510A0811
:103AB0000AE16C512C0807E1040000D000006DC53C
:103AC00001F00AD006D061510A0803E1300E016E00
:103AD00003D0B7D7300E016E00011200A4A8FED7A4
:103AE000736E1200ADC5AFF5ACC5AEF50501AF51B3
:103AF000010824E303E1AE51350820E30701EC6B34
:103B0000EB6BAFC5EAF7AEC5E9F70001B9EC12F00F
:103B100001C0B0F5040000D000000501B0510D084F
:103B200002E10CD007D0B0510001D8DF040000D072
:103B300000000501AE2BD8B4AF2BD9D7000112007D
:103B400005014C6B4E6B4D6B4D510F0877E14E5399
:103B500075E17086220E756E000E766EA60E726E80
:103B6000900E716E020E5F6FFA0E0801646F000115
:103B70002CEC12F005015F2FF7D7480EF66E210EE0
:103B8000F76E000139EC14F0080E05015F6FFA0EB4
:103B90000801646F00012CEC12F005015F2FF7D7CC
:103BA0004E0EF66E210EF76E000139EC14F0080E81
:103BB00005015F6FFA0E0801646F00012CEC12F032
:103BC00005015F2FF7D7560EF66E210EF76E000136
:103BD00039EC14F0080E05015F6FFA0E0801646FEE
:103BE00000012CEC12F005015F2FF7D7640EF66E82
:103BF000210EF76E000139EC14F0080E05015F6F1D
:103C0000FA0E0801646F00012CEC12F005015F2F21
:103C1000F7D77086A00E756E010E766EA60E726EC8
:103C2000900E716E080E5F6FFA0E0801646F00014E
:103C30002CEC12F005015F2FF7D72BD04E5303E188
:103C40004D51640826E24E6B4D6B0001BEDD080E3F
:103C500005015F6FFA0E0801646F00012CEC12F091
:103C600005015F2FF7D7080E5F6FFA0E0801646F2A
:103C700000012CEC12F005015F2FF7D7080E5F6FE3
:103C8000FA0E0801646F00012CEC12F005015F2FA1
:103C9000F7D76C0EF66E210EF76E000139EC14F0BA
:103CA0000D0E05014F6F0A0E506F4F0E516F4B0EE8
:103CB000526F536B050E0701F76F4F0EF66F070E2D
:103CC000F96FD00EF86F000129DE015005014C2775
:103CD0000A0E0801646F00012CEC12F005014D2B57
:103CE000D8B44E2B4C53D8B42FD74E6B4D6B0A0E15
:103CF0000801646F00012CEC12F094DE01C036F470
:103D00000A0E0801646F00012CEC12F00401365118
:103D1000310803E03651350802E13A8704D03A977A
:103D2000000E016E60D20701EC6BEB6BEA6BE96988
:103D30000001B9EC12F001506908D8B499D1050E10
:103D40000801646F00012CEC12F0300EFE6FFF6F63
:103D50000101006F016F0701F36BF26BF16BA00EB5
:103D6000F06F300EF46F00011FEC13F0050E080128
:103D7000646F00012CEC12F00701F36BF26BF16B36
:103D8000A10EF06F300EF46F00011FEC13F0050E62
:103D90000801646F00012CEC12F00701F36BF26B69
:103DA000F16BA20EF06F300EF46F00011FEC13F0F8
:103DB000050E0801646F00012CEC12F00701F36B93
:103DC000F26BF16BA30EF06F300EF46F00011FEC7D
:103DD00013F0050E0801646F00012CEC12F00501D0
:103DE0004C6B720EF66E210EF76E000139EC14F07A
:103DF0000D0E0501546F0A0E556F4F0E566F4B0E88
:103E0000576F586B050E0701F76F540EF66F130EC0
:103E1000F96F880EF86F000181DD015005014C2714
:103E2000C80E0801646F00012CEC12F0780EF66EDB
:103E3000210EF76E39EC14F00D0E0501546F0A0EC9
:103E4000556F4F0E566F4B0E576F586B050E07018F
:103E5000F76F540EF66F130EF96F880EF86F0001AE
:103E60005DDD015005014C27C80E0801646F00019B
:103E70002CEC12F0820EF66E210EF76E39EC14F077
:103E80000D0E0501546F0A0E556F4F0E566F4B0EF7
:103E9000576F586B050E0701F76F540EF66F130E30
:103EA000F96F880EF86F000139DD015005014C27CC
:103EB000C80E0801646F00012CEC12F0900EF66E33
:103EC000210EF76E39EC14F00D0E0501546F0A0E39
:103ED000556F4F0E566F4B0E576F586B050E0701FF
:103EE000F76F540EF66F130EF96F880EF86F00011E
:103EF00015DD015005014C27C80E0801646F000153
:103F00002CEC12F09C0EF66E210EF76E39EC14F0CC
:103F10000D0E0501546F0A0E556F4F0E566F4B0E66
:103F2000576F586B050E0701F76F540EF66F130E9F
:103F3000F96F880EF86F0001F1DC015005014C2784
:103F4000C80E0801646F00012CEC12F0A80EF66E8A
:103F5000210EF76E39EC14F00D0E0501546F0A0EA8
:103F6000556F4F0E566F4B0E576F586B050E07016E
:103F7000F76F540EF66F130EF96F880EF86F00018D
:103F8000CDDC015005014C27C80E0801646F00010B
:103F90002CEC12F0B00EF66E210EF76E39EC14F028
:103FA0000D0E0501546F0A0E556F4F0E566F4B0ED6
:103FB000576F586B050E0701F76F540EF66F130E0F
:103FC000F96F880EF86F0001A9DC015005014C273C
:103FD000C80E0801646F00012CEC12F005014C5171
:103FE00007082FE04D2BD8B44E2B4E5303E14D5113
:103FF000320827E24E6B4D6B0001E5EC1BF0080E1A
:1040000005015F6FFA0E0801646F00012CEC12F0DD
:1040100005015F2FF7D7080E5F6FFA0E0801646F76
:1040200000012CEC12F005015F2FF7D7080E5F6F2F
:10403000FA0E0801646F00012CEC12F005015F2FED
:10404000F7D74C510708D8A4CBD6010E04013B6F1B
:104050000701F36BF26BF16BF069690EF46F00010D
:104060001FEC13F0050E0801646F00012CEC12F038
:10407000BE0EF66E210EF76E39EC14F0520E0501ED
:10408000596F450E5A6F410E5B6F440E5C6F590EAF
:104090005D6F5E6B050E0701F76F590EF66F130E1D
:1040A000F96F880EF86F000139DC01C04CF5C80EBD
:1040B0000801646F00012CEC12F00701EC6BEB6B54
:1040C000EA6BFC0EE96F0001B9EC12F001502A080E
:1040D00077E105014C2D01D002D0000171D0050E11
:1040E0000801646F00012CEC12F004013581050E0B
:1040F0000801646F00012CEC12F00201178D050E0F
:104100000801646F00012CEC12F0CA0EF66E210E4D
:10411000F76E39EC14F00501AD6B500EAC6F000179
:10412000E1DCDA0EF66E210EF76E39EC14F00D0EAE
:104130000501596F0A0E5A6F4F0E5B6F4B0E5C6F85
:104140005D6B050E0701F76F590EF66F130EF96FD1
:10415000880EF86F00018EEC1CF0015005014C2711
:10416000C80E0801646F00012CEC12F005014C51DF
:10417000020827E1E60EF66E210EF76E000139EC1B
:1041800014F00D0E0501596F0A0E5A6F4F0E5B6F3A
:104190004B0E5C6F5D6B050E0701F76F590EF66FE6
:1041A000130EF96F880EF86F00018EEC1CF00150B1
:1041B00005014C27C80E0801646F00012CEC12F0B9
:1041C00005014C51030806E104013585020E3B6FE1
:1041D00003D0050104013595050E0801646F000147
:1041E0002CEC12F00401000112000701EF5302E170
:1041F000F05342E0EBC7E9FFECC7EAFFEFCFF1F77E
:10420000EEC703F0EDC7E9FFEEC7EAFFEF50F15D3F
:1042100017E0ECC703F0EBC7E9FF03C0EAFFEFCFFD
:10422000F1F7EEC703F0EDC7E9FFEEC7EAFFEF5085
:10423000F15D02E2FF0E01D0010E016E1FD00BD026
:10424000ECC703F0EBC7E9FFECC7EAFFEF5203E16D
:10425000000E016E13D0ECC703F0EB51EB2BD8B47A
:10426000EC2BEEC703F0ED51ED2BD8B4EE2BEF5154
:10427000D8B4F007EF07BAD7000E016E00011200A4
:10428000040000D0000008014F6B4F511D0824E3CB
:10429000036A4F510701E925E96EEA510320EA6EEE
:1042A000EF503A0816E108014F2B036A4F510701FE
:1042B000E925E96EEA510320EA6EEF50200803E198
:1042C00008014F2B0701040000D00000080104D0B2
:1042D000070108014F2BD9D74FC850F8036A505136
:1042E0000701E925E96EEA510320EA6EEF5221E069
:1042F00008014F51505D036AEB0F016E070E032258
:1043000003C052F8036A50510701E925E96EEA51EA
:104310000320EA6EEFCF53F8080152C8EAFF01C04C
:10432000E9FF53C8EFFF040000D00000502BD6D7A0
:10433000070108014F51505D036AEB0FE96E070E4C
:104340000320EA6EEF6A040000D00000EAC7EAFF2B
:10435000E9C7E9FF070EE26EEB0EE16EE752E6CF2A
:10436000EEFFFCE1040000D0000000011200050196
:10437000B06BAF6BB26BB36BF40EF66E210EF76ED3
:10438000000139EC14F00501B0511308D8A07FD01A
:1043900004E1AF518708D8A07AD0AF2BD8B4B02BA6
:1043A000A4AA68D000012CEC1CF001C0B1F50400F7
:1043B000010E006E002EFED700D000000501B151A5
:1043C0002B080BE1B26B010EB36F0400010E006EFF
:1043D000002EFED700D0000007D0B1510D0804E137
:1043E000B351020801E153D0B35344E0B251B22BB0
:1043F000036A4B0FE96E050E0320EA6EB1C5EFFFAD
:104400000400010E006E002EFED700D00000036AEB
:10441000B2514B0FE96E050E0320EA6EEF6A0400FD
:10442000010E006E002EFED700D00000B25105082C
:1044300021E12B0EB46F430EB56F470EB66F530ECE
:10444000B76F4E0EB86FB96B050E0701EC6F4B0ED0
:10445000EB6F050EEE6FB40EED6FF06B050EEF6FA8
:104460000001C3DE0152D8B402D0050103D0020E10
:104470000501B36F04000D0EBA6F2D0E0801656FB4
:1044800000017EEC1CF00501BA2FF7D77DD7050E91
:104490000701EA6F4B0EE96F0001F2DE010E080121
:1044A000646F00012CEC12F0010EEA6E480EE96E0A
:1044B000050EE26E4B0EE16EE752E6CFEEFFFCE139
:1044C000010E0801646F00012CEC12F0050E0801CA
:1044D000646F00012CEC12F0E8EF6BF006018A6BC0
:1044E0000701B86BB76B060189C603F08851D8B4D1
:1044F00089078807031045E0A4AA3AD000012CECF4
:104500001CF001C0B9F70701B8C703F0B751B72BCA
:10451000D8B4B82BBA6F8B0EBA25E96E060E0320FD
:10452000EA6EB9C7EFFF040000D000008B0EB7257C
:10453000E96E060EB821EA6EEF6A040000D00000B2
:1045400006018A530AE10701B9514F08D8B402D0D5
:10455000060103D006018A2B0BD08A2D09D0070152
:10456000B9514B08D8B402D0060102D0060109D0D7
:10457000010E0801646F00012CEC12F00701B3D7A3
:1045800006018B0E016E060E026E0001120052C46F
:10459000EAFF51C4E9FF0701F6C7EFFFE92AD8B4E3
:1045A000EA2AEF6A0401512BD8B4522B0001120001
:1045B000EF520FE0EACFEAF7E9CFE9F7EFCFF6F7EE
:1045C000E6DFEAC7EAFFE9C7E9FFE92AD8B4EA2A41
:1045D000EFD712000900F6CFEAF7F7CFEBF7F55067
:1045E000A4A8FED7736EEAC7F6FFEBC7F7FF070173
:1045F000E92F01D002D00001EDD700011200070120
:10460000EBC7E9FFECC7EAFFEFCFEFF7EEC703F028
:10461000EDC7E9FFEEC7EAFFEF50EF5D15E1ECC72C
:1046200003F0EBC7E9FF03C0EAFFEF5203E1000E1E
:10463000016E1FD0ECC703F0EB51EB2BD8B4EC2B81
:10464000ED2BD8B4EE2BDCD7ECC703F0EBC7E9FFBA
:10465000ECC7EAFFEFCFEFF7EEC703F0EDC7E9FFD6
:10466000EEC7EAFFEF50EF5D02E2FF0E01D0010E50
:10467000016E00011200F4C7F8F7F3C7F7F7F8C7A7
:1046800003F00701F7C7E9FFF8C7EAFFEF5230E090
:10469000F6C7FAF7F5C7F9F7FAC703F0F9C7E9FF64
:1046A000FAC7EAFFEF520AE1F351F75D006EF451E9
:1046B000F859036E00C001F023D010D0F7C7E9FF0E
:1046C000F8C7EAFFEFCFFBF7FAC703F0F9C7E9FF36
:1046D000FAC7EAFFEF50FB5D01E104D0F92BD8B433
:1046E000FA2BDAD7F72BD8B4F82B0001C8D707017B
:1046F000F351F75D006EF451F859036E00C001F0FC
:104700000001D8EF23F0F4C7F8F7F3C7F7F7F8C7BD
:1047100003F00701F7C7E9FFF8C7EAFFEF522AE005
:10472000F6C7FAF7F5C7F9F7FAC703F0F9C7E9FFD3
:10473000FAC7EAFFEF5218E0F7C7E9FFF8C7EAFF48
:10474000EFCFFBF7FAC703F0F9C7E9FFFAC7EAFFB3
:10475000EF50FB5D05E1F7C701F0F8C702F00DD09F
:10476000F92BD8B4FA2BE0D7F72BD8B4F82B0001EB
:10477000CED70701000E016E026E0001F9EF23F0A3
:104780000701EB51EC1104E0ECC703F0EB5103D04F
:1047900018C003F01750EF6F03C0F0F7F0C7F4F73D
:1047A000EFC7F3F7EEC7F6F7EDC7F5F7000163D7EC
:1047B00001500701EF27000EF023F0C703F0EFC709
:1047C000E9FFF0C7EAFFEF520AE117C0E9FF18C09E
:1047D000EAFF200EEF6E000E016E026E27D0F0C7CA
:1047E000F4F7EFC7F3F7EEC7F6F7EDC7F5F70001FB
:1047F0008AD702C0F2F701C0F1F7F2C703F0070150
:10480000F1C7E9FFF2C7EAFFEF5208E0F1C7E9FF9D
:10481000F2C7EAFFEF6AF12BD8B4F22BF2C718F017
:10482000F1C717F0EFC701F0F0C702F00001120066
:10483000EAC7EEF7E9C7EDF7ECC703F00701EBC7EE
:10484000E9FFECC7EAFFEF522CE0EE51000806E268
:10485000FF0A03E1ED51350801E223D0ECC703F074
:10486000EB51EB2BD8B4EC2BE96E03C0EAFFEFCF92
:10487000EFF7F36BF26BEEC7F1F7EDC7F0F7EFC7A9
:10488000F4F700011FEC13F0050E0801646F00013E
:104890002CEC12F00701ED2BD8B4EE2B0001CCD795
:1048A0000701ECC703F0EBC7E9FFECC7EAFFEF52E3
:1048B00012E1F36BF26BEEC7F1F7EDC7F0F70D0EF7
:1048C000F46F00011FEC13F0050E0801646F000186
:1048D0002CEC12F0070100011200EF5210E0EACFB9
:1048E000F5F7E9CFF4F7EF50A4A8FED7736EF5C73C
:1048F000EAFFF4C7E9FFE92AD8B4EA2AEED71200A2
:104900001A0E0701F06F6E0EF66E1F0EF76E0001A5
:1049100039EC14F04F0E0701F16F4B0EF26FF36B91
:10492000070EF76FF10EF66F270EF96F100EF86F86
:1049300000018EEC1CF00701EF9101B0EF81020E37
:10494000F46FFA0E0801646F00012CEC12F00701FD
:10495000F42FF7D77A0EF66E1F0EF76E000139ECC2
:1049600014F04F0E0701F16F4B0EF26FF36B070E51
:10497000F76FF10EF66F270EF96F100EF86F00014A
:104980008EEC1CF00701EF9101B0EF81020EF46F85
:10499000FA0E0801646F00012CEC12F00701F42FED
:1049A000F7D78A0EF66E1F0EF76E000139EC14F081
:1049B000ECC7EAFFEBC7E9FF90DF0D0EA4A8FED716
:1049C000736E0A0EA4A8FED7736E3E0E0701F16F38
:1049D000F26B070EF76FF10EF66F270EF96F100EE0
:1049E000F86F00018EEC1CF00701EF9101B0EF8130
:1049F000320E0801646F00012CEC12F0EEC7EAFFE2
:104A0000EDC7E9FF6ADF0701F051A4A8FED7736E76
:104A10004F0EF16F4B0EF26FF36B070EF76FF10E47
:104A2000F66F270EF96F100EF86F00018EEC1CF078
:104A30000701EF9101B0EF81320E0801646F0001B0
:104A40002CEC12F012000701E9531AE092908990C1
:104A500092928992960E0801646F00012CEC12F07C
:104A6000929089800E0E0701EA6FFA0E0801646FBA
:104A700000012CEC12F00701EA2FF7D792908990F1
:104A800004013A8535973B6B000112000900F6CF0F
:104A9000EAF7F7CFEBF7F5CFF6F779DDEAC7F6FFE0
:104AA000EBC7F7FF0701E92F01D002D00001EED7D5
:104AB000000112000701F651B608F66F036AF7C746
:104AC000FAF7F78FD890F733F833F933033202321D
:104AD00001320032F62FF6D7FAAF0BD0001E011EBE
:104AE000021E031E002AD8B4012AD8B4022AD8B460
:104AF000032A00011200D8B204D0070EEA6EFE0E9F
:104B0000E96E006A016A026A036A0701FE6BFF6BC5
:104B10000801006B016B0701FD51FC11FB11FA113B
:104B200043E0200E0801026FD8900701F637F737EF
:104B3000F837F937FE37FF3708010037013707012B
:104B4000FD510801015D0FE10701FC510801005D05
:104B50000AE10701FB51FF5DD8B402D0080103D080
:104B6000FA51FE5D080119E30701FA51FE5FFB519E
:104B7000D8A0FB3DFF5FFC51D8A0FC3D01D003D085
:104B80000801005F0701FD51D8A0FD3D01D003D011
:104B90000801015F0701D88008010036013602369E
:104BA0000336022FC1D70701FEC7EFFFFFC7ECFF97
:104BB00000C8ECFF01C8ECFF00011200E95007013A
:104BC000EE6FED51F06F1CE0ECC7FBF7EBC7FAF7A7
:104BD000EAC7F9F7E9C7F8F7FF6BFE6B200EFD6F28
:104BE000820EFC6F000162EC16F003C0ECF702C00D
:104BF000EBF701C0EAF700C0E9F70701F02FE4D7AF
:104C0000ECC7F9F7EBC7F8F7EAC7F7F7E9C7F6F724
:104C1000000150DF03C0ECF702C0EBF701C0EAF778
:104C200000C0E9F70701ECAF0DD0EE07EE8BE91FEE
:104C3000EA1FEB1FEC1FE92BD8B4EA2BD8B4EB2BFF
:104C4000D8B4EC2B3B0EF56F9A0EF46FCA0EF36FCF
:104C5000F26B0A0EF06FED51D8B4EE2BD882070E2E
:104C6000EA6EE90EE96EECC7F9F7EBC7F8F7EAC7A9
:104C7000F7F7E9C7F6F7F5C7FDF7F4C7FCF7F3C791
:104C8000FBF7F2C7FAF7000136DF0150005213E1DB
:104C90000701ED29F05DD8A402D000010CD0EE513F
:104CA0000DE00F0BF05D01E040E2EEBF3ED0EEBD47
:104CB00005D0200E34D0200E0701EE17EEAB0ED03B
:104CC000EE9BED51D8A4EE070050EE6F2D0EF66F5F
:104CD00000015DDC0701EE51006EEE6BED51F05D01
:104CE0000CE10050EE6F2E0EF66F000150DC070154
:104CF000EE51006E200EEE17000E300EEEAB0FD010
:104D0000EE9BED51D8A4EE070050EE6F2D0EF66F1E
:104D100000013DDC0701EE51006EEE6B300E002607
:104D200000C0F6F7000133DC0701D892F5C7F9F7A8
:104D3000F4C7F8F7F3C7F7F7F2C7F6F7FD6BFC6BAC
:104D4000FB6B0A0EFA6F0001D6DE03C0F5F702C056
:104D5000F4F701C0F3F700C0F2F70701F02F7ED798
:104D600000011200EACFF1F7E9CFF0F70701EAAF4F
:104D700008D0F08FF0A9F02BE91FEA1FE92BD8B477
:104D8000EA2BEA39F009EC6FEC27E20FED6F320FF6
:104D9000EF6FEA510F0BED27ED27EF27E90FEE6FCD
:104DA000EE27EE27E9390F0BEE27EF27EE37EF3727
:104DB000EF1FEF37E9510F0BEF27EC37070EEB6FC3
:104DC0000A0EEE07EF27FDE3ED07EE27FDE3EC0704
:104DD000ED27FDE3EB07EC27FDE3070EEA6EEB0E94
:104DE000E96E070EF015F09DED52F01507E1F0B9F0
:104DF000EE52F0B903D0200E006E21D0E926000E4D
:104E0000EA22E950EF0804E1EA50070801E1F08DD9
:104E1000EF50006E08E1F0BD06D0F0B91ED0F0B73B
:104E200002D0200E0BD0F0AF06D02D0E006EED504C
:104E3000F09DF09F04D0F087F099300E0026EACF65
:104E4000EAF7E9CFE9F700C0F6F70001C7EC22F076
:104E5000EAC7EAFFE9C7E9FF0701EE50F0ADD1D795
:104E6000000149EF38F00701F051016AEF5D03E2FC
:104E7000EFC700F00CD0006A080EF16FEF37003674
:104E8000F051005CD8B0006E0136F12FF7D7000169
:104E90001200200E0701EAA9300EEB6FE9C700F0FF
:104EA000E9AF08D0001E002A00C0E9F72D0EEB6F15
:104EB000EA8FEA810150E9C7EFF7640EF06F000155
:104EC000D2DF00C0E9F7300E01240701EC6FE9C71B
:104ED000EFF70A0EF06F0001C6DF300E0024070165
:104EE000EE6F300E0124ED6FEBC700F0300EEC5D7D
:104EF00004E0EA83EABFEA8512D0EBC7ECF7200EA4
:104F0000EB6F300EED5D04E0EA81EABFEA8307D083
:104F1000D8A4EA8104E1ECC7EDF7200EEC6FEAB506
:104F200005D0EAB308D0EAB10BD00FD0EBC7F6F743
:104F30000001C7EC22F0ECC7F6F70001C7EC22F045
:104F4000EDC7F6F70001C7EC22F0EEC7F6F7000157
:104F5000C7EC22F012008E0E006EFDC701F0FCC7F8
:104F600002F0036A015209E102C001F0026A080E70
:104F7000005E015202E1006A08D0D89001BE04D060
:104F8000023601360006F9D7019E12000701FC51D6
:104F9000D8B4B4D00801086F0051D8A402D00701DA
:104FA000ADD0085F07E37F0E0827D8A002D0070125
:104FB000A5D00AD0810E085FD8B002D007019ED0DC
:104FC000D8A402D007019AD008C800F0016A026A8A
:104FD000036A076BFDC706F8068FFEC705F8FFC713
:104FE00004F8190E086F0351045F0DE2010E055F0E
:104FF0000AE2065F08E2075F06E2072B062B052B95
:105000000351042728D00251055F12E2010E065F0A
:105010000FE2075F0DE2072B062B02510527035114
:10502000042719E3052B17E1062B15E1072B13D0F5
:1050300001518009065F0EE2010E075F0BE2072BAC
:1050400001518009062702510527E9E3062BE7E114
:10505000072BE5D70380082F01D00BD0D890043759
:10506000053706370737D890033602360136093739
:10507000BAD709A106D0D8900132023203320933DF
:1050800004D0002E02D0070139D009BF1ED0D8901D
:1050900004370537063707370351045F07E2010E6F
:1050A000055F04E2065F02E2075F1DE30251055F50
:1050B00005E2010E065F02E2075F15E30151800978
:1050C000065F03E2010E075F0EE3032A0CE1022AEA
:1050D0000AE1012A08E1002AD8A402D007010ED073
:1050E000013202320332FDC708F80151081B08AF34
:1050F00002D0018E08D0019E06D00701006A016A25
:10510000026A036A080100011200800ED8A202D0D0
:105110000801011B0801066B076BFDC705F801516B
:10512000051B0701FC51D8B4E0D00801046F006EE4
:105130000051D8B4E4D0045FD8B484D03DE301C8B2
:105140000AF80A8F02C809F803C808F8076BD89054
:105150000A33093308330733042FF8D705AF03D0D8
:105160000681E1D0069104910689070EEA6EE9688E
:10517000EDD0069905BF0AD004A113D00A33093334
:1051800008330733002AD8B4C9D00BD00ABF0CD0DB
:10519000D8900737083709370A370006D8B4BED089
:1051A000F5D7068D6ED0069DFDC705F805AF02D078
:1051B0000A8FADD00A9FABD000C804F800C800F039
:1051C0000701FC510801045FFDC70AF80A8FFEC7FA
:1051D00009F8FFC708F8076BD8900A33093308337A
:1051E0000733042FF8D705AF03D006839CD006936E
:1051F0000491068B080EEA6E030EE96EA7D0069B9B
:1052000005BF0AD004A113D00A330933083307338A
:10521000002AD8B483D00BD00ABF0CD0D89007375F
:10522000083709370A370006D8B478D0F5D7068F83
:1052300028D0069F01C805F801AF02D00A8F67D0B9
:105240000A9F65D001C80AF80A8F02C809F803C886
:1052500008F805AF04D00A9F068565D00695076B50
:105260000491070EEA6EE96871D005BF1CD0FDC736
:1052700005F804A106D00A33093308330733002A9E
:105280004DE007AF0BD0082B09E1092B07E10A2BF2
:1052900005E10A3309330833002A40E006BD83D70D
:1052A00006BFC7D71CD0800E0A1B0AAF04D03BD064
:1052B00001C805F80AD0FDC705F80A5306E10953ED
:1052C00004E1085302E1006A22D00ABF08D0D89056
:1052D0000737083709370A37002EF7D71FD005AF31
:1052E00002D00A8F14D00A9F12D000C800F001C863
:1052F0000AF802C809F803C808F8080108D0FCC772
:1053000000F0FDC70AF8FEC709F8FFC708F80AC889
:1053100001F009C802F008C803F034D0006A016A3D
:10532000026A036A2FD0076B081F091F0A1F071F95
:10533000072B05E1082B03E1092B01E10A2B06B13C
:1053400011D706B354D706B589D7B2D7EF5008277F
:1053500005E3092B03E10A2BD8B40481ED52EF5089
:10536000092703E30A2BD8B40481ED52EF50EFBEB6
:1053700001D0800A0A27D8B0048106B9FAD606BB44
:105380003ED773D7000112000701F06BEF6BEE6B95
:105390007F0EED6FF46BF36BF26BF16BF581F593B0
:1053A000F595F76BE951EA1105E1006A016A026AB5
:1053B000036A12D1F751F72B036AE925E96EEA5126
:1053C0000320EA6EEFCFF6F7F653D8B4C7D0F5A1B5
:1053D0000FD0F65120080CE0F591F6512B0803E1AF
:1053E000F593AFD005D0F6512D0802E1F583A9D091
:1053F000F5B107D0F6512E0804E1F5B502D0F585D8
:10540000A0D0F5B19BD0F6512F08D8B097D0F65167
:105410003908D8A093D0300EF65FF5A554D0F0C768
:10542000FBF7EFC7FAF7EEC7F9F7EDC7F8F7FF6B31
:10543000FE6B200EFD6F820EFC6F000162EC16F019
:1054400003C0F0F702C0EFF701C0EEF700C0EDF7C0
:105450000701FD6BF6C7FCF700017DDD03C0FBF71C
:1054600002C0FAF701C0F9F700C0F8F703C0FFF770
:1054700002C0FEF701C0FDF700C0FCF7F0C703F85B
:10548000EFC702F8EEC701F8EDC700F87FDDD8924C
:10549000F4C7FFF7F3C7FEF7F2C7FDF7F1C7FCF754
:1054A00003C003F802C002F801C001F800C000F810
:1054B0002CDE03C0F4F702C0F3F701C0F2F700C01E
:1054C000F1F73AD00701FB6BFA6B200EF96F820EF1
:1054D000F86FF4C7FFF7F3C7FEF7F2C7FDF7F1C7A0
:1054E000FCF7000162EC16F003C0FBF702C0FAF70C
:1054F00001C0F9F700C0F8F70701FD6BF6C7FCF72C
:10550000000129DDD892FBC7FFF7FAC7FEF7F9C7FC
:10551000FDF7F8C7FCF703C003F802C002F801C0AA
:1055200001F800C000F8F1DD03C0F4F702C0F3F7A2
:1055300001C0F2F700C0F1F705D00701F5B101D0C5
:105540000DD000010701F751F72B036AE925E96E39
:10555000EA510320EA6EEFCFF6F736D7F5A31AD05B
:10556000FB6BFA6B800EF96F7F0EF86FF4C7FFF7D5
:10557000F3C7FEF7F2C7FDF7F1C7FCF7000162ECD5
:1055800016F003C0F4F702C0F3F701C0F2F700C051
:10559000F1F70701EB51EC1117E0F7530CE0F707B7
:1055A000EBC7E9FFECC7EAFFF751E925EF6E000E04
:1055B000EA21EC6E09D0EBC7E9FFECC7EAFFEAC7C6
:1055C000ECFFED52E9C7EFFFF1C700F0F2C701F0C1
:1055D000F3C702F0F4C703F000011200060E040145
:1055E000476F06018A6B8E6B0701C46BC36B270E76
:1055F000C66F100EC56F940EF66E1F0EF76E080E76
:10560000E96F0001EAEC22F006018951A4A8FED757
:10561000736E0D0EA4A8FED7736E0A0EA4A8FED753
:10562000736E0701C6C703F0C551D8B4C607C507D6
:105630000310D8B4DCD0A4AAD1D000012CEC1CF00B
:1056400001C08BF6040000D0000006018E2D0DD0A5
:105650008B512C080AE08F518F2B036AB20FE96E31
:10566000070E0320EA6E8BC6EFFF8A51020818E18D
:105670008B512C0815E18E5304E1010E8E6F8F6B58
:105680000FD08E2D0DD0020E8E6F036A8F51B20F88
:10569000E96E070E0320EA6EEF6A040000D00000F6
:1056A0008A530CE18B512B0809E1010E8A6F070127
:1056B000C46BC36B040000D0000006018B510D08C1
:1056C00009E18A51030806E1040000D00000070147
:1056D0008ED006018A2D01D003D08A51020825E11F
:1056E0000701C4C703F0C351C32BD8B4C42BE96F5F
:1056F000900EE925E96E060E0320EA6E8BC6EFFFD9
:10570000040000D00000900EC325E96E060EC421EF
:10571000EA6EEF6A040000D00000C45303E1C351F5
:105720007F0801E264D027D006018A51030824E1F2
:105730000701C4C703F0C351C32BD8B4C42BE96F0E
:10574000440EE925E96E070E0320EA6E8BC6EFFFD3
:10575000040000D00000440EC325E96E070EC421EA
:10576000EA6EEF6A040000D00000C45303E1C351A5
:10577000630801E23CD006018B510A0809E18A5115
:10578000020806E10701C46BC36B030E06018A6FB2
:105790008A2D22D02B0E0701C76F430EC86F4D0E06
:1057A000C96F470ECA6F520ECB6FCC6B060EEC6FF3
:1057B000900EEB6F070EEE6FC70EED6FF06B050EE0
:1057C000EF6F0001F5EC20F0015207E1020E060137
:1057D0008A6F040000D0000000010701010E0801DB
:1057E000646F00012CEC12F006011BD70701070EB5
:1057F000EA6ECD0EE96EF2CFE9F7F29E100E016E61
:10580000F76A000E0001DEEC09F00A000900F5CF8E
:10581000EEFF012EFBD70701E9BFF28E070EEC6FFA
:10582000B20EEB6F070EEE6FCD0EED6F0001FFECC9
:1058300022F0015210E0070E0701EC6FB20EEB6F81
:10584000010EEE6F140EED6F0001FFEC22F001521D
:10585000D8A451EF3BF0070144512308D8A458D1F4
:10586000E36B230ECD6FCE6B070EEC6F440EEB6F28
:10587000070EEE6FCD0EED6F0001C0EC23F002C0FD
:10588000E2F701C0E1F70701E151E211D8B495D088
:10589000E351000A000111E0010A1BE0030A25E0C0
:1058A000010A2FE0070A39E0010A43E0030A4DE04C
:1058B000010A57E00F0A61E06CD00701EA6B120E93
:1058C000E96FE2C7ECF7E1C7EBF7000118EC24F051
:1058D00060D00701EA6B160EE96FE2C7ECF7E1C78B
:1058E000EBF7000118EC24F054D00701EA6B1A0E14
:1058F000E96FE2C7ECF7E1C7EBF7000118EC24F021
:1059000048D00701EA6B200EE96FE2C7ECF7E1C768
:10591000EBF7000118EC24F03CD00701EA6B500EC5
:10592000E96FE2C7ECF7E1C7EBF7000118EC24F0F0
:1059300030D00701EA6B300EE96FE2C7ECF7E1C740
:10594000EBF7000118EC24F024D00701EA6B700E8D
:10595000E96FE2C7ECF7E1C7EBF7000118EC24F0C0
:1059600018D00701EA6B800EE96FE2C7ECF7E1C7D8
:10597000EBF7000118EC24F00CD00701EA6B900E55
:10598000E96FE2C7ECF7E1C7EBF7000118EC24F090
:1059900000D00701E32B230ECD6FCE6BEC6BEB6BCE
:1059A000070EEE6FCD0EED6F0001C0EC23F002C0CC
:1059B000E2F701C0E1F767D70701F36BF26BF16B18
:1059C000F069F46900011FEC13F0050E0801646F23
:1059D00000012CEC12F00701F36BF26BF16BF00E8F
:1059E000F06F690EF46F00011FEC13F0050E080153
:1059F000646F00012CEC12F00701F36BF26BF16B9A
:105A0000F10EF06F2A0EF46F00011FEC13F0050E7B
:105A10000801646F00012CEC12F00701F36BF26BCC
:105A2000F16BFC0EF06F2A0EF46F00011FEC13F007
:105A3000050E0801646F00012CEC12F00701F36BF6
:105A4000F26BF16BFB0EF06F2A0EF46F00011FEC8E
:105A500013F0050E0801646F00012CEC12F0070131
:105A6000F36BF26BF16BFE0EF06F690EF46F0001D9
:105A70001FEC13F0020E0701E96FFA0E0801646FC4
:105A800000012CEC12F00701E92FF7D7070EEA6EA0
:105A9000CD0EE96EF2CFE9F7F29E0F0E016EF76AB6
:105AA000000E0001F3EC09F00A000900F5CFEEFF4B
:105AB000012EFBD70701E9BFF28E070EEC6FB20E85
:105AC000EB6F070EEE6FCD0EED6F000180EC24F052
:105AD000040E0701E96FFA0E0801646F00012CEC57
:105AE00012F00701E92FF7D7010EE96F000123EC4F
:105AF00025F0040E0701E96FFA0E0801646F00013A
:105B00002CEC12F00701E92FF7D7FF004EEF3BF026
:105B100044512408D8A4AFD0E66B240ECD6FCE6BD1
:105B2000070EEC6F440EEB6F070EEE6FCD0EED6FB0
:105B30000001C0EC23F002C0E5F701C0E4F7070163
