:0400000030EF07F0E6
:06000800ECEF07F012000E
:0E0010009486948850EF07F0F1EF07F012008D
:10002000D76BD86BD85101082BE3D6C003F0D5C0ED
:10003000E9FFD6C0EAFFEF50400810E2D751100D9B
:10004000F3CFD9F0D6C003F0D5C0E9FFD6C0EAFFA0
:10005000EF50D925BF0F0A0FD76F0CD0D751100D15
:10006000F3CFD9F0D5C0E9FFD6C0EAFFEF50D925CC
:10007000D00FD76FD851D82BD52BD8B4D62BD2D7F9
:10008000D7C001F0120046C103F0010145C1E9FFEC
:1000900046C1EAFFEF5205E143C101F044C102F05D
:1000A0004AD044C103F043C1E9FF44C1EAFFEF5223
:1000B0003FE044C148F143C147F146C14AF145C15F
:1000C00049F148C103F047C1E9FF48C1EAFFEF52D7
:1000D0001EE04AC103F049C1E9FF4AC1EAFFEF52FD
:1000E00016E047C1E9FF48C1EAFFEFCF4BF14AC133
:1000F00003F049C1E9FF4AC1EAFFEF504B5D07E158
:10010000472BD8B4482B492BD8B44A2BDAD74AC14D
:1001100003F049C1E9FF4AC1EAFFEF5205E143C1DB
:1001200001F044C102F007D0432BD8B4442BB9D717
:10013000000E016E026E00011200DA6BD96B010134
:100140004191426B0001D85309E1D75307E1DA51DD
:10015000D65D4FE303E1D551D95D4BE2A4AA3ED071
:1001600001014251422B036ADD0FE96E000E0320AC
:10017000EA6EEACF46F1E9CF45F10001A7DA46C1C0
:10018000EAFF45C1E9FF01C0EFFF040000D0000015
:10019000036A01014251DD0FE96E000E0320EA6E91
:1001A000EF6A040000D00000446BDD0E436FD4C042
:1001B00046F1D3C045F1000166DF02C0DCF001C0AA
:1001C000DBF0DB51DC110AE0040000D0000001018B
:1001D0004181040000D0000000010BD0D92BD8B41D
:1001E000DA2B0400050E006E002EFED700D00000B2
:1001F000AAD7050E0101436F000182D8000E01014C
:1002000041B1010E016E00011200D66BD56BD46BAB
:10021000D36BD76BD151D21105E1006A016A026A32
:10022000036A36D0036AD751D125E96ED251032033
:10023000EA6EEFCFD8F0D85323E0D8512F0820E250
:10024000D85139081DE3D6C0DCF0D5C0DBF0D4C0EE
:10025000DAF0D3C0D9F0E06BDF6BDE6B0A0EDD6F36
:1002600040D2300ED85D0024D36F000E0120D46F31
:10027000000E0220D56F000E0320D66FD72BD2D7E9
:10028000D3C000F0D4C001F0D5C002F0D6C003F056
:10029000120041542B51464F50454E3D226D61692D
:1002A0006E25642E747874220D0A000041542B517F
:1002B00046524541443D313032372C3630300D0AFC
:1002C000000041542B51465345454B3D31303237A8
:1002D0002C256C642C320D0A000041542B514652DF
:1002E0004541443D313032372C34350D0A004154FC
:1002F0002B5146434C4F53453D313032370D0A00A8
:10030000010EEA6E430EE96EEF5011E0050E016E2C
:10031000BF0E006E0400002EFDD7012EF9D72E0E61
:10032000006E002EFED700000400EF2EEFD7120063
:10033000080E016E040E006E002EFED78B9694966A
:10034000040E006E002EFED7DD378B98D8B094884F
:10035000D8A09498948682A6FED7012EEBD7040EDF
:10036000006E002EFED78B96949600009488040EA3
:10037000006E002EFED7040E006E002EFED794866F
:1003800082A6FED7016A040E006E002EFED782B848
:1003900001808B9694968B9894981200080E516E5B
:1003A00000C052F09488040E006E002EFED7948692
:1003B00082A6FED782B8D88082A8D8900136040ED3
:1003C000006E002EFED794968B96512EEBD7948814
:1003D000040E006E002EFED78B985250D8A494982D
:1003E0000000948682A6FED7040E006E002EFED773
:1003F0008B969496040E006E002EFED78B989498E0
:100400004BEF02F04D5203E14C50000803E2A80EFE
:100410004F6E02D0A00E4F6E9488040E006E002E18
:10042000FED79486040E006E002EFED782A6FED75D
:100430008B989498040E006E002EFED78B9694969F
:100440004FC0DDF075DF4BC051F04CC052F04DC0D5
:1004500053F0546A4BC0DDF06BDF4AC0DDF068DF5B
:100460009488040E006E002EFED79486040E006E53
:10047000002EFED782A6FED78B989498040E006EAD
:10048000002EFED78B969496010E4F24506EDD6F92
:100490004FDF006A83D701C04EF094980000948625
:1004A00082A6FED7040E006E002EFED700D00000FC
:1004B0009488040E006E002EFED74EC001F012008C
:1004C000D45303E1D351000803E2A80ED76F02D042
:1004D000A00ED76F9488040E006E002EFED794866F
:1004E000040E006E002EFED78B989498040E006EBA
:1004F000002EFED78B969496D7C0DDF019DFD2C0C0
:10050000D9F0D3C0DAF0D4C0DBF0DC6BD2C0DDF0C0
:100510000FDFD1C0DDF00CDFD5C0DDF009DF94982E
:100520000000948682A6FED7040E006E002EFED731
:1005300000D000009488040E006E002EFED7948830
:10054000040E006E002EFED79486040E006E002E60
:10055000FED78B989498040E006E002EFED78B96D3
:100560009496D7C0DDF0E4DE0150D69101B0D6817B
:10057000D6A11CD09488040E006E002EFED794865F
:10058000040E006E002EFED782A6FED78B9894989C
:10059000040E006E002EFED78B969496D7C0DDF029
:1005A000C7DE0150D69101B0D681E2D71200090012
:1005B000F6CFD2F0F7CFD3F0F550A4A8FED7736EE4
:1005C000D2C0F6FFD3C0F7FFD12FF1D71200D85118
:1005D000016AD75D03E2D7C000F00CD0006A080EB4
:1005E000D96FD7370036D851005CD8B0006E0136CD
:1005F000D92FF7D71200200ED2A9300ED36FD1C059
:1006000000F0D1AF08D0001E002A00C0D1F02D0E9E
:10061000D36FD28FD2810150D1C0D7F0640ED86F82
:10062000D6DF00C0D1F0300E0124D46FD1C0D7F096
:100630000A0ED86FCCDF300E0024D66F300E0124A6
:10064000D56FD3C000F0300ED45D04E0D283D2BFAA
:10065000D28512D0D3C0D4F0200ED36F300ED55D2A
:1006600004E0D281D2BFD28307D0D8A4D28104E1E2
:10067000D4C0D5F0200ED46FD2B505D0D2B307D0F8
:10068000D2B109D00CD0D351A4A8FED7736ED451E7
:10069000A4A8FED7736ED551A4A8FED7736ED65109
:1006A000A4A8FED7736EDFEF04F00900F5520DE049
:1006B000F6CFD1F0F7CFD2F0F550A4A8FED7736EE5
:1006C000D1C0F6FFD2C0F7FFF0D71200A4AAFED720
:1006D00071CF04F074CF01F004A202D07198718838
:1006E0001200E16BE26B010EE36FDA6AD96AE66B26
:1006F000D90EE56FEA6ADD0EE96EE6C0E2FFE5C0FD
:10070000E1FFE3C0E4F0D890E550EE02F350E123BE
:10071000F450E223E42FF7D7E1C0DEFFE2C0E1F0BE
:10072000E26BD8B0E22BE52BD8B4E62BE32BE351F8
:100730000508E0E131EF01F0D8B203D0EA6AE50E36
:10074000E96E006A016A026A036AE56BE66BE76BB1
:10075000E86BE451E311E211E1112CE0200EE96FA6
:10076000D890DD37DE37DF37E037E537E637E73774
:10077000E837E451E85D08E1E351E75D05E1E25166
:10078000E65D02E1E151E55D0FE3E151E55FE25134
:10079000D8A0E23DE65FE351D8A0E33DE75FE45136
:1007A000D8A0E43DE85FD880003601360236033633
:1007B000E92FD6D7E5C0EFFFE6C0ECFFE7C0ECFFBE
:1007C000E8C0ECFF1200E950D56FD4AF0DD0D507CB
:1007D000D58BD11FD21FD31FD41FD12BD8B4D22B6E
:1007E000D8B4D32BD8B4D42B3B0EDC6F9A0EDB6F6E
:1007F000CA0EDA6FD96B0A0ED76FD882EA6AD10EA9
:10080000E96ED4C0E0F0D3C0DFF0D2C0DEF0D1C0DA
:10081000DDF0DCC0E4F0DBC0E3F0DAC0E2F0D9C028
:10082000E1F08ADF015000520FE1D751010A0CE0DC
:10083000D5510CE00F0BD75D01E027E2D5BF25D0E5
:10084000D5BD04D0200E1CD0200ED517D5AB0AD0B4
:10085000D59B00C0D5F02D0EA4A8FED7736ED5C0D1
:1008600000F0D56B300ED5AB0BD0D59B00C0D5F0CA
:100870002D0EA4A8FED7736ED5C000F0D56B300E38
:1008800000260050A4A8FED7736ED892DCC0E0F01A
:10089000DBC0DFF0DAC0DEF0D9C0DDF0E46BE36B83
:1008A000E26B0A0EE16F48DF03C0DCF002C0DBF050
:1008B00001C0DAF000C0D9F0D72F9FD7BAEF05F00A
:1008C000F250036EF29EA68EA6840F01550EA76EFF
:1008D000AA0EA76EA68200000350F21200011200B9
:1008E000D08CA69CF6503F0B006EC00EF6160A0088
:1008F000D1C001F0006607D0EECFF5FF015204E051
:100900000F00010603D000060B000C003F0EF6148A
:100910003F0AF0E1A688D4DFD3DF0166EBD7F86A9F
:1009200006EF07F04C904C924C94526A516A566A0A
:10093000556A546A536A9290899092928982040E01
:10094000D16FFA0E0101436F0001DADCD12FF9D724
:1009500092928992040ED16FFA0E0101436F000149
:10096000CFDCD12FF9D7929089800A0ED16FD20EA9
:100970000101436F0001C4DCD12FF9D79290899017
:10098000280ED16FFA0E0101436F0001B9DCD12F9F
:10099000F9D794928B920550020803E1010E4B6E39
:1009A00002D0020E4B6E920EF66E020EF76E0F0E16
:1009B000D16FFDDD4BC0D1F0180ED26F1CD6A30E47
:1009C000F66E020EF76E070ED16FF1DD040ED16FD9
:1009D000FA0E0101436F000193DCD12FF9D7AC0E61
:1009E000F66E020EF76E61DE4CB097D0A4AA8DD0E1
:1009F0006DDE01C04AF04A500A0825E0565223E154
:100A0000555221E154521FE1535041081CE356C096
:100A100003F055C002F054C001F053C000F0010EC5
:100A20005326D8B0542AD8B4552AD8B4562A070E1B
:100A30000024E96E000E0120EA6E4AC0EFFF0400B8
:100A400000D0000062D04A500A085FE1070E53242C
:100A5000E96E000E5420EA6EEF6A040000D0000038
:100A6000075043084BE10F504C0848E115503A0835
:100A700045E1100ECB6F036ACB51070FE96E000EF4
:100A80000320EA6EEF500D081DE0100ECB5D036AE7
:100A9000C30F016E000E032203C0D2F0036ACB51D4
:100AA000070FE96E000E0320EA6EEFCFD3F0D2C03D
:100AB000EAFF01C0E9FFD3C0EFFF040000D000004F
:100AC000CB2BD9D7100ECB5D036AC30FE96E000E96
:100AD0000320EA6EEF6A4C80010E0101436F0001B2
:100AE0000FDCD26BC30ED16F05EC01F003C0B4F084
:100AF00002C0B3F001C0B2F000C0B1F0566A556A4E
:100B0000546A536A040000D000000400050E006E11
:100B1000002EFED700D0000067D74C90566A556A69
:100B2000546A536A94908B80B06BAF6BAE6BAD6BB5
:100B30004CB481D14C904C92AD51B15DB56FAE517A
:100B4000B259B66FAF51B359B76FB051B459B86F0E
:100B5000C20EF66E020EF76E0F0ED16F28DD410E3B
:100B6000E96EB8C0D4F0B7C0D3F0B6C0D2F0B5C00B
:100B7000D1F029D6D40EF66E020EF76E040ED16FA8
:100B800016DD0D0ECC6F0A0ECD6F4F0ECE6F4B0ED5
:100B9000CF6FD06BD46BCC0ED36FD86BD76B9C0E52
:100BA000D66F400ED56F9DEC00F0DA0EF66E020E99
:100BB000F76E7BDD066A5E6AA4AA4AD0036A065015
:100BC000070FE96E000E0320EA6EEACFD4F0E9CFFA
:100BD000D3F07CDDD4C0EAFFD3C0E9FF01C0EFFF52
:100BE000040000D00000036A0650070FE96E000EF3
:100BF0000320EA6EEF503A0804E14CB002D04C807A
:100C00001DD0036A0650070FE96E000E0320EA6E3E
:100C1000EF500D0813E14CB211D04CA00FD04C8214
:100C2000040000D00000062A010E0624AD27000EA5
:100C3000AE23AF23B023040000D000004CA003D0AB
:100C40004CB201D0062A5E2A040000D0000003D076
:100C5000040000D000005E503B08AEE207503A08A6
:100C6000D8A4E8D0D66B080ED56F10EC00F001C008
:100C70005DF0D66B0A0ED56F10EC00F001C0D1F01C
:100C8000D66B0C0ED56F10EC00F0D1C050F001C047
:100C90004FF0D66B0E0ED56F10EC00F001C04EF089
:100CA00051C055F052C056F04FC053F050C054F0F0
:100CB0004E2C02D04C84BED056520CE155520AE163
:100CC00054500E08D8B0B6D0FF0A04E15350CF08F4
:100CD000D8B0B0D05652D8A4ADD055500008D8A046
:100CE000A9D094948B844D6A010E5C6E030E065C51
:100CF0005C5C15E2036A5C50070F016E000E032274
:100D000001C0D1F003C0D2F003C0D6F001C0D5F0CD
:100D100010EC00F001504D26020E5C26E7D7FF0EC6
:100D2000D8804D54010F4D6E030E065C036A070F09
:100D3000016E000E032201C0D1F003C0D2F003C047
:100D4000D6F001C0D5F010EC00F001504D5C23E06E
:100D5000020E056ED46BD36BD26BF70ED16F05C04C
:100D6000D5F060EC02F00A0E0101436F000180EC47
:100D700001F0D46BD36BD26BF80ED16FA50ED56F8B
:100D800060EC02F00A0E0101436F000180EC01F0FB
:100D900094928B824FD094928B924E5238E1090EEE
:100DA0005C6E5B6A030E065C5C5C24E25B505B2A53
:100DB000036A5F0F016E000E032201C0D1F003C071
:100DC000D2F0036A5C50070F016E000E032201C0CF
:100DD000D3F003C0D4F003C0D6F001C0D5F010ECBE
:100DE00000F0D2C0EAFFD1C0E9FF01C0EFFF020E60
:100DF0005C26D8D755C0F8FF54C0F7FF53C0F6FFA4
:100E0000EA6A5F0EE96E5DC0D1F06AD513D04E502C
:100E1000040810E1D66B100ED56F10EC00F001C085
:100E2000D1F0D66B120ED56F10EC00F0D1C052F09D
:100E300001C051F07DD6320E0101436F000180ECFC
:100E400001F0EE0EF66E020EF76E2FDC320E01018F
:0E0E5000436F000180EC01F0E8EF07F01200A4
:100E6000F86AD09E046A7086A00E756E010E766ECA
:100E7000A60E726E900E716E496AC150F00BC16E73
:100E8000000E0F01386F396F3A6F776A786A796AA6
:100E9000640E0101436F000180EC01F008EF00F0E7
:100EA000640E0101436F000180EC01F04D6A4C6A51
:100EB0004B6AF80E4A6E02EC02F00150A5081EE1E2
:100EC0000A0E0101436F000180EC01F04D6A4C6A8B
:100ED0004B6AF70E4A6E02EC02F001C005F00550B5
:100EE00002080BE14D6A4C6A4B6AF90E4A6E02EC3D
:100EF00002F00150A50801E0056A20D0010E056E40
:100F0000D46BD36BD26BF70ED16F05C0D5F060EC0C
:100F100002F00A0E0101436F000180EC01F0D46B76
:100F2000D36BD26BF80ED16FA50ED56F60EC02F0CB
:100F30000A0E0101436F000180EC01F0055203E04D
:100F4000055002080EE194928B82040E4A6EFA0E4E
:100F50000101436F000180EC01F04A2EF8D7E2DC7A
:0C0F600004D0052C02D0E8EF07F00300DD
:040FD00041EF6AF093
:080FD800046ED8CF05F0E0CF54
:100FE00006F00001E9CF0CF0EACF07F0E1CF08F0FE
:100FF000E2CF09F0D9CF0AF0DACF0BF0F3CF12F03D
:10100000F4CF13F0FACF14F000C00EF001C00FF0CF
:1010100002C010F003C011F09DA212EF08F09EB2C2
:101020004EEF0DF00EC000F00FC001F010C002F046
:1010300011C003F00CC0E9FF07C0EAFF078E08C02B
:10104000E1FF09C0E2FF0AC0D9FF0BC0DAFF12C0FE
:10105000F3FF13C0F4FF14C0FAFF045006C0E0FF12
:1010600005C0D8FF1000F2CF0DF0F29EF76A800F96
:10107000F66E100EF7220900F5500DBEF28E12002A
:1010800068656C6C6F20776F726C6400F2CF0DF046
:10109000F29EF76AA60FF66E100EF7220900F550C1
:1010A0000DBEF28E12004F536F666600F2CF0DF048
:1010B000F29EF76AC60FF66E100EF7220900F55081
:1010C0000DBEF28E1200244750524D430000F2CF65
:1010D0000DF0F29EF76AE80FF66E100EF722090087
:1010E000F5500DBEF28E120024474E524D430000C3
:1010F000F2CF0DF0F29EF76A0A0FF66E110EF7228C
:101100000900F5500DBEF28E1200244750474741AA
:101110000000F2CF0DF0F29EF76A2C0FF66E110E62
:10112000F7220900F5500DBEF28E120024474E56EC
:1011300054470000F2CF0DF0F29EF76A4E0FF66EA4
:10114000110EF7220900F5500DBEF28E1200244751
:101150004E4747410000F2CF0DF0F29EF76A700F44
:10116000F66E110EF7220900F5500DBEF28E120038
:1011700056616C696400F2CF0DF0F29EF76A900F31
:10118000F66E110EF7220900F5500DBEF28E120018
:101190005468656674206F7220546F77696E67209B
:1011A00061637469766974792064657465637465D4
:1011B0006400F2CF0DF0F29EF76ACC0FF66E110EBE
:1011C000F7220900F5500DBEF28E120067707320F1
:1011D0007369676E616C206C6F737400F2CF0DF0F1
:1011E000F29EF76AF60FF66E110EF7220900F5501F
:1011F0000DBEF28E1200496E76616C696400F2CF0A
:101200000DF0F29EF76A180FF66E120EF722090023
:10121000F5500DBEF28E12000D0A434F4E4E45435F
:10122000540D0A00F2CF0DF0F29EF76A3E0FF66EF3
:10123000120EF7220900F5500DBEF28E12000D0AB3
:101240004F4B0D0A0D0A2B51485454504745543A00
:1012500020302C3230302C00F2CF0DF0F29EF76AA5
:10126000720FF66E120EF7220900F5500DBEF28EC7
:1012700012000D0A4F4B0D0A0D0A2B5148545450C1
:101280005245414446494C453A20300D0A00F2CFC0
:101290000DF0F29EF76AA80FF66E120EF722090003
:1012A000F5500DBEF28E12006F74612066696C6598
:1012B00020646F776E6C6F6164656400F2CF0DF02F
:1012C000F29EF76AD60FF66E120EF7220900F5505D
:1012D0000DBEF28E12004F536F6E0000F2CF0DF074
:1012E000F29EF76AF60FF66E120EF7220900F5501D
:1012F0000DBEF28E120049444C450000F2CF0DF0B5
:10130000F29EF76A160FF66E130EF7220900F550DB
:101310000DBEF28E120052554E4E494E4700F2CF8E
:101320000DF0F29EF76A380FF66E130EF7220900E1
:10133000F5500DBEF28E12005041524B4544000054
:10134000F2CF0DF0F29EF76A5A0FF66E130EF722E7
:101350000900F5500DBEF28E1200496E20526F6DDD
:10136000696E6700F2CF0DF0F29EF76A7E0FF66E9F
:10137000130EF7220900F5500DBEF28E1200486FD1
:101380006D65204E6574776F726B0000F2CF0DF0C3
:10139000F29EF76AA60FF66E130EF7220900F550BB
:1013A0000DBEF28E120067707320676F742066693D
:1013B0007800F2CF0DF0F29EF76ACC0FF66E130EA6
:1013C000F7220900F5500DBEF28E12007365727699
:1013D000657220636F6E6E65637465640000F2CFA2
:1013E0000DF0F29EF76AF80FF66E130EF722090061
:1013F000F5500DBEF28E1200222B393137303132CA
:101400003538363539362200F2CF0DF0F29EF76AC4
:10141000220FF66E140EF7220900F5500DBEF28E63
:101420001200736574757020636F6D706C65746500
:101430000000F2CF0DF0F29EF76A4C0FF66E140E1C
:10144000F7220900F5500DBEF28E12007365727618
:101450006572322073657400F2CF0DF0F29EF76A68
:10146000720FF66E140EF7220900F5500DBEF28EC3
:10147000120073657461706E3A00F2CF0DF0F29E47
:10148000F76A940FF66E140EF7220900F5500DBEA0
:10149000F28E120073657469643A0000F2CF0DF0A9
:1014A000F29EF76AB60FF66E140EF7220900F55099
:1014B0000DBEF28E12007365746970313A00F2CF7E
:1014C0000DF0F29EF76AD80FF66E140EF72209009F
:1014D000F5500DBEF28E12007365746970323A00D9
:1014E000F2CF0DF0F29EF76AFA0FF66E140EF722A5
:1014F0000900F5500DBEF28E1200636C72697032F5
:101500000000F2CF0DF0F29EF76A1C0FF66E150E7A
:10151000F7220900F5500DBEF28E12005365746972
:101520006E746E3A0000F2CF0DF0F29EF76A400F33
:10153000F66E150EF7220900F5500DBEF28E120060
:10154000536574696E74703A0000F2CF0DF0F29E2C
:10155000F76A640FF66E150EF7220900F5500DBEFE
:10156000F28E120049646C65696E743A0000F2CF25
:101570000DF0F29EF76A880FF66E150EF72209003D
:10158000F5500DBEF28E1200556E61757468000044
:10159000F2CF0DF0F29EF76AAA0FF66E150EF72243
:1015A0000900F5500DBEF28E1200556E617574681B
:1015B0006572697A65640000F2CF0DF0F29EF76AF9
:1015C000D20FF66E150EF7220900F5500DBEF28E01
:1015D000120053657473706565643A00F2CF0DF0C4
:1015E000F29EF76AF60FF66E150EF7220900F55017
:1015F0000DBEF28E12005365747077643A00F2CF1C
:101600000DF0F29EF76A180FF66E160EF72209001B
:10161000F5500DBEF28E1200526F616D696E673F1C
:101620000000F2CF0DF0F29EF76A3C0FF66E160E38
:10163000F7220900F5500DBEF28E12005265626F5E
:101640006F74696E6700F2CF0DF0F29EF76A600F5B
:10165000F66E160EF7220900F5500DBEF28E12003E
:10166000536574545A3A0000F2CF0DF0F29EF76AB7
:10167000820FF66E160EF7220900F5500DBEF28E9F
:1016800012004175746F20545A2073657400F2CFB4
:101690000DF0F29EF76AA80FF66E160EF7220900FB
:1016A000F5500DBEF28E1200545A2053657400009E
:1016B000F2CF0DF0F29EF76ACA0FF66E160EF72201
:1016C0000900F5500DBEF28E1200696E76616C69EC
:1016D0006420545A0000F2CF0DF0F29EF76AF00F2A
:1016E000F66E160EF7220900F5500DBEF28E1200AE
:1016F000486F7420737461727400F2CF0DF0F29E23
:10170000F76A140FF66E170EF7220900F5500DBE9A
:10171000F28E12005761726D207374617274000052
:10172000F2CF0DF0F29EF76A3A0FF66E170EF7221F
:101730000900F5500DBEF28E1200436F6C642073E9
:10174000746172740000F2CF0DF0F29EF76A600FC0
:10175000F66E170EF7220900F5500DBEF28E12003C
:10176000526C796F6E00F2CF0DF0F29EF76A800F27
:10177000F66E170EF7220900F5500DBEF28E12001C
:1017800052656C6179205475726E6564204F4E000D
:10179000F2CF0DF0F29EF76AAA0FF66E170EF7223F
:1017A0000900F5500DBEF28E1200526C796F66661C
:1017B0000000F2CF0DF0F29EF76ACC0FF66E170E16
:1017C000F7220900F5500DBEF28E120052656C61D1
:1017D00079205475726E6564204F46460000F2CF42
:1017E0000DF0F29EF76AF80FF66E170EF722090059
:1017F000F5500DBEF28E1200454550524F4D20451A
:10180000524153454400F2CF0DF0F29EF76A200F8B
:10181000F66E180EF7220900F5500DBEF28E12007A
:1018200041434C2073657400F2CF0DF0F29EF76ACD
:10183000420FF66E180EF7220900F5500DBEF28E1B
:10184000120044434C2073657400F2CF0DF0F29EF9
:10185000F76A640FF66E180EF7220900F5500DBEF8
:10186000F28E1200526573746F726500F2CF0DF044
:10187000F29EF76A860FF66E180EF7220900F550F1
:101880000DBEF28E1200526573746F726520746F14
:101890002044656661756C742100F2CF0DF0F29EF4
:1018A000F76AB40FF66E180EF7220900F5500DBE58
:1018B000F28E1200417574686572697A6564000081
:1018C000F2CF0DF0F29EF76ADA0FF66E180EF722DD
:1018D0000900F5500DBEF28E12003030303030303D
:1018E0000000F2CF0DF0F29EF76AFC0FF66E180EB4
:1018F000F7220900F5500DBEF28E12000D0A2B5191
:101900004D544F50454E3A20302C3000F2CF0DF060
:10191000F29EF76A260FF66E190EF7220900F550AF
:101920000DBEF28E12000D0A2B514D544F50454EF4
:101930003A20312C3000F2CF0DF0F29EF76A500FB2
:10194000F66E190EF7220900F5500DBEF28E120048
:101950000D0A2B514D54434F4E4E3A20302C302C13
:101960003000F2CF0DF0F29EF76A7C0FF66E190E82
:10197000F7220900F5500DBEF28E12000D0A2B5110
:101980004D54434F4E4E3A20312C302C3000F2CF84
:101990000DF0F29EF76AA80FF66E190EF7220900F5
:1019A000F5500DBEF28E12000D0A2B514D544449D4
:1019B00053433A00F2CF0DF0F29EF76ACE0FF66E67
:1019C000190EF7220900F5500DBEF28E12000D0A15
:1019D0002B514D54434C4F53453A0000F2CF0DF07C
:1019E000F29EF76AF60FF66E190EF7220900F5500F
:1019F0000DBEF28E12000D0A2B514D54505542452A
:101A0000583A20302C302C300000F2CF0DF0F29EEE
:101A1000F76A240FF66E1A0EF7220900F5500DBE74
:101A2000F28E12000D0A2B514D5450554245583A32
:101A300020312C302C300000F2CF0DF0F29EF76AEE
:101A4000520FF66E1A0EF7220900F5500DBEF28EF7
:101A5000120049476F6E0000F2CF0DF0F29EF76A58
:101A6000720FF66E1A0EF7220900F5500DBEF28EB7
:101A7000120049476F666600F2CF0DF0F29EF76ADA
:101A8000920FF66E1A0EF7220900F5500DBEF28E77
:101A900012004E4F53455256494345000401002B56
:101AA000012B03AD29D00CB327D00D2BD8B40E2BAE
:101AB0000E5308E10D51020805E39290899092922D
:101AC00089921AD00E5303E10D51100808E20E530B
:101AD00006E10D51130803E3929089800DD00E5159
:101AE00000080AE2FF0A03E10D516E0805E20E6BE1
:101AF0000D6B929089900C8303AF2AD00CB128D043
:101B00000D2BD8B40E2B0E5303E10D51100808E233
:101B10000E5306E10D51130803E39290898018D00B
:101B20000E5303E10D51EC0808E20E5306E10D518E
:101B3000EF0803E3929089900BD00E51030808E25E
:101B4000FF0A03E10D517D0803E20E6B0D6B0C8162
:101B50000051130851E2022B006B05530EE00507FC
:101B60000551050805E00551030802E0052D03D0E5
:101B700094928B9202D094928B820301F9A326D087
:101B80000101D6BB02D0030121D00301FA2D0BD0F5
:101B90000401037103A103D094928B8202D094922A
:101BA0008B9213D00301FA5102080AE10401055394
:101BB000D8B402D0030104D094928B8206D00301E2
:101BC000FA5302E194928B92040116D00101D6BB24
:101BD00014D00301F9B302D001010FD00401045164
:101BE000010803E394928B8202D094928B92042B8F
:101BF0000451030801E2046B0101040101513108A1
:101C000016E2016B0301F9B30DD0F97FF9AF05D0EE
:101C100094928B8294948B8404D094928B9294941B
:101C20008B9404D00101D6AB00D003010401025112
:101C30000408D8B00CD1026B0101D6ABF7D0030178
:101C4000FC530DE1FD2BD8B4FE2BFE51060807E234
:101C5000FF0A03E1FD51090802E2FE6BFD6BE2534E
:101C6000D8A485D0040103970101C0B106D0C0B348
:101C700004D0C0B702D0C0A50BD00301FC53D8B428
:101C800002D0010105D0010EFC6FFE6BFD6B01015E
:101C90001D531FE11C5101081CE30301F9B102D0DF
:101CA000010117D0040103A502D0010112D0062BB7
:101CB000D8B4072B075303E10651780809E2076BF4
:101CC000066B03850101C089010E0301FC6F04014D
:101CD00010D0040103A50DD001011D5306E11C51D4
:101CE0000508D8A002D0040104D00401076B066BDC
:101CF000039503B528D0010123510301FE5D09E3DB
:101D000005E1010122510301FD5D03E3040103AB81
:101D100010D0040103AB16D00301FE53D8B402D097
:101D2000040107D0FD513B08D8A002D004010AD01D
:101D300004010301FE6BFD6B0101C089010E03016B
:101D4000FC6F040112D009510301FE5D0DE305E1B2
:101D5000040108510301FD5D07E3FE6BFD6B01010A
:101D6000C089010E0301FC6F040153D00301E22D71
:101D70004FD00401076B066B0301F9AB05D0F99B4B
:101D8000010EFC6FFE6BFD6B040103B71CD00A2B28
:101D9000D8B40B2B090ED88001012655006E070E12
:101DA0002755036E00C001F0035004010B5D0BE3E7
:101DB00003E101500A5D07E30B6B0A6B0301FE6B45
:101DC000FD6B040103870301F9A90AD0FE5303E167
:101DD000FD511D0805E2FE6BFD6B010EFC6F18D076
:101DE000010127510301FE5D13E305E101012651C5
:101DF0000301FD5D0DE3040103B702D0030108D028
:101E00000301FE6BFD6B0101C089010E0301FC6F34
:101E100004010301FC5304E1E25302E0F9A905D0F7
:101E2000F9A503D00401038903010101040103A3FF
:101E300007D00301F9A502D0040102D0FF2B040151
:101E40000301FF511D0802E2FF6BF98D04019E9210
:101E5000000112EF08F024504149523836342C303A
:101E60002C302C393630302A31330D0A0000245002
:101E70004D544B3335332C312C312C302C302C300D
:101E80002A32420D0A0024504D544B3238362C3140
:101E90002A32330D0A0024504D544B3232302C324A
:101EA00030302A32430D0A0024504D544B33313325
:101EB0002C312A32450D0A0024504D544B3338360C
:101EC0002C302A32330D0A0024504D544B3330311C
:101ED0002C322A32450D0A0041542B43545A553DA9
:101EE000310D0A00706F776572696E675F646F7796
:101EF0006E210A0041542B51485454504346473DEB
:101F000022636F6E746578746964222C310D0A0047
:101F100041542B51485454504346473D22726573F7
:101F2000706F6E7365686561646572222C310D0A8D
:101F3000000041542B514854545055524C3D3834B4
:101F40002C32303030300D0A0000757064617465D9
:101F50005F636865636B2E7068703F69643D2573CD
:101F60002C76657273696F6E3D5625642E25642E3E
:101F700025640D0A000041542B51485454504745E4
:101F8000543D31303030300D0A0041542B5148540B
:101F90005450524541443D38300D0A0041542B51B4
:101FA000485454504346473D22636F6E74657874BD
:101FB0006964222C310D0A0041542B51485454506D
:101FC0004346473D22726573706F6E736568656145
:101FD000646572222C310D0A000041542B51485483
:101FE000545055524C3D34332C313030300D0A00B2
:101FF0006D61696E2E6865780D0A000041542B51A1
:10200000485454504745543D31303030300D0A006B
:1020100041542B51485454505245414446494C4533
:102020003D225546533A6D61696E322E74787422A2
:102030002C38300D0A0041542B514854545052450D
:10204000414446494C453D225546533A6D61696EBF
:10205000312E747874222C38300D0A00696E697440
:1020600020706F776572696E675F646F776E210AA3
:10207000000049443A2025732C20677073206E6F4E
:10208000742066697865640041542B435245473F8C
:102090000D0A000041542B5149435347503D312C08
:1020A000312C2261697274656C677072732E636F74
:1020B0006D222C22222C22222C310D0A00004154A8
:1020C0002B51494143543D310D0A000041542B51DD
:1020D0004944454143543D310D0A000041542B51C0
:1020E0004D544F50454E3D302C2231332E31323736
:1020F0002E3133322E313336222C313838330D0A1B
:10210000000041542B514D54434F4E4E3D302C2234
:10211000626567696E6F77313233222C2254222C2C
:10212000227474220D0A000041542B514D5444492D
:1021300053433D300D0A000041542B514D54434C44
:102140004F53453D300D0A0041542B514D545055CD
:102150004245583D302C302C302C302C2254222C2F
:1021600025640D0A000041542B434D47463D310D77
:102170000A0041542B435343533D2247534D220DF4
:102180000A0041542B434D47533D000041542B431B
:102190004D47523D25630D0A000061706E20736546
:1021A000743A257300006964207365743A257300DE
:1021B00069702564207365743A257300496E742034
:1021C0006E207365743A25730000496E7420702088
:1021D0007365743A2573000049646C6520696E74F8
:1021E000207365743A2573007370656564207365A8
:1021F000743A25730000505744206368616E676528
:102200006420746F3A257300687474703A2F2F6DD0
:102210006170732E676F6F676C652E636F6D2F6DC6
:102220006170733F713D256325322E36662C256320
:1022300025322E36660024504D544B3130312A332E
:10224000320D0A0024504D544B3130322A33310DB7
:102250000A0024504D544B3130332A33300D0A00DC
:10226000534F53206E756D626572206973207365DC
:102270007420746F202B2573000041542B434D476D
:10228000443D25630D0A000041542B434D47463D14
:10229000310D0A0041542B435343533D2247534DC4
:1022A000220D0A0041542B434D474C0D0A00415466
:1022B0002B514D544F50454E3D0041542B514D54E0
:1022C000434F4E4E3D00222C2200222C2200222C75
:1022D0002200220D0A0041542B514D5444495343CE
:1022E0003D0041542B514D544F50454E3D004154FB
:1022F0002B514D54434F4E4E3D00222C2200222C98
:102300002200220D0A0041542B514D54444953439D
:102310003D0041542B514D54434C4F53453D00001B
:1023200041542B514D5450554245583D00002564B1
:102330002C302C302C302C22000041540D0A00008F
:10234000415445300D0A000041542B4950523D394B
:102350003630300D0A00415426570D0A0000415412
:102360000D0A000041540D0A000041544530265723
:102370000D0A000041542B4950523D393630300D82
:102380000A0041542B434D45453D320D0A0041544E
:102390002B434D47463D310D0A00415426570D0A47
:1023A000000041542B434D47443D312C340D0A006D
:1023B00041542B4350494E3F0D0A000041542B51CC
:1023C00049435347503D312C312C2200222C2222EC
:1023D0002C22222C310D0A0041542B5149414354E7
:1023E0003D310D0A000041542B4347534E3D310D02
:1023F0000A00534F5320687474703A2F2F6D617028
:10240000732E676F6F676C652E636F6D2F6D6170D4
:10241000733F713D256325322E36662C25632532A8
:102420002E366600485F53544152543A256C640A74
:102430000000485F454E443A256C640A00007B2248
:102440006465766963654944223A20222573222C0B
:1024500022494D4549223A2025732C2274696D6525
:102460007374616D70223A2022002530346C642D23
:10247000253032752D2530327520253032753A25BC
:102480003032753A25303275222C226461746156DF
:10249000616C6964697479223A202256616C6964BE
:1024A000222C22737461747573223A20224E2564A3
:1024B000222C226C61746974756465223A202200B2
:1024C000253031312E3766222C226C6F6E6769748D
:1024D000756465223A2022253031322E3766222C4F
:1024E000227370656564223A20222530336C6422A1
:1024F0002C22636F75727365223A20222530336C6B
:1025000064222C2269676E6974696F6E223A2022F8
:10251000000049476F66660049476F6E0000222C35
:102520002276656869636C65537461747573223AC9
:10253000202200005041524B4544000052554E4E5F
:10254000494E470049444C450000222C22616464F6
:102550006974696F6E616C44617461223A2022254E
:1025600073222C2274696D65496E74657276616C94
:1025700073223A202225732C25732C2530334C648A
:10258000222C22616E676C65496E74657276616C8F
:10259000223A20222530336C64222C226469737421
:1025A000616E6365496E74657276616C223A2022B1
:1025B0002530336C64222C2267736D537472656E00
:1025C000677468223A202225303364222C227365F6
:1025D0007175656E63654E756D626572223A202273
:1025E00000000D0A427265616B204B3D256C642032
:1025F000433D25630D0A000041540D0A000041547B
:102600000D0A000041542B4350494E3F0D0A000073
:102610000D0A5055424C495348204641494C0D0A39
:10262000000041540D0A000041542B43545A553DBB
:10263000310D0A0041542B43434C4B3F0D0A00001F
:1026400041542B514353510D0A00080EEA6E2C0ED3
:10265000E96EEF5011E0050E016EBF0E006E040032
:10266000002EFDD7012EF9D72E0E006E002EFED7BC
:1026700000000400EF2EEFD712009486948835EF07
:102680006BF0080E016E040E006E002EFED78B96C6
:102690009496040E006E002EFED70701C4378B9867
:1026A000D8B09488D8A09498948682A6FED7012E9C
:1026B00001D002D00001E7D7040E006E002EFED735
:1026C0008B96949600009488040E006E002EFED720
:1026D000040E006E002EFED7948682A6FED7016AF5
:1026E000040E006E002EFED782B801808B96949661
:1026F0008B98949800011200080E0701B86F00C073
:10270000B9F79488040E006E002EFED7948682A638
:10271000FED782B8D88082A8D8900136040E006E09
:10272000002EFED794968B96B82FEBD79488040E84
:10273000006E002EFED78B98B951D8A49498000053
:10274000948682A6FED7040E006E002EFED78B96CE
:102750009496040E006E002EFED78B98949800017C
:1027600001EF14F00701B45303E1B351000803E291
:10277000A80EB66F02D0A00EB66F9488040E006E3D
:10278000002EFED79486040E006E002EFED782A681
:10279000FED78B989498040E006E002EFED78B9671
:1027A0009496B6C7C4F700016CDFB2C7B8F7B3C7D9
:1027B000B9F7B4C7BAF70701BB6BB2C7C4F70001DA
:1027C00060DFB1C7C4F75DDF9488040E006E002E91
:1027D000FED79486040E006E002EFED782A6FED78A
:1027E0008B989498040E006E002EFED78B969496CC
:1027F000010E0701B625B76FC46F000142DF006A02
:102800007BD701C0B5F794980000948682A6FED7C6
:10281000040E006E002EFED700D000009488040E37
:10282000006E002EFED70701B5C701F000011200AF
:102830000701BB5303E1BA51000803E2A80EBE6FC3
:1028400002D0A00EBE6F9488040E006E002EFED73C
:102850009486040E006E002EFED78B989498040E7A
:10286000006E002EFED78B969496BEC7C4F700016B
:1028700008DFB9C7C0F7BAC7C1F7BBC7C2F70701BE
:10288000C36BB9C7C4F70001FCDEB8C7C4F7F9DEF3
:10289000BCC7C4F7F6DE94980000948682A6FED7E3
:1028A000040E006E002EFED700D000009488040EA7
:1028B000006E002EFED79488040E006E002EFED708
:1028C0009486040E006E002EFED78B989498040E0A
:1028D000006E002EFED78B969496BEC7C4F7D1DE4D
:1028E00001500701BD9101B0BD81BDA11ED09488EA
:1028F000040E006E002EFED79486040E006E002E8D
:10290000FED782A6FED78B989498040E006E002EF8
:10291000FED78B969496BEC7C4F70001B2DE015075
:102920000701BD9101B0BD81E0D700011200928680
:1029300080B624D00301E22D07D004010385010EE7
:102940000301FC6FFE6BFD6BE26BEA6AFC0EE96E45
:10295000F2CF18F5F29E000E00011CEC0DF00A00FB
:102960000900F550EE6E0009FBE1050118BFF28E7B
:102970000301F9A901D0F9991BD000010301E25329
:1029800001E1E089010EE26FEA6AFC0EE96EF2CF26
:1029900018F5F29E000E00012CEC0DF00A00090063
:1029A000F550EE6E0009FBE1050118BFF28E030140
:1029B00000011200938281A205D0300E0301E16F65
:1029C00004D00001310E0301E16F00011200030188
:1029D000E35319E1E25317E1929A898AEA6AF50E04
:1029E000E96EF2CF18F5F29E000E0001A3EC0BF099
:1029F0000A000900F550EE6E0009FBE1050118BF61
:102A0000F28E1CD00301E33D17D0929A899AEA6AAC
:102A1000F50EE96EF2CF18F5F29E000E0001C8EC3B
:102A20000BF00A000900F550EE6E0009FBE105010C
:102A300018BFF28E03D00301E36905010001120003
:102A40000900F5520DE0F6CFB1F7F7CFB2F7F55028
:102A50009EA8FED7AD6EB1C7F6FFB2C7F7FFF0D79D
:102A600012000701BA51BC19800BBE6FBAAF05D076
:102A7000B91FBA1FB92BD8B4BA2BBCAF05D0BB1F36
:102A8000BC1FBB2BD8B4BC2BB951BB03F3CF01F097
:102A9000F4CF00F0BC03F3500026BA51BB03F3504F
:102AA0000020026EBEAF05D0011E021E012AD8B45E
:102AB000022A0001CFEF15F00701B76BB56B0A0EC4
:102AC000B66FB46BB36BB151B21104E1000E016E7D
:102AD000026EEAD0B751B72B036AB125E96EB25145
:102AE0000320EA6EEFCFB8F7B8512D080DE1010EC3
:102AF000B56FB751B72B036AB125E96EB251032008
:102B0000EA6EEFCFB8F70DD0B8512B080AE1B751F4
:102B1000B72B036AB125E96EB2510320EA6EEFCFFD
:102B2000B8F7B8512F08D8B0B1D0B8513908D8A0EB
:102B3000ADD0B851300821E1036AB751B125E96E33
:102B4000B2510320EA6EEF5078080AE0036AB751E9
:102B5000B125E96EB2510320EA6EEF5058080DE13D
:102B6000100EB66FB72BB751B72B036AB125E96EBC
:102B7000B2510320EA6EEFCFB8F7B6510A0823E14D
:102B8000B8512F081FE2B85139081CE3BA6B0A0E7E
:102B9000B96FB4C7BCF7B3C7BBF7000162D7300E3B
:102BA0000701B85D0124B36F000E0220B46FB75166
:102BB000B72B036AB125E96EB2510320EA6EEFCF5D
:102BC000B8F7DED763D0B651100860E1B85160089D
:102BD00006E2B8517A0803E3B851DF0B01D0B851CF
:102BE000B86FB8512F0803E2B851390806E2B8515E
:102BF00040084CE2B851460849E3B8512F081AE2A0
:102C0000B851390817E3B335B96FB435BA6FB9376E
:102C1000BA37B937BA37B937BA37F00EB917300EF5
:102C2000B85DB925016E000EBA21036E01C0B3F77D
:102C3000B46F16D0B335B96FB435BA6FB937BA3788
:102C4000B937BA37B937BA37F00EB917410EB85D90
:102C50000A0FB925016E000EBA2101C0B3F7B46F97
:102C6000B751B72B036AB125E96EB2510320EA6E62
:102C7000EFCFB8F7B851600806E2B8517A0803E31D
:102C8000B851DF0B01D0B851B86FABD7B6510A08B5
:102C900007E1B52D05D0B31FB41FB32BD8B4B42BA7
:102CA000B3C701F0B4C702F0000112000701B1512F
:102CB000B303F3CF01F0F4CF00F0B403F3500026D8
:102CC000B251B303F3500020026E0001120005015F
:102CD00033912EC535F52DC534F52F512D25016EB7
:102CE000000E2E21036E3551035C4BE303E10150CE
:102CF000345D47E20701B46BB36B35C5B2F734C539
:102D0000B1F700012FDD01C032F5010E08012C6F73
:102D100000019BDC050132510D081BE12D51345D92
:102D2000366F2E513559376F30513625E96E315196
:102D30003721EA6EEF6A010E08012C6F000185DC75
:102D400005013381010E08012C6F00017EDC0501B5
:102D500018D02D51345D366F2E513559376F3051A3
:102D60003625E96E31513721EA6E32C5EFFF010E8B
:102D700008012C6F000169DC0501342BD8B4352B18
:102D8000ACD7000E33B1010E016E000112008E0EA1
:102D9000006E67C501F066C502F0036A01AE05D09A
:102DA000011E021E022A01E1012A015209E102C0AC
:102DB00001F0026A080E005E015202E1006A0ED0C4
:102DC000D89001BE04D0023601360006F9D70501BD
:102DD00067AF02D0000102D0019E0001120077C54A
:102DE0007EF505017B517E1B7EAF05D0D894D8902F
:102DF00077BFD8802FD077C57EF57AC57FF576511D
:102E00007F5F06E07EAF26D0D850010AD86E22D070
:102E10007BC57FF577517F5F06E07EAF1BD0D85032
:102E2000010AD86E17D07CC57FF578517F5F06E028
:102E30007EAF10D0D850010AD86E0CD07DC57FF57A
:102E400079517F5F06E07EAF05D0D850010AD86E79
:102E500001D0D890000112000701C051D8B471D040
:102E6000006EC451D8B46DD0002604E3810E002654
:102E700068E204D07F0E005E64E363E0C1C7C8F778
:102E8000C551C81BC18FC58FC351C703F4CFCAF743
:102E9000C251C603F4CF03F0F3CFC9F7C703F35011
:102EA000CA27F450C923000E0322C351C603F350AE
:102EB000CA27F450C923000E026A03220222C1511C
:102EC000C703F350C927F4500322000E0222C15158
:102ED000C603F3500326F4500222000E016A0122B9
:102EE000C351C503F350C927F4500322000E022238
:102EF0000122C251C503F3500326F4500222000EF2
:102F00000122C151C503F3500226F4500122002AC8
:102F100001BE05D0C9370336023601360006000E61
:102F2000C9AF0AD0032A02220122015005E1025052
:102F300003E1035001E1002AC8BF018EC8AF019E22
:102F400004D0006A016A026A036A000112000701E4
:102F5000B46BB36BB26BF90EB16F000103DC0150BF
:102F6000A5080AE1010E08012C6F000125EC13F001
:102F70000101D68709D00001010E08012C6F000164
:102F800025EC13F00101D6970701B46BB36BB26B5C
:102F9000FE0EB16F0001B2EC13F00150690809E1B7
:102FA000010E08012C6F000125EC13F00101D68BF6
:102FB00000010701B46BB36BB26BB16B0001B2ECF3
:102FC00013F00150220852E1010E08012C6F00019C
:102FD00025EC13F0220ED46F010E0501216F215153
:102FE000100843E30701B46BB36BB26B21C5B1F7B3
:102FF0000001B2EC13F001C020F5010E08012C6FA6
:10300000000125EC13F005012051220823E1036A99
:103010002151D40FE96E000E0320EA6E20C5EFFFA8
:10302000010E2125036AD40FE96E000E0320EA6E1B
:10303000EF6A010E08012C6F000125EC13F003016B
:10304000E085010E08012C6F000125EC13F005014D
:103050000CD009D0036A2151D40FE96E000E032071
:10306000EA6E20C5EFFF212BBAD700010701B46B30
:10307000B36BB26BAA0EB16F0001B2EC13F001504A
:10308000220856E1220EC36F0501246B010E236F47
:1030900024534DE1235110084AE3AA0E23252D6F36
:1030A000000E24212E6F0701B46BB36BB26F2DC5D8
:1030B000B1F70001B2EC13F001C022F5040000D01A
:1030C000000005012251220826E1C30E2325E96EE6
:1030D000000E2421EA6E22C5EFFF010E23252D6F7D
:1030E000000E24212E6FC30E2D25E96E000E2E2119
:1030F000EA6EEF6A010E08012C6F000125EC13F057
:103100000301E087010E08012C6F000125EC13F08C
:1031100005010DD008D0C30E2325E96E000E242131
:10312000EA6E22C5EFFF232BD8B4242BB1D70001C0
:103130000701B46BB36BB26B150EB16F0001B2EC4B
:1031400013F001500D085DE10501266B120E256F8D
:10315000265347E12551150844E30701B46BB36BCF
:1031600026C5B2F725C5B1F70001B2EC13F001C0D6
:1031700018F5010E08012C6F000125EC13F0050174
:1031800018510D0815E1120E255D2D6F000E265900
:103190002E6FE50E2D25E96E000E2E21EA6EEF6AE8
:1031A000010E08012C6F000125EC13F0050119D068
:1031B000120E255D2D6F000E26592E6FE50E2D2562
:1031C000E96E000E2E21EA6E18C5EFFF010E080110
:1031D0002C6F000125EC13F00501252BD8B4262B0C
:1031E000B7D70701B26BE50EB16F000165DC02C015
:1031F0001FF101C01EF1010E08012C6F000125EC2A
:1032000013F00701B46BB36BB26B1D0EB16F00010D
:10321000B2EC13F001500D085EE10501286B1A0EA7
:10322000276F285347E127511D0844E30701B46B7A
:10323000B36B28C5B2F727C5B1F70001B2EC13F0A4
:1032400001C018F5010E08012C6F000125EC13F0E8
:10325000050118510D0815E11A0E275D2D6F000E9E
:1032600028592E6FED0E2D25E96E000E2E21EA6EE7
:10327000EF6A010E08012C6F000125EC13F0050127
:1032800019D01A0E275D2D6F000E28592E6FED0EE6
:103290002D25E96E000E2E21EA6E18C5EFFF010EF6
:1032A00008012C6F000125EC13F00501272BD8B481
:1032B000282BB7D70701B26BED0EB16F00015CECA4
:1032C00015F002C023F101C022F1010E08012C6F9C
:1032D000000125EC13F00701B46BB36BB26B190E50
:1032E000B16F0001B2EC13F001500D08D8A47AD0F0
:1032F00005012A6B160E296F2A5347E12951190837
:1033000044E30701B46BB36B2AC5B2F729C5B1F723
:103310000001B2EC13F001C018F5010E08012C6F8A
:10332000000125EC13F0050118510D0815E1160EEA
:10333000295D2D6F000E2A592E6FE90E2D25E96E9D
:10334000000E2E21EA6EEF6A010E08012C6F0001BB
:1033500025EC13F0050119D0160E295D2D6F000E16
:103360002A592E6FE90E2D25E96E000E2E21EA6EE8
:1033700018C5EFFF010E08012C6F000125EC13F0BA
:103380000501292BD8B42A2BB7D70701B26BE90E58
:10339000B16F00015CEC15F002C025F101C024F111
:1033A0000101255303E12451090805E2255303E1F6
:1033B00024511E0803E2256B0F0E246F25C1B2F7BE
:1033C00024C1B1F70701B46B3C0EB36F00016EDC92
:1033D00002C027F101C026F1010E08012C6F000187
:1033E00025EC13F00701B46BB36BB26BA70EB16F92
:1033F0000001B2EC13F001500D085FE105012C6BE8
:10340000A40E2B6F2C5347E12B51A70844E307016F
:10341000B46BB36B2CC5B2F72BC5B1F70001B2EC9E
:1034200013F001C018F5010E08012C6F000125EC06
:1034300013F0050118510D0815E1A40E2B5D2D6F39
:10344000000E2C592E6FF10E2D25E96E000E2E2147
:10345000EA6EEF6A010E08012C6F000125EC13F0F3
:10346000050119D0A40E2B5D2D6F000E2C592E6F67
:10347000F10E2D25E96E000E2E21EA6E18C5EFFF24
:10348000010E08012C6F000125EC13F005012B2B18
:10349000D8B42C2BB7D70701B26BF10EB16F000176
:1034A0005CEC15F002C009F401C008F4010E08013B
:1034B0002C6F000125EC13F005D00401096B3C0EC4
:1034C000086F00010701B46BB36BB26BF10EB16F03
:1034D0000001B2EC13F001502A080FE105012E6B38
:1034E000300E2D6F1F0E2F6F316B820E306F00016B
:1034F00067EC16F00101D68F00010701B46BB36BC6
:10350000B26BF20EB16F0001B2EC13F001502A0859
:103510000FE105012E6BD10E2D6F1F0E2F6F316B3A
:10352000A00E306F000167EC16F00301E08100018E
:103530000701B46BB36BB26BFB0EB16F0001B2EC61
:1035400013F001502A080FE105012E6B200E2D6F9C
:103550000B0E2F6F316B550E306F000167EC16F0BC
:103560000301E08300010701B46BB36BB26BFC0E87
:10357000B16F0001B2EC13F001502A080FE1050110
:103580002E6B500E2D6F1F0E2F6F316B640E306F30
:10359000000167EC16F00101D68D00010701B46B44
:1035A000B36BB26BF40EB16F0001B2EC13F001C05B
:1035B000E3F3050E08012C6F000125EC13F0070161
:1035C000B46BB36BB26BA00EB16F0001B2EC13F031
:1035D00001C0BEF0050E08012C6F000125EC13F0B0
:1035E0000701B46BB36BB26BA10EB16F0001B2EC0B
:1035F00013F001C0BFF0050E08012C6F000125EC8F
:1036000013F00701B46BB36BB26BA20EB16F000184
:10361000B2EC13F001C0C0F0050E08012C6F0001E0
:1036200025EC13F00701B46BB36BB26BA30EB16F53
:103630000001B2EC13F001C0C1F0050E08012C6FBF
:10364000000125EC13F00701B46BB36B010EB26FF0
:10365000B16B0001B2EC13F0012C93D00701B46BF5
:10366000B36BB26BF50EB16F0001B2EC13F0030156
:10367000E76BE66BE56B01C0E4F3E6C3E7F3E5C394
:10368000E6F3E4C3E5F3E46B010E08012C6F0001DF
:1036900025EC13F00701B46BB36BB26BF60EB16F90
:1036A0000001B2EC13F001500301E413010E080114
:1036B0002C6F000125EC13F00701B46BB36B010E06
:1036C000B26FB16F0001B2EC13F00301EB6BEA6B68
:1036D000E96B01C0E8F3EAC3EBF3E9C3EAF3E8C33B
:1036E000E9F3E86B010E08012C6F000125EC13F0E3
:1036F0000701B46BB36B010EB26F020EB16F000124
:10370000B2EC13F001500301E813010E08012C6F15
:10371000000125EC13F00301EB5320E1EA531EE115
:10372000E95101081BE303E1E851350817E3EB6BAE
:10373000EA6B010EE96F360EE86F0701BB6BBA6BDF
:10374000010EB96FB86BBC6B000118EC14F0010EE0
:1037500008012C6F000125EC13F00301E7530FE182
:10376000E6530DE1E55101080AE303E1E4513508B0
:1037700006E3E76BE66B010EE56F360EE46F0ED0E5
:1037800000010301EB6BEA6B010EE96F360EE86F87
:10379000E76BE66B010EE56F360EE46F0701B46B65
:1037A000B36B010EB26F360EB16F0001B2EC13F0C5
:1037B00001507B080EE10301E76BE66B010EE56F3C
:1037C000360EE46FEB6BEA6B010EE96F360EE86FB5
:1037D000000105012E6BC00E2D6F070E2F6F050E19
:1037E000316F190E306F000167EC16F0015217E0CF
:1037F000050E0701B26F190EB16F00015CEC15F0F8
:1038000002C067F501C066F5C7EC16F003C0EFF320
:1038100002C0EEF301C0EDF300C0ECF307D00301EA
:10382000EF6BEE6BED6B800EEC6F000105012E6B04
:10383000C70E2D6F070E2F6F050E316F190E306FEB
:10384000000167EC16F0015242E0050E0701B26F6D
:10385000190EB16F00015CEC15F002C067F501C0F4
:1038600066F5C7EC16F003C0F3F302C0F2F301C033
:10387000F1F300C0F0F30501796B786B776B766B31
:10388000F3C37DF5F2C37CF5F1C37BF5F0C37AF5A4
:103890000001EFEC16F01AE3F3C3C3F7F2C3C2F76B
:1038A000F1C3C1F7F0C3C0F70701C76BC66B800E49
:1038B000C56F7F0EC46F00012CEC17F003C0F3F34B
:1038C00002C0F2F301C0F1F300C0F0F306D003012F
:1038D000F36BF26B800EF16FF06F0001A6EF6CF0EE
:1038E0000900F5520DE0F6CFBCF7F7CFBDF7F55064
:1038F000A4A8FED7736EBCC7F6FFBDC7F7FFF0D70D
:1039000012009290899092928992960E08012C6FE3
:10391000000125EC13F0929089800E0E05012C6FAA
:10392000FA0E08012C6F000125EC13F005012C2F75
:10393000F7D7929089900301F985F497140E050149
:103940002C6FFA0E08012C6F000125EC13F0050115
:103950002C2FF7D79290899092928992960E080117
:103960002C6F000125EC13F0929089800A0E05015E
:103970002C6FDC0E08012C6F000125EC13F0050103
:103980002C2FF7D7929089900301F995000112002E
:10399000A4AAFED771CF16F074CF01F016A202D000
:1039A0007198718812002DC803F008012CC8E9FF36
:1039B0002DC8EAFFEF5239E02DC831F82CC830F895
:1039C0002FC833F82EC832F833C803F032C8E9FFE5
:1039D00033C8EAFFEF5216E030C8E9FF31C8EAFF0A
:1039E000EFCF34F833C803F032C8E9FF33C8EAFF39
:1039F000EF50345D07E1302BD8B4312B322BD8B4E3
:103A0000332BE2D733C803F032C8E9FF03C0EAFF23
:103A1000EF5205E12CC801F02DC802F009D02C2B83
:103A2000D8B42D2B0001BFD70801000E016E026E25
:103A300000011200040E08012D5F0AE3080EEA6E71
:103A40002D0EE96EEF5004E001D00400EF2EFDD7FB
:103A5000000112000701C36BC26B08012A912B6B96
:103A60000701C351C15D6DE303E1C051C25D69E26D
:103A7000A4AA50D008012B512B2B036AC60FE96E64
:103A8000070E0320EA6EEACF2FF8E9CF2EF80001E7
:103A90007FDF2FC8EAFF2EC8E9FF01C0EFFF040057
:103AA000010E006E002EFED700D00000036A080150
:103AB0002B51C60FE96E070E0320EA6EEF6A040071
:103AC000010E006E002EFED700D00000070E2D6FF5
:103AD000C60E2C6FBFC72FF8BEC72EF8000163DFDC
:103AE00002C0C5F701C0C4F70701C451C51112E0F7
:103AF0000400010E006E002EFED700D00000080169
:103B00002A810400010E006E002EFED700D00000B6
:103B1000070117D00400020E08012C6FF80E2D6F5C
:103B2000000188DF08012C2FF9D70701C22BD8B478
:103B3000C32B0400010E006E002EFED700D0000043
:103B400090D7050E08012C6F000125EC13F0000E34
:103B500008012AB1010E016E00011200270E0501B5
:103B60002D6F100E2C6F2E6B3091880EF66E200E7E
:103B7000F76E0001B5DE05012DC503F02C51D8B458
:103B80002D072C07031041E0A4AA3ED0000100DF5E
:103B900001C02FF5040000D00000050130B112D0A3
:103BA0002F512B080FE12E512E2B036A310FE96E96
:103BB000050E0320EA6E2FC5EFFF040000D00000C1
:103BC00030810CD030A10AD02E512E2B036A310F38
:103BD000E96E050E0320EA6E2FC5EFFF040000D04A
:103BE00000002E510A080AE139512C0807E10400AF
:103BF00000D000003AC501F00AD006D02E510A08C4
:103C000003E1300E016E03D0B7D7300E016E000114
:103C10001200A4A8FED7736E12006FC571F56EC5B1
:103C200070F505017151010824E303E17051350875
:103C300020E30701B46BB36B71C5B2F770C5B1F780
:103C40000001B2EC13F001C072F5040000D00000D6
:103C5000050172510D0802E10CD007D0725100012C
:103C6000D8DF040000D000000501702BD8B4712B00
:103C7000D9D7000112000501196B1B6B1A6B1A5181
:103C80000F0873E11B5371E17086220E756E000EF2
:103C9000766EA60E726E900E716E020E2C6FFA0E7C
:103CA00008012C6F000125EC13F005012C2FF7D72C
:103CB0003A0EF66E230EF76E000112DE080E0501B5
:103CC0002C6FFA0E08012C6F000125EC13F0050192
:103CD0002C2FF7D7400EF66E230EF76E000100DE94
:103CE000080E05012C6FFA0E08012C6F000125EC5F
:103CF00013F005012C2FF7D7480EF66E230EF76E42
:103D00000001EEDD080E05012C6FFA0E08012C6F84
:103D1000000125EC13F005012C2FF7D7560EF66E97
:103D2000230EF76E0001DCDD080E05012C6FFA0E84
:103D300008012C6F000125EC13F005012C2FF7D79B
:103D40007086A00E756E010E766EA60E726E900EC7
:103D5000716E080E2C6FFA0E08012C6F000125EC15
:103D600013F005012C2FF7D72BD01B5303E11A5169
:103D7000640826E21B6B1A6B0001C3DD080E050107
:103D80002C6FFA0E08012C6F000125EC13F00501D1
:103D90002C2FF7D7080E2C6FFA0E08012C6F00019C
:103DA00025EC13F005012C2FF7D7080E2C6FFA0E17
:103DB00008012C6F000125EC13F005012C2FF7D71B
:103DC0005E0EF66E230EF76E00018ADD0D0E050104
:103DD0001C6F0A0E1D6F4F0E1E6F4B0E1F6F206B58
:103DE000050E0701BF6F1C0EBE6F070EC16FD00E10
:103DF000C06F00012FDE0150050119270A0E0801CE
:103E00002C6F000125EC13F005011A2BD8B41B2BE5
:103E10001953D8B434D71B6B1A6B0A0E08012C6FD8
:103E2000000125EC13F09ADE01C0F5F30A0E08013B
:103E30002C6F000125EC13F00301F551310803E06C
:103E4000F551350802E1F98704D0F997000E016EAB
:103E500058D20701B46BB36BB26BB1690001B2EC1D
:103E600013F001506908D8B491D1050E08012C6FE8
:103E7000000125EC13F0300EBE6FBF6FC06FC16F35
:103E80000701BB6BBA6BB96BA00EB86F300EBC6F7D
:103E9000000118EC14F0050E08012C6F000125EC50
:103EA00013F00701BB6BBA6BB96BA10EB86F300E84
:103EB000BC6F000118EC14F0050E08012C6F000116
:103EC00025EC13F00701BB6BBA6BB96BA20EB86F90
:103ED000300EBC6F000118EC14F0050E08012C6FB9
:103EE000000125EC13F00701BB6BBA6BB96BA30E95
:103EF000B86F300EBC6F000118EC14F0050E08010D
:103F00002C6F000125EC13F00501196B640EF66EA1
:103F1000230EF76E0001E4DC0D0E0501216F0A0E81
:103F2000226F4F0E236F4B0E246F256B050E07017A
:103F3000BF6F210EBE6F130EC16F880EC06F0001E0
:103F400089DD015005011927C80E08012C6F0001F9
:103F500025EC13F06A0EF66E230EF76EC1DC0D0E23
:103F60000501216F0A0E226F4F0E236F4B0E246F37
:103F7000256B050E0701BF6F210EBE6F130EC16FBB
:103F8000880EC06F000166DD015005011927C80EBB
:103F900008012C6F000125EC13F0740EF66E230E51
:103FA000F76E9EDC0D0E0501216F0A0E226F4F0E7B
:103FB000236F4B0E246F256B050E0701BF6F210E7B
:103FC000BE6F130EC16F880EC06F000143DD01503C
:103FD00005011927C80E08012C6F000125EC13F00C
:103FE000820EF66E230EF76E7BDC0D0E0501216F3F
:103FF0000A0E226F4F0E236F4B0E246F256B050E9A
:104000000701BF6F210EBE6F130EC16F880EC06F08
:10401000000120DD015005011927C80E08012C6F91
:10402000000125EC13F08E0EF66E230EF76E58DCB1
:104030000D0E0501216F0A0E226F4F0E236F4B0EDE
:10404000246F256B050E0701BF6F210EBE6F130E87
:10405000C16F880EC06F0001FDDC015005011927FA
:10406000C80E08012C6F000125EC13F09A0EF66EB5
:10407000230EF76E35DC0D0E0501216F0A0E226F3F
:104080004F0E236F4B0E246F256B050E0701BF6F7C
:10409000210EBE6F130EC16F880EC06F0001DADCF7
:1040A000015005011927C80E08012C6F000125ECED
:1040B00013F0A20EF66E230EF76E12DC0D0E050144
:1040C000216F0A0E226F4F0E236F4B0E246F256B4C
:1040D000050E0701BF6F210EBE6F130EC16F880E54
:1040E000C06F0001B7DC015005011927C80E080197
:1040F0002C6F000125EC13F00501195107082FE082
:104100001A2BD8B41B2B1B5303E11A51320827E298
:104110001B6B1A6B000181EC1CF0080E05012C6F63
:10412000FA0E08012C6F000125EC13F005012C2F6D
:10413000F7D7080E2C6FFA0E08012C6F000125EC42
:1041400013F005012C2FF7D7080E2C6FFA0E08017B
:104150002C6F000125EC13F005012C2FF7D7195116
:104160000708D8A4D2D6010E0301FA6F0701BB6B72
:10417000BA6BB96BB869690EBC6F000118EC14F02A
:10418000050E08012C6F000125EC13F0B00EF66E41
:10419000230EF76E70EC1CF0520E0501266F450ED3
:1041A000276F410E286F440E296F590E2A6F2B6B13
:1041B000050E0701BF6F260EBE6F130EC16F880E6E
:1041C000C06F000147DC01C019F5C80E08012C6F53
:1041D000000125EC13F00701B46BB36BB26BFC0E5E
:1041E000B16F0001B2EC13F001502A0877E105012C
:1041F000192D01D002D0000171D0050E08012C6FDD
:10420000000125EC13F00301F481050E08012C6F69
:10421000000125EC13F00101D68D050E08012C6F6D
:10422000000125EC13F0BC0EF66E230EF76E70EC59
:104230001CF005016F6B500E6E6F0001EEDCCC0EB2
:10424000F66E230EF76E70EC1CF00D0E0501266F56
:104250000A0E276F4F0E286F4B0E296F2A6B050E23
:104260000701BF6F260EBE6F130EC16F880EC06FA1
:1042700000012AEC1DF0015005011927C80E0801A4
:104280002C6F000125EC13F005011951020827E1FC
:10429000D80EF66E230EF76E000170EC1CF00D0EBA
:1042A0000501266F0A0E276F4F0E286F4B0E296FE0
:1042B0002A6B050E0701BF6F260EBE6F130EC16F6E
:1042C000880EC06F00012AEC1DF00150050119276E
:1042D000C80E08012C6F000125EC13F005011951DF
:1042E000030806E10301F485020EFA6F03D005010D
:1042F0000301F495050E08012C6F000125EC13F065
:104300000301000112000701B75302E1B85342E074
:10431000B3C7E9FFB4C7EAFFEFCFB9F7B6C703F0F9
:10432000B5C7E9FFB6C7EAFFEF50B95D17E0B4C7FC
:1043300003F0B3C7E9FF03C0EAFFEFCFB9F7B6C791
:1043400003F0B5C7E9FFB6C7EAFFEF50B95D02E277
:10435000FF0E01D0010E016E1FD00BD0B4C703F0C9
:10436000B3C7E9FFB4C7EAFFEF5203E1000E016EE5
:1043700013D0B4C703F0B351B32BD8B4B42BB6C722
:1043800003F0B551B52BD8B4B62BB751D8B4B80794
:10439000B707BAD7000E016E00011200040000D06A
:1043A00000000701D16BD1511D081CE3036AD151F4
:1043B000B125E96EB2510320EA6EEF503A0810E1E0
:1043C000D12B036AD151B125E96EB2510320EA6EB7
:1043D000EF50200801E1D12B040000D0000002D0F2
:1043E000D12BE1D7D1C7D2F7036AD251B125E96EFB
:1043F000B2510320EA6EEF521DE0D151D25D036A43
:10440000B30F016E070E032203C0D4F7036AD25123
:10441000B125E96EB2510320EA6EEFCFD5F7D4C7CC
:10442000EAFF01C0E9FFD5C7EFFF040000D000009C
:10443000D22BDAD7D151D25D036AB30FE96E070EE2
:104440000320EA6EEF6A040000D00000B2C7EAFF62
:10445000B1C7E9FF070EE26EB30EE16EE752E6CF99
:10446000EEFFFCE1040000D0000000011200050195
:104470007D6B7C6B7F6B806BE60EF66E230EF76EAA
:10448000000170EC1CF005017D511308D8A07FD00D
:1044900004E17C518708D8A07AD07C2BD8B47D2B3E
:1044A000A4AA68D00001C8EC1CF001C07EF504008D
:1044B000010E006E002EFED700D0000005017E51D7
:1044C0002B080BE17F6B010E806F0400010E006E64
:1044D000002EFED700D0000007D07E510D0804E169
:1044E0008051020801E153D0805344E07F517F2B7B
:1044F000036A180FE96E050E0320EA6E7EC5EFFF12
:104500000400010E006E002EFED700D00000036AEA
:104510007F51180FE96E050E0320EA6EEF6A040062
:10452000010E006E002EFED700D000007F5105085E
:1045300021E12B0E816F430E826F470E836F530E66
:10454000846F4E0E856F866B050E0701B46F180ED3
:10455000B36F050EB66F810EB56FB86B050EB76FF2
:104560000001D1DE0152D8B402D0050103D0020E01
:104570000501806F04000D0E876F2D0E08012D6F51
:1045800000011AEC1DF00501872FF7D77DD7050E26
:104590000701B26F180EB16F000100DF010E0801B4
:1045A0002C6F000125EC13F0010EEA6E080EE96E87
:1045B000050EE26E180EE16EE752E6CFEEFFFCE16B
:1045C000010E08012C6F000125EC13F0050E080107
:1045D0002C6F000125EC13F0C4EF6CF00601576B53
:1045E0000701856B846B060156C603F05551D8B49C
:1045F00056075507031045E0A4AA3AD00001C8ECBD
:104600001CF001C086F7070185C703F08451842B95
:10461000D8B4852B876F580E8725E96E060E0320C8
:10462000EA6E86C7EFFF040000D00000580E842514
:10463000E96E060E8521EA6EEF6A040000D00000E4
:10464000060157530AE1070186514F08D8B402D03A
:10465000060103D00601572B0BD0572D09D00701B7
:1046600086514B08D8B402D0060102D0060109D009
:10467000010E08012C6F000125EC13F00701B3D7E0
:104680000601580E016E060E026E0001120010C4E3
:10469000EAFF0FC4E9FF0701BEC7EFFFE92AD8B45C
:1046A000EA2AEF6A04010F2BD8B4102B0001120084
:1046B000EF520FE0EACFB2F7E9CFB1F7EFCFBEF795
:1046C000E6DFB2C7EAFFB1C7E9FFE92AD8B4EA2AB0
:1046D000EFD7120056C658F655C657F658C603F01F
:1046E000060157C6E9FF58C6EAFFEF5206E0572B0E
:1046F000D8B4582B0001F2D706015551575D006E12
:1047000056515859036E00C001F000011200090013
:10471000F6CFB2F7F7CFB3F7F550A4A8FED7736E74
:10472000B2C7F6FFB3C7F7FF0701B12F01D002D020
:104730000001EDD7000112000701B3C7E9FFB4C7BC
:10474000EAFFEFCFB7F7B6C703F0B5C7E9FFB6C7C3
:10475000EAFFEF50B75D15E1B4C703F0B3C7E9FF57
:1047600003C0EAFFEF5203E1000E016E1FD0B4C791
:1047700003F0B351B32BD8B4B42BB52BD8B4B62BAC
:10478000DCD7B4C703F0B3C7E9FFB4C7EAFFEFCF84
:10479000B7F7B6C703F0B5C7E9FFB6C7EAFFEF50F2
:1047A000B75D02E2FF0E01D0010E016E00011200A2
:1047B000BCC7C0F7BBC7BFF7C0C703F00701BFC77F
:1047C000E9FFC0C7EAFFEF5230E0BEC7C2F7BDC77E
:1047D000C1F7C2C703F0C1C7E9FFC2C7EAFFEF5282
:1047E0000AE1BB51BF5D006EBC51C059036E00C0F1
:1047F00001F023D010D0BFC7E9FFC0C7EAFFEFCF59
:10480000C3F7C2C703F0C1C7E9FFC2C7EAFFEF5051
:10481000C35D01E104D0C12BD8B4C22BDAD7BF2BC2
:10482000D8B4C02B0001C8D70701BB51BF5D006ED3
:10483000BC51C059036E00C001F0000175EF24F0B7
:10484000BCC7C0F7BBC7BFF7C0C703F00701BFC7EE
:10485000E9FFC0C7EAFFEF522AE0BEC7C2F7BDC7F3
:10486000C1F7C2C703F0C1C7E9FFC2C7EAFFEF52F1
:1048700018E0BFC7E9FFC0C7EAFFEFCFC3F7C2C761
:1048800003F0C1C7E9FFC2C7EAFFEF50C35D05E10E
:10489000BFC701F0C0C702F00DD0C12BD8B4C22BE6
:1048A000E0D7BF2BD8B4C02B0001CED70701000E34
:1048B000016E026E000196EF24F00701B351B411AE
:1048C00004E0B4C703F0B35103D018C003F017508D
:1048D000B76F03C0B8F7B8C7BCF7B7C7BBF7B6C761
:1048E000BEF7B5C7BDF7000163D701500701B72771
:1048F000000EB823B8C703F0B7C7E9FFB8C7EAFF8F
:10490000EF520AE117C0E9FF18C0EAFF200EEF6E70
:10491000000E016E026E27D0B8C7BCF7B7C7BBF751
:10492000B6C7BEF7B5C7BDF700018AD702C0BAF750
:1049300001C0B9F7BAC703F00701B9C7E9FFBAC7A1
:10494000EAFFEF5208E0B9C7E9FFBAC7EAFFEF6A2A
:10495000B92BD8B4BA2BBAC718F0B9C717F0B7C774
:1049600001F0B8C702F000011200B2C7B6F7B1C734
:10497000B5F7B4C703F00701B3C7E9FFB4C7EAFF4F
:10498000EF522CE0B651000806E2FF0A03E1B551F0
:10499000350801E223D0B4C703F0B351B32BD8B428
:1049A000B42BE96E03C0EAFFEFCFB7F7BB6BBA6B6E
:1049B000B6C7B9F7B5C7B8F7B7C7BCF7000118EC69
:1049C00014F0050E08012C6F000125EC13F007010F
:1049D000B52BD8B4B62B0001CCD70701B4C703F070
:1049E000B3C7E9FFB4C7EAFFEF5212E1BB6BBA6B82
:1049F000B6C7B9F7B5C7B8F70D0EBC6F000118EC14
:104A000014F0050E08012C6F000125EC13F00701CE
:104A100000011200EF5210E0EACFBDF7E9CFBCF77A
:104A2000EF50A4A8FED7736EBDC7EAFFBCC7E9FF6D
:104A3000E92AD8B4EA2AEED712001A0E0701B86F95
:104A4000660EF66E210EF76E000170EC1CF04F0E34
:104A50000701B96F4B0EBA6FBB6B070EBF6FB90E74
:104A6000BE6F270EC16F100EC06F00012AEC1DF043
:104A70000701B79101B0B781020EBC6FFA0E0801B1
:104A80002C6F000125EC13F00701BC2FF7D7720E35
:104A9000F66E210EF76E000170EC1CF04F0E070150
:104AA000B96F4B0EBA6FBB6B070EBF6FB90EBE6FFF
:104AB000270EC16F100EC06F00012AEC1DF0070118
:104AC000B79101B0B781020EBC6FFA0E08012C6FCE
:104AD000000125EC13F00701BC2FF7D7820EF66E0C
:104AE000210EF76E000170EC1CF0B4C7EAFFB3C7EB
:104AF000E9FF90DF0D0EA4A8FED7736E0A0EA4A8DE
:104B0000FED7736E3E0E0701B96FBA6B070EBF6F0B
:104B1000B90EBE6F270EC16F100EC06F00012AECD8
:104B20001DF00701B79101B0B781320E08012C6F5B
:104B3000000125EC13F0B6C7EAFFB5C7E9FF6ADF4D
:104B40000701B851A4A8FED7736E4F0EB96F4B0E74
:104B5000BA6FBB6B070EBF6FB90EBE6F270EC16F6A
:104B6000100EC06F00012AEC1DF00701B79101B0D3
:104B7000B781320E08012C6F000125EC13F01200F2
:104B80000701B1531AE09290899092928992960E01
:104B900008012C6F000125EC13F0929089800E0E15
:104BA0000701B26FFA0E08012C6F000125EC13F01B
:104BB0000701B22FF7D7929089900301F985F497F6
:104BC000FA6B000112000900F6CFB2F7F7CFB3F786
:104BD000F5CFBEF75CDDB2C7F6FFB3C7F7FF07013D
:104BE000B12F01D002D00001EED700011200070161
:104BF000B851016AB75D03E2B7C700F00CD0006A94
:104C0000080EB96FB7370036B851005CD8B0006EE7
:104C10000136B92FF7D700011200200E0701B2A903
:104C2000300EB36FB1C700F0B1AF08D0001E002A3C
:104C300000C0B1F72D0EB36FB28FB2810150B1C772
:104C4000B7F7640EB86F0001D2DF00C0B1F7300EC5
:104C500001240701B46FB1C7B7F70A0EB86F00019E
:104C6000C6DF300E00240701B66F300E0124B56F89
:104C7000B3C700F0300EB45D04E0B283B2BFB285BA
:104C800012D0B3C7B4F7200EB36F300EB55D04E099
:104C9000B281B2BFB28307D0D8A4B28104E1B4C755
:104CA000B5F7200EB46FB2B505D0B2B307D0B2B12C
:104CB00009D00CD0B3C7BEF70001E9DCB4C7BEF71A
:104CC0000001E5DCB5C7BEF70001E1DCB6C7BEF701
:104CD0000001DDDC12000701BE51B608BE6F036A99
:104CE000BFC7C2F7BF8FD890BF33C033C1330332C1
:104CF000023201320032BE2FF6D7C2AF0BD0001EF7
:104D0000011E021E031E002AD8B4012AD8B4022AAA
:104D1000D8B4032A00011200D8B204D0070EEA6EFC
:104D2000C60EE96E006A016A026A036A0701C66B71
:104D3000C76BC86BC96BC551C411C311C2112CE03C
:104D4000200ECA6FD890BE37BF37C037C137C637BD
:104D5000C737C837C937C551C95D08E1C451C85DF7
:104D600005E1C351C75D02E1C251C65D0FE3C25107
:104D7000C65FC351D8A0C33DC75FC451D8A0C43DCE
:104D8000C85FC551D8A0C53DC95FD880003601367F
:104D900002360336CA2FD6D7C6C7EFFFC7C7ECFF08
:104DA000C8C7ECFFC9C7ECFF00011200E9500701BA
:104DB000B66FB551B86F1CE0B4C7C3F7B3C7C2F73D
:104DC000B2C7C1F7B1C7C0F7C76BC66B200EC56FBE
:104DD000820EC46F00012CEC17F003C0B4F702C0C0
:104DE000B3F701C0B2F700C0B1F70701B82FE4D79D
:104DF000B4C7C1F7B3C7C0F7B2C7BFF7B1C7BEF7F3
:104E0000000169DF03C0B4F702C0B3F701C0B2F715
:104E100000C0B1F70701B4AF0DD0B607B68BB11F14
:104E2000B21FB31FB41FB12BD8B4B22BD8B4B32B5D
:104E3000D8B4B42B3B0EBD6F9A0EBC6FCA0EBB6FBD
:104E4000BA6B0A0EB86FB551D8B4B62BD882070E1C
:104E5000EA6EB10EE96EB4C7C1F7B3C7C0F7B2C707
:104E6000BFF7B1C7BEF7BDC7C5F7BCC7C4F7BBC75F
:104E7000C3F7BAC7C2F700014FDF0150005213E178
:104E80000701B529B85DD8A402D000010CD0B651F5
:104E90000DE00F0BB85D01E044E2B6BF42D0B6BDF5
:104EA00005D0200E37D0200E0701B617B6AB0FD0B5
:104EB000B69BB551D8A4B6070050B66F2D0EBE6F85
:104EC000000147EC23F00701B651006EB66BB551F7
:104ED000B85D0DE10050B66F2E0EBE6F000147ECBD
:104EE00023F00701B651006E200EB617000E300EEB
:104EF000B6AB10D0B69BB551D8A4B6070050B66F6C
:104F00002D0EBE6F000147EC23F00701B651006E75
:104F1000B66B300E002600C0BEF7000147EC23F050
:104F20000701D892BDC7C1F7BCC7C0F7BBC7BFF761
:104F3000BAC7BEF7C56BC46BC36B0A0EC26F000164
:104F4000EBDE03C0BDF702C0BCF701C0BBF700C079
:104F5000BAF70701B82F7AD700011200EACFB9F7E4
:104F6000E9CFB8F70701B2AF08D0B88FB8A9B82B0E
:104F7000B11FB21FB12BD8B4B22BB239F009B46F44
:104F8000B427E20FB56F320FB76FB2510F0BB527D1
:104F9000B527B727E90FB66FB627B627B1390F0B7C
:104FA000B627B727B637B737B71FB737B1510F0B8B
:104FB000B727B437070EB36F0A0EB607B727FDE35E
:104FC000B507B627FDE3B407B527FDE3B307B4275C
:104FD000FDE3070EEA6EB30EE96E070EB815B89D35
:104FE000ED52B81507E1B8B9EE52B8B903D0200EAA
:104FF000006E21D0E926000EEA22E950B70804E14C
:10500000EA50070801E1B88DEF50006E08E1B8BD25
:1050100006D0B8B91ED0B8B702D0200E0BD0B8AFAA
:1050200006D02D0E006EED50B89DB89F04D0B88705
:10503000B899300E0026EACFB2F7E9CFB1F700C039
:10504000BEF7000147EC23F0B2C7EAFFB1C7E9FFA2
:105050000701EE50B8ADD1D700016BEF39F08E0EDD
:10506000006EC5C701F0C4C702F0036A015209E12E
:1050700002C001F0026A080E005E015202E1006AFD
:1050800008D0D89001BE04D0023601360006F9D708
:10509000019E12000701C451D8B4A5D0D06FC851E9
:1050A000D8B4A1D0D05F05E37F0ED027D8B09BD075
:1050B00006D0810ED05FD8A096D0D8B494D0D0C7F7
:1050C00000F0016A026A036ACF6BC5C7CEF7CE8FC4
:1050D000C6C7CDF7C7C7CCF7190ED06FCB51CC5F81
:1050E0000DE2010ECD5F0AE2CE5F08E2CF5F06E27D
:1050F000CF2BCE2BCD2BCB51CC2728D0CA51CD5F77
:1051000012E2010ECE5F0FE2CF5F0DE2CF2BCE2B6E
:10511000CA51CD27CB51CC2719E3CD2B17E1CE2B8C
:1051200015E1CF2B13D0C9518009CE5F0EE2010EDD
:10513000CF5F0BE2CF2BC9518009CE27CA51CD27B3
:10514000E9E3CE2BE7E1CF2BE5D70380D02F01D0C9
:105150000BD0D890CC37CD37CE37CF37D890033659
:1051600002360136D137BAD7D1A106D0D890013254
:1051700002320332D13302D0000635E0D1BF1ED057
:10518000D890CC37CD37CE37CF37CB51CC5F07E275
:10519000010ECD5F04E2CE5F02E2CF5F1AE3CA5197
:1051A000CD5F05E2010ECE5F02E2CF5F12E3C9518F
:1051B0008009CE5F03E2010ECF5F0BE3032A09E112
:1051C000022A07E1012A05E1002A0DE0013202323C
:1051D0000332C5C7D0F7C951D01BD0AF02D0018E62
:1051E00006D0019E04D0006A016A026A036A0001C7
:1051F0001200800ED8A202D00701C91B0701CE6B96
:10520000CF6BC5C7CDF7C951CD1BC451D8B4DFD0C2
:10521000CC6F006EC851D8B4E3D0CC5FD8B483D083
:105220003EE3C9C7D2F7D28FCAC7D1F7CBC7D0F7F1
:10523000CF6BD890D233D133D033CF33CC2FF8D7F4
:10524000CDAF03D0CE81E0D0CE91CC91CE89070EE8
:10525000EA6EC70EE96EEBD0CE99CDBF0AD0CCA1D5
:1052600013D0D233D133D033CF33002AD8B4C7D000
:105270000BD0D2BF0CD0D890CF37D037D137D23760
:105280000006D8B4BCD0F5D7CE8D6DD0CE9DC5C7A5
:10529000CDF7C5AF02D0D28FABD0D29FA9D0C8C7AF
:1052A000CCF7C8C700F0C451CC5FC5C7D2F7D28FC6
:1052B000C6C7D1F7C7C7D0F7CF6BD890D233D13399
:1052C000D033CF33CC2FF8D7CDAF03D0CE839CD003
:1052D000CE93CC91CE8B070EEA6ECB0EE96EA7D0A3
:1052E000CE9BCDBF0AD0CCA113D0D233D133D03393
:1052F000CF33002AD8B483D00BD0D2BF0CD0D890F3
:10530000CF37D037D137D2370006D8B478D0F5D7D9
:10531000CE8F29D0CE9FC9C7CDF7C9AF02D0D28FCB
:1053200067D0D29F65D0C9C7D2F7D28FCAC7D1F78D
:10533000CBC7D0F7CDAF04D0D29FCE8565D0CE9568
:10534000CF6BCC91070EEA6EC70EE96E70D0CDBF61
:105350001CD0C5C7CDF7CCA106D0D233D133D033C2
:10536000CF33002A4CE0CFAF0BD0D02B09E1D12BAB
:1053700007E1D22B05E1D233D133D033002A3FE00D
:10538000CEBD84D7CEBFC6D71CD0800ED21BD2AF25
:1053900004D03AD0C9C7CDF70AD0C5C7CDF7D2538C
:1053A00006E1D15304E1D05302E1006A21D0D2BF1B
:1053B00008D0D890CF37D037D137D237002EF7D793
:1053C0001ED0CDAF02D0D28F13D0D29F11D0C8C77C
:1053D00000F0C9C7D2F7CAC7D1F7CBC7D0F708D0FA
:1053E000C4C700F0C5C7D2F7C6C7D1F7C7C7D0F743
:1053F000D2C701F0D1C702F0D0C703F034D0006AA1
:10540000016A026A036A2FD0CF6BD01FD11FD21F4F
:10541000CF1FCF2B05E1D02B03E1D12B01E1D22B04
:10542000CEB112D7CEB354D7CEB589D7B3D7EF50BC
:10543000D02705E3D12B03E1D22BD8B4CC81ED5298
:10544000EF50D12703E3D22BD8B4CC81ED52EF50EB
:10545000EFBE01D0800AD227D8B0CC81CEB9FCD61D
:10546000CEBB3ED774D7000112000701B86BB76BF3
:10547000B66B7F0EB56FBC6BBB6BBA6BB96BBD8186
:10548000BD93BD95BF6BB151B21105E1006A016AD0
:10549000026A036A12D1BF51BF2B036AB125E96EBC
:1054A000B2510320EA6EEFCFBEF7BE53D8B4C7D0D7
:1054B000BDA10FD0BE5120080CE0BD91BE512B08FC
:1054C00003E1BD93AFD005D0BE512D0802E1BD83ED
:1054D000A9D0BDB107D0BE512E0804E1BDB502D0A0
:1054E000BD85A0D0BDB19BD0BE512F08D8B097D0FC
:1054F000BE513908D8A093D0300EBE5FBDA554D0A0
:10550000B8C7C3F7B7C7C2F7B6C7C1F7B5C7C0F7C3
:10551000C76BC66B200EC56F820EC46F00012CECEA
:1055200017F003C0B8F702C0B7F701C0B6F700C064
:10553000B5F70701C56BBEC7C4F7000190DD03C016
:10554000C3F702C0C2F701C0C1F700C0C0F703C073
:10555000C7F702C0C6F701C0C5F700C0C4F7B8C797
:10556000CBF7B7C7CAF7B6C7C9F7B5C7C8F792DD53
:10557000D892BCC7C7F7BBC7C6F7BAC7C5F7B9C784
:10558000C4F703C0CBF702C0CAF701C0C9F700C017
:10559000C8F72FDE03C0BCF702C0BBF701C0BAF7E3
:1055A00000C0B9F73AD00701C36BC26B200EC16FC0
:1055B000820EC06FBCC7C7F7BBC7C6F7BAC7C5F76F
:1055C000B9C7C4F700012CEC17F003C0C3F702C041
:1055D000C2F701C0C1F700C0C0F70701C56BBEC765
:1055E000C4F700013CDDD892C3C7C7F7C2C7C6F7EE
:1055F000C1C7C5F7C0C7C4F703C0CBF702C0CAF71D
:1056000001C0C9F700C0C8F7F4DD03C0BCF702C091
:10561000BBF701C0BAF700C0B9F705D00701BDB1AB
:1056200001D00DD000010701BF51BF2B036AB12586
:10563000E96EB2510320EA6EEFCFBEF736D7BDA3B5
:105640001AD0C36BC26B800EC16F7F0EC06FBCC718
:10565000C7F7BBC7C6F7BAC7C5F7B9C7C4F70001D4
:105660002CEC17F003C0BCF702C0BBF701C0BAF7BF
:1056700000C0B9F70701B351B41117E0BF530CE0F4
:10568000BF07B3C7E9FFB4C7EAFFBF51B125EF6E4B
:10569000000EB221EC6E09D0B3C7E9FFB4C7EAFF30
:1056A000B2C7ECFFED52B1C7EFFFB9C700F0BAC700
:1056B00001F0BBC702F0BCC703F000011200060EE8
:1056C0000401056F0601576B5B6B0701876B866BE7
:1056D000270E896F100E886F8C0EF66E210EF76EF6
:1056E000080EB16F000187EC23F006015651A4A803
:1056F000FED7736E0D0EA4A8FED7736E0A0EA4A873
:10570000FED7736E070189C703F08851D8B48907A3
:1057100088070310D8B4DCD0A4AAD1D00001C8EC0B
:105720001CF001C058F6040000D0000006015B2DFB
:105730000DD058512C080AE05C515C2B036A750FA0
:10574000E96E070E0320EA6E58C6EFFF57510208B4
:1057500018E158512C0815E15B5304E1010E5B6F11
:105760005C6B0FD05B2D0DD0020E5B6F036A5C513A
:10577000750FE96E070E0320EA6EEF6A040000D091
:10578000000057530CE158512B0809E1010E576FE7
:105790000701876B866B040000D00000060158519A
:1057A0000D0809E15751030806E1040000D000008C
:1057B00007018ED00601572D01D003D057510208A2
:1057C00025E1070187C703F08651862BD8B4872BC4
:1057D000B16F5D0EB125E96E060E0320EA6E58C664
:1057E000EFFF040000D000005D0E8625E96E060E76
:1057F0008721EA6EEF6A040000D00000875303E1BE
:1058000086517F0801E264D027D006015751030872
:1058100024E1070187C703F08651862BD8B4872B74
:10582000B16F110EB125E96E070E0320EA6E58C65E
:10583000EFFF040000D00000110E8625E96E070E70
:105840008721EA6EEF6A040000D00000875303E16D
:105850008651630801E23CD0060158510A0809E16B
:105860005751020806E10701876B866B030E06019C
:10587000576F572D22D02B0E07018A6F430E8B6F67
:105880004D0E8C6F470E8D6F520E8E6F8F6B060E06
:10589000B46F5D0EB36F070EB66F8A0EB56FB86B3F
:1058A000050EB76F000183EC21F0015207E1020EF3
:1058B0000601576F040000D0000000010701010E2F
:1058C00008012C6F000125EC13F006011BD707011E
:1058D000070EEA6E900EE96EF2CFB1F7F29E100E4F
:1058E000016EF76A000E0001EFEC09F00A000900F2
:1058F000F5CFEEFF012EFBD70701B1BFF28E070EE9
:10590000B46F750EB36F070EB66F900EB56F0001D2
:105910009CEC23F001520FE0070E0701B46F750EE7
:10592000B36FB66BD40EB56F00019CEC23F001523F
:10593000D8A46CEF3CF0070111512308D8A458D12A
:10594000A66B230E906F916B070EB46F110EB36FA1
:10595000070EB66F900EB56F00015DEC24F002C02B
:10596000A5F701C0A4F70701A451A511D8B495D09B
:10597000A651000A000111E0010A1BE0030A25E01C
:10598000010A2FE0070A39E0010A43E0030A4DE06B
:10599000010A57E00F0A61E06CD00701B26B120EEA
:1059A000B16FA5C7B4F7A4C7B3F70001B5EC24F0F5
:1059B00060D00701B26B160EB16FA5C7B4F7A4C7CC
:1059C000B3F70001B5EC24F054D00701B26B1A0E06
:1059D000B16FA5C7B4F7A4C7B3F70001B5EC24F0C5
:1059E00048D00701B26B200EB16FA5C7B4F7A4C7AA
:1059F000B3F70001B5EC24F03CD00701B26B500EB8
:105A0000B16FA5C7B4F7A4C7B3F70001B5EC24F094
:105A100030D00701B26B300EB16FA5C7B4F7A4C781
:105A2000B3F70001B5EC24F024D00701B26B700E7F
:105A3000B16FA5C7B4F7A4C7B3F70001B5EC24F064
:105A400018D00701B26B800EB16FA5C7B4F7A4C719
:105A5000B3F70001B5EC24F00CD00701B26B900E47
:105A6000B16FA5C7B4F7A4C7B3F70001B5EC24F034
:105A700000D00701A62B230E906F916BB46BB36B14
:105A8000070EB66F900EB56F00015DEC24F002C0FA
:105A9000A5F701C0A4F767D70701BB6BBA6BB96B59
:105AA000B869BC69000118EC14F0050E08012C6FF0
:105AB000000125EC13F00701BB6BBA6BB96BF00E5C
:105AC000B86F690EBC6F000118EC14F0050E0801E8
:105AD0002C6F000125EC13F00701BB6BBA6BB96B9F
:105AE000F10EB86F2A0EBC6F000118EC14F0050E11
:105AF00008012C6F000125EC13F00701BB6BBA6B9A
:105B0000B96BFC0EB86F2A0EBC6F000118EC14F0D4
:105B1000050E08012C6F000125EC13F00701BB6B8B
:105B2000BA6BB96BFB0EB86F2A0EBC6F000118EC94
:105B300014F0050E08012C6F000125EC13F007018D
