:040FD000B5EF69F020
:080FD800046ED8CF05F0E0CF54
:100FE00006F00001E9CF0CF0EACF07F0E1CF08F0FE
:100FF000E2CF09F0D9CF0AF0DACF0BF0F3CF12F03D
:10100000F4CF13F0FACF14F000C00EF001C00FF0CF
:1010100002C010F003C011F09DA212EF08F09EB2C2
:101020002CEF0DF00EC000F00FC001F010C002F068
:1010300011C003F00CC0E9FF07C0EAFF078E08C02B
:10104000E1FF09C0E2FF0AC0D9FF0BC0DAFF12C0FE
:10105000F3FF13C0F4FF14C0FAFF045006C0E0FF12
:1010600005C0D8FF1000F2CF0DF0F29EF76A800F96
:10107000F66E100EF7220900F5500DBEF28E12002A
:1010800068656C6C6F20776F726C6400F2CF0DF046
:10109000F29EF76AA60FF66E100EF7220900F550C1
:1010A0000DBEF28E12004F536F666600F2CF0DF048
:1010B000F29EF76AC60FF66E100EF7220900F55081
:1010C0000DBEF28E1200244750524D430000F2CF65
:1010D0000DF0F29EF76AE80FF66E100EF722090087
:1010E000F5500DBEF28E12002447504747410000D4
:1010F000F2CF0DF0F29EF76A0A0FF66E110EF7228C
:101100000900F5500DBEF28E120024474E524D4399
:101110000000F2CF0DF0F29EF76A2C0FF66E110E62
:10112000F7220900F5500DBEF28E120024474E47FB
:1011300047410000F2CF0DF0F29EF76A4E0FF66EB7
:10114000110EF7220900F5500DBEF28E1200566105
:101150006C696400F2CF0DF0F29EF76A6E0FF66EC6
:10116000110EF7220900F5500DBEF28E12005468E0
:10117000656674206F7220546F77696E67206163B3
:101180007469766974792064657465637465640054
:10119000F2CF0DF0F29EF76AAA0FF66E110EF7224B
:1011A0000900F5500DBEF28E12006770732073694E
:1011B000676E616C206C6F737400F2CF0DF0F29E5D
:1011C000F76AD40FF66E110EF7220900F5500DBE26
:1011D000F28E1200496E76616C696400F2CF0DF0F8
:1011E000F29EF76AF60FF66E110EF7220900F5501F
:1011F0000DBEF28E12000D0A434F4E4E4543540D64
:101200000A00F2CF0DF0F29EF76A1C0FF66E120E76
:10121000F7220900F5500DBEF28E12000D0A4F4B59
:101220000D0A0D0A2B51485454504745543A20306A
:101230002C3230302C00F2CF0DF0F29EF76A500FB6
:10124000F66E120EF7220900F5500DBEF28E120056
:101250000D0A4F4B0D0A0D0A2B514854545052455C
:10126000414446494C453A20300D0A00F2CF0DF07A
:10127000F29EF76A860FF66E120EF7220900F550FD
:101280000DBEF28E12006F74612066696C65206479
:101290006F776E6C6F6164656400F2CF0DF0F29E43
:1012A000F76AB40FF66E120EF7220900F5500DBE64
:1012B000F28E12004F536F6E0000F2CF0DF0F29ECF
:1012C000F76AD40FF66E120EF7220900F5500DBE24
:1012D000F28E120049444C450000F2CF0DF0F29E10
:1012E000F76AF40FF66E120EF7220900F5500DBEE4
:1012F000F28E120052554E4E494E4700F2CF0DF07D
:10130000F29EF76A160FF66E130EF7220900F550DB
:101310000DBEF28E12005041524B45440000F2CFF8
:101320000DF0F29EF76A380FF66E130EF7220900E1
:10133000F5500DBEF28E1200496E20526F6D696E2F
:101340006700F2CF0DF0F29EF76A5C0FF66E130E97
:10135000F7220900F5500DBEF28E1200486F6D6540
:10136000204E6574776F726B0000F2CF0DF0F29E25
:10137000F76A840FF66E130EF7220900F5500DBEC2
:10138000F28E120067707320676F742066697800B0
:10139000F2CF0DF0F29EF76AAA0FF66E130EF72247
:1013A0000900F5500DBEF28E1200736572766572FB
:1013B00020636F6E6E65637465640000F2CF0DF09C
:1013C000F29EF76AD60FF66E130EF7220900F5505B
:1013D0000DBEF28E1200222B3931373031323538C2
:1013E000363539362200F2CF0DF0F29EF76A000F43
:1013F000F66E140EF7220900F5500DBEF28E1200A3
:10140000736574757020636F6D706C657465000032
:10141000F2CF0DF0F29EF76A2A0FF66E140EF72245
:101420000900F5500DBEF28E12007365727665727A
:10143000322073657400F2CF0DF0F29EF76A500F00
:10144000F66E140EF7220900F5500DBEF28E120052
:1014500073657461706E3A00F2CF0DF0F29EF76A18
:10146000720FF66E140EF7220900F5500DBEF28EC3
:10147000120073657469643A0000F2CF0DF0F29EB9
:10148000F76A940FF66E140EF7220900F5500DBEA0
:10149000F28E12007365746970313A00F2CF0DF06C
:1014A000F29EF76AB60FF66E140EF7220900F55099
:1014B0000DBEF28E12007365746970323A00F2CF7D
:1014C0000DF0F29EF76AD80FF66E140EF72209009F
:1014D000F5500DBEF28E1200636C7269703200001E
:1014E000F2CF0DF0F29EF76AFA0FF66E140EF722A5
:1014F0000900F5500DBEF28E1200536574696E74CA
:101500006E3A0000F2CF0DF0F29EF76A1E0FF66EF3
:10151000150EF7220900F5500DBEF28E120053652C
:1015200074696E74703A0000F2CF0DF0F29EF76AA3
:10153000420FF66E150EF7220900F5500DBEF28E21
:10154000120049646C65696E743A0000F2CF0DF0C8
:10155000F29EF76A660FF66E150EF7220900F55037
:101560000DBEF28E1200556E617574680000F2CFE8
:101570000DF0F29EF76A880FF66E150EF72209003D
:10158000F5500DBEF28E1200556E6175746865726D
:10159000697A65640000F2CF0DF0F29EF76AB00F31
:1015A000F66E150EF7220900F5500DBEF28E1200F0
:1015B00053657473706565643A00F2CF0DF0F29E66
:1015C000F76AD40FF66E150EF7220900F5500DBE1E
:1015D000F28E12005365747077643A00F2CF0DF00A
:1015E000F29EF76AF60FF66E150EF7220900F55017
:1015F0000DBEF28E1200526F616D696E673F000082
:10160000F2CF0DF0F29EF76A1A0FF66E160EF72261
:101610000900F5500DBEF28E12005265626F6F74B4
:10162000696E6700F2CF0DF0F29EF76A3E0FF66E1C
:10163000160EF7220900F5500DBEF28E120053650A
:1016400074545A3A0000F2CF0DF0F29EF76A600F20
:10165000F66E160EF7220900F5500DBEF28E12003E
:101660004175746F20545A2073657400F2CF0DF0E9
:10167000F29EF76A860FF66E160EF7220900F550F5
:101680000DBEF28E1200545A205365740000F2CF42
:101690000DF0F29EF76AA80FF66E160EF7220900FB
:1016A000F5500DBEF28E1200696E76616C69642091
:1016B000545A0000F2CF0DF0F29EF76ACE0FF66E8C
:1016C000160EF7220900F5500DBEF28E1200486F7B
:1016D0007420737461727400F2CF0DF0F29EF76A99
:1016E000F20FF66E160EF7220900F5500DBEF28EBF
:1016F00012005761726D2073746172740000F2CF32
:101700000DF0F29EF76A180FF66E170EF722090019
:10171000F5500DBEF28E1200436F6C64207374613D
:1017200072740000F2CF0DF0F29EF76A3E0FF66E73
:10173000170EF7220900F5500DBEF28E1200526C02
:10174000796F6E00F2CF0DF0F29EF76A5E0FF66EC3
:10175000170EF7220900F5500DBEF28E12005265E9
:101760006C6179205475726E6564204F4E00F2CF23
:101770000DF0F29EF76A880FF66E170EF722090039
:10178000F5500DBEF28E1200526C796F6666000045
:10179000F2CF0DF0F29EF76AAA0FF66E170EF7223F
:1017A0000900F5500DBEF28E120052656C61792071
:1017B0005475726E6564204F46460000F2CF0DF0FE
:1017C000F29EF76AD60FF66E170EF7220900F55053
:1017D0000DBEF28E1200454550524F4D20455241EC
:1017E00053454400F2CF0DF0F29EF76AFE0FF66EFD
:1017F000170EF7220900F5500DBEF28E120041437C
:101800004C2073657400F2CF0DF0F29EF76A200F42
:10181000F66E180EF7220900F5500DBEF28E12007A
:1018200044434C2073657400F2CF0DF0F29EF76ACA
:10183000420FF66E180EF7220900F5500DBEF28E1B
:101840001200526573746F726500F2CF0DF0F29E54
:10185000F76A640FF66E180EF7220900F5500DBEF8
:10186000F28E1200526573746F726520746F20449B
:10187000656661756C742100F2CF0DF0F29EF76A17
:10188000920FF66E180EF7220900F5500DBEF28E7B
:101890001200417574686572697A65640000F2CF60
:1018A0000DF0F29EF76AB80FF66E180EF7220900D7
:1018B000F5500DBEF28E12000D0A2B514D544F50B3
:1018C000454E3A20302C3000F2CF0DF0F29EF76AF0
:1018D000E20FF66E180EF7220900F5500DBEF28EDB
:1018E00012000D0A2B514D544F50454E3A20312CC9
:1018F0003000F2CF0DF0F29EF76A0C0FF66E190E63
:10190000F7220900F5500DBEF28E12000D0A2B5180
:101910004D54434F4E4E3A20302C302C3000F2CFF5
:101920000DF0F29EF76A380FF66E190EF7220900D5
:10193000F5500DBEF28E12000D0A2B514D54434F3F
:101940004E4E3A20312C302C3000F2CF0DF0F29E6A
:10195000F76A640FF66E190EF7220900F5500DBEF6
:10196000F28E12000D0A2B514D54444953433A0054
:10197000F2CF0DF0F29EF76A8A0FF66E190EF7227B
:101980000900F5500DBEF28E12000D0A2B514D5478
:10199000434C4F53453A0000F2CF0DF0F29EF76AE8
:1019A000B20FF66E190EF7220900F5500DBEF28E39
:1019B00012000D0A2B514D5450554245583A2030D3
:1019C0002C302C300000F2CF0DF0F29EF76AE00FC1
:1019D000F66E190EF7220900F5500DBEF28E1200B8
:1019E0000D0A2B514D5450554245583A20312C3058
:1019F0002C300000F2CF0DF0F29EF76A0E0FF66E5B
:101A00001A0EF7220900F5500DBEF28E120049475A
:101A10006F6E0000F2CF0DF0F29EF76A2E0FF66E99
:101A20001A0EF7220900F5500DBEF28E120049473A
:101A30006F666600F2CF0DF0F29EF76A4E0FF66EFB
:101A40001A0EF7220900F5500DBEF28E12004E4F0D
:101A500053455256494345000401002B012B03AD69
:101A600029D00CB327D00D2BD8B40E2B0E5308E180
:101A70000D51020805E392908990929289921AD0B2
:101A80000E5303E10D51100808E20E5306E10D510B
:101A9000130803E3929089800DD00E5100080AE2EA
:101AA000FF0A03E10D516E0805E20E6B0D6B92907B
:101AB00089900C8303AF2AD00CB128D00D2BD8B459
:101AC0000E2B0E5303E10D51100808E20E5306E1F0
:101AD0000D51130803E39290898018D00E5303E14F
:101AE0000D51EC0808E20E5306E10D51EF0803E337
:101AF000929089900BD00E51030808E2FF0A03E18F
:101B00000D517D0803E20E6B0D6B0C810051130823
:101B100051E2022B006B05530EE005070551050845
:101B200005E00551030802E0052D03D094928B9245
:101B300002D094928B820301F9A326D00101D6BB77
:101B400002D0030121D00301FA2D0BD0040103714F
:101B500003A103D094928B8202D094928B9213D0E3
:101B60000301FA5102080AE104010553D8B402D076
:101B7000030104D094928B8206D00301FA5302E150
:101B800094928B92040116D00101D6BB14D00301AC
:101B9000F9B302D001010FD004010451010803E39D
:101BA00094928B8202D094928B92042B045103085E
:101BB00001E2046B010104010151310816E2016BDD
:101BC0000301F9B30DD0F97FF9AF05D094928B8260
:101BD00094948B8404D094928B9294948B9404D09C
:101BE0000101D6AB00D00301040102510408D8B0B2
:101BF0000CD1026B0101D6ABF7D00301FC530DE110
:101C0000FD2BD8B4FE2BFE51060807E2FF0A03E1C4
:101C1000FD51090802E2FE6BFD6BE253D8A485D0AA
:101C2000040103970101C0B106D0C0B304D0C0B70E
:101C300002D0C0A50BD00301FC53D8B402D00101DF
:101C400005D0010EFC6FFE6BFD6B01011D531FE102
:101C50001C5101081CE30301F9B102D0010117D0A6
:101C6000040103A502D0010112D0062BD8B4072B22
:101C7000075303E10651780809E2076B066B0385F9
:101C80000101C089010E0301FC6F040110D00401A1
:101C900003A50DD001011D5306E11C510508D8A074
:101CA00002D0040104D00401076B066B039503B551
:101CB00028D0010123510301FE5D09E305E1010183
:101CC00022510301FD5D03E3040103AB10D00401C5
:101CD00003AB16D00301FE53D8B402D0040107D0E1
:101CE000FD513B08D8A002D004010AD00401030131
:101CF000FE6BFD6B0101C089010E0301FC6F040145
:101D000012D009510301FE5D0DE305E10401085104
:101D10000301FD5D07E3FE6BFD6B0101C089010E50
:101D20000301FC6F040153D00301E22D4FD00401E5
:101D3000076B066B0301F9AB05D0F99B010EFC6F35
:101D4000FE6BFD6B040103B71CD00A2BD8B40B2B20
:101D5000090ED88001012655006E070E2755036E27
:101D600000C001F0035004010B5D0BE303E10150DF
:101D70000A5D07E30B6B0A6B0301FE6BFD6B04014D
:101D800003870301F9A90AD0FE5303E1FD511D08A1
:101D900005E2FE6BFD6B010EFC6F18D001012751AF
:101DA0000301FE5D13E305E1010126510301FD5D21
:101DB0000DE3040103B702D0030108D00301FE6B59
:101DC000FD6B0101C089010E0301FC6F04010301D9
:101DD000FC5304E1E25302E0F9A905D0F9A503D0D0
:101DE0000401038903010101040103A307D00301D6
:101DF000F9A502D0040102D0FF2B04010301FF5119
:101E00001D0802E2FF6BF98D04019E92000112EFA2
:101E100008F024504149523836342C302C302C39BB
:101E20003630302A31330D0A000024504D544B33E4
:101E300035332C312C312C302C302C302A32420DC1
:101E40000A0024504D544B3238362C312A32330D8F
:101E50000A0024504D544B3232302C3230302A326A
:101E6000430D0A0024504D544B3331332C312A3268
:101E7000450D0A0024504D544B3338362C302A324D
:101E8000330D0A0024504D544B3330312C322A325A
:101E9000450D0A0041542B43545A553D310D0A005B
:101EA000706F776572696E675F646F776E210A0085
:101EB00041542B51485454504346473D22636F6E62
:101EC000746578746964222C310D0A0041542B51D9
:101ED000485454504346473D22726573706F6E7389
:101EE00065686561646572222C310D0A00004154F9
:101EF0002B514854545055524C3D38342C323030CC
:101F000030300D0A00007570646174655F63686548
:101F1000636B2E7068703F69643D25732C76657223
:101F200073696F6E3D5625642E25642E25640D0A57
:101F3000000041542B51485454504745543D3130D2
:101F40003030300D0A0041542B5148545450524502
:101F500041443D38300D0A0041542B5148545450EF
:101F60004346473D22636F6E746578746964222C22
:101F7000310D0A0041542B51485454504346473DBB
:101F800022726573706F6E73656865616465722235
:101F90002C310D0A000041542B51485454505552D5
:101FA0004C3D34332C313030300D0A006D61696E98
:101FB0002E6865780D0A000041542B514854545046
:101FC0004745543D31303030300D0A0041542B51DB
:101FD000485454505245414446494C453D2255468B
:101FE000533A6D61696E322E747874222C38300D3C
:101FF0000A0041542B5148545450524541444649DB
:102000004C453D225546533A6D61696E312E7478C8
:1020100074222C38300D0A00696E697420706F7755
:102020006572696E675F646F776E210A00004944CC
:102030003A2025732C20677073206E6F74206669B8
:102040007865640041542B435245473F0D0A000018
:1020500041542B5149435347503D312C312C22617F
:10206000697274656C677072732E636F6D222C22B7
:10207000222C22222C310D0A000041542B514941BF
:1020800043543D310D0A000041542B514944454110
:1020900043543D310D0A000041542B514D544F50D3
:1020A000454E3D302C2231332E3132372E313332F2
:1020B0002E313336222C313838330D0A000041548A
:1020C0002B514D54434F4E4E3D302C226265676973
:1020D0006E6F77313233222C2254222C22747422D8
:1020E0000D0A000041542B514D54444953433D3097
:1020F0000D0A000041542B514D54434C4F53453D64
:10210000300D0A0041542B514D5450554245583D15
:10211000302C302C302C302C2254222C25640D0AEB
:10212000000041542B434D47463D310D0A004154B8
:102130002B435343533D2247534D220D0A00415434
:102140002B434D47533D000041542B434D47523DD7
:1021500025630D0A000061706E207365743A257363
:1021600000006964207365743A2573006970256402
:10217000207365743A257300496E74206E20736570
:10218000743A25730000496E742070207365743AA8
:102190002573000049646C6520696E742073657452
:1021A0003A2573007370656564207365743A25730E
:1021B0000000505744206368616E67656420746F47
:1021C0003A257300687474703A2F2F6D6170732E06
:1021D000676F6F676C652E636F6D2F6D6170733FF6
:1021E000713D256325322E36662C256325322E3629
:1021F000660024504D544B3130312A33320D0A00E1
:1022000024504D544B3130322A33310D0A002450C2
:102210004D544B3130332A33300D0A00534F532085
:102220006E756D6265722069732073657420746FBA
:10223000202B2573000041542B434D47443D25631B
:102240000D0A000041542B434D47463D310D0A0015
:1022500041542B435343533D2247534D220D0A0013
:1022600041542B434D474C0D0A0041542B514D54C2
:102270004F50454E3D0041542B514D54434F4E4E0F
:102280003D00222C2200222C2200222C2200220D92
:102290000A0041542B514D54444953433D0041548D
:1022A0002B514D544F50454E3D0041542B514D54F0
:1022B000434F4E4E3D00222C2200222C2200220DA4
:1022C0000A0041542B514D54444953433D0041545D
:1022D0002B514D54434C4F53453D000041542B511D
:1022E0004D5450554245583D000025642C302C304B
:1022F0002C302C22000041540D0A0000415445307E
:102300000D0A000041542B4950523D393630300DF2
:102310000A00415426570D0A000041540D0A0000DE
:1023200041540D0A00004154453026570D0A000063
:1023300041542B4950523D393630300D0A0041543A
:102340002B434D45453D320D0A0041542B434D472B
:10235000463D310D0A00415426570D0A00004154F4
:102360002B434D47443D312C340D0A0041542B433F
:1023700050494E3F0D0A000041542B5149435347E9
:10238000503D312C312C2200222C22222C22222CB6
:10239000310D0A0041542B51494143543D310D0A3E
:1023A000000041542B4347534E3D310D0A00534F1B
:1023B0005320687474703A2F2F6D6170732E676F9D
:1023C0006F676C652E636F6D2F6D6170733F713D2C
:1023D000256325322E36662C256325322E3666007F
:1023E000485F53544152543A256C640A0000485FD8
:1023F000454E443A256C640A00007B226465766988
:1024000063654944223A20222573222C22494D45F6
:1024100049223A2025732C2274696D657374616DAD
:1024200070223A2022002530346C642D253032751C
:102430002D2530327520253032753A253032753AE7
:1024400025303275222C226461746156616C696496
:10245000697479223A202256616C6964222C2273B5
:102460007461747573223A20224E2564222C226CEA
:1024700061746974756465223A2022002530313117
:102480002E3766222C226C6F6E6769747564652224
:102490003A2022253031322E3766222C2273706585
:1024A0006564223A20222530336C64222C22636F2B
:1024B00075727365223A20222530336C64222C22F7
:1024C00069676E6974696F6E223A2022000049477D
:1024D0006F66660049476F6E0000222C22766568A1
:1024E00069636C65537461747573223A202200002D
:1024F0005041524B4544000052554E4E494E470004
:1025000049444C450000222C226164646974696F5F
:102510006E616C44617461223A20222573222C2260
:1025200074696D65496E74657276616C73223A20C8
:102530002225732C25732C2530334C64222C2261E8
:102540006E676C65496E74657276616C223A202202
:102550002530336C64222C2264697374616E636568
:10256000496E74657276616C223A20222530336C94
:1025700064222C2267736D537472656E67746822CF
:102580003A202225303364222C2273657175656EE2
:1025900063654E756D626572223A202200000D0A55
:1025A000427265616B204B3D256C6420433D256381
:1025B0000D0A000041540D0A000041540D0A0000AC
:1025C00041542B4350494E3F0D0A00000D0A50550F
:1025D000424C495348204641494C0D0A00004154A1
:1025E0000D0A000041542B43545A553D310D0A0049
:1025F00041542B43434C4B3F0D0A000041542B5197
:102600004353510D0A00080EEA6E2A0EE96EEF5090
:1026100011E0050E016EBF0E006E0400002EFDD706
:10262000012EF9D72E0E006E002EFED700000400FA
:10263000EF2EEFD7120094869488A6EF6AF0080E6A
:10264000016E040E006E002EFED78B969496040E3B
:10265000006E002EFED70701C2378B98D8B0948841
:10266000D8A09498948682A6FED7012E01D002D0DD
:102670000001E7D7040E006E002EFED78B969496CD
:1026800000009488040E006E002EFED7040E006E2B
:10269000002EFED7948682A6FED7016A040E006E35
:1026A000002EFED782B801808B9694968B989498D2
:1026B00000011200080E0701B66F00C0B7F794883A
:1026C000040E006E002EFED7948682A6FED782B836
:1026D000D88082A8D8900136040E006E002EFED756
:1026E00094968B96B62FEBD79488040E006E002E2E
:1026F000FED78B98B751D8A494980000948682A6F0
:10270000FED7040E006E002EFED78B969496040E14
:10271000006E002EFED78B9894980001DFEF13F027
:102720000701B25303E1B151000803E2A80EB46FF0
:1027300002D0A00EB46F9488040E006E002EFED757
:102740009486040E006E002EFED782A6FED78B98CC
:102750009498040E006E002EFED78B969496B4C704
:10276000C2F700016CDFB0C7B6F7B1C7B7F7B2C7A1
:10277000B8F70701B96BB0C7C2F7000160DFAFC798
:10278000C2F75DDF9488040E006E002EFED794869B
:10279000040E006E002EFED782A6FED78B9894986A
:1027A000040E006E002EFED78B969496010E070144
:1027B000B425B56FC26F000142DF006A7BD701C04C
:1027C000B3F794980000948682A6FED7040E006E9C
:1027D000002EFED700D000009488040E006E002E5C
:1027E000FED70701B3C701F0000112000701B9537A
:1027F00003E1B851000803E2A80EBC6F02D0A00E9E
:10280000BC6F9488040E006E002EFED79486040ED2
:10281000006E002EFED78B989498040E006E002E4A
:10282000FED78B969496BCC7C2F7000108DFB7C7E6
:10283000BEF7B8C7BFF7B9C7C0F70701C16BB7C7C5
:10284000C2F70001FCDEB6C7C2F7F9DEBAC7C2F7AD
:10285000F6DE94980000948682A6FED7040E006EE1
:10286000002EFED700D000009488040E006E002ECB
:10287000FED79488040E006E002EFED79486040EB8
:10288000006E002EFED78B989498040E006E002EDA
:10289000FED78B969496BCC7C2F7D1DE01500701D4
:1028A000BB9101B0BB81BBA11ED09488040E006E09
:1028B000002EFED79486040E006E002EFED782A650
:1028C000FED78B989498040E006E002EFED78B9640
:1028D0009496BCC7C2F70001B2DE01500701BB915C
:1028E00001B0BB81E0D700011200928680B624D0EF
:1028F0000301E22D07D004010385010E0301FC6FE3
:10290000FE6BFD6BE26BEA6AFC0EE96EF2CF16F528
:10291000F29E000E0001FAEC0CF00A000900F550DE
:10292000EE6E0009FBE1050116BFF28E0301F9A965
:1029300001D0F9991BD000010301E25301E1E089C4
:10294000010EE26FEA6AFC0EE96EF2CF16F5F29E16
:10295000000E00010AEC0DF00A000900F550EE6EC1
:102960000009FBE1050116BFF28E03010001120010
:10297000938281A205D0300E0301E16F04D00001E3
:10298000310E0301E16F000112000301E35319E16D
:10299000E25317E1929A898AEA6AF50EE96EF2CF5C
:1029A00016F5F29E000E000192EC0BF00A000900F1
:1029B000F550EE6E0009FBE1050116BFF28E1CD04A
:1029C0000301E33D17D0929A899AEA6AF50EE96EFF
:1029D000F2CF16F5F29E000E0001B7EC0BF00A00E4
:1029E0000900F550EE6E0009FBE1050116BFF28EFD
:1029F00003D00301E3690501000112000900F5524B
:102A00000DE0F6CFAFF7F7CFB0F7F5509EA8FED7A1
:102A1000AD6EAFC7F6FFB0C7F7FFF0D712000701E2
:102A2000B851BA19800BBC6FB8AF05D0B71FB81F2B
:102A3000B72BD8B4B82BBAAF05D0B91FBA1FB92B72
:102A4000D8B4BA2BB751B903F3CF01F0F4CF00F0EB
:102A5000BA03F3500026B851B903F3500020026EB8
:102A6000BCAF05D0011E021E012AD8B4022A000103
:102A7000ADEF15F00701B56BB36B0A0EB46FB26B17
:102A8000B16BAF51B01104E1000E016E026EEAD0DD
:102A9000B551B52B036AAF25E96EB0510320EA6E3C
:102AA000EFCFB6F7B6512D080DE1010EB36FB5515A
:102AB000B52B036AAF25E96EB0510320EA6EEFCF64
:102AC000B6F70DD0B6512B080AE1B551B52B036A04
:102AD000AF25E96EB0510320EA6EEFCFB6F7B651DD
:102AE0002F08D8B0B1D0B6513908D8A0ADD0B65162
:102AF000300821E1036AB551AF25E96EB0510320DA
:102B0000EA6EEF5078080AE0036AB551AF25E96E26
:102B1000B0510320EA6EEF5058080DE1100EB46F6B
:102B2000B52BB551B52B036AAF25E96EB051032023
:102B3000EA6EEFCFB6F7B4510A0823E1B6512F0879
:102B40001FE2B65139081CE3B86B0A0EB76FB2C763
:102B5000BAF7B1C7B9F7000162D7300E0701B65D09
:102B60000124B16F000E0220B26FB551B52B036A7C
:102B7000AF25E96EB0510320EA6EEFCFB6F7DED78E
:102B800063D0B451100860E1B651600806E2B65156
:102B90007A0803E3B651DF0B01D0B651B66FB651D8
:102BA0002F0803E2B651390806E2B65140084CE25C
:102BB000B651460849E3B6512F081AE2B651390812
:102BC00017E3B135B76FB235B86FB737B837B73726
:102BD000B837B737B837F00EB717300EB65DB72530
:102BE000016E000EB821036E01C0B1F7B26F16D0AE
:102BF000B135B76FB235B86FB737B837B737B83701
:102C0000B737B837F00EB717410EB65D0A0FB725C4
:102C1000016E000EB82101C0B1F7B26FB551B52BEE
:102C2000036AAF25E96EB0510320EA6EEFCFB6F725
:102C3000B651600806E2B6517A0803E3B651DF0BDD
:102C400001D0B651B66FABD7B4510A0807E1B32D26
:102C500005D0B11FB21FB12BD8B4B22BB1C701F050
:102C6000B2C702F0000112000701AF51B103F3CF68
:102C700001F0F4CF00F0B203F3500026B051B103DD
:102C8000F3500020026E00011200050131912CC5A5
:102C900033F52BC532F52D512B25016E000E2C215D
:102CA000036E3351035C4BE303E10150325D47E2B5
:102CB0000701B26BB16B33C5B0F732C5AFF7000196
:102CC0002FDD01C030F5010E08012A6F00019BDCE9
:102CD000050130510D081BE12B51325D346F2C5131
:102CE0003359356F2E513425E96E2F513521EA6E57
:102CF000EF6A010E08012A6F000185DC05013181B0
:102D0000010E08012A6F00017EDC050118D02B514D
:102D1000325D346F2C513359356F2E513425E96EA5
:102D20002F513521EA6E30C5EFFF010E08012A6FE1
:102D3000000169DC0501322BD8B4332BACD7000E6F
:102D400031B1010E016E000112008E0E006E65C5DC
:102D500001F064C502F0036A01AE05D0011E021E37
:102D6000022A01E1012A015209E102C001F0026ACE
:102D7000080E005E015202E1006A0ED0D89001BE3A
:102D800004D0023601360006F9D7050165AF02D03E
:102D9000000102D0019E0001120075C57CF50501FD
:102DA00079517C1B7CAF05D0D894D89075BFD88062
:102DB0002FD075C57CF578C57DF574517D5F06E033
:102DC0007CAF26D0D850010AD86E22D079C57DF5C7
:102DD00075517D5F06E07CAF1BD0D850010AD86EDC
:102DE00017D07AC57DF576517D5F06E07CAF10D0B7
:102DF000D850010AD86E0CD07BC57DF577517D5F28
:102E000006E07CAF05D0D850010AD86E01D0D8902A
:102E1000000112000701BE51D8B471D0006EC2513A
:102E2000D8B46DD0002604E3810E002668E204D0F9
:102E30007F0E005E64E363E0BFC7C6F7C351C61BE5
:102E4000BF8FC38FC151C503F4CFC8F7C051C403AE
:102E5000F4CF03F0F3CFC7F7C503F350C827F450FE
:102E6000C723000E0322C151C403F350C827F450F6
:102E7000C723000E026A03220222BF51C503F3508A
:102E8000C727F4500322000E0222BF51C403F3509F
:102E90000326F4500222000E016A0122C151C3032D
:102EA000F350C727F4500322000E02220122C05122
:102EB000C303F3500326F4500222000E0122BF5137
:102EC000C303F3500226F4500122002A01BE05D0AC
:102ED000C7370336023601360006000EC7AF0AD0E8
:102EE000032A02220122015005E1025003E10350AE
:102EF00001E1002AC6BF018EC6AF019E04D0006A60
:102F0000016A026A036A000112000701B26BB16B29
:102F1000B06BF90EAF6F000103DC0150A5080AE1A8
:102F2000010E08012A6F000103EC13F00101D6879E
:102F300009D00001010E08012A6F000103EC13F013
:102F40000101D6970701B26BB16BB06BFE0EAF6F8C
:102F5000000190EC13F00150690809E1010E08012D
:102F60002A6F000103EC13F00101D68B0001070169
:102F7000B26BB16BB06BAF6B000190EC13F0015012
:102F8000220852E1010E08012A6F000103EC13F040
:102F9000220ED46F010E05011F6F1F51100843E36D
:102FA0000701B26BB16BB06B1FC5AFF7000190ECBE
:102FB00013F001C01EF5010E08012A6F000103EC99
:102FC00013F005011E51220823E1036A1F51D40F9B
:102FD000E96E000E0320EA6E1EC5EFFF010E1F25ED
:102FE000036AD40FE96E000E0320EA6EEF6A010E49
:102FF00008012A6F000103EC13F00301E085010EC4
:1030000008012A6F000103EC13F005010CD009D070
:10301000036A1F51D40FE96E000E0320EA6E1EC52D
:10302000EFFF1F2BBAD700010701B26BB16BB06B7A
:10303000AA0EAF6F000190EC13F00150220856E188
:10304000220EC36F0501226B010E216F22534DE149
:10305000215110084AE3AA0E21252B6F000E2221D0
:103060002C6F0701B26BB16BB06F2BC5AFF70001CE
:1030700090EC13F001C020F5040000D00000050121
:103080002051220826E1C30E2125E96E000E2221DF
:10309000EA6E20C5EFFF010E21252B6F000E2221C5
:1030A0002C6FC30E2B25E96E000E2C21EA6EEF6A01
:1030B000010E08012A6F000103EC13F00301E08701
:1030C000010E08012A6F000103EC13F005010DD079
:1030D00008D0C30E2125E96E000E2221EA6E20C51C
:1030E000EFFF212BD8B4222BB1D700010701B26B1F
:1030F000B16BB06B150EAF6F000190EC13F0015087
:103100000D085DE10501246B120E236F245347E186
:103110002351150844E30701B26BB16B24C5B0F726
:1031200023C5AFF7000190EC13F001C016F5010EB6
:1031300008012A6F000103EC13F0050116510D0878
:1031400015E1120E235D2B6F000E24592C6FE50E36
:103150002B25E96E000E2C21EA6EEF6A010E0801A4
:103160002A6F000103EC13F0050119D0120E235D44
:103170002B6F000E24592C6FE50E2B25E96E000EE7
:103180002C21EA6E16C5EFFF010E08012A6F00011F
:1031900003EC13F00501232BD8B4242BB7D7070178
:1031A000B06BE50EAF6F000165DC02C01FF101C01E
:1031B0001EF1010E08012A6F000103EC13F0070154
:1031C000B26BB16BB06B1D0EAF6F000190EC13F0E2
:1031D00001500D085EE10501266B1A0E256F26537E
:1031E00047E125511D0844E30701B26BB16B26C5C9
:1031F000B0F725C5AFF7000190EC13F001C016F54C
:10320000010E08012A6F000103EC13F005011651AD
:103210000D0815E11A0E255D2B6F000E26592C6F37
:10322000ED0E2B25E96E000E2C21EA6EEF6A010EE1
:1032300008012A6F000103EC13F0050119D01A0EE2
:10324000255D2B6F000E26592C6FED0E2B25E96E98
:10325000000E2C21EA6E16C5EFFF010E08012A6F41
:10326000000103EC13F00501252BD8B4262BB7D7AA
:103270000701B06BED0EAF6F00013AEC15F002C024
:1032800023F101C022F1010E08012A6F000103ECB5
:1032900013F00701B26BB16BB06B190EAF6F000189
:1032A00090EC13F001500D08D8A47AD00501286BDA
:1032B000160E276F285347E12751190844E30701E9
:1032C000B26BB16B28C5B0F727C5AFF7000190EC22
:1032D00013F001C016F5010E08012A6F000103EC7E
:1032E00013F0050116510D0815E1160E275D2B6F21
:1032F000000E28592C6FE90E2B25E96E000E2C21AB
:10330000EA6EEF6A010E08012A6F000103EC13F068
:10331000050119D0160E275D2B6F000E28592C6F52
:10332000E90E2B25E96E000E2C21EA6E16C5EFFF83
:10333000010E08012A6F000103EC13F00501272B91
:10334000D8B4282BB7D70701B06BE90EAF6F0001D7
:103350003AEC15F002C025F101C024F1010125531A
:1033600003E12451090805E2255303E124511E0815
:1033700003E2256B0F0E246F25C1B0F724C1AFF710
:103380000701B26B3C0EB16F00016EDC02C027F189
:1033900001C026F1010E08012A6F000103EC13F0B1
:1033A0000701B26BB16BB06BA70EAF6F000190EC71
:1033B00013F001500D085FE105012A6BA40E296F7F
:1033C0002A5347E12951A70844E30701B26BB16BC7
:1033D0002AC5B0F729C5AFF7000190EC13F001C082
:1033E00016F5010E08012A6F000103EC13F0050128
:1033F00016510D0815E1A40E295D2B6F000E2A59F8
:103400002C6FF10E2B25E96E000E2C21EA6EEF6A6F
:10341000010E08012A6F000103EC13F0050119D019
:10342000A40E295D2B6F000E2A592C6FF10E2B254F
:10343000E96E000E2C21EA6E16C5EFFF010E0801A1
:103440002A6F000103EC13F00501292BD8B42A2BB5
:10345000B7D70701B06BF10EAF6F00013AEC15F072
:1034600002C009F401C008F4010E08012A6F00012E
:1034700003EC13F005D00401096B3C0E086F00014A
:103480000701B26BB16BB06BF10EAF6F000190EC46
:1034900013F001502A080FE105012C6B300E2B6F41
:1034A0001F0E2D6F2F6B820E2E6F000145EC16F054
:1034B0000101D68F00010701B26BB16BB06BF20E48
:1034C000AF6F000190EC13F001502A080FE10501E5
:1034D0002C6BD10E2B6F1F0E2D6F2F6BA00E2E6F2E
:1034E000000145EC16F00301E08100010701B26B19
:1034F000B16BB06BFB0EAF6F000190EC13F001509D
:103500002A080FE105012C6B200E2B6F0B0E2D6F7F
:103510002F6B550E2E6F000145EC16F00301E08372
:1035200000010701B26BB16BB06BFC0EAF6F000115
:1035300090EC13F001502A080FE105012C6B500E9E
:103540002B6F1F0E2D6F2F6B640E2E6F000145EC3D
:1035500016F00101D68D00010701B26BB16BB06BA3
:10356000F40EAF6F000190EC13F001C0E3F3050E11
:1035700008012A6F000103EC13F00701B26BB16B75
:10358000B06BA00EAF6F000190EC13F001C0BEF065
:10359000050E08012A6F000103EC13F00701B26B5E
:1035A000B16BB06BA10EAF6F000190EC13F001C0D6
:1035B000BFF0050E08012A6F000103EC13F00701AC
:1035C000B26BB16BB06BA20EAF6F000190EC13F059
:1035D00001C0C0F0050E08012A6F000103EC13F0D2
:1035E0000701B26BB16BB06BA30EAF6F000190EC33
:1035F00013F001C0C1F0050E08012A6F000103ECB1
:1036000013F00701B26BB16B010EB06FAF6B00012D
:1036100090EC13F0012C93D00701B26BB16BB06B3F
:10362000F50EAF6F000190EC13F00301E76BE66B52
:10363000E56B01C0E4F3E6C3E7F3E5C3E6F3E4C3F7
:10364000E5F3E46B010E08012A6F000103EC13F0AF
:103650000701B26BB16BB06BF60EAF6F000190EC6F
:1036600013F001500301E413010E08012A6F000159
:1036700003EC13F00701B26BB16B010EB06FAF6FCB
:10368000000190EC13F00301EB6BEA6BE96B01C0F6
:10369000E8F3EAC3EBF3E9C3EAF3E8C3E9F3E86B61
:1036A000010E08012A6F000103EC13F00701B26B51
:1036B000B16B010EB06F020EAF6F000190EC13F012
:1036C00001500301E813010E08012A6F000103EC09
:1036D00013F00301EB5320E1EA531EE1E951010825
:1036E0001BE303E1E851350817E3EB6BEA6B010ECE
:1036F000E96F360EE86F0701B96BB86B010EB76F53
:10370000B66BBA6B0001F6EC13F0010E08012A6FDC
:10371000000103EC13F00301E7530FE1E6530DE161
:10372000E55101080AE303E1E451350806E3E76BDC
:10373000E66B010EE56F360EE46F0ED0000103015B
:10374000EB6BEA6B010EE96F360EE86FE76BE66B29
:10375000010EE56F360EE46F0701B26BB16B010E1F
:10376000B06F360EAF6F000190EC13F001507B0884
:103770000EE10301E76BE66B010EE56F360EE46FB9
:10378000EB6BEA6B010EE96F360EE86F0001050185
:103790002C6BC00E2B6F070E2D6F050E2F6F170EA3
:1037A0002E6F000145EC16F0015217E0050E0701DF
:1037B000B06F170EAF6F00013AEC15F002C065F55F
:1037C00001C064F5A5EC16F003C0EFF302C0EEF300
:1037D00001C0EDF300C0ECF307D00301EF6BEE6B1B
:1037E000ED6B800EEC6F000105012C6BC70E2B6F8B
:1037F000070E2D6F050E2F6F170E2E6F000145EC73
:1038000016F0015242E0050E0701B06F170EAF6FC0
:1038100000013AEC15F002C065F501C064F5A5ECB5
:1038200016F003C0F3F302C0F2F301C0F1F300C0DD
:10383000F0F30501776B766B756B746BF3C37BF5F7
:10384000F2C37AF5F1C379F5F0C378F50001CDEC58
:1038500016F01AE3F3C3C1F7F2C3C0F7F1C3BFF721
:10386000F0C3BEF70701C56BC46B800EC36F7F0E3C
:10387000C26F00010AEC17F003C0F3F302C0F2F3C9
:1038800001C0F1F300C0F0F306D00301F36BF26B5B
:10389000800EF16FF06F000117EF6CF00900F55228
:1038A0000DE0F6CFBAF7F7CFBBF7F550A4A8FED7D7
:1038B000736EBAC7F6FFBBC7F7FFF0D7120092903E
:1038C000899092928992960E08012A6F000103EC6A
:1038D00013F0929089800E0E05012A6FFA0E0801EE
:1038E0002A6F000103EC13F005012A2FF7D79290FD
:1038F00089900301F985F497140E05012A6FFA0ED9
:1039000008012A6F000103EC13F005012A2FF7D7F5
:103910009290899092928992960E08012A6F0001E6
:1039200003EC13F0929089800A0E05012A6FDC0ED9
:1039300008012A6F000103EC13F005012A2FF7D7C5
:10394000929089900301F99500011200A4AAFED774
:1039500071CF16F074CF01F016A202D07198718861
:1039600012002BC803F008012AC8E9FF2BC8EAFFA0
:10397000EF5239E02BC82FF82AC82EF82DC831F89D
:103980002CC830F831C803F030C8E9FF31C8EAFF6D
:10399000EF5216E02EC8E9FF2FC8EAFFEFCF32F84A
:1039A00031C803F030C8E9FF31C8EAFFEF50325D9B
:1039B00007E12E2BD8B42F2B302BD8B4312BE2D7E4
:1039C00031C803F030C8E9FF03C0EAFFEF5205E158
:1039D0002AC801F02BC802F009D02A2BD8B42B2B0F
:1039E0000001BFD70801000E016E026E0001120037
:1039F000040E08012B5F0AE3080EEA6E2B0EE96E37
:103A0000EF5004E001D00400EF2EFDD700011200BA
:103A10000701C16BC06B08012891296B0701C151D7
:103A2000BF5D6DE303E1BE51C05D69E2A4AA50D061
:103A300008012951292B036AC40FE96E070E0320E0
:103A4000EA6EEACF2DF8E9CF2CF800017FDF2DC810
:103A5000EAFF2CC8E9FF01C0EFFF0400010E006E71
:103A6000002EFED700D00000036A08012951C40FC0
:103A7000E96E070E0320EA6EEF6A0400010E006E85
:103A8000002EFED700D00000070E2B6FC40E2A6F49
:103A9000BDC72DF8BCC72CF8000163DF02C0C3F717
:103AA00001C0C2F70701C251C31112E00400010EA8
:103AB000006E002EFED700D000000801288104000F
:103AC000010E006E002EFED700D00000070117D0B7
:103AD0000400020E08012A6FF80E2B6F000188DF28
:103AE00008012A2FF9D70701C02BD8B4C12B040035
:103AF000010E006E002EFED700D0000090D7050EFC
:103B000008012A6F000103EC13F0000E080128B130
:103B1000010E016E00011200270E05012B6F100E21
:103B20002A6F2C6B2E91440EF66E200EF76E00015C
:103B3000B5DE05012BC503F02A51D8B42B072A079F
:103B4000031041E0A4AA3ED0000100DF01C02DF522
:103B5000040000D0000005012EB112D02D512B0819
:103B60000FE12C512C2B036A2F0FE96E050E032059
:103B7000EA6E2DC5EFFF040000D000002E810CD0AE
:103B80002EA10AD02C512C2B036A2F0FE96E050EA3
:103B90000320EA6E2DC5EFFF040000D000002C5179
:103BA0000A080AE137512C0807E1040000D00000A0
:103BB00038C501F00AD006D02C510A0803E1300EB6
:103BC000016E03D0B7D7300E016E00011200A4A819
:103BD000FED7736E12006DC56FF56CC56EF50501ED
:103BE0006F51010824E303E16E51350820E307011A
:103BF000B26BB16B6FC5B0F76EC5AFF7000190EC5B
:103C000013F001C070F5040000D0000005017051F0
:103C10000D0802E10CD007D070510001D8DF04007C
:103C200000D0000005016E2BD8B46F2BD9D700014E
:103C300012000501176B196B186B18510F0873E10F
:103C4000195371E17086220E756E000E766EA60E07
:103C5000726E900E716E020E2A6FFA0E08012A6FB4
:103C6000000103EC13F005012A2FF7D7F60EF66ECC
:103C7000220EF76E000112DE080E05012A6FFA0E01
:103C800008012A6F000103EC13F005012A2FF7D772
:103C9000FC0EF66E220EF76E000100DE080E050126
:103CA0002A6FFA0E08012A6F000103EC13F00501D8
:103CB0002A2FF7D7040EF66E230EF76E0001EEDD05
:103CC000080E05012A6FFA0E08012A6F000103ECA5
:103CD00013F005012A2FF7D7120EF66E230EF76E9A
:103CE0000001DCDD080E05012A6FFA0E08012A6FBB
:103CF000000103EC13F005012A2FF7D77086A00E00
:103D0000756E010E766EA60E726E900E716E080EB6
:103D10002A6FFA0E08012A6F000103EC13F0050167
:103D20002A2FF7D72BD0195303E11851640826E244
:103D3000196B186B0001C3DD080E05012A6FFA0E1E
:103D400008012A6F000103EC13F005012A2FF7D7B1
:103D5000080E2A6FFA0E08012A6F000103EC13F017
:103D600005012A2FF7D7080E2A6FFA0E08012A6FCD
:103D7000000103EC13F005012A2FF7D71A0EF66E97
:103D8000230EF76E00018ADD0D0E05011A6F0A0E73
:103D90001B6F4F0E1C6F4B0E1D6F1E6B050E070128
:103DA000BD6F1A0EBC6F070EBF6FD00EBE6F000145
:103DB0002FDE0150050117270A0E08012A6F0001A6
:103DC00003EC13F00501182BD8B4192B1753D8B4F2
:103DD00034D7196B186B0A0E08012A6F000103EC27
:103DE00013F09ADE01C0F5F30A0E08012A6F0001F4
:103DF00003EC13F00301F551310803E0F5513508E8
:103E000002E1F98704D0F997000E016E58D207013C
:103E1000B26BB16BB06BAF69000190EC13F0015065
:103E20006908D8B491D1050E08012A6F000103EC8E
:103E300013F0300EBE6FBF6FC06FC16F0701B96B5B
:103E4000B86BB76BA00EB66F300EBA6F0001F6EC10
:103E500013F0050E08012A6F000103EC13F00701AF
:103E6000B96BB86BB76BA10EB66F300EBA6F0001AD
:103E7000F6EC13F0050E08012A6F000103EC13F0B5
:103E80000701B96BB86BB76BA20EB66F300EBA6F85
:103E90000001F6EC13F0050E08012A6F000103EC97
:103EA00013F00701B96BB86BB76BA30EB66F300E8A
:103EB000BA6F0001F6EC13F0050E08012A6F00013D
:103EC00003EC13F00501176B200EF66E230EF76E50
:103ED0000001E4DC0D0E05011F6F0A0E206F4F0E6E
:103EE000216F4B0E226F236B050E0701BD6F1F0E56
:103EF000BC6F130EBF6F880EBE6F000189DD0150CD
:103F000005011727C80E08012A6F000103EC13F002
:103F1000260EF66E230EF76EC1DC0D0E05011F6F27
:103F20000A0E206F4F0E216F4B0E226F236B050E72
:103F30000701BD6F1F0EBC6F130EBF6F880EBE6FE3
:103F4000000166DD015005011727C80E08012A6F20
:103F5000000103EC13F0300EF66E230EF76E9EDCBC
:103F60000D0E05011F6F0A0E206F4F0E216F4B0EB5
:103F7000226F236B050E0701BD6F1F0EBC6F130E62
:103F8000BF6F880EBE6F000143DD0150050117278A
:103F9000C80E08012A6F000103EC13F03E0EF66E06
:103FA000230EF76E7BDC0D0E05011F6F0A0E206FCE
:103FB0004F0E216F4B0E226F236B050E0701BD6F55
:103FC0001F0EBC6F130EBF6F880EBE6F000120DD89
:103FD000015005011727C80E08012A6F000103ECE4
:103FE00013F04A0EF66E230EF76E58DC0D0E050127
:103FF0001F6F0A0E206F4F0E216F4B0E226F236B27
:10400000050E0701BD6F1F0EBC6F130EBF6F880E2C
:10401000BE6F0001FDDC015005011727C80E080125
:104020002A6F000103EC13F0560EF66E230EF76EA6
:1040300035DC0D0E05011F6F0A0E206F4F0E216F2C
:104040004B0E226F236B050E0701BD6F1F0EBC6F59
:10405000130EBF6F880EBE6F0001DADC0150050140
:104060001727C80E08012A6F000103EC13F05E0E3B
:10407000F66E230EF76E12DC0D0E05011F6F0A0E91
:10408000206F4F0E216F4B0E226F236B050E070121
:10409000BD6F1F0EBC6F130EBF6F880EBE6F000189
:1040A000B7DC015005011727C80E08012A6F00016F
:1040B00003EC13F00501175107082FE0182BD8B4B3
:1040C000192B195303E11851320827E2196B186BA9
:1040D00000015FEC1CF0080E05012A6FFA0E0801C2
:1040E0002A6F000103EC13F005012A2FF7D7080E01
:1040F0002A6FFA0E08012A6F000103EC13F0050184
:104100002A2FF7D7080E2A6FFA0E08012A6F00012E
:1041100003EC13F005012A2FF7D717510708D8A48D
:10412000D2D6010E0301FA6F0701B96BB86BB76BFA
:10413000B669690EBA6F0001F6EC13F0050E0801BE
:104140002A6F000103EC13F06C0EF66E230EF76E6F
:104150004EEC1CF0520E0501246F450E256F410EEA
:10416000266F440E276F590E286F296B050E070125
:10417000BD6F240EBC6F130EBF6F880EBE6F0001A3
:1041800047DC01C017F5C80E08012A6F000103ECD7
:1041900013F00701B26BB16BB06BFC0EAF6F000197
:1041A00090EC13F001502A0877E10501172D01D09A
:1041B00002D0000171D0050E08012A6F000103EC46
:1041C00013F00301F481050E08012A6F000103ECCE
:1041D00013F00101D68D050E08012A6F000103ECD2
:1041E00013F0780EF66E230EF76E4EEC1CF0050100
:1041F0006D6B500E6C6F0001EEDC880EF66E230EB8
:10420000F76E4EEC1CF00D0E0501246F0A0E256FA3
:104210004F0E266F4B0E276F286B050E0701BD6FE3
:10422000240EBC6F130EBF6F880EBE6F000108EC2A
:104230001DF0015005011727C80E08012A6F000163
:1042400003EC13F005011751020827E1940EF66EF6
:10425000230EF76E00014EEC1CF00D0E0501246FCD
:104260000A0E256F4F0E266F4B0E276F286B050E1B
:104270000701BD6F240EBC6F130EBF6F880EBE6F9B
:10428000000108EC1DF0015005011727C80E0801B8
:104290002A6F000103EC13F005011751030806E132
:1042A0000301F485020EFA6F03D005010301F495B2
:1042B000050E08012A6F000103EC13F00301000151
:1042C00012000701B55302E1B65342E0B1C7E9FF5E
:1042D000B2C7EAFFEFCFB7F7B4C703F0B3C7E9FF40
:1042E000B4C7EAFFEF50B75D17E0B2C703F0B1C73C
:1042F000E9FF03C0EAFFEFCFB7F7B4C703F0B3C7D6
:10430000E9FFB4C7EAFFEF50B75D02E2FF0E01D04C
:10431000010E016E1FD00BD0B2C703F0B1C7E9FF89
:10432000B2C7EAFFEF5203E1000E016E13D0B2C72D
:1043300003F0B151B12BD8B4B22BB4C703F0B351D1
:10434000B32BD8B4B42BB551D8B4B607B507BAD788
:10435000000E016E00011200040000D000000701F1
:10436000CF6BCF511D081CE3036ACF51AF25E96E17
:10437000B0510320EA6EEF503A0810E1CF2B036AE8
:10438000CF51AF25E96EB0510320EA6EEF502008FF
:1043900001E1CF2B040000D0000002D0CF2BE1D7E9
:1043A000CFC7D0F7036AD051AF25E96EB0510320D3
:1043B000EA6EEF521DE0CF51D05D036AB10F016E7E
:1043C000070E032203C0D2F7036AD051AF25E96E6E
:1043D000B0510320EA6EEFCFD3F7D2C7EAFF01C096
:1043E000E9FFD3C7EFFF040000D00000D02BDAD7DD
:1043F000CF51D05D036AB10FE96E070E0320EA6E5C
:10440000EF6A040000D00000B0C7EAFFAFC7E9FFC1
:10441000070EE26EB10EE16EE752E6CFEEFFFCE171
:10442000040000D000000001120005017B6B7A6BD4
:104430007D6B7E6BA20EF66E230EF76E00014EECC6
:104440001CF005017B511308D8A07FD004E17A51FC
:104450008708D8A07AD07A2BD8B47B2BA4AA68D0AE
:104460000001A6EC1CF001C07CF50400010E006EFA
:10447000002EFED700D0000005017C512B080BE177
:104480007D6B010E7E6F0400010E006E002EFED7C4
:1044900000D0000007D07C510D0804E17E510208D5
:1044A00001E153D07E5344E07D517D2B036A160F0A
:1044B000E96E050E0320EA6E7CC5EFFF0400010ED5
:1044C000006E002EFED700D00000036A7D51160F4B
:1044D000E96E050E0320EA6EEF6A0400010E006E1D
:1044E000002EFED700D000007D51050821E12B0EE3
:1044F0007F6F430E806F470E816F530E826F4E0E9B
:10450000836F846B050E0701B26F160EB16F050E37
:10451000B46F7F0EB36FB66B050EB56F0001D1DEC1
:104520000152D8B402D0050103D0020E05017E6FFE
:1045300004000D0E856F2D0E08012B6F0001F8ECA5
:104540001CF00501852FF7D77DD7050E0701B06F49
:10455000160EAF6F000100DF010E08012A6F000187
:1045600003EC13F0010EEA6E080EE96E050EE26E22
:10457000160EE16EE752E6CFEEFFFCE1010E0801F8
:104580002A6F000103EC13F0050E08012A6F0001E9
:1045900003EC13F035EF6CF00601556B0701836BEC
:1045A000826B060154C603F05351D8B45407530725
:1045B000031045E0A4AA3AD00001A6EC1CF001C00B
:1045C00084F7070183C703F08251822BD8B4832B71
:1045D000856F560E8525E96E060E0320EA6E84C7A8
:1045E000EFFF040000D00000560E8225E96E060E93
:1045F0008321EA6EEF6A040000D0000006015553E3
:104600000AE1070184514F08D8B402D0060103D053
:104610000601552B0BD0552D09D0070184514B08AD
:10462000D8B402D0060102D0060109D0010E08015B
:104630002A6F000103EC13F00701B3D70601560EF1
:10464000016E060E026E0001120010C4EAFF0FC4D4
:10465000E9FF0701BCC7EFFFE92AD8B4EA2AEF6AED
:1046600004010F2BD8B4102B00011200EF520FE001
:10467000EACFB0F7E9CFAFF7EFCFBCF7E6DFB0C7CF
:10468000EAFFAFC7E9FFE92AD8B4EA2AEFD7120058
:1046900054C656F653C655F656C603F0060155C61F
:1046A000E9FF56C6EAFFEF5206E0552BD8B4562B69
:1046B0000001F2D706015351555D006E5451565911
:1046C000036E00C001F0000112000900F6CFB0F740
:1046D000F7CFB1F7F550A4A8FED7736EB0C7F6FFB9
:1046E000B1C7F7FF0701AF2F01D002D00001EDD70E
:1046F000000112000701B1C7E9FFB2C7EAFFEFCF1F
:10470000B5F7B4C703F0B3C7E9FFB4C7EAFFEF508A
:10471000B55D15E1B2C703F0B1C7E9FF03C0EAFF19
:10472000EF5203E1000E016E1FD0B2C703F0B1518A
:10473000B12BD8B4B22BB32BD8B4B42BDCD7B2C7BF
:1047400003F0B1C7E9FFB2C7EAFFEFCFB5F7B4C7CF
:1047500003F0B3C7E9FFB4C7EAFFEF50B55D02E26B
:10476000FF0E01D0010E016E00011200BAC7BEF7A4
:10477000B9C7BDF7BEC703F00701BDC7E9FFBEC794
:10478000EAFFEF5230E0BCC7C0F7BBC7BFF7C0C7F6
:1047900003F0BFC7E9FFC0C7EAFFEF520AE1B95112
:1047A000BD5D006EBA51BE59036E00C001F023D04A
:1047B00010D0BDC7E9FFBEC7EAFFEFCFC1F7C0C742
:1047C00003F0BFC7E9FFC0C7EAFFEF50C15D01E1D9
:1047D00004D0BF2BD8B4C02BDAD7BD2BD8B4BE2B96
:1047E0000001C8D70701B951BD5D006EBA51BE596D
:1047F000036E00C001F0000153EF24F0BAC7BEF70A
:10480000B9C7BDF7BEC703F00701BDC7E9FFBEC703
:10481000EAFFEF522AE0BCC7C0F7BBC7BFF7C0C76B
:1048200003F0BFC7E9FFC0C7EAFFEF5218E0BDC7FA
:10483000E9FFBEC7EAFFEFCFC1F7C0C703F0BFC7AC
:10484000E9FFC0C7EAFFEF50C15D05E1BDC701F058
:10485000BEC702F00DD0BF2BD8B4C02BE0D7BD2B04
:10486000D8B4BE2B0001CED70701000E016E026E38
:10487000000174EF24F00701B151B21104E0B2C796
:1048800003F0B15103D018C003F01750B56F03C047
:10489000B6F7B6C7BAF7B5C7B9F7B4C7BCF7B3C769
:1048A000BBF7000163D701500701B527000EB623FF
:1048B000B6C703F0B5C7E9FFB6C7EAFFEF520AE192
:1048C00017C0E9FF18C0EAFF200EEF6E000E016E60
:1048D000026E27D0B6C7BAF7B5C7B9F7B4C7BCF7E9
:1048E000B3C7BBF700018AD702C0B8F701C0B7F75A
:1048F000B8C703F00701B7C7E9FFB8C7EAFFEF522F
:1049000008E0B7C7E9FFB8C7EAFFEF6AB72BD8B42A
:10491000B82BB8C718F0B7C717F0B5C701F0B6C7BE
:1049200002F000011200B0C7B4F7AFC7B3F7B2C7C7
:1049300003F00701B1C7E9FFB2C7EAFFEF522CE06D
:10494000B451000806E2FF0A03E1B351350801E261
:1049500023D0B2C703F0B151B12BD8B4B22BE96E5A
:1049600003C0EAFFEFCFB5F7B96BB86BB4C7B7F7C1
:10497000B3C7B6F7B5C7BAF70001F6EC13F0050EEA
:1049800008012A6F000103EC13F00701B32BD8B420
:10499000B42B0001CCD70701B2C703F0B1C7E9FFC0
:1049A000B2C7EAFFEF5212E1B96BB86BB4C7B7F701
:1049B000B3C7B6F70D0EBA6F0001F6EC13F0050E93
:1049C00008012A6F000103EC13F007010001120037
:1049D000EF5210E0EACFBBF7E9CFBAF7EF50A4A847
:1049E000FED7736EBBC7EAFFBAC7E9FFE92AD8B49E
:1049F000EA2AEED712001A0E0701B66F220EF66EE3
:104A0000210EF76E00014EEC1CF04F0E0701B76F40
:104A10004B0EB86FB96B070EBD6FB70EBC6F270E8C
:104A2000BF6F100EBE6F000108EC1DF00701B591BD
:104A300001B0B581020EBA6FFA0E08012A6F0001AB
:104A400003EC13F00701BA2FF7D72E0EF66E210EE6
:104A5000F76E00014EEC1CF04F0E0701B76F4B0EC6
:104A6000B86FB96B070EBD6FB70EBC6F270EBF6F67
:104A7000100EBE6F000108EC1DF00701B59101B0EA
:104A8000B581020EBA6FFA0E08012A6F000103EC1D
:104A900013F00701BA2FF7D73E0EF66E210EF76E10
:104AA00000014EEC1CF0B2C7EAFFB1C7E9FF90DF8E
:104AB0000D0EA4A8FED7736E0A0EA4A8FED7736EBF
:104AC0003E0E0701B76FB86B070EBD6FB70EBC6F18
:104AD000270EBF6F100EBE6F000108EC1DF007011E
:104AE000B59101B0B581320E08012A6F000103ECC7
:104AF00013F0B4C7EAFFB3C7E9FF6ADF0701B65195
:104B0000A4A8FED7736E4F0EB76F4B0EB86FB96B7C
:104B1000070EBD6FB70EBC6F270EBF6F100EBE6FB6
:104B2000000108EC1DF00701B59101B0B581320E0E
:104B300008012A6F000103EC13F012000701AF53C4
:104B40001AE09290899092928992960E08012A6FAB
:104B5000000103EC13F0929089800E0E0701B06FF4
:104B6000FA0E08012A6F000103EC13F00701B02FC1
:104B7000F7D7929089900301F985F497FA6B0001B9
:104B800012000900F6CFB0F7F7CFB1F7F5CFBCF7B9
:104B90005CDDB0C7F6FFB1C7F7FF0701AF2F01D04B
:104BA00002D00001EED7000112000701B651016AE0
:104BB000B55D03E2B5C700F00CD0006A080EB76F10
:104BC000B5370036B651005CD8B0006E0136B72F4D
:104BD000F7D700011200200E0701B0A9300EB16F07
:104BE000AFC700F0AFAF08D0001E002A00C0AFF77B
:104BF0002D0EB16FB08FB0810150AFC7B5F7640E05
:104C0000B66F0001D2DF00C0AFF7300E01240701FC
:104C1000B26FAFC7B5F70A0EB66F0001C6DF300E30
:104C200000240701B46F300E0124B36FB1C700F048
:104C3000300EB25D04E0B083B0BFB08512D0B1C712
:104C4000B2F7200EB16F300EB35D04E0B081B0BF9B
:104C5000B08307D0D8A4B08104E1B2C7B3F7200E67
:104C6000B26FB0B505D0B0B307D0B0B109D00CD099
:104C7000B1C7BCF70001E9DCB2C7BCF70001E5DC55
:104C8000B3C7BCF70001E1DCB4C7BCF70001DDDC51
:104C900012000701BC51B608BC6F036ABDC7C0F75C
:104CA000BD8FD890BD33BE33BF33033202320132E1
:104CB0000032BC2FF6D7C0AF0BD0001E011E021E63
:104CC000031E002AD8B4012AD8B4022AD8B4032A71
:104CD00000011200D8B204D0070EEA6EC40EE96ECD
:104CE000006A016A026A036A0701C46BC56BC66B7E
:104CF000C76BC351C211C111C0112CE0200EC86F87
:104D0000D890BC37BD37BE37BF37C437C537C63775
:104D1000C737C351C75D08E1C251C65D05E1C15146
:104D2000C55D02E1C051C45D0FE3C051C45FC15114
:104D3000D8A0C13DC55FC251D8A0C23DC65FC35116
:104D4000D8A0C33DC75FD88000360136023603368F
:104D5000C82FD6D7C4C7EFFFC5C7ECFFC6C7ECFF47
:104D6000C7C7ECFF00011200E9500701B46FB3514F
:104D7000B66F1CE0B2C7C1F7B1C7C0F7B0C7BFF785
:104D8000AFC7BEF7C56BC46B200EC36F820EC26F78
:104D900000010AEC17F003C0B2F702C0B1F701C07E
:104DA000B0F700C0AFF70701B62FE4D7B2C7BFF71F
:104DB000B1C7BEF7B0C7BDF7AFC7BCF7000169DF29
:104DC00003C0B2F702C0B1F701C0B0F700C0AFF73F
:104DD0000701B2AF0DD0B407B48BAF1FB01FB11F26
:104DE000B21FAF2BD8B4B02BD8B4B12BD8B4B22BE0
:104DF0003B0EBB6F9A0EBA6FCA0EB96FB86B0A0E34
:104E0000B66FB351D8B4B42BD882070EEA6EAF0E8A
:104E1000E96EB2C7BFF7B1C7BEF7B0C7BDF7AFC73E
:104E2000BCF7BBC7C3F7BAC7C2F7B9C7C1F7B8C7A2
:104E3000C0F700014FDF0150005213E10701B32911
:104E4000B65DD8A402D000010CD0B4510DE00F0B18
:104E5000B65D01E044E2B4BF42D0B4BD05D0200E3F
:104E600037D0200E0701B417B4AB0FD0B49BB351A9
:104E7000D8A4B4070050B46F2D0EBC6F000125EC10
:104E800023F00701B451006EB46BB351B65D0DE170
:104E90000050B46F2E0EBC6F000125EC23F007010B
:104EA000B451006E200EB417000E300EB4AB10D00B
:104EB000B49BB351D8A4B4070050B46F2D0EBC6F8F
:104EC000000125EC23F00701B451006EB46B300EE5
:104ED000002600C0BCF7000125EC23F00701D892A2
:104EE000BBC7BFF7BAC7BEF7B9C7BDF7B8C7BCF7EE
:104EF000C36BC26BC16B0A0EC06F0001EBDE03C057
:104F0000BBF702C0BAF701C0B9F700C0B8F7070194
:104F1000B62F7AD700011200EACFB7F7E9CFB6F77C
:104F20000701B0AF08D0B68FB6A9B62BAF1FB01F20
:104F3000AF2BD8B4B02BB039F009B26FB227E20F63
:104F4000B36F320FB56FB0510F0BB327B327B5272F
:104F5000E90FB46FB427B427AF390F0BB427B527C7
:104F6000B437B537B51FB537AF510F0BB527B237CB
:104F7000070EB16F0A0EB407B527FDE3B307B427D8
:104F8000FDE3B207B327FDE3B107B227FDE3070E48
:104F9000EA6EB10EE96E070EB615B69DED52B61566
:104FA00007E1B6B9EE52B6B903D0200E006E21D09B
:104FB000E926000EEA22E950B50804E1EA500708A4
:104FC00001E1B68DEF50006E08E1B6BD06D0B6B96E
:104FD0001ED0B6B702D0200E0BD0B6AF06D02D0E25
:104FE000006EED50B69DB69F04D0B687B699300ED0
:104FF0000026EACFB0F7E9CFAFF700C0BCF7000159
:1050000025EC23F0B0C7EAFFAFC7E9FF0701EE5078
:10501000B6ADD1D7000149EF39F08E0E006EC3C78F
:1050200001F0C2C702F0036A015209E102C001F0B7
:10503000026A080E005E015202E1006A08D0D890B0
:1050400001BE04D0023601360006F9D7019E1200D7
:105050000701C251D8B4A5D0CE6FC651D8B4A1D0E3
:10506000CE5F05E37F0ECE27D8B09BD006D0810E51
:10507000CE5FD8A096D0D8B494D0CEC700F0016A45
:10508000026A036ACD6BC3C7CCF7CC8FC4C7CBF71A
:10509000C5C7CAF7190ECE6FC951CA5F0DE2010E1E
:1050A000CB5F0AE2CC5F08E2CD5F06E2CD2BCC2BD2
:1050B000CB2BC951CA2728D0C851CB5F12E2010EB1
:1050C000CC5F0FE2CD5F0DE2CD2BCC2BC851CB27AF
:1050D000C951CA2719E3CB2B17E1CC2B15E1CD2BF6
:1050E00013D0C7518009CC5F0EE2010ECD5F0BE2F9
:1050F000CD2BC7518009CC27C851CB27E9E3CC2B56
:10510000E7E1CD2BE5D70380CE2F01D00BD0D8908F
:10511000CA37CB37CC37CD37D89003360236013675
:10512000CF37BAD7CFA106D0D8900132023203329E
:10513000CF3302D0000635E0CFBF1ED0D890CA379B
:10514000CB37CC37CD37C951CA5F07E2010ECB5FF1
:1051500004E2CC5F02E2CD5F1AE3C851CB5F05E207
:10516000010ECC5F02E2CD5F12E3C7518009CC5F34
:1051700003E2010ECD5F0BE3032A09E1022A07E1F6
:10518000012A05E1002A0DE0013202320332C3C7D1
:10519000CEF7C751CE1BCEAF02D0018E06D0019EF6
:1051A00004D0006A016A026A036A00011200800EDC
:1051B000D8A202D00701C71B0701CC6BCD6BC3C7B8
:1051C000CBF7C751CB1BC251D8B4DFD0CA6F006E2A
:1051D000C651D8B4E3D0CA5FD8B483D03EE3C7C7C2
:1051E000D0F7D08FC8C7CFF7C9C7CEF7CD6BD8904F
:1051F000D033CF33CE33CD33CA2FF8D7CBAF03D094
:10520000CC81E0D0CC91CA91CC89070EEA6EC50E54
:10521000E96EEBD0CC99CBBF0AD0CAA113D0D03362
:10522000CF33CE33CD33002AD8B4C7D00BD0D0BFC4
:105230000CD0D890CD37CE37CF37D0370006D8B482
:10524000BCD0F5D7CC8D6DD0CC9DC3C7CBF7C3AF49
:1052500002D0D08FABD0D09FA9D0C6C7CAF7C6C7DF
:1052600000F0C251CA5FC3C7D0F7D08FC4C7CFF711
:10527000C5C7CEF7CD6BD890D033CF33CE33CD3337
:10528000CA2FF8D7CBAF03D0CC839CD0CC93CA9194
:10529000CC8B070EEA6EC90EE96EA7D0CC9BCBBFB4
:1052A0000AD0CAA113D0D033CF33CE33CD33002AA6
:1052B000D8B483D00BD0D0BF0CD0D890CD37CE3758
:1052C000CF37D0370006D8B478D0F5D7CC8F29D0D7
:1052D000CC9FC7C7CBF7C7AF02D0D08F67D0D09FC6
:1052E00065D0C7C7D0F7D08FC8C7CFF7C9C7CEF72B
:1052F000CBAF04D0D09FCC8565D0CC95CD6BCA9177
:10530000070EEA6EC50EE96E70D0CBBF1CD0C3C7C6
:10531000CBF7CAA106D0D033CF33CE33CD33002A5A
:105320004CE0CDAF0BD0CE2B09E1CF2B07E1D02B3A
:1053300005E1D033CF33CE33002A3FE0CCBD84D754
:10534000CCBFC6D71CD0800ED01BD0AF04D03AD073
:10535000C7C7CBF70AD0C3C7CBF7D05306E1CF53AB
:1053600004E1CE5302E1006A21D0D0BF08D0D8902A
:10537000CD37CE37CF37D037002EF7D71ED0CBAFB3
:1053800002D0D08F13D0D09F11D0C6C700F0C7C7AE
:10539000D0F7C8C7CFF7C9C7CEF708D0C2C700F04B
:1053A000C3C7D0F7C4C7CFF7C5C7CEF7D0C701F082
:1053B000CFC702F0CEC703F034D0006A016A026A98
:1053C000036A2FD0CD6BCE1FCF1FD01FCD1FCD2B8B
:1053D00005E1CE2B03E1CF2B01E1D02BCCB112D7CD
:1053E000CCB354D7CCB589D7B3D7EF50CE2705E38C
:1053F000CF2B03E1D02BD8B4CA81ED52EF50CF2789
:1054000003E3D02BD8B4CA81ED52EF50EFBE01D0E8
:10541000800AD027D8B0CA81CCB9FCD6CCBB3ED745
:1054200074D7000112000701B66BB56BB46B7F0E29
:10543000B36FBA6BB96BB86BB76BBB81BB93BB95E2
:10544000BD6BAF51B01105E1006A016A026A036ADF
:1054500012D1BD51BD2B036AAF25E96EB0510320B7
:10546000EA6EEFCFBCF7BC53D8B4C7D0BBA10FD006
:10547000BC5120080CE0BB91BC512B0803E1BB934D
:10548000AFD005D0BC512D0802E1BB83A9D0BBB180
:1054900007D0BC512E0804E1BBB502D0BB85A0D01B
:1054A000BBB19BD0BC512F08D8B097D0BC513908A4
:1054B000D8A093D0300EBC5FBBA554D0B6C7C1F7FF
:1054C000B5C7C0F7B4C7BFF7B3C7BEF7C56BC46BEA
:1054D000200EC36F820EC26F00010AEC17F003C0EA
:1054E000B6F702C0B5F701C0B4F700C0B3F70701C3
:1054F000C36BBCC7C2F7000190DD03C0C1F702C097
:10550000C0F701C0BFF700C0BEF703C0C5F702C0B7
:10551000C4F701C0C3F700C0C2F7B6C7C9F7B5C723
:10552000C8F7B4C7C7F7B3C7C6F792DDD892BAC7F2
:10553000C5F7B9C7C4F7B8C7C3F7B7C7C2F703C041
:10554000C9F702C0C8F701C0C7F700C0C6F72FDE11
:1055500003C0BAF702C0B9F701C0B8F700C0B7F787
:105560003AD00701C16BC06B200EBF6F820EBE6FB9
:10557000BAC7C5F7B9C7C4F7B8C7C3F7B7C7C2F743
:1055800000010AEC17F003C0C1F702C0C0F701C068
:10559000BFF700C0BEF70701C36BBCC7C2F700016D
:1055A0003CDDD892C1C7C5F7C0C7C4F7BFC7C3F7B2
:1055B000BEC7C2F703C0C9F702C0C8F701C0C7F72A
:1055C00000C0C6F7F4DD03C0BAF702C0B9F701C0E6
:1055D000B8F700C0B7F705D00701BBB101D00DD0B7
:1055E00000010701BD51BD2B036AAF25E96EB05123
:1055F0000320EA6EEFCFBCF736D7BBA31AD0C16B3E
:10560000C06B800EBF6F7F0EBE6FBAC7C5F7B9C73C
:10561000C4F7B8C7C3F7B7C7C2F700010AEC17F061
:1056200003C0BAF702C0B9F701C0B8F700C0B7F7B6
:105630000701B151B21117E0BD530CE0BD07B1C76E
:10564000E9FFB2C7EAFFBD51AF25EF6E000EB021F2
:10565000EC6E09D0B1C7E9FFB2C7EAFFB0C7ECFFF3
:10566000ED52AFC7EFFFB7C700F0B8C701F0B9C739
:1056700002F0BAC703F000011200060E0401056F24
:105680000601556B596B0701856B846B270E876F7D
:10569000100E866F480EF66E210EF76E080EAF6F75
:1056A000000165EC23F006015451A4A8FED7736EE7
:1056B0000D0EA4A8FED7736E0A0EA4A8FED7736EB3
:1056C000070187C703F08651D8B487078607031000
:1056D000D8B4DCD0A4AAD1D00001A6EC1CF001C043
:1056E00056F6040000D000000601592D0DD0565189
:1056F0002C080AE05A515A2B036A730FE96E070E01
:105700000320EA6E56C6EFFF5551020818E15651C4
:105710002C0815E1595304E1010E596F5A6B0FD053
:10572000592D0DD0020E596F036A5A51730FE96E4D
:10573000070E0320EA6EEF6A040000D00000555304
:105740000CE156512B0809E1010E556F0701856BDD
:10575000846B040000D00000060156510D0809E1D9
:105760005551030806E1040000D0000007018ED067
:105770000601552D01D003D05551020825E107013E
:1057800085C703F08451842BD8B4852BAF6F5B0E93
:10579000AF25E96E060E0320EA6E56C6EFFF040041
:1057A00000D000005B0E8425E96E060E8521EA6EAE
:1057B000EF6A040000D00000855303E184517F08A4
:1057C00001E264D027D006015551030824E1070106
:1057D00085C703F08451842BD8B4852BAF6F0F0E8F
:1057E000AF25E96E070E0320EA6E56C6EFFF0400F0
:1057F00000D000000F0E8425E96E070E8521EA6EA9
:10580000EF6A040000D00000855303E1845163086F
:1058100001E23CD0060156510A0809E1555102083F
:1058200006E10701856B846B030E0601556F552D4C
:1058300022D02B0E0701886F430E896F4D0E8A6FA1
:10584000470E8B6F520E8C6F8D6B060EB26F5B0E18
:10585000B16F070EB46F880EB36FB66B050EB56FE0
:10586000000161EC21F0015207E1020E0601556FC3
:10587000040000D0000000010701010E08012A6F9A
:10588000000103EC13F006011BD70701070EEA6EB7
:105890008E0EE96EF2CFAFF7F29E100E016EF76A30
:1058A000000E0001DEEC09F00A000900F5CFEEFF62
:1058B000012EFBD70701AFBFF28E070EB26F730E3A
:1058C000B16F070EB46F8E0EB36F00017AEC23F048
:1058D00001520FE0070E0701B26F730EB16FB46B88
:1058E000D40EB36F00017AEC23F00152D8A44AEF32
:1058F0003CF007010F512308D8A458D1A46B230E04
:105900008E6F8F6B070EB26F0F0EB16F070EB46FF5
:105910008E0EB36F00013BEC24F002C0A3F701C070
:10592000A2F70701A251A311D8B495D0A451000A3F
:10593000000111E0010A1BE0030A25E0010A2FE043
:10594000070A39E0010A43E0030A4DE0010A57E083
:105950000F0A61E06CD00701B06B120EAF6FA3C7E6
:10596000B2F7A2C7B1F7000193EC24F060D00701B1
:10597000B06B160EAF6FA3C7B2F7A2C7B1F70001A5
:1059800093EC24F054D00701B06B1A0EAF6FA3C78D
:10599000B2F7A2C7B1F7000193EC24F048D0070199
:1059A000B06B200EAF6FA3C7B2F7A2C7B1F700016B
:1059B00093EC24F03CD00701B06B500EAF6FA3C73F
:1059C000B2F7A2C7B1F7000193EC24F030D0070181
:1059D000B06B300EAF6FA3C7B2F7A2C7B1F700012B
:1059E00093EC24F024D00701B06B700EAF6FA3C707
:1059F000B2F7A2C7B1F7000193EC24F018D0070169
:105A0000B06B800EAF6FA3C7B2F7A2C7B1F70001AA
:105A100093EC24F00CD00701B06B900EAF6FA3C7CE
:105A2000B2F7A2C7B1F7000193EC24F000D0070150
:105A3000A42B230E8E6F8F6BB26BB16B070EB46FFE
:105A40008E0EB36F00013BEC24F002C0A3F701C03F
:105A5000A2F767D70701B96BB86BB76BB669BA69BC
:105A60000001F6EC13F0050E08012A6F000103ECAB
:105A700013F00701B96BB86BB76BF00EB66F690E18
:105A8000BA6F0001F6EC13F0050E08012A6F000151
:105A900003EC13F00701B96BB86BB76BF10EB66F7F
:105AA0002A0EBA6F0001F6EC13F0050E08012A6FFA
:105AB000000103EC13F00701B96BB86BB76BFC0E78
:105AC000B66F2A0EBA6F0001F6EC13F0050E08014E
:105AD0002A6F000103EC13F00701B96BB86BB76BC9
:105AE000FB0EB66F2A0EBA6F0001F6EC13F0050E2E
:105AF00008012A6F000103EC13F00701B96BB86BC2
:105B0000B76BFE0EB66F690EBA6F0001F6EC13F0BC
:105B1000020E0701AF6FFA0E08012A6F000103ECB5
:105B200013F00701AF2FF7D7070EEA6E8E0EE96E5E
:105B3000F2CFAFF7F29E0F0E016EF76A000E000172
:105B4000F3EC09F00A000900F5CFEEFF012EFBD7B8
:105B50000701AFBFF28E070EB26F730EB16F070E63
:105B6000B46F8E0EB36F0001FBEC24F0040E07013E
:105B7000AF6FFA0E08012A6F000103EC13F0070162
:105B8000AF2FF7D7010EAF6F00019EEC25F0040E8A
:105B90000701AF6FFA0E08012A6F000103EC13F042
:105BA0000701AF2FF7D7FF0047EF3CF00F51240854
:105BB000D8A4AFD0A76B240E8E6F8F6B070EB26F79
:105BC0000F0EB16F070EB46F8E0EB36F00013BEC7A
:105BD00024F002C0A6F701C0A5F70701A551A61140
:105BE0005DE0A751000A000107E0010A1CE0030A7A
:105BF00027E0010A32E03ED00701B06BD10EAF6F53
:105C0000A6C7B2F7A5C7B1F7000193EC24F0EA6A82
:105C1000A00EE96EA6C7E2FFA5C7E1FFE752E6CFF7
:105C2000EEFFFCE127D0010E0701B06F040EAF6F4D
:105C3000A6C7B2F7A5C7B1F7000193EC24F01AD0BC
:105C4000010E0701B06F140EAF6FA6C7B2F7A5C75C
:105C5000B1F7000193EC24F00DD0010E0701B06FF5
:105C6000240EAF6FA6C7B2F7A5C7B1F7000193EC3A
:105C700024F000D00701A72B240E8E6F8F6BB26B20
:105C8000B16B070EB46F8E0EB36F00013BEC24F0C6
:105C900002C0A6F701C0A5F7A0D70701050E0801AD
:105CA0002A6F000103EC13F00701B96BB86BB76BF7
:105CB000F20EB66F2A0EBA6F0001F6EC13F0050E65
:105CC00008012A6F000103EC13F0070EEA6E8E0E36
:105CD000E96EF2CFAFF7F29E0C0E016EF76A000E7E
:105CE00008EC0AF00A000900F5CFEEFF012EFBD701
:105CF0000701AFBFF28E070EB26F730EB16F070EC2
:105D0000B46F8E0EB36F0001FBEC24F047EF3CF054
:105D10000701070EEA6E8E0EE96EF2CFAFF7F29E24
:105D2000080E016EF76A000E00011BEC0AF00A0073
:105D30000900F5CFEEFF012EFBD70701AFBFF28EB2
:105D4000070EB26F0F0EB16F070EB46F8E0EB36FEA
:105D5000B66B070EB56F000161EC21F001526DE1E9
:105D6000070E0701B06F0F0EAF6F0001ACEC21F012
:105D70000701B06B500EAF6F070EB26F0F0EB16F11
:105D8000000193EC24F00701B96BB86BB76BFC0E04
:105D9000B66F2A0EBA6F0001F6EC13F0050E08017B
:105DA0002A6F000103EC13F00701B96BB86BB76BF6
:105DB000B669BA6B0001F6EC13F0050E08012A6F04
:105DC000000103EC13F0EA6A640EE96E070EE26E5E
:105DD0000F0EE16EE752E6CFEEFFFCE1050E080183
:105DE0002A6F000103EC13F0060E0401106F5B0E26
:105DF0000F6F560EF66E210EF76E080E0701AF6F8D
:105E00000001C1EC25F0070EEA6E0F0EE96E36ECCC
:105E100023F0050E08012A6F000103EC13F0070EB2
:105E20000701B26F730EB16F060EB46F5B0EB36FE6
:105E30000001FBEC24F047EF3CF0070EEA6E8E0EFB
:105E4000E96EF2CFAFF7F29E070E016EF76A000E11
:105E50002CEC0AF00A000900F5CFEEFF012EFBD76B
:105E60000701AFBFF28E070EB26F0F0EB16F070EB4
:105E7000B46F8E0EB36FB66B060EB56F000161EC9A
:105E800021F001526DE1070E0701B06F0F0EAF6FE9
:105E90000001ACEC21F00701B06B200EAF6F070ED4
:105EA000B26F0F0EB16F000193EC24F00701B96BD4
:105EB000B86BB76BFB0EB66F2A0EBA6F0001F6EC2B
:105EC00013F0050E08012A6F000103EC13F007011F
:105ED000B96BB86BB76BB669BA6B0001F6EC13F02F
:105EE000050E08012A6F000103EC13F0EA6A550E53
:105EF000E96E070EE26E0F0EE16EE752E6CFEEFF9F
:105F0000FCE1050E08012A6F000103EC13F0060EF8
:105F10000401106F5B0E0F6F620EF66E210EF76EAE
:105F2000070E0701AF6F0001C1EC25F0070EEA6E06
:105F30000F0EE96E36EC23F0050E08012A6F000102
:105F400003EC13F0070E0701B26F730EB16F060E6C
:105F5000B46F5B0EB36F0001FBEC24F047EF3CF035
:105F6000730E07018E6F650E8F6F740E906F690E42
:105F7000916F700E926F936B070EB26F0F0EB16F31
:105F8000070EB46F8E0EB36FB66B050EB56F0001C2
:105F900061EC21F00152D8A4F6D00701AC6B070EDA
:105FA000EA6E8E0EE96EF2CFAFF7F29E080E016E2A
:105FB000F76A000E00013DEC0AF00A000900F5CF77
:105FC000EEFF012EFBD70701AFBFF28E070EB26FB7
:105FD0000F0EB16F070EB46F8E0EB36FB66B060E59
:105FE000B56F000161EC21F001520BE10701A96BD3
:105FF000300EA86FAB6BF10EAA6F010EAC6F30D0F4
:106000000001070EEA6E8E0EE96EF2CFAFF7F29E38
:10601000080E016EF76A000E4EEC0AF00A00090045
:10602000F5CFEEFF012EFBD70701AFBFF28E070EB3
:10603000B26F0F0EB16F070EB46F8E0EB36FB66BEB
:10604000070EB56F000161EC21F001520AE1070172
:10605000A96BD10EA86FAB6BF20EAA6F020EAC6FDC
:106060000001070E0701B06F0F0EAF6F0001ACEC1F
:1060700021F0A9C7B0F7A8C7AFF7070E0701B26FA5
:106080000F0EB16F000193EC24F00701B96BB86BF0
:10609000ABC7B7F7AAC7B6F72A0EBA6F0001F6EC7E
:1060A00013F0050E08012A6F000103EC13F007013D
:1060B000B96BB86BB76BB669BA6B0001F6EC13F04D
:1060C000050E08012A6F000103EC13F00701AC2D47
:1060D0000CD0EA6A820EE96E070EE26E0F0EE16ED8
:1060E000E752E6CFEEFFFCE10BD0EA6AA00EE96EC4
:1060F000070EE26E0F0EE16EE752E6CFEEFFFCE117
:10610000050E08012A6F000103EC13F0060E0401CE
:10611000106F5B0E0F6F690E0701BC6F000125EC5D
:1061200023F0700E0701BC6F000125EC23F0ACC713
:10613000AFF7180E0701B06F0001EBEC25F0700E01
:10614000F66E210EF76E050E0701AF6F0001C1EC70
:1061500025F0070EEA6E0F0EE96E36EC23F0050E01
:1061600008012A6F000103EC13F0070E0701B26F5C
:10617000730EB16F060EB46F5B0EB36F0001FBECD4
:1061800024F047EF3CF0070EEA6E8E0EE96EF2CF78
:10619000AFF7F29E070E016EF76A000E5FEC0AF091
:1061A0000A000900F5CFEEFF012EFBD70701AFBFB4
:1061B000F28E070EB26F0F0EB16F070EB46F8E0E18
:1061C000B36FB66B060EB56F000161EC21F00152A2
:1061D0000CE10701B96BB86BB76BF20EB66FBA6B17
:1061E0000001F6EC13F047EF3CF0070EEA6E8E0E5E
:1061F000E96EF2CFAFF7F29E090E016EF76A000E5C
:1062000070EC0AF00A000900F5CFEEFF012EFBD773
:106210000701AFBFF28E070EB26F0F0EB16F070E00
:10622000B46F8E0EB36FB66B080EB56F000161ECE4
:1062300021F0015259E1070E0701B06F0F0EAF6F49
:106240000001ACEC21F00701B06B1A0EAF6F070E26
:10625000B26F0F0EB16F000193EC24F0EA6AED0EFD
:10626000E96E070EE26E0F0EE16EE752E6CFEEFF2B
:10627000FCE1070E0701B06F0F0EAF6F00013AECA3
:1062800015F002C023F101C022F1010E08012A6FAE
:10629000000103EC13F0060E0401106F5B0E0F6F8C
:1062A000780EF66E210EF76E0A0E0701AF6F000131
:1062B000C1EC25F0070EEA6E0F0EE96E36EC23F006
:1062C000050E08012A6F000103EC13F0070E070109
:1062D000B26F730EB16F060EB46F5B0EB36F000139
:1062E000FBEC24F047EF3CF0070EEA6E8E0EE96EF1
:1062F000F2CFAFF7F29E090E016EF76A000E82EC44
:106300000AF00A000900F5CFEEFF012EFBD70701C6
:10631000AFBFF28E070EB26F0F0EB16F070EB46FE4
:106320008E0EB36FB66B080EB56F000161EC21F0F5
:106330000152D8A476D0070E0701B06F0F0EAF6FD1
:106340000001ACEC21F00701B06B160EAF6F070E29
:10635000B26F0F0EB16F000193EC24F0EA6AE90E00
:10636000E96E070EE26E0F0EE16EE752E6CFEEFF2A
:10637000FCE1070E0701B06F0F0EAF6F00013AECA2
:1063800015F002C025F101C024F10101255303E1FC
:106390002451090805E2255303E124511E0803E2B4
:1063A000256B0F0E246F25C1B0F724C1AFF707018D
:1063B000B26B3C0EB16F000134EC16F002C027F155
:1063C00001C026F1010E08012A6F000103EC13F051
:1063D000060E0401106F5B0E0F6F860EF66E210E17
:1063E000F76E0A0E0701AF6F0001C1EC25F0070E32
:1063F000EA6E0F0EE96E36EC23F0050E08012A6FE7
:10640000000103EC13F0070E0701B26F730EB16FBA
:10641000060EB46F5B0EB36F0001FBEC24F047EF88
:106420003CF0070EEA6E8E0EE96EF2CFAFF7F29EE9
:10643000090E016EF76A000E94EC0AF00A000900DA
:10644000F5CFEEFF012EFBD70701AFBFF28E070E8F
:10645000B26F0F0EB16F070EB46F8E0EB36FB66BC7
:10646000080EB56F000161EC21F0015259E1070EF1
:106470000701B06F0F0EAF6F0001ACEC21F0070108
:10648000B06BA40EAF6F070EB26F0F0EB16F0001AD
:1064900093EC24F0EA6AF10EE96E070EE26E0F0E3D
:1064A000E16EE752E6CFEEFFFCE1070E0701B06FA9
:1064B0000F0EAF6F00013AEC15F002C009F401C0F5
:1064C00008F4010E08012A6F000103EC13F0060E18
:1064D0000401106F5B0E0F6F940EF66E210EF76EB7
:1064E0000D0E0701AF6F0001C1EC25F0070EEA6E3B
:1064F0000F0EE96E36EC23F0050E08012A6F00013D
:1065000003EC13F0070E0701B26F730EB16F060EA6
:10651000B46F5B0EB36F0001FBEC24F047EF3CF06F
:10652000070EEA6E8E0EE96EF2CFAFF7F29E070EFF
:10653000016EF76A000EA6EC0AF00A000900F5CF1A
:10654000EEFF012EFBD70701AFBFF28E070EB26F31
:106550000F0EB16F070EB46F8E0EB36FB66B060ED3
:10656000B56F000161EC21F0015238E10701B96B10
:10657000B86BB76BB66BBA690001F6EC13F0050E99
:1065800008012A6F000103EC13F0070EEA6E8E0E6D
:10659000E96EF2CFAFF7F29E0D0E016EF76A000EB4
:1065A000B7EC0AF00A000900F5CFEEFF012EFBD789
:1065B0000701AFBFF28E070EB26F730EB16F070EF9
:1065C000B46F8E0EB36F0001FBEC24F0050E0801D2
:1065D0002A6F000103EC13F047EF3CF0070EEA6E60
:1065E0008E0EE96EF2CFAFF7F29E0A0E016EF76AD9
:1065F000000ECBEC0AF00A000900F5CFEEFF012EE9
:10660000FBD70701AFBFF28E070EB26F0F0EB16F4F
:10661000070EB46F8E0EB36FB66B090EB56F000127
:1066200061EC21F0015259E1070E0701B06F0F0E26
:10663000AF6F0001ACEC21F00701B06B120EAF6F31
:10664000070EB26F0F0EB16F000193EC24F0EA6AEF
:10665000E50EE96E070EE26E0F0EE16EE752E6CF31
:10666000EEFFFCE1070E0701B06F0F0EAF6F0001E8
:106670003AEC15F002C01FF101C01EF1010E080135
:106680002A6F000103EC13F0060E0401106F5B0E7D
:106690000F6FA40EF66E210EF76E0A0E0701AF6F94
:1066A0000001C1EC25F0070EEA6E0F0EE96E36EC24
:1066B00023F0050E08012A6F000103EC13F0070E0A
:1066C0000701B26F730EB16F060EB46F5B0EB36F3E
:1066D0000001FBEC24F047EF3CF0070EEA6E8E0E53
:1066E000E96EF2CFAFF7F29E080E016EF76A000E68
:1066F000DDEC0AF00A000900F5CFEEFF012EFBD712
:106700000701AFBFF28E070EB26F0F0EB16F070E0B
:10671000B46F8E0EB36FB66B070EB56F000161ECF0
:1067200021F00152D8A48AD007011653D8A402D070
:10673000000184D01953D8A402D000017FD01A538D
:10674000D8B402D000017AD016C7BEF0B96BB86BCE
:10675000B76BA00EB66F16C7BAF70001F6EC13F0D0
:10676000050E08012A6F000103EC13F017C7BFF0F4
:106770000701B96BB86BB76BA00EB66F17C7BAF746
:106780000001F6EC13F0050E08012A6F000103EC7E
:1067900013F018C7C0F00701B96BB86BB76BA00E48
:1067A000B66F18C7BAF70001F6EC13F0050E080132
:1067B0002A6F000103EC13F019C7C1F00701B96B90
:1067C000B86BB76BA00EB66F19C7BAF70001F6EC3D
:1067D00013F0C26B050E08012A6F000103EC13F0E1
:1067E000060E0401106F5B0E0F6FB20EF66E210ED7
:1067F000F76E0F0E0701AF6F0001C1EC25F0EA6ADA
:10680000BE0EE96E36EC23F0050E08012A6F00017A
:1068100003EC13F0070E0701B26F730EB16F060E93
:10682000B46F5B0EB36F0001FBEC24F0050E0801A2
:106830002A6F000103EC13F047EF3CF04C0E070108
:106840008E6F6F0E8F6F630E906F916B070EB26F2E
:106850000F0EB16F070EB46F8E0EB36FB66B030ED3
:10686000B56F000161EC21F0015257E1060E040101
:10687000106F5B0E0F6FC40EF66E210EF76E1E0EBC
:106880000701AF6F0001C1EC25F040C1BCF725EC5A
:1068900023F0890EE96E99C1B2F798C1B1F797C19B
:1068A000B0F796C1AFF7060E0701B36F0001B4EC65
:1068B00026F02C0E0701BC6F000125EC23F056C119
:1068C000BCF725EC23F0890EE96E9DC1B2F79CC19F
:1068D000B1F79BC1B0F79AC1AFF7060E0701B36FCE
:1068E0000001B4EC26F0050E08012A6F000103EC4C
:1068F00013F0070E0701B26F730EB16F060EB46F7F
:106900005B0EB36F0001FBEC24F0050E08012A6F4B
:10691000000103EC13F047EF3CF0070EEA6E8E0E19
:10692000E96EF2CFAFF7F29E090E016EF76A000E24
:10693000EEEC0AF00A000900F5CFEEFF012EFBD7BE
:106940000701AFBFF28E070EB26F0F0EB16F070EC9
:10695000B46F8E0EB36FB66B080EB56F000161ECAD
:1069600021F0015230E10301F651350815E1590ECD
:1069700007018E6F650E8F6F730E906F916B070E10
:10698000B26F730EB16F070EB46F8E0EB36F00014E
:10699000FBEC24F015D00301F651310812E14E0E44
:1069A00007018E6F6F0E8F6F906B070EB26F730EB5
:1069B000B16F070EB46F8E0EB36F0001FBEC24F0C5
:1069C000030149EF3CF0520E07018E6F730E8F6F7B
:1069D000740E906F916B070EB26F0F0EB16F070EB2
:1069E000B46F8E0EB36FB66B030EB56F000161EC22
:1069F00021F0015242E1070EEA6E8E0EE96EF2CFEF
:106A0000AFF7F29E0A0E016EF76A000E00EC0BF073
:106A10000A000900F5CFEEFF012EFBD70701AFBF3B
:106A2000F28E070EB26F730EB16F070EB46F8E0E3B
:106A3000B36F0001FBEC24F0040E0701AF6FFA0EF8
:106A400008012A6F000103EC13F00701AF2FF7D7FD
:106A5000010EAF6F00019EEC25F0040E0701AF6F31
:106A6000FA0E08012A6F000103EC13F00701AF2FA3
:106A7000F7D7FF0047EF3CF00001070EEA6E8E0EDD
:106A8000E96EF2CFAFF7F29E070E016EF76A000EC5
:106A900012EC0BF00A000900F5CFEEFF012EFBD738
:106AA0000701AFBFF28E070EB26F0F0EB16F070E68
