:040FD0001AEF6AF0BA
:080FD800046ED8CF05F0E0CF54
:100FE00006F00001E9CF0CF0EACF07F0E1CF08F0FE
:100FF000E2CF09F0D9CF0AF0DACF0BF0F3CF12F03D
:10100000F4CF13F0FACF14F000C00EF001C00FF0CF
:1010100002C010F003C011F09DA212EF08F09EB2C2
:101020002CEF0DF00EC000F00FC001F010C002F068
:1010300011C003F00CC0E9FF07C0EAFF078E08C02B
:10104000E1FF09C0E2FF0AC0D9FF0BC0DAFF12C0FE
:10105000F3FF13C0F4FF14C0FAFF045006C0E0FF12
:1010600005C0D8FF1000F2CF0DF0F29EF76A800F96
:10107000F66E100EF7220900F5500DBEF28E12002A
:1010800068656C6C6F20776F726C6400F2CF0DF046
:10109000F29EF76AA60FF66E100EF7220900F550C1
:1010A0000DBEF28E12004F536F666600F2CF0DF048
:1010B000F29EF76AC60FF66E100EF7220900F55081
:1010C0000DBEF28E1200244750524D430000F2CF65
:1010D0000DF0F29EF76AE80FF66E100EF722090087
:1010E000F5500DBEF28E12002447504747410000D4
:1010F000F2CF0DF0F29EF76A0A0FF66E110EF7228C
:101100000900F5500DBEF28E120024474E524D4399
:101110000000F2CF0DF0F29EF76A2C0FF66E110E62
:10112000F7220900F5500DBEF28E120024474E47FB
:1011300047410000F2CF0DF0F29EF76A4E0FF66EB7
:10114000110EF7220900F5500DBEF28E1200566105
:101150006C696400F2CF0DF0F29EF76A6E0FF66EC6
:10116000110EF7220900F5500DBEF28E12005468E0
:10117000656674206F7220546F77696E67206163B3
:101180007469766974792064657465637465640054
:10119000F2CF0DF0F29EF76AAA0FF66E110EF7224B
:1011A0000900F5500DBEF28E12006770732073694E
:1011B000676E616C206C6F737400F2CF0DF0F29E5D
:1011C000F76AD40FF66E110EF7220900F5500DBE26
:1011D000F28E1200496E76616C696400F2CF0DF0F8
:1011E000F29EF76AF60FF66E110EF7220900F5501F
:1011F0000DBEF28E12000D0A434F4E4E4543540D64
:101200000A00F2CF0DF0F29EF76A1C0FF66E120E76
:10121000F7220900F5500DBEF28E12000D0A4F4B59
:101220000D0A0D0A2B51485454504745543A20306A
:101230002C3230302C00F2CF0DF0F29EF76A500FB6
:10124000F66E120EF7220900F5500DBEF28E120056
:101250000D0A4F4B0D0A0D0A2B514854545052455C
:10126000414446494C453A20300D0A00F2CF0DF07A
:10127000F29EF76A860FF66E120EF7220900F550FD
:101280000DBEF28E12006F74612066696C65206479
:101290006F776E6C6F6164656400F2CF0DF0F29E43
:1012A000F76AB40FF66E120EF7220900F5500DBE64
:1012B000F28E12004F536F6E0000F2CF0DF0F29ECF
:1012C000F76AD40FF66E120EF7220900F5500DBE24
:1012D000F28E120049444C450000F2CF0DF0F29E10
:1012E000F76AF40FF66E120EF7220900F5500DBEE4
:1012F000F28E120052554E4E494E4700F2CF0DF07D
:10130000F29EF76A160FF66E130EF7220900F550DB
:101310000DBEF28E12005041524B45440000F2CFF8
:101320000DF0F29EF76A380FF66E130EF7220900E1
:10133000F5500DBEF28E1200496E20526F6D696E2F
:101340006700F2CF0DF0F29EF76A5C0FF66E130E97
:10135000F7220900F5500DBEF28E1200486F6D6540
:10136000204E6574776F726B0000F2CF0DF0F29E25
:10137000F76A840FF66E130EF7220900F5500DBEC2
:10138000F28E120067707320676F742066697800B0
:10139000F2CF0DF0F29EF76AAA0FF66E130EF72247
:1013A0000900F5500DBEF28E1200736572766572FB
:1013B00020636F6E6E65637465640000F2CF0DF09C
:1013C000F29EF76AD60FF66E130EF7220900F5505B
:1013D0000DBEF28E1200222B3931373031323538C2
:1013E000363539362200F2CF0DF0F29EF76A000F43
:1013F000F66E140EF7220900F5500DBEF28E1200A3
:10140000736574757020636F6D706C657465000032
:10141000F2CF0DF0F29EF76A2A0FF66E140EF72245
:101420000900F5500DBEF28E12007365727665727A
:10143000322073657400F2CF0DF0F29EF76A500F00
:10144000F66E140EF7220900F5500DBEF28E120052
:1014500073657461706E3A00F2CF0DF0F29EF76A18
:10146000720FF66E140EF7220900F5500DBEF28EC3
:10147000120073657469643A0000F2CF0DF0F29EB9
:10148000F76A940FF66E140EF7220900F5500DBEA0
:10149000F28E12007365746970313A00F2CF0DF06C
:1014A000F29EF76AB60FF66E140EF7220900F55099
:1014B0000DBEF28E12007365746970323A00F2CF7D
:1014C0000DF0F29EF76AD80FF66E140EF72209009F
:1014D000F5500DBEF28E1200636C7269703200001E
:1014E000F2CF0DF0F29EF76AFA0FF66E140EF722A5
:1014F0000900F5500DBEF28E1200536574696E74CA
:101500006E3A0000F2CF0DF0F29EF76A1E0FF66EF3
:10151000150EF7220900F5500DBEF28E120053652C
:1015200074696E74703A0000F2CF0DF0F29EF76AA3
:10153000420FF66E150EF7220900F5500DBEF28E21
:10154000120049646C65696E743A0000F2CF0DF0C8
:10155000F29EF76A660FF66E150EF7220900F55037
:101560000DBEF28E1200556E617574680000F2CFE8
:101570000DF0F29EF76A880FF66E150EF72209003D
:10158000F5500DBEF28E1200556E6175746865726D
:10159000697A65640000F2CF0DF0F29EF76AB00F31
:1015A000F66E150EF7220900F5500DBEF28E1200F0
:1015B00053657473706565643A00F2CF0DF0F29E66
:1015C000F76AD40FF66E150EF7220900F5500DBE1E
:1015D000F28E12005365747077643A00F2CF0DF00A
:1015E000F29EF76AF60FF66E150EF7220900F55017
:1015F0000DBEF28E1200526F616D696E673F000082
:10160000F2CF0DF0F29EF76A1A0FF66E160EF72261
:101610000900F5500DBEF28E12005265626F6F74B4
:10162000696E6700F2CF0DF0F29EF76A3E0FF66E1C
:10163000160EF7220900F5500DBEF28E120053650A
:1016400074545A3A0000F2CF0DF0F29EF76A600F20
:10165000F66E160EF7220900F5500DBEF28E12003E
:101660004175746F20545A2073657400F2CF0DF0E9
:10167000F29EF76A860FF66E160EF7220900F550F5
:101680000DBEF28E1200545A205365740000F2CF42
:101690000DF0F29EF76AA80FF66E160EF7220900FB
:1016A000F5500DBEF28E1200696E76616C69642091
:1016B000545A0000F2CF0DF0F29EF76ACE0FF66E8C
:1016C000160EF7220900F5500DBEF28E1200486F7B
:1016D0007420737461727400F2CF0DF0F29EF76A99
:1016E000F20FF66E160EF7220900F5500DBEF28EBF
:1016F00012005761726D2073746172740000F2CF32
:101700000DF0F29EF76A180FF66E170EF722090019
:10171000F5500DBEF28E1200436F6C64207374613D
:1017200072740000F2CF0DF0F29EF76A3E0FF66E73
:10173000170EF7220900F5500DBEF28E1200526C02
:10174000796F6E00F2CF0DF0F29EF76A5E0FF66EC3
:10175000170EF7220900F5500DBEF28E12005265E9
:101760006C6179205475726E6564204F4E00F2CF23
:101770000DF0F29EF76A880FF66E170EF722090039
:10178000F5500DBEF28E1200526C796F6666000045
:10179000F2CF0DF0F29EF76AAA0FF66E170EF7223F
:1017A0000900F5500DBEF28E120052656C61792071
:1017B0005475726E6564204F46460000F2CF0DF0FE
:1017C000F29EF76AD60FF66E170EF7220900F55053
:1017D0000DBEF28E1200454550524F4D20455241EC
:1017E00053454400F2CF0DF0F29EF76AFE0FF66EFD
:1017F000170EF7220900F5500DBEF28E120041437C
:101800004C2073657400F2CF0DF0F29EF76A200F42
:10181000F66E180EF7220900F5500DBEF28E12007A
:1018200044434C2073657400F2CF0DF0F29EF76ACA
:10183000420FF66E180EF7220900F5500DBEF28E1B
:101840001200526573746F726500F2CF0DF0F29E54
:10185000F76A640FF66E180EF7220900F5500DBEF8
:10186000F28E1200526573746F726520746F20449B
:10187000656661756C742100F2CF0DF0F29EF76A17
:10188000920FF66E180EF7220900F5500DBEF28E7B
:101890001200417574686572697A65640000F2CF60
:1018A0000DF0F29EF76AB80FF66E180EF7220900D7
:1018B000F5500DBEF28E12000D0A2B514D544F50B3
:1018C000454E3A20302C3000F2CF0DF0F29EF76AF0
:1018D000E20FF66E180EF7220900F5500DBEF28EDB
:1018E00012000D0A2B514D544F50454E3A20312CC9
:1018F0003000F2CF0DF0F29EF76A0C0FF66E190E63
:10190000F7220900F5500DBEF28E12000D0A2B5180
:101910004D54434F4E4E3A20302C302C3000F2CFF5
:101920000DF0F29EF76A380FF66E190EF7220900D5
:10193000F5500DBEF28E12000D0A2B514D54434F3F
:101940004E4E3A20312C302C3000F2CF0DF0F29E6A
:10195000F76A640FF66E190EF7220900F5500DBEF6
:10196000F28E12000D0A2B514D54444953433A0054
:10197000F2CF0DF0F29EF76A8A0FF66E190EF7227B
:101980000900F5500DBEF28E12000D0A2B514D5478
:10199000434C4F53453A0000F2CF0DF0F29EF76AE8
:1019A000B20FF66E190EF7220900F5500DBEF28E39
:1019B00012000D0A2B514D5450554245583A2030D3
:1019C0002C302C300000F2CF0DF0F29EF76AE00FC1
:1019D000F66E190EF7220900F5500DBEF28E1200B8
:1019E0000D0A2B514D5450554245583A20312C3058
:1019F0002C300000F2CF0DF0F29EF76A0E0FF66E5B
:101A00001A0EF7220900F5500DBEF28E120049475A
:101A10006F6E0000F2CF0DF0F29EF76A2E0FF66E99
:101A20001A0EF7220900F5500DBEF28E120049473A
:101A30006F666600F2CF0DF0F29EF76A4E0FF66EFB
:101A40001A0EF7220900F5500DBEF28E12004E4F0D
:101A500053455256494345000301DC2BDD2BDFABD8
:101A600029D0E8B127D0E92BD8B4EA2BEA5308E112
:101A7000E951020805E392908990929289921AD0D6
:101A8000EA5303E1E951100808E2EA5306E1E9519B
:101A9000130803E3929089800DD0EA5100080AE20E
:101AA000FF0A03E1E9516E0805E2EA6BE96B9290E7
:101AB0008990E881DFAD2AD0DFBF28D0E92BD8B4E8
:101AC000EA2BEA5303E1E951100808E2EA5306E180
:101AD000E951130803E39290898018D0EA5303E197
:101AE000E951EC0808E2EA5306E1E951EF0803E3A3
:101AF000929089900BD0EA51030808E2FF0A03E1B3
:101B0000E9517D0803E2EA6BE96BDF8FDC511308D2
:101B100047E2DE2BDC6BE1530EE0E107E151050803
:101B200005E0E151030802E0E12D03D094928B928D
:101B300002D094928B82D5A11ED00101B2B902D0FD
:101B4000030119D00301D62D09D0D57FD5AF03D01D
:101B500094928B8202D094928B920CD0D651020830
:101B600005E1E15303E194928B8204D0D65302E164
:101B700094928B9215D00101B2B913D00301D5B163
:101B800002D001010ED0E051010803E394928B8250
:101B900002D094928B92E02BE051030801E2E06BBB
:101BA00001010301DD51310814E2DD6BD5B10DD027
:101BB000D57DD5AD05D094928B8294948B8404D03E
:101BC00094928B9294948B9404D00101B2A900D08A
:101BD0000301DE510408D8B0E5D0DE6B0101B2A9E3
:101BE000D6D00301D8530DE1D92BD8B4DA2BDA5172
:101BF000060807E2FF0A03E1D951090802E2DA6B9D
:101C0000D96BBE53D8A472D0DF9501019CB106D028
:101C10009CB304D09CB702D09CA50BD00301D85331
:101C2000D8B402D0010105D0010ED86FDA6BD96BA0
:101C300001010001F9531DE1F85101081AE3030104
:101C4000D0BF02D0000115D0DFA302D0000111D017
:101C5000E22BD8B4E32BE35303E1E251780808E226
:101C6000E36BE26BDF8301019C89010E0301D86FF6
:101C700010D00301DFA30DD00001F95306E1F851A4
:101C80000508D8A002D0030104D00301E36BE26B86
:101C9000DF93DFB31CD00001FF510301DA5D08E3DD
:101CA00005E10001FE510301D95D02E3DFA907D080
:101CB000DFA90CD0DA5303E1D9513B0807E2DA6B14
:101CC000D96B01019C89010E0301D86F0ED0E5513B
:101CD000DA5D0BE303E1E451D95D07E3DA6BD96B1D
:101CE00001019C89010E0301D86F47D0BE2D45D05C
:101CF000E36BE26BD5A905D0D599010ED86FDA6BED
:101D0000D96BDFB51AD0E62BD8B4E72B090ED880F3
:101D100001010255006E070E0355036E00C001F06D
:101D200003500301E75D09E303E10150E65D05E3CC
:101D3000E76BE66BDA6BD96BDF85D5A70AD0DA5390
:101D400003E1D9511D0805E2DA6BD96B010ED86F9A
:101D500014D0010103510301DA5D0FE305E1010134
:101D600002510301D95D09E3DFA507D0DA6BD96B16
:101D700001019C89010E0301D86FD85304E1BE53C1
:101D800002E0D5A703D0D5A301D0DF87010103016D
:101D9000DFA103D0D5B301D0DB2BDB511D0802E25C
:101DA000DB6BD58B9E92000112EF08F02450414965
:101DB000523836342C302C302C393630302A3133EE
:101DC0000D0A000024504D544B3335332C312C3147
:101DD0002C302C302C302A32420D0A0024504D5425
:101DE0004B3238362C312A32330D0A0024504D54F0
:101DF0004B3232302C3230302A32430D0A0024501C
:101E00004D544B3331332C312A32450D0A002450C6
:101E10004D544B3338362C302A32330D0A002450BF
:101E20004D544B3330312C322A32450D0A00415487
:101E30002B43545A553D310D0A00706F7765726916
:101E40006E675F646F776E210A0041542B514854CE
:101E500054504346473D22636F6E746578746964DD
:101E6000222C310D0A0041542B5148545450434602
:101E7000473D22726573706F6E7365686561646556
:101E800072222C310D0A000041542B5148545450F9
:101E900055524C3D34332C313030300D0A006874CB
:101EA00074703A2F2F34332E3230352E35382E3190
:101EB00033313A383138322F6669726D7761726525
:101EC0002F6D61696E2E6865780D0A0041542B51A3
:101ED000485454504745543D31303030300D0A009D
:101EE00041542B51485454505245414446494C4565
:101EF0003D225546533A6D61696E322E74787422D4
:101F00002C38300D0A0041542B514854545052453E
:101F1000414446494C453D225546533A6D61696EF0
:101F2000312E747874222C38300D0A00696E697471
:101F300020706F776572696E675F646F776E210AD4
:101F4000000049443A2025732C20677073206E6F7F
:101F5000742066697865640041542B435245473FBD
:101F60000D0A000041542B5149435347503D312C39
:101F7000312C2261697274656C677072732E636FA5
:101F80006D222C22222C22222C310D0A00004154D9
:101F90002B51494143543D310D0A000041542B510E
:101FA0004944454143543D310D0A000041542B51F1
:101FB0004D544F50454E3D302C2231332E31323767
:101FC0002E3133322E313336222C313838330D0A4C
:101FD000000041542B514D54434F4E4E3D302C2266
:101FE000626567696E6F77313233222C2254222C5E
:101FF000227474220D0A000041542B514D5444495F
:1020000053433D300D0A000041542B514D54434C75
:102010004F53453D300D0A0041542B514D545055FE
:102020004245583D302C302C302C302C2254222C60
:1020300025640D0A000041542B434D47463D310DA8
:102040000A0041542B435343533D2247534D220D25
:102050000A0041542B434D47533D000041542B434C
:102060004D47523D25630D0A000061706E20736577
:10207000743A257300006964207365743A2573000F
:1020800069702564207365743A257300496E742065
:102090006E207365743A25730000496E74207020B9
:1020A0007365743A2573000049646C6520696E7429
:1020B000207365743A2573007370656564207365D9
:1020C000743A25730000505744206368616E676559
:1020D0006420746F3A257300687474703A2F2F6D02
:1020E0006170732E676F6F676C652E636F6D2F6DF8
:1020F0006170733F713D256325322E36662C256352
:1021000025322E36660024504D544B3130312A335F
:10211000320D0A0024504D544B3130322A33310DE8
:102120000A0024504D544B3130332A33300D0A000D
:10213000534F53206E756D6265722069732073650D
:102140007420746F202B2573000041542B434D479E
:10215000443D25630D0A000041542B434D47463D45
:10216000310D0A0041542B435343533D2247534DF5
:10217000220D0A0041542B434D474C0D0A00415497
:102180002B514D544F50454E3D0041542B514D5411
:10219000434F4E4E3D00222C2200222C2200222CA6
:1021A0002200220D0A0041542B514D5444495343FF
:1021B0003D0041542B514D544F50454E3D0041542C
:1021C0002B514D54434F4E4E3D00222C2200222CC9
:1021D0002200220D0A0041542B514D5444495343CF
:1021E0003D0041542B514D54434C4F53453D00004D
:1021F00041542B514D5450554245583D00002564E3
:102200002C302C302C302C22000041540D0A0000C0
:10221000415445300D0A000041542B4950523D397C
:102220003630300D0A00415426570D0A0000415443
:102230000D0A000041540D0A000041544530265754
:102240000D0A000041542B4950523D393630300DB3
:102250000A0041542B434D45453D320D0A0041547F
:102260002B434D47463D310D0A00415426570D0A78
:10227000000041542B434D47443D312C340D0A009E
:1022800041542B4350494E3F0D0A000041542B51FD
:1022900049435347503D312C312C2200222C22221D
:1022A0002C22222C310D0A0041542B514941435418
:1022B0003D310D0A000041542B4347534E3D310D33
:1022C0000A00534F5320687474703A2F2F6D617059
:1022D000732E676F6F676C652E636F6D2F6D617006
:1022E000733F713D256325322E36662C25632532DA
:1022F0002E366600485F53544152543A256C640AA6
:102300000000485F454E443A256C640A00007B2279
:102310006465766963654944223A20222573222C3C
:1023200022494D4549223A2025732C2274696D6556
:102330007374616D70223A2022002530346C642D54
:10234000253032752D2530327520253032753A25ED
:102350003032753A25303275222C22646174615610
:10236000616C6964697479223A202256616C6964EF
:10237000222C22737461747573223A20224E2564D4
:10238000222C226C61746974756465223A202200E3
:10239000253031312E3766222C226C6F6E676974BE
:1023A000756465223A2022253031322E3766222C80
:1023B000227370656564223A20222530336C6422D2
:1023C0002C22636F75727365223A20222530336C9C
:1023D00064222C2269676E6974696F6E223A20222A
:1023E000000049476F66660049476F6E0000222C67
:1023F0002276656869636C65537461747573223AFB
:10240000202200005041524B4544000052554E4E90
:10241000494E470049444C450000222C2261646427
:102420006974696F6E616C44617461223A2022257F
:1024300073222C2274696D65496E74657276616CC5
:1024400073223A202225732C25732C2530334C64BB
:10245000222C22616E676C65496E74657276616CC0
:10246000223A20222530336C64222C226469737452
:10247000616E6365496E74657276616C223A2022E2
:102480002530336C64222C2267736D537472656E31
:10249000677468223A202225303364222C22736527
:1024A0007175656E63654E756D626572223A2022A4
:1024B00000000D0A427265616B204B3D256C642063
:1024C000433D25630D0A000041540D0A00004154AC
:1024D0000D0A000041542B4350494E3F0D0A0000A5
:1024E0000D0A5055424C495348204641494C0D0A6B
:1024F000000041540D0A000041542B43545A553DED
:10250000310D0A0041542B43434C4B3F0D0A000050
:1025100041542B514353510D0A00070EEA6EF80E39
:10252000E96EEF5011E0050E016EBF0E006E040063
:10253000002EFDD7012EF9D72E0E006E002EFED7ED
:1025400000000400EF2EEFD7120094869488DEEF8F
:102550006AF0928680B622D00301BE2D05D0DF83BB
:10256000010ED86FDA6BD96BBE6BEA6AD80EE96ED2
:10257000F2CFE4F4F29E000E0001FAEC0CF00A0037
:102580000900F550EE6E0009FBE10401E4BFF28E94
:102590000301D5A701D0D5971BD000010301BE537D
:1025A00001E1BC87010EBE6FEA6AD80EE96EF2CF78
:1025B000E4F4F29E000E00010AEC0DF00A0009009E
:1025C000F550EE6E0009FBE10401E4BFF28E030159
:1025D00000011200938281A205D0300E0301BD6F6D
:1025E00004D00001310E0301BD6F00011200030190
:1025F000BF5319E1BE5317E1929A898AEA6AD10E54
:10260000E96EF2CFE4F4F29E000E000192EC0BF0C2
:102610000A000900F550EE6E0009FBE10401E4BF79
:10262000F28E1CD00301BF3D17D0929A899AEA6AB4
:10263000D10EE96EF2CFE4F4F29E000E0001B7EC89
:102640000BF00A000900F550EE6E0009FBE10401F1
:10265000E4BFF28E03D00301BF6904010001120040
:10266000080E016E040E006E002EFED78B96949617
:10267000040E006E002EFED7070190378B98D8B05D
:102680009488D8A09498948682A6FED7012E01D073
:1026900002D00001E7D7040E006E002EFED78B9605
:1026A000949600009488040E006E002EFED7040E4F
:1026B000006E002EFED7948682A6FED7016A040E15
:1026C000006E002EFED782B801808B9694968B9870
:1026D000949800011200080E0701846F00C085F76E
:1026E0009488040E006E002EFED7948682A6FED734
:1026F00082B8D88082A8D8900136040E006E002ED1
:10270000FED794968B96842FEBD79488040E006E98
:10271000002EFED78B988551D8A4949800009486FB
:1027200082A6FED7040E006E002EFED78B969496DE
:10273000040E006E002EFED78B9894980001F0EFE7
:1027400013F00701805303E17F51000803E2A80E54
:10275000826F02D0A00E826F9488040E006E002E4D
:10276000FED79486040E006E002EFED782A6FED7FA
:102770008B989498040E006E002EFED78B9694963C
:1027800082C790F700016CDF7EC784F77FC785F7AB
:1027900080C786F70701876B7EC790F7000160DF6F
:1027A0007DC790F75DDF9488040E006E002EFED783
:1027B0009486040E006E002EFED782A6FED78B985C
:1027C0009498040E006E002EFED78B969496010E00
:1027D00007018225836F906F000142DF006A7BD77B
:1027E00001C081F794980000948682A6FED7040E5B
:1027F000006E002EFED700D000009488040E006EFC
:10280000002EFED7070181C701F000011200090068
:10281000F5520DE0F6CF7DF7F7CF7EF7F5509EA885
:10282000FED7AD6E7DC7F6FF7EC7F7FFF0D712006B
:102830000701875303E18651000803E2A80E8A6F5F
:1028400002D0A00E8A6F9488040E006E002EFED770
:102850009486040E006E002EFED78B989498040E7A
:10286000006E002EFED78B9694968AC790F70001D3
:10287000F7DE85C78CF786C78DF787C78EF7070108
:102880008F6B85C790F70001EBDE84C790F7E8DE19
:1028900088C790F7E5DE94980000948682A6FED75C
:1028A000040E006E002EFED700D000009488040EA7
:1028B000006E002EFED79488040E006E002EFED708
:1028C0009486040E006E002EFED78B989498040E0A
:1028D000006E002EFED78B9694968AC790F7C0DEC6
:1028E00001500701899101B0898189A11ED0948886
:1028F000040E006E002EFED79486040E006E002E8D
:10290000FED782A6FED78B989498040E006E002EF8
:10291000FED78B9694968AC790F70001A1DE0150EE
:102920000701899101B08981E0D7000112000701F8
:1029300086518819800B8A6F86AF05D0851F861F48
:10294000852BD8B4862B88AF05D0871F881F872B8F
:10295000D8B4882B85518703F3CF01F0F4CF00F072
:102960008803F350002686518703F3500020026E3F
:102970008AAF05D0011E021E012AD8B4022A000126
:1029800035EF15F00701836B816B0A0E826F806B48
:102990007F6B7D517E1104E1000E016E026EEAD064
:1029A0008351832B036A7D25E96E7E510320EA6EF5
:1029B000EFCF84F784512D080DE1010E816F835113
:1029C000832B036A7D25E96E7E510320EA6EEFCFEB
:1029D00084F70DD084512B080AE18351832B036ABD
:1029E0007D25E96E7E510320EA6EEFCF84F7845196
:1029F0002F08D8B0B1D084513908D8A0ADD08451B7
:102A0000300821E1036A83517D25E96E7E51032060
:102A1000EA6EEF5078080AE0036A83517D25E96E7B
:102A20007E510320EA6EEF5058080DE1100E826FC0
:102A3000832B8351832B036A7D25E96E7E5103200E
:102A4000EA6EEFCF84F782510A0823E184512F0800
:102A50001FE2845139081CE3866B0A0E856F80C71C
:102A600088F77FC787F7000162D7300E0701845DC2
:102A700001247F6F000E0220806F8351832B036A35
:102A80007D25E96E7E510320EA6EEFCF84F7DED715
:102A900063D08251100860E18451600806E28451DD
:102AA0007A0803E38451DF0B01D08451846F845191
:102AB0002F0803E28451390806E2845140084CE2B1
:102AC0008451460849E384512F081AE28451390899
:102AD00017E37F35856F8035866F85378637853775
:102AE000863785378637F00E8517300E845D85254D
:102AF000016E000E8621036E01C07FF7806F16D035
:102B00007F35856F8035866F853786378537863781
:102B100085378637F00E8517410E845D0A0F8525AF
:102B2000016E000E862101C07FF7806F8351832BD9
:102B3000036A7D25E96E7E510320EA6EEFCF84F7AC
:102B40008451600806E284517A0803E38451DF0B64
:102B500001D08451846FABD782510A0807E1812DDF
:102B600005D07F1F801F7F2BD8B4802B7FC701F03B
:102B700080C702F00001120007017D517F03F3CFEF
:102B800001F0F4CF00F08003F35000267E517F0364
:102B9000F3500020026E000112000401FF91FAC4FC
:102BA00001F5F9C400F5FB51F925016E000EFA217B
:102BB000036E015005010151035C5CE303E1015028
:102BC000005D58E20701806B7F6B01C57EF700C591
:102BD0007DF70001B6DD01C0FEF4010E0701F86FBC
:102BE00000019BDC0401FE510D0823E1F9510501B0
:102BF000005D026F0401FA5105010159036F0401E0
:102C0000FC5105010225E96E0401FD510501032176
:102C1000EA6EEF6A010E0701F86F00017EDC040125
:102C2000FF81010E0701F86F000177DC050122D05A
:102C30000401F9510501005D026F0401FA5105011B
:102C40000159036F0401FC5105010225E96E0401DD
:102C5000FD5105010321EA6EFEC4EFFF010E0701DD
:102C6000F86F00015ADC0501002BD8B4012B0401D8
:102C70009AD70501000E0401FFB1010E016E00019B
:102C800012008E0E006E33C501F032C502F0036AE9
:102C900001AE05D0011E021E022A01E1012A0152E5
:102CA00009E102C001F0026A080E005E015202E171
:102CB000006A0ED0D89001BE04D00236013600065C
:102CC000F9D7050133AF02D0000102D0019E000107
:102CD000120043C54AF5050147514A1B4AAF05D0CA
:102CE000D894D89043BFD8802FD043C54AF546C565
:102CF0004BF542514B5F06E04AAF26D0D850010A4F
:102D0000D86E22D047C54BF543514B5F06E04AAF22
:102D10001BD0D850010AD86E17D048C54BF5445186
:102D20004B5F06E04AAF10D0D850010AD86E0CD0E5
:102D300049C54BF545514B5F06E04AAF05D0D85029
:102D4000010AD86E01D0D8900001120007018C5101
:102D5000D8B471D0006E9051D8B46DD0002604E381
:102D6000810E002668E204D07F0E005E64E363E01B
:102D70008DC794F79151941B8D8F918F8F51930331
:102D8000F4CF96F78E519203F4CF03F0F3CF95F77B
:102D90009303F3509627F4509523000E03228F518E
:102DA0009203F3509627F4509523000E026A0322F3
:102DB00002228D519303F3509527F4500322000E05
:102DC00002228D519203F3500326F4500222000E8A
:102DD000016A01228F519103F3509527F450032289
:102DE000000E022201228E519103F3500326F4506B
:102DF0000222000E01228D519103F3500226F4505D
:102E00000122002A01BE05D095370336023601366D
:102E10000006000E95AF0AD0032A022201220150BB
:102E200005E1025003E1035001E1002A94BF018E45
:102E300094AF019E04D0006A016A026A036A00012D
:102E400012000701806B7F6B7E6BF90E7D6F0001B6
:102E500078DC0150A5080AE1010E0701F86F0001B6
:102E60008DEC12F00101B28709D00001010E0701BB
:102E7000F86F00018DEC12F00101B2970701806B31
:102E80007F6B7E6BFE0E7D6F00015BDC015069087D
:102E900009E1010E0701F86F00018DEC12F001014C
:102EA000B28900010701806B7F6B7E6B7D6B000137
:102EB00048DC0150220851E1010E0701F86F0001C2
:102EC0008DEC12F0220EB06F010E0401ED6FED518A
:102ED000100842E30701806B7F6B7E6BEDC47DF7CA
:102EE00000012FDC01C0ECF4010E0701F86F0001B6
:102EF0008DEC12F00401EC51220823E1036AED513C
:102F0000B00FE96E000E0320EA6EECC4EFFF010E75
:102F1000ED25036AB00FE96E000E0320EA6EEF6A3A
:102F2000010E0701F86F00018DEC12F00301BC8364
:102F3000010E0701F86F00018DEC12F004010CD0B6
:102F400009D0036AED51B00FE96E000E0320EA6E5E
:102F5000ECC4EFFFED2BBBD700010701806B7F6B4B
:102F60007E6BAA0E7D6F0001A1EC13F001502208C8
:102F700056E1220E9F6F0401F06B010EEF6FF053CC
:102F80004DE1EF5110084AE3AA0EEF25F96F000E4C
:102F9000F021FA6F0701806B7F6B7E6FF9C47DF7BC
:102FA0000001A1EC13F001C0EEF4040000D0000019
:102FB0000401EE51220826E19F0EEF25E96E000E76
:102FC000F021EA6EEEC4EFFF010EEF25F96F000E5F
:102FD000F021FA6F9F0EF925E96E000EFA21EA6ED4
:102FE000EF6A010E0701F86F00018DEC12F003018A
:102FF000BC85010E0701F86F00018DEC12F0040191
:103000000DD008D09F0EEF25E96E000EF021EA6E7C
:10301000EEC4EFFFEF2BD8B4F02BB1D700010701BE
:10302000806B7F6B7E6B150E7D6F0001A1EC13F042
:1030300001500D085DE10401F26B120EF16FF253C5
:1030400047E1F151150844E30701806B7F6BF2C43F
:103050007EF7F1C47DF70001A1EC13F001C0E4F4A8
:10306000010E0701F86F00018DEC12F00401E4512C
:103070000D0815E1120EF15DF96F000EF259FA6FAD
:10308000C10EF925E96E000EFA21EA6EEF6A010E13
:103090000701F86F00018DEC12F0040119D0120E37
:1030A000F15DF96F000EF259FA6FC10EF925E96E64
:1030B000000EFA21EA6EE4C4EFFF010E0701F86F7B
:1030C00000018DEC12F00401F12BD8B4F22BB7D72C
:1030D00007017E6BC10E7D6F000154DC02C0FBF066
:1030E00001C0FAF0010E0701F86F00018DEC12F03B
:1030F0000701806B7F6B7E6B1D0E7D6F0001A1EC65
:1031000013F001500D085EE10401F46B1A0EF36F29
:10311000F45347E1F3511D0844E30701806B7F6BD3
:10312000F4C47EF7F3C47DF70001A1EC13F001C0F5
:10313000E4F4010E0701F86F00018DEC12F00401B8
:10314000E4510D0815E11A0EF35DF96F000EF45904
:10315000FA6FC90EF925E96E000EFA21EA6EEF6AE0
:10316000010E0701F86F00018DEC12F0040119D077
:103170001A0EF35DF96F000EF459FA6FC90EF925B6
:10318000E96E000EFA21EA6EE4C4EFFF010E0701BA
:10319000F86F00018DEC12F00401F32BD8B4F42B7E
:1031A000B7D707017E6BC90E7D6F0001C2EC14F02A
:1031B00002C0FFF001C0FEF0010E0701F86F000130
:1031C0008DEC12F00701806B7F6B7E6B190E7D6FAB
:1031D0000001A1EC13F001500D08D8A47AD004012D
:1031E000F66B160EF56FF65347E1F551190844E3F7
:1031F0000701806B7F6BF6C47EF7F5C47DF7000195
:10320000A1EC13F001C0E4F4010E0701F86F000116
:103210008DEC12F00401E4510D0815E1160EF55D78
:10322000F96F000EF659FA6FC50EF925E96E000E1A
:10323000FA21EA6EEF6A010E0701F86F00018DECCA
:1032400012F0040119D0160EF55DF96F000EF65953
:10325000FA6FC50EF925E96E000EFA21EA6EE4C494
:10326000EFFF010E0701F86F00018DEC12F0040171
:10327000F52BD8B4F62BB7D707017E6BC50E7D6F43
:103280000001C2EC14F002C001F101C000F1010123
:10329000015303E10051090805E2015303E1005124
:1032A0001E0803E2016B0F0E006F01C17EF700C123
:1032B0007DF70701806B3C0E7F6F00015DDC02C073
:1032C00003F101C002F1010E0701F86F00018DEC5E
:1032D00012F00701806B7F6B7E6BA70E7D6F000184
:1032E000A1EC13F001500D085FE10401F86BA40E8E
:1032F000F76FF85347E1F751A70844E30701806BE4
:103300007F6BF8C47EF7F7C47DF70001A1EC13F0E2
:1033100001C0E4F4010E0701F86F00018DEC12F01A
:103320000401E4510D0815E1A40EF75DF96F000EDC
:10333000F859FA6FCD0EF925E96E000EFA21EA6E02
:10334000EF6A010E0701F86F00018DEC12F0040125
:1033500019D0A40EF75DF96F000EF859FA6FCD0E73
:10336000F925E96E000EFA21EA6EE4C4EFFF010EC2
:103370000701F86F00018DEC12F00401F72BD8B4AF
:10338000F82BB7D707017E6BCD0E7D6F0001C2EC25
:1033900014F002C0E5F301C0E4F3010E0701F86F79
:1033A00000018DEC12F005D00301E56B3C0EE46FDB
:1033B00000010701806B7F6B7E6BF10E7D6F00015A
:1033C000A1EC13F001502A080FE10401FA6B300E52
:1033D000F96F1F0EFB6FFD6B5E0EFC6F0001CDECF5
:1033E00015F00101B28D00010701806B7F6B7E6BD0
:1033F000F20E7D6F0001A1EC13F001502A080FE1DD
:103400000401FA6BD10EF96F1F0EFB6FFD6B7C0E82
:10341000FC6F0001CDEC15F00101B28F0001070136
:10342000806B7F6B7E6BFB0E7D6F0001A1EC13F058
:1034300001502A080FE10401FA6B200EF96F0B0E00
:10344000FB6FFD6B310EFC6F0001CDEC15F003013D
:10345000BC8100010701806B7F6B7E6BFC0E7D6F72
:103460000001A1EC13F001502A080FE10401FA6BEE
:10347000500EF96F1F0EFB6FFD6B400EFC6F0001CD
:10348000CDEC15F00101B28B00010701806B7F6B61
:103490007E6BF40E7D6F0001A1EC13F001C0BFF351
:1034A000050E0701F86F00018DEC12F00701806B2B
:1034B0007F6B7E6BA00E7D6F0001A1EC13F001C04D
:1034C0009AF0050E0701F86F00018DEC12F007016C
:1034D000806B7F6B7E6BA10E7D6F0001A1EC13F002
:1034E00001C09BF0050E0701F86F00018DEC12F092
:1034F0000701806B7F6B7E6BA20E7D6F0001A1ECDC
:1035000013F001C09CF0050E0701F86F00018DEC6F
:1035100012F00701806B7F6B7E6BA30E7D6F000145
:10352000A1EC13F001C09DF0050E0701F86F00013A
:103530008DEC12F00701806B7F6B010E7E6F7D6B4F
:103540000001A1EC13F0012C93D00701806B7F6B7D
:103550007E6BF50E7D6F0001A1EC13F00301C36BD0
:10356000C26BC16B01C0C0F3C2C3C3F3C1C3C2F31A
:10357000C0C3C1F3C06B010E0701F86F00018DECF1
:1035800012F00701806B7F6B7E6BF60E7D6F000182
:10359000A1EC13F001500301C013010E0701F86FF5
:1035A00000018DEC12F00701806B7F6B010E7E6FC6
:1035B0007D6F0001A1EC13F00301C76BC66BC56BF7
:1035C00001C0C4F3C6C3C7F3C5C3C6F3C4C3C5F3C0
:1035D000C46B010E0701F86F00018DEC12F00701BA
:1035E000806B7F6B010E7E6F020E7D6F0001A1EC80
:1035F00013F001500301C413010E0701F86F00011D
:103600008DEC12F00301C75320E1C6531EE1C551F2
:1036100001081BE303E1C451350817E3C76BC66B10
:10362000010EC56F360EC46F0701876B866B010EE6
:10363000856F846B886B000118EC14F0010E070194
:10364000F86F00018DEC12F00301C3530FE1C25378
:103650000DE1C15101080AE303E1C051350806E359
:10366000C36BC26B010EC16F360EC06F0ED000016E
:103670000301C76BC66B010EC56F360EC46FC36BFB
:10368000C26B010EC16F360EC06F0701806B7F6B7E
:10369000010E7E6F360E7D6F0001A1EC13F001501C
:1036A0007B080EE10301C36BC26B010EC16F360EC6
:1036B000C06FC76BC66B010EC56F360EC46F0001BD
:1036C0000401FA6BC00EF96F070EFB6F040EFD6F5D
:1036D000E50EFC6F0001CDEC15F0015217E0040E71
:1036E00007017E6FE50E7D6F0001C2EC14F002C091
:1036F00033F501C032F541EC16F003C0CBF302C044
:10370000CAF301C0C9F300C0C8F307D00301CB6BF3
:10371000CA6BC96B800EC86F00010401FA6BC70E3B
:10372000F96F070EFB6F040EFD6FE50EFC6F0001D5
:10373000CDEC15F0015242E0040E07017E6FE50E5C
:103740007D6F0001C2EC14F002C033F501C032F508
:1037500041EC16F003C0CFF302C0CEF301C0CDF3AD
:1037600000C0CCF30501456B446B436B426BCFC388
:1037700049F5CEC348F5CDC347F5CCC346F50001A6
:1037800069EC16F01AE3CFC38FF7CEC38EF7CDC323
:103790008DF7CCC38CF70701936B926B800E916F02
:1037A0007F0E906F0001A6EC16F003C0CFF302C0AD
:1037B000CEF301C0CDF300C0CCF306D00301CF6B34
:1037C000CE6B800ECD6FCC6F00011BEF6CF009004B
:1037D000F5520DE0F6CF88F7F7CF89F7F550A4A89A
:1037E000FED7736E88C7F6FF89C7F7FFF0D71200C0
:1037F0009290899092928992960E0701F86F00013B
:103800008DEC12F0929089800E0E0401F86FFA0E82
:103810000701F86F00018DEC12F00401F82FF7D7C3
:10382000929089900301D583D095140E0401F86F0E
:10383000FA0E0701F86F00018DEC12F00401F82F69
:10384000F7D79290899092928992960E0701F86F1D
:1038500000018DEC12F0929089800A0E0401F86F3D
:10386000DC0E0701F86F00018DEC12F00401F82F57
:10387000F7D7929089900301D59300011200A4AA72
:10388000FED771CF16F074CF01F016A202D0719856
:1038900071881200F9C703F00701F8C7E9FFF9C7FB
:1038A000EAFFEF523EE0F9C7FDF7F8C7FCF7FBC7A8
:1038B000FFF7FAC7FEF7FFC703F0FEC7E9FFFFC730
:1038C000EAFFEF521BE0FCC7E9FFFDC7EAFFEFCFBD
:1038D00000F8FFC703F0FEC7E9FFFFC7EAFFEF509C
:1038E0000801005DD8B402D0070108D00701FC2B05
:1038F000D8B4FD2BFE2BD8B4FF2BDDD7FFC703F0C8
:10390000FEC7E9FF03C0EAFFEF5205E1F8C701F087
:10391000F9C702F009D0F82BD8B4F92B0001BAD7B7
:103920000701000E016E026E00011200040E070175
:10393000F95F0AE3070EEA6EF90EE96EEF5004E054
:1039400001D00400EF2EFDD70001120007018F6B9C
:103950008E6BF691F76B8F518D5D68E303E18C51AF
:103960008E5D64E2A4AA4DD0F751F72B036A920F43
:10397000E96E070E0320EA6EEACFFBF7E9CFFAF70C
:1039800000017DDFFBC7EAFFFAC7E9FF01C0EFFFD7
:103990000400010E006E002EFED700D00000036A66
:1039A0000701F751920FE96E070E0320EA6EEF6AE6
:1039B0000400010E006E002EFED700D00000070E9E
:1039C000F96F920EF86F8BC7FBF78AC7FAF7000101
:1039D00061DF02C091F701C090F70701905191118A
:1039E00010E00400010E006E002EFED700D0000093
:1039F000F6810400010E006E002EFED700D00000FC
:103A000015D00400020EF86FF80EF96F00018EDF7A
:103A10000701F82FF9D78E2BD8B48F2B0400010E95
:103A2000006E002EFED700D0000095D7050EF86F6F
:103A300000018DEC12F0000E0701F6B1010E016ECF
:103A400000011200270E0401F96F100EF86FFA6BD7
:103A5000FC91580EF66E1F0EF76E0001B8DE0401E1
:103A6000F9C403F0F851D8B4F907F807031048E097
:103A7000A4AA45D0000103DF01C0FBF4040000D07C
:103A800000000401FCB112D0FB512B080FE1FA51E8
:103A9000FA2B036AFD0FE96E040E0320EA6EFBC4E5
:103AA000EFFF040000D00000FC810CD0FCA10AD084
:103AB000FA51FA2B036AFD0FE96E040E0320EA6E39
:103AC000FBC4EFFF040000D00000FA510A080FE128
:103AD000050105512C08D8B402D0040108D0040017
:103AE00000D0000006C501F00ED008D00401FA5144
:103AF0000A0805E1300E016E050105D00401B0D7BA
:103B0000300E016E050100011200A4A8FED7736EED
:103B100012003BC53DF53AC53CF505013D51010894
:103B200024E303E13C51350820E30701806B7F6B00
:103B30003DC57EF73CC57DF70001A1EC13F001C047
:103B40003EF5040000D0000005013E510D0802E1E1
:103B50000CD007D03E510001D8DF040000D0000097
:103B600005013C2BD8B43D2BD9D70001120004012C
:103B7000E56BE76BE66BE6510F0873E1E75371E124
:103B80007086220E756E000E766EA60E726E900E08
:103B9000716E020EF86FFA0E0701F86F00018DECDE
:103BA00012F00401F82FF7D70A0EF66E220EF76E08
:103BB00000010DDE080E0401F86FFA0E0701F86F20
:103BC00000018DEC12F00401F82FF7D7100EF66EFD
:103BD000220EF76E0001FBDD080E0401F86FFA0EED
:103BE0000701F86F00018DEC12F00401F82FF7D7F0
:103BF000180EF66E220EF76E0001E9DD080E0401C4
:103C0000F86FFA0E0701F86F00018DEC12F0040155
:103C1000F82FF7D7260EF66E220EF76E0001D7DDCD
:103C2000080E0401F86FFA0E0701F86F00018DEC21
:103C300012F00401F82FF7D77086A00E756E010EF2
:103C4000766EA60E726E900E716E080EF86FFA0EFA
:103C50000701F86F00018DEC12F00401F82FF7D77F
:103C60002BD0E75303E1E651640826E2E76BE66BED
:103C70000001BEDD080E0401F86FFA0E0701F86FAF
:103C800000018DEC12F00401F82FF7D7080EF86F41
:103C9000FA0E0701F86F00018DEC12F00401F82F05
:103CA000F7D7080EF86FFA0E0701F86F00018DECD8
:103CB00012F00401F82FF7D72E0EF66E220EF76ED3
:103CC000000185DD0D0E0401E86F0A0EE96F4F0E4D
:103CD000EA6F4B0EEB6FEC6B040E07018B6FE80E77
:103CE0008A6F070E8D6FD00E8C6F00012FDE015092
:103CF0000401E5270A0E0701F86F00018DEC12F0B0
:103D00000401E62BD8B4E72BE553D8B434D7E76BDE
:103D1000E66B0A0E0701F86F00018DEC12F092DEDF
:103D200001C0D1F30A0E0701F86F00018DEC12F00B
:103D30000301D151310803E0D151350802E1D585A5
:103D400004D0D595000E016E58D20701806B7F6BB1
:103D50007E6B7D690001A1EC13F001506908D8B4B5
:103D600091D1050E0701F86F00018DEC12F0300EB5
:103D70009A6F9B6F9C6F9D6F0701876B866B856B3E
:103D8000A00E846F300E886F000118EC14F0050E41
:103D90000701F86F00018DEC12F00701876B866B4D
:103DA000856BA10E846F300E886F000118EC14F043
:103DB000050E0701F86F00018DEC12F00701876B0B
:103DC000866B856BA20E846F300E886F000118EC35
:103DD00014F0050E0701F86F00018DEC12F00701D9
:103DE000876B866B856BA30E846F300E886F000126
:103DF00018EC14F0050E0701F86F00018DEC12F0BD
:103E00000401E56B340EF66E220EF76E0001DFDC66
:103E10000D0E0401ED6F0A0EEE6F4F0EEF6F4B0E9D
:103E2000F06FF16B040E07018B6FED0E8A6F130EAE
:103E30008D6F880E8C6F000189DD01500401E5272C
:103E4000C80E0701F86F00018DEC12F03A0EF66E05
:103E5000220EF76EBCDC0D0E0401ED6F0A0EEE6F44
:103E60004F0EEF6F4B0EF06FF16B040E07018B6F6F
:103E7000ED0E8A6F130E8D6F880E8C6F000166DD5C
:103E800001500401E527C80E0701F86F00018DEC11
:103E900012F0440EF66E220EF76E99DC0D0E040140
:103EA000ED6F0A0EEE6F4F0EEF6F4B0EF06FF16B72
:103EB000040E07018B6FED0E8A6F130E8D6F880E47
:103EC0008C6F000143DD01500401E527C80E070196
:103ED000F86F00018DEC12F0520EF66E220EF76EA6
:103EE00076DC0D0E0401ED6F0A0EEE6F4F0EEF6FD4
:103EF0004B0EF06FF16B040E07018B6FED0E8A6FA6
:103F0000130E8D6F880E8C6F000120DD01500401AF
:103F1000E527C80E0701F86F00018DEC12F05E0E68
:103F2000F66E220EF76E53DC0D0E0401ED6F0A0ED5
:103F3000EE6F4F0EEF6F4B0EF06FF16B040E07013B
:103F40008B6FED0E8A6F130E8D6F880E8C6F0001D4
:103F5000FDDC01500401E527C80E0701F86F0001E0
:103F60008DEC12F06A0EF66E220EF76E30DC0D0E3E
:103F70000401ED6F0A0EEE6F4F0EEF6F4B0EF06FF8
:103F8000F16B040E07018B6FED0E8A6F130E8D6FB0
:103F9000880E8C6F0001DADC01500401E527C80EA1
:103FA0000701F86F00018DEC12F0720EF66E220E12
:103FB000F76E0DDC0D0E0401ED6F0A0EEE6F4F0E65
:103FC000EF6F4B0EF06FF16B040E07018B6FED0E70
:103FD0008A6F130E8D6F880E8C6F0001B7DC015055
:103FE0000401E527C80E0701F86F00018DEC12F0FF
:103FF0000401E55107082FE0E62BD8B4E72BE7537F
:1040000003E1E651320827E2E76BE66B0001F8ECCA
:104010001BF0080E0401F86FFA0E0701F86F00019B
:104020008DEC12F00401F82FF7D7080EF86FFA0E96
:104030000701F86F00018DEC12F00401F82FF7D79B
:10404000080EF86FFA0E0701F86F00018DEC12F000
:104050000401F82FF7D7E5510708D8A4D2D6010EEE
:104060000301D66F0701876B866B856B8469690EC8
:10407000886F000118EC14F0050E0701F86F0001BD
:104080008DEC12F0800EF66E220EF76EE7EC1BF050
:10409000520E0401F26F450EF36F410EF46F440EA1
:1040A000F56F590EF66FF76B040E07018B6FF20E6A
:1040B0008A6F130E8D6F880E8C6F000147DC01C074
:1040C000E5F4C80E0701F86F00018DEC12F007014E
:1040D000806B7F6B7E6BFC0E7D6F0001A1EC13F09B
:1040E00001502A0877E10401E52D01D002D000013A
:1040F00071D0050E0701F86F00018DEC12F003017D
:10410000BC8F050E0701F86F00018DEC12F0010164
:10411000B28B050E0701F86F00018DEC12F08C0ECA
:10412000F66E220EF76EE7EC1BF005013B6B500EAE
:104130003A6F0001EEDC9C0EF66E220EF76EE7EC95
:104140001BF00D0E0401F26F0A0EF36F4F0EF46FA9
:104150004B0EF56FF66B040E07018B6FF20E8A6F34
:10416000130E8D6F880E8C6F0001A6EC1CF00150B1
:104170000401E527C80E0701F86F00018DEC12F06D
:104180000401E551020827E1A80EF66E220EF76E33
:104190000001E7EC1BF00D0E0401F26F0A0EF36F45
:1041A0004F0EF46F4B0EF56FF66B040E07018B6F1D
:1041B000F20E8A6F130E8D6F880E8C6F0001A6ECC5
:1041C0001CF001500401E527C80E0701F86F00013B
:1041D0008DEC12F00401E551030806E10301D083E0
:1041E000020ED66F03D004010301D093050E070120
:1041F000F86F00018DEC12F00301000112000701BD
:10420000835302E1845342E07FC7E9FF80C7EAFF9E
:10421000EFCF85F782C703F081C7E9FF82C7EAFFC6
:10422000EF50855D17E080C703F07FC7E9FF03C04B
:10423000EAFFEFCF85F782C703F081C7E9FF82C7A6
:10424000EAFFEF50855D02E2FF0E01D0010E016E24
:104250001FD00BD080C703F07FC7E9FF80C7EAFFFC
:10426000EF5203E1000E016E13D080C703F07F51BF
:104270007F2BD8B4802B82C703F08151812BD8B417
:10428000822B8351D8B484078307BAD7000E016EFE
:1042900000011200040000D0000007019D6B9D5139
:1042A0001D081CE3036A9D517D25E96E7E510320A4
:1042B000EA6EEF503A0810E19D2B036A9D517D256F
:1042C000E96E7E510320EA6EEF50200801E19D2B3C
:1042D000040000D0000002D09D2BE1D79DC79EF7BF
:1042E000036A9E517D25E96E7E510320EA6EEF52EE
:1042F0001DE09D519E5D036A7F0F016E070E032234
:1043000003C0A0F7036A9E517D25E96E7E5103200C
:10431000EA6EEFCFA1F7A0C7EAFF01C0E9FFA1C78E
:10432000EFFF040000D000009E2BDAD79D519E5D68
:10433000036A7F0FE96E070E0320EA6EEF6A04003E
:1043400000D000007EC7EAFF7DC7E9FF070EE26EDE
:104350007F0EE16EE752E6CFEEFFFCE1040000D0F5
:104360000000000112000501496B486B4B6B4C6B60
:10437000B60EF66E220EF76E0001E7EC1BF005019B
:1043800049511308D8A07FD004E148518708D8A02C
:104390007AD0482BD8B4492BA4AA68D000013FECAE
:1043A0001CF001C04AF50400010E006E002EFED77D
:1043B00000D0000005014A512B080BE14B6B010EA8
:1043C0004C6F0400010E006E002EFED700D00000DE
:1043D00007D04A510D0804E14C51020801E153D0C5
:1043E0004C5344E04B514B2B036AE40FE96E040E2F
:1043F0000320EA6E4AC5EFFF0400010E006E002E96
:10440000FED700D00000036A4B51E40FE96E040EA2
:104410000320EA6EEF6A0400010E006E002EFED744
:1044200000D000004B51050821E12B0E4D6F430ECB
:104430004E6F470E4F6F530E506F4E0E516F526BB3
:10444000040E0701806FE40E7F6F050E826F4D0E24
:10445000816F846B050E836F0001D1DE0152D8B4E9
:1044600002D0050103D0020E05014C6F04000D0EB1
:10447000536F2D0E0701F96F000196EC1CF005013A
:10448000532FF7D77DD7040E07017E6FE40E7D6FA3
:10449000000100DF010E0701F86F00018DEC12F042
:1044A000EA6AE40EE96E040EE26EE40EE16EE75293
:1044B000E6CFEEFFFCE1010E0701F86F00018DEC85
:1044C00012F0050E0701F86F00018DEC12F039EFC4
:1044D0006CF00601236B0701516B506B060122C67D
:1044E00003F02151D8B422072107031045E0A4AA04
:1044F0003AD000013FEC1CF001C052F7070151C750
:1045000003F05051502BD8B4512B536F240E532528
:10451000E96E060E0320EA6E52C7EFFF040000D0DA
:104520000000240E5025E96E060E5121EA6EEF6A56
:10453000040000D00000060123530AE10701525194
:104540004F08D8B402D0060103D00601232B0BD0AC
:10455000232D09D0070152514B08D8B402D00601CF
:1045600002D0060109D0010E0701F86F00018DECA1
:1045700012F00701B3D70601240E016E060E026E7B
:1045800000011200ECC3EAFFEBC3E9FF07018AC791
:10459000EFFFE92AD8B4EA2AEF6A0301EB2BD8B47B
:1045A000EC2B00011200EF520FE0EACF7EF7E9CFCB
:1045B0007DF7EFCF8AF7E6DF7EC7EAFF7DC7E9FF29
:1045C000E92AD8B4EA2AEFD7120022C624F621C677
:1045D00023F624C603F0060123C6E9FF24C6EAFF3A
:1045E000EF5206E0232BD8B4242B0001F2D70601AA
:1045F0002151235D006E22512459036E00C001F049
:10460000000112000900F6CF7EF7F7CF7FF7F550D3
:10461000A4A8FED7736E7EC7F6FF7FC7F7FF07011A
:104620007D2F01D002D00001EDD70001120007015B
:104630007FC7E9FF80C7EAFFEFCF83F782C703F0A8
:1046400081C7E9FF82C7EAFFEF50835D15E180C7AC
:1046500003F07FC7E9FF03C0EAFFEF5203E1000E5A
:10466000016E1FD080C703F07F517F2BD8B4802B01
:10467000812BD8B4822BDCD780C703F07FC7E9FF3A
:1046800080C7EAFFEFCF83F782C703F081C7E9FF56
:1046900082C7EAFFEF50835D02E2FF0E01D0010EF8
:1046A000016E0001120088C78CF787C78BF78CC793
:1046B00003F007018BC7E9FF8CC7EAFFEF5230E038
:1046C0008AC78EF789C78DF78EC703F08DC7E9FFBC
:1046D0008EC7EAFFEF520AE187518B5D006E885169
:1046E0008C59036E00C001F023D010D08BC7E9FFB6
:1046F0008CC7EAFFEFCF8FF78EC703F08DC7E9FFB6
:104700008EC7EAFFEF508F5D01E104D08D2BD8B446
:104710008E2BDAD78B2BD8B48C2B0001C8D707018E
:1047200087518B5D006E88518C59036E00C001F07B
:104730000001F0EF23F088C78CF787C78BF78CC791
:1047400003F007018BC7E9FF8CC7EAFFEF522AE0AD
:104750008AC78EF789C78DF78EC703F08DC7E9FF2B
:104760008EC7EAFFEF5218E08BC7E9FF8CC7EAFF5C
:10477000EFCF8FF78EC703F08DC7E9FF8EC7EAFF33
:10478000EF508F5D05E18BC701F08CC702F00DD0B3
:104790008D2BD8B48E2BE0D78B2BD8B48C2B00016B
:1047A000CED70701000E016E026E000111EF24F05A
:1047B00007017F51801104E080C703F07F5103D0CF
:1047C00018C003F01750836F03C084F784C788F7BD
:1047D00083C787F782C78AF781C789F7000163D744
:1047E000015007018327000E842384C703F083C789
:1047F000E9FF84C7EAFFEF520AE117C0E9FF18C0DA
:10480000EAFF200EEF6E000E016E026E27D084C705
:1048100088F783C787F782C78AF781C789F70001BE
:104820008AD702C086F701C085F786C703F0070163
:1048300085C7E9FF86C7EAFFEF5208E085C7E9FFB1
:1048400086C7EAFFEF6A852BD8B4862B86C718F097
:1048500085C717F083C701F084C702F0000112007A
:104860007EC782F77DC781F780C703F007017FC746
:10487000E9FF80C7EAFFEF522CE08251000806E210
:10488000FF0A03E18151350801E223D080C703F01C
:104890007F517F2BD8B4802BE96E03C0EAFFEFCFA6
:1048A00083F7876B866B82C785F781C784F783C7D9
:1048B00088F7000118EC14F0050E0701F86F0001ED
:1048C0008DEC12F00701812BD8B4822B0001CCD7DC
:1048D000070180C703F07FC7E9FF80C7EAFFEF52F7
:1048E00012E1876B866B82C785F781C784F70D0E4F
:1048F000886F000118EC14F0050E0701F86F000135
:104900008DEC12F0070100011200EF5210E0EACF27
:1049100089F7E9CF88F7EF50A4A8FED7736E89C74F
:10492000EAFF88C7E9FFE92AD8B4EA2AEED71200DD
:104930001A0E0701846F360EF66E200EF76E000118
:10494000E7EC1BF04F0E0701856F4B0E866F876BF0
:10495000070E8B6F850E8A6F270E8D6F100E8C6F72
:104960000001A6EC1CF00701839101B08381020EC7
:10497000886FFA0EF86F00018DEC12F00701882F96
:10498000F8D7420EF66E200EF76E0001E7EC1BF032
:104990004F0E0701856F4B0E866F876B070E8B6F6F
:1049A000850E8A6F270E8D6F100E8C6F0001A6EC9E
:1049B0001CF00701839101B08381020E886FFA0E0B
:1049C000F86F00018DEC12F00701882FF8D7520E16
:1049D000F66E200EF76E0001E7EC1BF080C7EAFFD1
:1049E0007FC7E9FF92DF0D0EA4A8FED7736E0A0EF3
:1049F000A4A8FED7736E3E0E0701856F866B070E67
:104A00008B6F850E8A6F270E8D6F100E8C6F0001D5
:104A1000A6EC1CF00701839101B08381320EF86F80
:104A200000018DEC12F082C7EAFF81C7E9FF6DDF5C
:104A300007018451A4A8FED7736E4F0E856F4B0EED
:104A4000866F876B070E8B6F850E8A6F270E8D6FB3
:104A5000100E8C6F0001A6EC1CF00701839101B0D1
:104A60008381320EF86F00018DEC12F01200070105
:104A70007D5318E09290899092928992960EF86FE9
:104A800000018DEC12F0929089800E0E07017E6F6E
:104A9000FA0EF86F00018DEC12F007017E2FF8D7A7
:104AA000929089900301D583D095D66B00011200B6
:104AB0000900F6CF7EF7F7CF7FF7F5CF8AF762DDF3
:104AC0007EC7F6FF7FC7F7FF07017D2F01D002D019
:104AD0000001EED70001120007018451016A835DD5
:104AE00003E283C700F00CD0006A080E856F83379D
:104AF00000368451005CD8B0006E0136852FF7D7A0
:104B000000011200200E07017EA9300E7F6F7DC7C5
:104B100000F07DAF08D0001E002A00C07DF72D0EEA
:104B20007F6F7E8F7E8101507DC783F7640E846F17
:104B30000001D2DF00C07DF7300E01240701806F35
:104B40007DC783F70A0E846F0001C6DF300E002494
:104B50000701826F300E0124816F7FC700F0300E95
:104B6000805D04E07E837EBF7E8512D07FC780F7A4
:104B7000200E7F6F300E815D04E07E817EBF7E83DC
:104B800007D0D8A47E8104E180C781F7200E806F12
:104B90007EB505D07EB307D07EB109D00CD07FC7DB
:104BA0008AF70001EFDC80C78AF70001EBDC81C7E0
:104BB0008AF70001E7DC82C78AF70001E3DC120014
:104BC00007018A51B6088A6F036A8BC78EF78B8FED
:104BD000D8908B338C338D33033202320132003262
:104BE0008A2FF6D78EAF0BD0001E011E021E031EA9
:104BF000002AD8B4012AD8B4022AD8B4032A000162
:104C00001200D8B204D0070EEA6E920EE96E006A66
:104C1000016A026A036A0701926B936B946B956B4E
:104C2000915190118F118E112CE0200E966FD8901B
:104C30008A378B378C378D37923793379437953740
:104C40009151955D08E19051945D05E18F51935D1F
:104C500002E18E51925D0FE38E51925F8F51D8A089
:104C60008F3D935F9051D8A0903D945F9151D8A013
:104C7000913D955FD8800036013602360336962F77
:104C8000D6D792C7EFFF93C7ECFF94C7ECFF95C749
:104C9000ECFF00011200E9500701826F8151846F1F
:104CA0001CE080C78FF77FC78EF77EC78DF77DC763
:104CB0008CF7936B926B200E916F820E906F0001B8
:104CC000A6EC16F003C080F702C07FF701C07EF7A4
:104CD00000C07DF70701842FE4D780C78DF77FC719
:104CE0008CF77EC78BF77DC78AF7000169DF03C0A9
:104CF00080F702C07FF701C07EF700C07DF7070193
:104D000080AF0DD08207828B7D1F7E1F7F1F801F8B
:104D10007D2BD8B47E2BD8B47F2BD8B4802B3B0E00
:104D2000896F9A0E886FCA0E876F866B0A0E846F22
:104D30008151D8B4822BD882070EEA6E7D0EE96EBF
:104D400080C78DF77FC78CF77EC78BF77DC78AF743
:104D500089C791F788C790F787C78FF786C78EF7FF
:104D600000014FDF0150005213E107018129845DEA
:104D7000D8A402D000010CD082510DE00F0B845D4D
:104D800001E044E282BF42D082BD05D0200E37D080
:104D9000200E0701821782AB0FD0829B8151D8A4CD
:104DA00082070050826F2D0E8A6F0001C2EC22F044
:104DB00007018251006E826B8151845D0DE10050CC
:104DC000826F2E0E8A6F0001C2EC22F00701825121
:104DD000006E200E8217000E300E82AB10D0829B28
:104DE0008151D8A482070050826F2D0E8A6F000176
:104DF000C2EC22F007018251006E826B300E002659
:104E000000C08AF70001C2EC22F00701D89289C7DE
:104E10008DF788C78CF787C78BF786C78AF7916BA2
:104E2000906B8F6B0A0E8E6F0001EBDE03C089F76B
:104E300002C088F701C087F700C086F70701842FFA
:104E40007AD700011200EACF85F7E9CF84F707018E
:104E50007EAF08D0848F84A9842B7D1F7E1F7D2B7D
:104E6000D8B47E2B7E39F009806F8027E20F816FE6
:104E7000320F836F7E510F0B812781278327E90F24
:104E8000826F822782277D390F0B82278327823703
:104E90008337831F83377D510F0B83278037070E9E
:104EA0007F6F0A0E82078327FDE381078227FDE3D8
:104EB00080078127FDE37F078027FDE3070EEA6E69
:104EC0007F0EE96E070E8415849DED52841507E16F
:104ED00084B9EE5284B903D0200E006E21D0E926A9
:104EE000000EEA22E950830804E1EA50070801E1D4
:104EF000848DEF50006E08E184BD06D084B91ED0C9
:104F000084B702D0200E0BD084AF06D02D0E006ED9
:104F1000ED50849D849F04D084878499300E0026B0
:104F2000EACF7EF7E9CF7DF700C08AF70001C2EC37
:104F300022F07EC7EAFF7DC7E9FF0701EE5084AD8E
:104F4000D1D70001D9EF38F08E0E006E91C701F075
:104F500090C702F0036A015209E102C001F0026A3F
:104F6000080E005E015202E1006A08D0D89001BE2E
:104F700004D0023601360006F9D7019E120007015F
:104F80009051D8B4A5D09C6F9451D8B4A1D09C5F57
:104F900005E37F0E9C27D8B09BD006D0810E9C5F86
:104FA000D8A096D0D8B494D09CC700F0016A026A09
:104FB000036A9B6B91C79AF79A8F92C799F793C729
:104FC00098F7190E9C6F9751985F0DE2010E995F4B
:104FD0000AE29A5F08E29B5F06E29B2B9A2B992BD1
:104FE0009751982728D09651995F12E2010E9A5F47
:104FF0000FE29B5F0DE29B2B9A2B965199279751BD
:10500000982719E3992B17E19A2B15E19B2B13D0C5
:10501000955180099A5F0EE2010E9B5F0BE29B2B7C
:10502000955180099A2796519927E9E39A2BE7E150
:105030009B2BE5D703809C2F01D00BD0D8909837BD
:1050400099379A379B37D8900336023601369D3709
:10505000BAD79DA106D0D8900132023203329D33D7
:1050600002D0000635E09DBF1ED0D8909837993702
:105070009A379B379751985F07E2010E995F04E2D8
:105080009A5F02E29B5F1AE39651995F05E2010E77
:105090009A5F02E29B5F12E3955180099A5F03E2F7
:1050A000010E9B5F0BE3032A09E1022A07E1012AB3
:1050B00005E1002A0DE001320232033291C79CF76C
:1050C00095519C1B9CAF02D0018E06D0019E04D04E
:1050D000006A016A026A036A00011200800ED8A207
:1050E00002D00701951B07019A6B9B6B91C799F73B
:1050F0009551991B9051D8B4DFD0986F006E9451A0
:10510000D8B4E3D0985FD8B483D03EE395C79EF778
:105110009E8F96C79DF797C79CF79B6BD8909E3341
:105120009D339C339B33982FF8D799AF03D09A8146
:10513000E0D09A9198919A89070EEA6E930EE96EE3
:10514000EBD09A9999BF0AD098A113D09E339D3382
:105150009C339B33002AD8B4C7D00BD09EBF0CD051
:10516000D8909B379C379D379E370006D8B4BCD06B
:10517000F5D79A8D6DD09A9D91C799F791AF02D0CE
:105180009E8FABD09E9FA9D094C798F794C700F08C
:105190009051985F91C79EF79E8F92C79DF793C7D6
:1051A0009CF79B6BD8909E339D339C339B33982FF9
:1051B000F8D799AF03D09A839CD09A9398919A8B01
:1051C000070EEA6E970EE96EA7D09A9B99BF0AD098
:1051D00098A113D09E339D339C339B33002AD8B4BF
:1051E00083D00BD09EBF0CD0D8909B379C379D3777
:1051F0009E370006D8B478D0F5D79A8F29D09A9FD9
:1052000095C799F795AF02D09E8F67D09E9F65D0C6
:1052100095C79EF79E8F96C79DF797C79CF799AF46
:1052200004D09E9F9A8565D09A959B6B9891070EA6
:10523000EA6E930EE96E70D099BF1CD091C799F7B2
:1052400098A106D09E339D339C339B33002A4CE0BB
:105250009BAF0BD09C2B09E19D2B07E19E2B05E119
:105260009E339D339C33002A3FE09ABD84D79ABF7A
:10527000C6D71CD0800E9E1B9EAF04D03AD095C7D7
:1052800099F70AD091C799F79E5306E19D5304E11F
:105290009C5302E1006A21D09EBF08D0D8909B3772
:1052A0009C379D379E37002EF7D71ED099AF02D07E
:1052B0009E8F13D09E9F11D094C700F095C79EF784
:1052C00096C79DF797C79CF708D090C700F091C785
:1052D0009EF792C79DF793C79CF79EC701F09DC7A5
:1052E00002F09CC703F034D0006A016A026A036AC4
:1052F0002FD09B6B9C1F9D1F9E1F9B1F9B2B05E10F
:105300009C2B03E19D2B01E19E2B9AB112D79AB3FE
:1053100054D79AB589D7B3D7EF509C2705E39D2B77
:1053200003E19E2BD8B49881ED52EF509D2703E303
:105330009E2BD8B49881ED52EF50EFBE01D0800A79
:105340009E27D8B098819AB9FCD69ABB3ED774D71D
:10535000000112000701846B836B826B7F0E816FEB
:10536000886B876B866B856B8981899389958B6B3D
:105370007D517E1105E1006A016A026A036A12D159
:105380008B518B2B036A7D25E96E7E510320EA6EDB
:10539000EFCF8AF78A53D8B4C7D089A10FD08A51EA
:1053A00020080CE089918A512B0803E18993AFD042
:1053B00005D08A512D0802E18983A9D089B107D08F
:1053C0008A512E0804E189B502D08985A0D089B11F
:1053D0009BD08A512F08D8B097D08A513908D8A0CD
:1053E00093D0300E8A5F89A554D084C78FF783C7C6
:1053F0008EF782C78DF781C78CF7936B926B200E67
:10540000916F820E906F0001A6EC16F003C084F736
:1054100002C083F701C082F700C081F70701916BDA
:105420008AC790F7000190DD03C08FF702C08EF7A6
:1054300001C08DF700C08CF703C093F702C092F74C
:1054400001C091F700C090F784C797F783C796F71C
:1054500082C795F781C794F792DDD89288C793F7F2
:1054600087C792F786C791F785C790F703C097F76C
:1054700002C096F701C095F700C094F72FDE03C075
:1054800088F702C087F701C086F700C085F73AD0D9
:1054900007018F6B8E6B200E8D6F820E8C6F88C70D
:1054A00093F787C792F786C791F785C790F70001F2
:1054B000A6EC16F003C08FF702C08EF701C08DF77F
:1054C00000C08CF70701916B8AC790F700013CDDA3
:1054D000D8928FC793F78EC792F78DC791F78CC775
:1054E00090F703C097F702C096F701C095F700C088
:1054F00094F7F4DD03C088F702C087F701C086F790
:1055000000C085F705D0070189B101D00DD0000199
:1055100007018B518B2B036A7D25E96E7E51032099
:10552000EA6EEFCF8AF736D789A31AD08F6B8E6BCE
:10553000800E8D6F7F0E8C6F88C793F787C792F7A9
:1055400086C791F785C790F70001A6EC16F003C057
:1055500088F702C087F701C086F700C085F707010A
:105560007F51801117E08B530CE08B077FC7E9FF59
:1055700080C7EAFF8B517D25EF6E000E7E21EC6E19
:1055800009D07FC7E9FF80C7EAFF7EC7ECFFED5275
:105590007DC7EFFF85C700F086C701F087C702F01F
:1055A00088C703F000011200060E0301E16F060137
:1055B000236B276B0701536B526B270E556F100E31
:1055C000546F5C0EF66E200EF76E080E7D6F0001B4
:1055D00002EC23F006012251A4A8FED7736E0D0E33
:1055E000A4A8FED7736E0A0EA4A8FED7736E070197
:1055F00055C703F05451D8B4550754070310D8B415
:10560000DBD0A4AAD1D000013FEC1CF001C024F6ED
:10561000040000D000000601272D0DD024512C08D5
:105620000AE02851282B036A410FE96E070E032078
:10563000EA6E24C6EFFF2351020818E124512C081A
:1056400015E1275304E1010E276F286B0FD0272D9A
:105650000DD0020E276F036A2851410FE96E070E25
:105660000320EA6EEF6A040000D0000023530CE12F
:1056700024512B0809E1010E236F0701536B526B74
:10568000040000D00000060124510D0809E1235157
:10569000030806E1040000D0000007018DD00601D8
:1056A000232D01D003D02351020825E1070153C760
:1056B00003F05251522BD8B4532B7D6F290E7D2508
:1056C000E96E060E0320EA6E24C6EFFF040000D048
:1056D0000000290E5225E96E060E5321EA6EEF6A8C
:1056E000040000D00000535303E152517F0801E24F
:1056F00063D027D006012351030824E1070153C7D3
:1057000003F05251522BD8B4532B7D6FDD0E7D2503
:10571000E96E060E0320EA6E24C6EFFF040000D0F7
:105720000000DD0E5225E96E060E5321EA6EEF6A87
:10573000040000D00000535303E15251630801E21A
:105740003BD0060124510A0809E12351020806E171
:105750000701536B526B030E0601236F232D22D0DA
:105760002B0E0701566F430E576F4D0E586F470EA5
:10577000596F520E5A6F5B6B060E806F290E7F6F4A
:10578000070E826F560E816F846B050E836F0001CA
:10579000FFEC20F0015207E1020E0601236F040026
:1057A00000D0000000010701010EF86F00018DEC30
:1057B00012F006011CD70701070EEA6E5C0EE96EB7
:1057C000F2CF7DF7F29E100E016EF76A000E000117
:1057D000DEEC09F00A000900F5CFEEFF012EFBD741
:1057E00007017DBFF28E070E806F410E7F6F070E9F
:1057F000826F5C0E816F000117EC23F001520FE005
:10580000070E0701806F410E7F6F826BB00E816FB4
:10581000000117EC23F00152D8A4D7EF3BF00601AA
:10582000DD512308D8A457D10701726B230E5C6F9A
:105830005D6B060E806FDD0E7F6F070E826F5C0E54
:10584000816F0001D8EC23F002C071F701C070F73E
:10585000070170517111D8B495D07251000A00013E
:1058600011E0010A1BE0030A25E0010A2FE0070A04
:1058700039E0010A43E0030A4DE0010A57E00F0A4C
:1058800061E06CD007017E6B120E7D6F71C780F7EF
:1058900070C77FF7000130EC24F060D007017E6B09
:1058A000160E7D6F71C780F770C77FF7000130EC6F
:1058B00024F054D007017E6B1A0E7D6F71C780F7FC
:1058C00070C77FF7000130EC24F048D007017E6BF1
:1058D000200E7D6F71C780F770C77FF7000130EC35
:1058E00024F03CD007017E6B500E7D6F71C780F7AE
:1058F00070C77FF7000130EC24F030D007017E6BD9
:10590000300E7D6F71C780F770C77FF7000130ECF4
:1059100024F024D007017E6B700E7D6F71C780F775
:1059200070C77FF7000130EC24F018D007017E6BC0
:10593000800E7D6F71C780F770C77FF7000130EC74
:1059400024F00CD007017E6B900E7D6F71C780F73D
:1059500070C77FF7000130EC24F000D00701722BF4
:10596000230E5C6F5D6B806B7F6B070E826F5C0E2E
:10597000816F0001D8EC23F002C071F701C070F70D
:1059800067D70701876B866B856B8469886900011F
:1059900018EC14F0050E0701F86F00018DEC12F001
:1059A0000701876B866B856BF00E846F690E886FBD
:1059B000000118EC14F0050E0701F86F00018DECE2
:1059C00012F00701876B866B856BF10E846F2A0ED0
:1059D000886F000118EC14F0050E0701F86F000144
:1059E0008DEC12F00701876B866B856BFC0E846F64
:1059F0002A0E886F000118EC14F0050E0701F86FED
:105A000000018DEC12F00701876B866B856BFB0E36
:105A1000846F2A0E886F000118EC14F0050E070140
:105A2000F86F00018DEC12F00701876B866B856BB8
:105A3000FE0E846F690E886F000118EC14F0020EE0
:105A400007017D6FFA0EF86F00018DEC12F007016F
:105A50007D2FF8D7070EEA6E5C0EE96EF2CF7DF768
:105A6000F29E0F0E016EF76A000E0001F3EC09F0D2
:105A70000A000900F5CFEEFF012EFBD707017DBF1D
:105A8000F28E070E806F410E7F6F070E826F5C0EE5
:105A9000816F000198EC24F0040E07017D6FFA0E6F
:105AA000F86F00018DEC12F007017D2FF8D7010E81
:105AB0007D6F000137EC25F0040E07017D6FFA0EB3
:105AC000F86F00018DEC12F007017D2FF8D7FF0071
:105AD000D4EF3BF00601DD512408D8A4AFD0070174
:105AE000756B240E5C6F5D6B060E806FDD0E7F6F35
:105AF000070E826F5C0E816F0001D8EC23F002C0AC
:105B000074F701C073F70701735174115DE07551AB
:105B1000000A000107E0010A1CE0030A27E0010A6D
:105B200032E03ED007017E6BD10E7D6F74C780F7E7
:105B300073C77FF7000130EC24F0EA6A7C0EE96E4F
:105B400074C7E2FF73C7E1FFE752E6CFEEFFFCE167
:105B500027D0010E07017E6F040E7D6F74C780F79A
:105B600073C77FF7000130EC24F01AD0010E070153
:105B70007E6F140E7D6F74C780F773C77FF70001C7
:105B800030EC24F00DD0010E07017E6F240E7D6FE6
:105B900074C780F773C77FF7000130EC24F000D0A2
:105BA0000701752B240E5C6F5D6B806B7F6B070E9E
:105BB000826F5C0E816F0001D8EC23F002C074F795
:105BC00001C073F7A0D70701050EF86F00018DEC37
:105BD00012F00701876B866B856BF20E846F2A0EBD
:105BE000886F000118EC14F0050E0701F86F000132
:105BF0008DEC12F0070EEA6E5C0EE96EF2CF7DF7C7
:105C0000F29E0C0E016EF76A000E08EC0AF00A0014
:105C10000900F5CFEEFF012EFBD707017DBFF28E05
:105C2000070E806F410E7F6F070E826F5C0E816FD3
:105C3000000198EC24F0D4EF3BF00601070EEA6E69
:105C40005C0EE96EF2CF7DF7F29E080E016EF76AE8
:105C5000000E00011BEC0AF00A000900F5CFEEFF70
:105C6000012EFBD707017DBFF28E060E806FDD0E81
:105C70007F6F070E826F5C0E816F846B070E836FE0
:105C80000001FFEC20F001526DE1060E07017E6F6E
:105C9000DD0E7D6F00014AEC21F007017E6B500E96
:105CA0007D6F060E806FDD0E7F6F000130EC24F0FB
:105CB0000701876B866B856BFC0E846F2A0E886FDD
:105CC000000118EC14F0050E0701F86F00018DECCF
:105CD00012F00701876B866B856B8469886B000106
:105CE00018EC14F0050E0701F86F00018DEC12F0AE
:105CF000EA6A400EE96E060EE26EDD0EE16EE752D4
:105D0000E6CFEEFFFCE1050E0701F86F00018DEC18
:105D100012F0060E0301EC6F290EEB6F6A0EF66EA1
:105D2000200EF76E080E07017D6F000158EC25F07C
:105D3000060EEA6EDD0EE96ED3EC22F0050E0701C9
:105D4000F86F00018DEC12F0070E0701806F410E15
:105D50007F6F060E826F290E816F000198EC24F090
:105D6000D4EF3BF0070EEA6E5C0EE96EF2CF7DF7E2
:105D7000F29E070E016EF76A000E2CEC0AF00A0084
:105D80000900F5CFEEFF012EFBD707017DBFF28E94
:105D9000060E806FDD0E7F6F070E826F5C0E816FC7
:105DA000846B060E836F0001FFEC20F001526DE161
:105DB000060E07017E6FDD0E7D6F00014AEC21F0BB
:105DC00007017E6B200E7D6F060E806FDD0E7F6FEC
:105DD000000130EC24F00701876B866B856BFB0EAE
:105DE000846F2A0E886F000118EC14F0050E07016D
:105DF000F86F00018DEC12F00701876B866B856BE5
:105E00008469886B000118EC14F0050E0701F86F27
:105E100000018DEC12F0EA6A310EE96E060EE26EB8
:105E2000DD0EE16EE752E6CFEEFFFCE1050E070165
:105E3000F86F00018DEC12F0060E0301EC6F290ED5
:105E4000EB6F760EF66E200EF76E070E07017D6F74
:105E5000000158EC25F0060EEA6EDD0EE96ED3EC7B
:105E600022F0050E0701F86F00018DEC12F0070E0D
:105E70000701806F410E7F6F060E826F290E816FC2
:105E8000000198EC24F0D4EF3BF0730E07015C6F37
:105E9000650E5D6F740E5E6F690E5F6F700E606FE2
:105EA000616B060E806FDD0E7F6F070E826F5C0EDA
:105EB000816F846B050E836F0001FFEC20F00152AF
:105EC000D8A4F5D007017A6B070EEA6E5C0EE96E76
:105ED000F2CF7DF7F29E080E016EF76A000E000108
:105EE0003DEC0AF00A000900F5CFEEFF012EFBD7CA
:105EF00007017DBFF28E060E806FDD0E7F6F070EED
:105F0000826F5C0E816F846B060E836F0001FFEC65
:105F100020F001520BE10701776B300E766F796B41
:105F2000F10E786F010E7A6F30D00001070EEA6E25
:105F30005C0EE96EF2CF7DF7F29E080E016EF76AF5
:105F4000000E4EEC0AF00A000900F5CFEEFF012E1C
:105F5000FBD707017DBFF28E060E806FDD0E7F6FCF
:105F6000070E826F5C0E816F846B070E836F0001DA
:105F7000FFEC20F001520AE10701776BD10E766F3A
:105F8000796BF20E786F020E7A6F0001060E070130
:105F90007E6FDD0E7D6F00014AEC21F077C77EF742
:105FA00076C77DF7060E0701806FDD0E7F6F00015B
:105FB00030EC24F00701876B866B79C785F778C7CB
:105FC00084F72A0E886F000118EC14F0050E070103
:105FD000F86F00018DEC12F00701876B866B856B03
:105FE0008469886B000118EC14F0050E0701F86F46
:105FF00000018DEC12F007017A2D0CD0EA6A5E0EDA
:10600000E96E060EE26EDD0EE16EE752E6CFEEFFC0
:10601000FCE10BD0EA6A7C0EE96E060EE26EDD0E44
:10602000E16EE752E6CFEEFFFCE1050EF86F0001EE
:106030008DEC12F0060E0301EC6F290EEB6F690E6A
:1060400007018A6F0001C2EC22F0700E07018A6F0F
:106050000001C2EC22F07AC77DF7180E07017E6FAF
:10606000000182EC25F0840EF66E200EF76E050E10
:1060700007017D6F000158EC25F0060EEA6EDD0E7B
:10608000E96ED3EC22F0050E0701F86F00018DECEC
:1060900012F0070E0701806F410E7F6F060E826FB0
:1060A000290E816F000198EC24F0D4EF3BF0070E2D
:1060B000EA6E5C0EE96EF2CF7DF7F29E070E016E7E
:1060C000F76A000E5FEC0AF00A000900F5CFEEFF58
:1060D000012EFBD707017DBFF28E060E806FDD0E0D
:1060E0007F6F070E826F5C0E816F846B060E836F6D
:1060F0000001FFEC20F001520CE10701876B866B79
:10610000856BF20E846F886B000118EC14F0D4EFED
:106110003BF0070EEA6E5C0EE96EF2CF7DF7F29E61
:10612000090E016EF76A000E70EC0AF00A00090011
:10613000F5CFEEFF012EFBD707017DBFF28E060ED5
:10614000806FDD0E7F6F070E826F5C0E816F846B38
:10615000080E836F0001FFEC20F0015259E1060E9A
:1061600007017E6FDD0E7D6F00014AEC21F0070113
:106170007E6B1A0E7D6F060E806FDD0E7F6F000145
:1061800030EC24F0EA6AC90EE96E060EE26EDD0E0E
:10619000E16EE752E6CFEEFFFCE1060E07017E6FEF
:1061A000DD0E7D6F0001C2EC14F002C0FFF001C0F3
:1061B000FEF0010E0701F86F00018DEC12F0060EE3
:1061C0000301EC6F290EEB6F8C0EF66E200EF76E4E
:1061D0000A0E07017D6F000158EC25F0060EEA6EED
:1061E000DD0EE96ED3EC22F0050E0701F86F000119
:1061F0008DEC12F0070E0701806F410E7F6F060EC7
:10620000826F290E816F000198EC24F0D4EF3BF0EF
:10621000070EEA6E5C0EE96EF2CF7DF7F29E090E74
:10622000016EF76A000E82EC0AF00A000900F5CF51
:10623000EEFF012EFBD707017DBFF28E060E806FA9
:10624000DD0E7F6F070E826F5C0E816F846B080E10
:10625000836F0001FFEC20F00152D8A476D0060E27
:1062600007017E6FDD0E7D6F00014AEC21F0070112
:106270007E6B160E7D6F060E806FDD0E7F6F000148
:1062800030EC24F0EA6AC50EE96E060EE26EDD0E11
:10629000E16EE752E6CFEEFFFCE1060E07017E6FEE
:1062A000DD0E7D6F0001C2EC14F002C001F101C0EF
:1062B00000F10101015303E10051090805E2015316
:1062C00003E100511E0803E2016B0F0E006F01C1D4
:1062D0007EF700C17DF70701806B3C0E7F6F0001E8
:1062E000BCEC15F002C003F101C002F1010E070180
:1062F000F86F00018DEC12F0060E0301EC6F290E11
:10630000EB6F9A0EF66E200EF76E0A0E07017D6F88
:10631000000158EC25F0060EEA6EDD0EE96ED3ECB6
:1063200022F0050E0701F86F00018DEC12F0070E48
:106330000701806F410E7F6F060E826F290E816FFD
:10634000000198EC24F0D4EF3BF0070EEA6E5C0EEF
:10635000E96EF2CF7DF7F29E090E016EF76A000E2C
:1063600094EC0AF00A000900F5CFEEFF012EFBD7EE
:1063700007017DBFF28E060E806FDD0E7F6F070E68
:10638000826F5C0E816F846B080E836F0001FFECDF
:1063900020F0015259E1060E07017E6FDD0E7D6F80
:1063A00000014AEC21F007017E6BA40E7D6F060E02
:1063B000806FDD0E7F6F000130EC24F0EA6ACD0EB5
:1063C000E96E060EE26EDD0EE16EE752E6CFEEFFFD
:1063D000FCE1060E07017E6FDD0E7D6F0001C2EC51
:1063E00014F002C0E5F301C0E4F3010E0701F86FF9
:1063F00000018DEC12F0060E0301EC6F290EEB6F1D
:10640000A80EF66E200EF76E0D0E07017D6F0001CF
:1064100058EC25F0060EEA6EDD0EE96ED3EC22F0A4
:10642000050E0701F86F00018DEC12F0070E070151
:10643000806F410E7F6F060E826F290E816F000103
:1064400098EC24F0D4EF3BF0070EEA6E5C0EE96E98
:10645000F2CF7DF7F29E070E016EF76A000EA6ECF2
:106460000AF00A000900F5CFEEFF012EFBD7070165
:106470007DBFF28E060E806FDD0E7F6F070E826F7E
:106480005C0E816F846B060E836F0001FFEC20F0C1
:10649000015238E10701876B866B856B846B8869D5
:1064A000000118EC14F0050E0701F86F00018DECE7
:1064B00012F0070EEA6E5C0EE96EF2CF7DF7F29EE7
:1064C0000D0E016EF76A000EB7EC0AF00A00090023
:1064D000F5CFEEFF012EFBD707017DBFF28E070E31
:1064E000806F410E7F6F070E826F5C0E816F00011F
:1064F00098EC24F0050E0701F86F00018DEC12F006
:10650000D4EF3BF0070EEA6E5C0EE96EF2CF7DF73A
:10651000F29E0A0E016EF76A000ECBEC0AF00A003A
:106520000900F5CFEEFF012EFBD707017DBFF28EEC
:10653000060E806FDD0E7F6F070E826F5C0E816F1F
:10654000846B090E836F0001FFEC20F0015259E1CA
:10655000060E07017E6FDD0E7D6F00014AEC21F013
:1065600007017E6B120E7D6F060E806FDD0E7F6F52
:10657000000130EC24F0EA6AC10EE96E060EE26E0C
:10658000DD0EE16EE752E6CFEEFFFCE1060E0701FD
:106590007E6FDD0E7D6F0001C2EC14F002C0FBF0D7
:1065A00001C0FAF0010E0701F86F00018DEC12F046
:1065B000060E0301EC6F290EEB6FB80EF66E200E7F
:1065C000F76E0A0E07017D6F000158EC25F0060EEC
:1065D000EA6EDD0EE96ED3EC22F0050E0701F86FCE
:1065E00000018DEC12F0070E0701806F410E7F6FE6
:1065F000060E826F290E816F000198EC24F0D4EF13
:106600003BF0070EEA6E5C0EE96EF2CF7DF7F29E6C
:10661000080E016EF76A000EDDEC0AF00A000900B0
:10662000F5CFEEFF012EFBD707017DBFF28E060EE0
:10663000806FDD0E7F6F070E826F5C0E816F846B43
:10664000070E836F0001FFEC20F00152D8A48BD01D
:106650000601E453D8A402D0000185D0E753D8A4A2
:1066600002D0000180D0E853D8B402D000017BD022
:10667000E4C69AF00701876B866B856BA00E846F6A
:10668000E4C688F7000118EC14F0050E0701F86F56
:1066900000018DEC12F0E5C69BF00701876B866B5D
:1066A000856BA00E846FE5C688F7000118EC14F026
:1066B000050E0701F86F00018DEC12F0E6C69CF0A4
:1066C0000701876B866B856BA00E846FE6C688F723
:1066D000000118EC14F0050E0701F86F00018DECB5
:1066E00012F0E7C69DF00701876B866B856BA00EE5
:1066F000846FE7C688F7000118EC14F09E6B050E56
:106700000701F86F00018DEC12F0060E0301EC6F2B
:10671000290EEB6FC60EF66E200EF76E0F0E0701F8
:106720007D6F000158EC25F0EA6A9A0EE96ED3EC11
:1067300022F0050E0701F86F00018DEC12F0070E34
:106740000701806F410E7F6F060E826F290E816FE9
:10675000000198EC24F0050E0701F86F00018DECA4
:1067600012F0D4EF3BF04C0E07015C6F6F0E5D6FC3
:10677000630E5E6F5F6B060E806FDD0E7F6F070E20
:10678000826F5C0E816F846B030E836F0001FFECE0
:1067900020F0015257E1060E0301EC6F290EEB6F5A
:1067A000D80EF66E200EF76E1E0E07017D6F0001EB
:1067B00058EC25F01CC18AF7C2EC22F0890EE96E74
:1067C00075C180F774C17FF773C17EF772C17DF721
:1067D000060E0701816F00014BEC26F02C0E07011D
:1067E0008A6F0001C2EC22F032C18AF7C2EC22F0BB
:1067F000890EE96E79C180F778C17FF777C17EF79E
:1068000076C17DF7060E0701816F00014BEC26F083
:10681000050E0701F86F00018DEC12F0070E07015D
:10682000806F410E7F6F060E826F290E816F00010F
:1068300098EC24F0050E0701F86F00018DEC12F0C2
:10684000D4EF3BF0070EEA6E5C0EE96EF2CF7DF7F7
:10685000F29E090E016EF76A000EEEEC0AF00A00D5
:106860000900F5CFEEFF012EFBD707017DBFF28EA9
:10687000060E806FDD0E7F6F070E826F5C0E816FDC
:10688000846B080E836F0001FFEC20F0015230E1B1
:106890000301D251350815E1590E07015C6F650EF1
:1068A0005D6F730E5E6F5F6B070E806F410E7F6FC3
:1068B000070E826F5C0E816F000198EC24F015D0FA
:1068C0000301D251310812E14E0E07015C6F6F0EC9
:1068D0005D6F5E6B070E806F410E7F6F070E826FDC
:1068E0005C0E816F000198EC24F00301D6EF3BF0C1
:1068F000520E07015C6F730E5D6F740E5E6F5F6BFF
:10690000060E806FDD0E7F6F070E826F5C0E816F4B
:10691000846B030E836F0001FFEC20F0015240E115
:10692000070EEA6E5C0EE96EF2CF7DF7F29E0A0E5C
:10693000016EF76A000E00EC0BF00A000900F5CFBB
:10694000EEFF012EFBD707017DBFF28E070E806F91
:10695000410E7F6F070E826F5C0E816F000198EC15
:1069600024F0040E07017D6FFA0EF86F00018DEC24
:1069700012F007017D2FF8D7010E7D6F000137EC73
:1069800025F0040E07017D6FFA0EF86F00018DEC03
:1069900012F007017D2FF8D7FF00D4EF3BF0000184
:1069A000070EEA6E5C0EE96EF2CF7DF7F29E070EDF
:1069B000016EF76A000E12EC0BF00A000900F5CF29
:1069C000EEFF012EFBD707017DBFF28E060E806F12
:1069D000DD0E7F6F070E826F5C0E816F846B060E7B
:1069E000836F0001FFEC20F00152D8A466D1060E9F
:1069F00007017E6FDD0E7D6F00014AEC21F0010181
:106A00009D6B9E6B410E07015C6F750E5D6F740E82
:106A10005E6F6F0E5F6F606B060E806FDD0E7F6FB7
:106A2000070E826F5C0E816F846B040E836F000112
:106A3000FFEC20F001523AE101019C9B0701876BBA
:106A4000866B856BCE0E846F8869000118EC14F09C
:106A5000010E0701F86F00018DEC12F0070EEA6ECF
:106A60005C0EE96EF2CF7DF7F29E0C0E016EF76AB6
:106A7000000E23EC0BF00A000900F5CFEEFF012E0B
:106A8000FBD707017DBFF28E070E806F410E7F6F2F
:106A9000070E826F5C0E816F000198EC24F0010EEE
:106AA0000701F86F00018DEC12F005D10601DD51F0
